{
  "contractName": "Bet",
  "abi": [
    {
      "constant": true,
      "inputs": [],
      "name": "pool",
      "outputs": [
        {
          "name": "",
          "type": "uint256"
        }
      ],
      "payable": false,
      "stateMutability": "view",
      "type": "function"
    },
    {
      "constant": true,
      "inputs": [],
      "name": "remainingPayoutPool",
      "outputs": [
        {
          "name": "",
          "type": "uint256"
        }
      ],
      "payable": false,
      "stateMutability": "view",
      "type": "function"
    },
    {
      "constant": true,
      "inputs": [],
      "name": "status",
      "outputs": [
        {
          "name": "",
          "type": "uint8"
        }
      ],
      "payable": false,
      "stateMutability": "view",
      "type": "function"
    },
    {
      "constant": true,
      "inputs": [],
      "name": "goalsP1",
      "outputs": [
        {
          "name": "",
          "type": "uint256"
        }
      ],
      "payable": false,
      "stateMutability": "view",
      "type": "function"
    },
    {
      "constant": true,
      "inputs": [],
      "name": "matchFinished",
      "outputs": [
        {
          "name": "",
          "type": "bool"
        }
      ],
      "payable": false,
      "stateMutability": "view",
      "type": "function"
    },
    {
      "constant": true,
      "inputs": [],
      "name": "matchContext",
      "outputs": [
        {
          "name": "",
          "type": "string"
        }
      ],
      "payable": false,
      "stateMutability": "view",
      "type": "function"
    },
    {
      "constant": true,
      "inputs": [],
      "name": "total",
      "outputs": [
        {
          "name": "",
          "type": "uint256"
        }
      ],
      "payable": false,
      "stateMutability": "view",
      "type": "function"
    },
    {
      "constant": true,
      "inputs": [],
      "name": "timeMatchEnds",
      "outputs": [
        {
          "name": "",
          "type": "uint256"
        }
      ],
      "payable": false,
      "stateMutability": "view",
      "type": "function"
    },
    {
      "constant": true,
      "inputs": [
        {
          "name": "",
          "type": "address"
        }
      ],
      "name": "betsPlayer2",
      "outputs": [
        {
          "name": "",
          "type": "uint256"
        }
      ],
      "payable": false,
      "stateMutability": "view",
      "type": "function"
    },
    {
      "constant": true,
      "inputs": [],
      "name": "ownerCalledConfirmFunction",
      "outputs": [
        {
          "name": "",
          "type": "bool"
        }
      ],
      "payable": false,
      "stateMutability": "view",
      "type": "function"
    },
    {
      "constant": true,
      "inputs": [],
      "name": "payoutPool",
      "outputs": [
        {
          "name": "",
          "type": "uint256"
        }
      ],
      "payable": false,
      "stateMutability": "view",
      "type": "function"
    },
    {
      "constant": true,
      "inputs": [],
      "name": "totalPlayer2",
      "outputs": [
        {
          "name": "",
          "type": "uint256"
        }
      ],
      "payable": false,
      "stateMutability": "view",
      "type": "function"
    },
    {
      "constant": true,
      "inputs": [],
      "name": "timeSuggestConfirmEnds",
      "outputs": [
        {
          "name": "",
          "type": "uint256"
        }
      ],
      "payable": false,
      "stateMutability": "view",
      "type": "function"
    },
    {
      "constant": true,
      "inputs": [],
      "name": "numBetsPlayer1",
      "outputs": [
        {
          "name": "",
          "type": "uint256"
        }
      ],
      "payable": false,
      "stateMutability": "view",
      "type": "function"
    },
    {
      "constant": true,
      "inputs": [],
      "name": "totalPlayer1",
      "outputs": [
        {
          "name": "",
          "type": "uint256"
        }
      ],
      "payable": false,
      "stateMutability": "view",
      "type": "function"
    },
    {
      "constant": true,
      "inputs": [],
      "name": "winnerConfirmed",
      "outputs": [
        {
          "name": "",
          "type": "bool"
        }
      ],
      "payable": false,
      "stateMutability": "view",
      "type": "function"
    },
    {
      "constant": true,
      "inputs": [],
      "name": "goalsP1Fetched",
      "outputs": [
        {
          "name": "",
          "type": "bool"
        }
      ],
      "payable": false,
      "stateMutability": "view",
      "type": "function"
    },
    {
      "constant": true,
      "inputs": [],
      "name": "p2",
      "outputs": [
        {
          "name": "",
          "type": "string"
        }
      ],
      "payable": false,
      "stateMutability": "view",
      "type": "function"
    },
    {
      "constant": true,
      "inputs": [],
      "name": "timeClaimsExpire",
      "outputs": [
        {
          "name": "",
          "type": "uint256"
        }
      ],
      "payable": false,
      "stateMutability": "view",
      "type": "function"
    },
    {
      "constant": true,
      "inputs": [],
      "name": "isGroupPhase",
      "outputs": [
        {
          "name": "",
          "type": "bool"
        }
      ],
      "payable": false,
      "stateMutability": "view",
      "type": "function"
    },
    {
      "constant": true,
      "inputs": [],
      "name": "queryGoalsP1",
      "outputs": [
        {
          "name": "",
          "type": "bytes32"
        }
      ],
      "payable": false,
      "stateMutability": "view",
      "type": "function"
    },
    {
      "constant": true,
      "inputs": [],
      "name": "owner",
      "outputs": [
        {
          "name": "",
          "type": "address"
        }
      ],
      "payable": false,
      "stateMutability": "view",
      "type": "function"
    },
    {
      "constant": true,
      "inputs": [],
      "name": "timeBettingOpens",
      "outputs": [
        {
          "name": "",
          "type": "uint256"
        }
      ],
      "payable": false,
      "stateMutability": "view",
      "type": "function"
    },
    {
      "constant": true,
      "inputs": [],
      "name": "matchId",
      "outputs": [
        {
          "name": "",
          "type": "uint256"
        }
      ],
      "payable": false,
      "stateMutability": "view",
      "type": "function"
    },
    {
      "constant": true,
      "inputs": [],
      "name": "numBetsPlayer2",
      "outputs": [
        {
          "name": "",
          "type": "uint256"
        }
      ],
      "payable": false,
      "stateMutability": "view",
      "type": "function"
    },
    {
      "constant": true,
      "inputs": [],
      "name": "queryGoalsP2",
      "outputs": [
        {
          "name": "",
          "type": "bytes32"
        }
      ],
      "payable": false,
      "stateMutability": "view",
      "type": "function"
    },
    {
      "constant": true,
      "inputs": [],
      "name": "fetchFund",
      "outputs": [
        {
          "name": "",
          "type": "uint256"
        }
      ],
      "payable": false,
      "stateMutability": "view",
      "type": "function"
    },
    {
      "constant": true,
      "inputs": [],
      "name": "goalsP2Fetched",
      "outputs": [
        {
          "name": "",
          "type": "bool"
        }
      ],
      "payable": false,
      "stateMutability": "view",
      "type": "function"
    },
    {
      "constant": true,
      "inputs": [],
      "name": "apiMatchId",
      "outputs": [
        {
          "name": "",
          "type": "string"
        }
      ],
      "payable": false,
      "stateMutability": "view",
      "type": "function"
    },
    {
      "constant": true,
      "inputs": [],
      "name": "p1",
      "outputs": [
        {
          "name": "",
          "type": "string"
        }
      ],
      "payable": false,
      "stateMutability": "view",
      "type": "function"
    },
    {
      "constant": true,
      "inputs": [],
      "name": "queryStatus",
      "outputs": [
        {
          "name": "",
          "type": "bytes32"
        }
      ],
      "payable": false,
      "stateMutability": "view",
      "type": "function"
    },
    {
      "constant": true,
      "inputs": [],
      "name": "timeFetchStarts",
      "outputs": [
        {
          "name": "",
          "type": "uint256"
        }
      ],
      "payable": false,
      "stateMutability": "view",
      "type": "function"
    },
    {
      "constant": true,
      "inputs": [],
      "name": "winnerSuggested",
      "outputs": [
        {
          "name": "",
          "type": "bool"
        }
      ],
      "payable": false,
      "stateMutability": "view",
      "type": "function"
    },
    {
      "constant": true,
      "inputs": [],
      "name": "fetchAttempt",
      "outputs": [
        {
          "name": "",
          "type": "uint256"
        }
      ],
      "payable": false,
      "stateMutability": "view",
      "type": "function"
    },
    {
      "constant": true,
      "inputs": [],
      "name": "isFetchingStarted",
      "outputs": [
        {
          "name": "",
          "type": "bool"
        }
      ],
      "payable": false,
      "stateMutability": "view",
      "type": "function"
    },
    {
      "constant": true,
      "inputs": [
        {
          "name": "",
          "type": "address"
        }
      ],
      "name": "betsPlayer1",
      "outputs": [
        {
          "name": "",
          "type": "uint256"
        }
      ],
      "payable": false,
      "stateMutability": "view",
      "type": "function"
    },
    {
      "constant": true,
      "inputs": [],
      "name": "winner",
      "outputs": [
        {
          "name": "",
          "type": "uint8"
        }
      ],
      "payable": false,
      "stateMutability": "view",
      "type": "function"
    },
    {
      "constant": true,
      "inputs": [],
      "name": "timeBettingCloses",
      "outputs": [
        {
          "name": "",
          "type": "uint256"
        }
      ],
      "payable": false,
      "stateMutability": "view",
      "type": "function"
    },
    {
      "constant": true,
      "inputs": [],
      "name": "fetchingPenaltyGoals",
      "outputs": [
        {
          "name": "",
          "type": "bool"
        }
      ],
      "payable": false,
      "stateMutability": "view",
      "type": "function"
    },
    {
      "constant": false,
      "inputs": [
        {
          "name": "newOwner",
          "type": "address"
        }
      ],
      "name": "transferOwnership",
      "outputs": [],
      "payable": false,
      "stateMutability": "nonpayable",
      "type": "function"
    },
    {
      "constant": true,
      "inputs": [],
      "name": "goalsP2",
      "outputs": [
        {
          "name": "",
          "type": "uint256"
        }
      ],
      "payable": false,
      "stateMutability": "view",
      "type": "function"
    },
    {
      "constant": true,
      "inputs": [],
      "name": "test",
      "outputs": [
        {
          "name": "",
          "type": "string"
        }
      ],
      "payable": false,
      "stateMutability": "view",
      "type": "function"
    },
    {
      "constant": true,
      "inputs": [],
      "name": "feeEarning",
      "outputs": [
        {
          "name": "",
          "type": "uint256"
        }
      ],
      "payable": false,
      "stateMutability": "view",
      "type": "function"
    },
    {
      "inputs": [
        {
          "name": "_matchId",
          "type": "uint256"
        },
        {
          "name": "_apiMatchId",
          "type": "string"
        },
        {
          "name": "_matchContext",
          "type": "string"
        },
        {
          "name": "_p1",
          "type": "string"
        },
        {
          "name": "_p2",
          "type": "string"
        },
        {
          "name": "_isGroupPhase",
          "type": "bool"
        },
        {
          "name": "_matchStart",
          "type": "uint256"
        },
        {
          "name": "_durationBetting",
          "type": "uint256"
        },
        {
          "name": "_durationSuggestConfirm",
          "type": "uint256"
        }
      ],
      "payable": true,
      "stateMutability": "payable",
      "type": "constructor"
    },
    {
      "payable": true,
      "stateMutability": "payable",
      "type": "fallback"
    },
    {
      "anonymous": false,
      "inputs": [
        {
          "indexed": false,
          "name": "balance",
          "type": "uint256"
        },
        {
          "indexed": false,
          "name": "fetchAttempt",
          "type": "uint256"
        },
        {
          "indexed": false,
          "name": "MAX_FETCH_ATTEMPTS",
          "type": "uint256"
        }
      ],
      "name": "FetchingFailed",
      "type": "event"
    },
    {
      "anonymous": false,
      "inputs": [
        {
          "indexed": false,
          "name": "winner",
          "type": "uint8"
        }
      ],
      "name": "WinnerSuggested",
      "type": "event"
    },
    {
      "anonymous": false,
      "inputs": [
        {
          "indexed": false,
          "name": "winner",
          "type": "uint8"
        }
      ],
      "name": "WinnerConfirmed",
      "type": "event"
    },
    {
      "anonymous": false,
      "inputs": [
        {
          "indexed": false,
          "name": "p1",
          "type": "string"
        },
        {
          "indexed": false,
          "name": "p2",
          "type": "string"
        }
      ],
      "name": "BettingCancelled",
      "type": "event"
    },
    {
      "anonymous": false,
      "inputs": [
        {
          "indexed": true,
          "name": "previousOwner",
          "type": "address"
        },
        {
          "indexed": true,
          "name": "newOwner",
          "type": "address"
        }
      ],
      "name": "OwnershipTransferred",
      "type": "event"
    },
    {
      "constant": false,
      "inputs": [],
      "name": "getMinOraclizeGasCost",
      "outputs": [
        {
          "name": "",
          "type": "uint256"
        }
      ],
      "payable": false,
      "stateMutability": "nonpayable",
      "type": "function"
    },
    {
      "constant": false,
      "inputs": [
        {
          "name": "_matchStart",
          "type": "uint256"
        },
        {
          "name": "_durationBetting",
          "type": "uint256"
        },
        {
          "name": "_durationSuggestConfirm",
          "type": "uint256"
        }
      ],
      "name": "_setTimes",
      "outputs": [],
      "payable": false,
      "stateMutability": "nonpayable",
      "type": "function"
    },
    {
      "constant": false,
      "inputs": [],
      "name": "betOnPlayer1",
      "outputs": [],
      "payable": true,
      "stateMutability": "payable",
      "type": "function"
    },
    {
      "constant": false,
      "inputs": [],
      "name": "betOnPlayer2",
      "outputs": [],
      "payable": true,
      "stateMutability": "payable",
      "type": "function"
    },
    {
      "constant": false,
      "inputs": [
        {
          "name": "myid",
          "type": "bytes32"
        },
        {
          "name": "result",
          "type": "string"
        },
        {
          "name": "proof",
          "type": "bytes"
        }
      ],
      "name": "__callback",
      "outputs": [],
      "payable": false,
      "stateMutability": "nonpayable",
      "type": "function"
    },
    {
      "constant": false,
      "inputs": [
        {
          "name": "myid",
          "type": "bytes32"
        },
        {
          "name": "response",
          "type": "string"
        }
      ],
      "name": "__callback",
      "outputs": [],
      "payable": false,
      "stateMutability": "nonpayable",
      "type": "function"
    },
    {
      "constant": false,
      "inputs": [
        {
          "name": "_winnerAsInt",
          "type": "uint256"
        }
      ],
      "name": "confirmWinner",
      "outputs": [],
      "payable": false,
      "stateMutability": "nonpayable",
      "type": "function"
    },
    {
      "constant": false,
      "inputs": [],
      "name": "cancel",
      "outputs": [],
      "payable": false,
      "stateMutability": "nonpayable",
      "type": "function"
    },
    {
      "constant": false,
      "inputs": [],
      "name": "updateStatus",
      "outputs": [],
      "payable": false,
      "stateMutability": "nonpayable",
      "type": "function"
    },
    {
      "constant": false,
      "inputs": [],
      "name": "claimWinOrDraw",
      "outputs": [],
      "payable": false,
      "stateMutability": "nonpayable",
      "type": "function"
    },
    {
      "constant": false,
      "inputs": [],
      "name": "claimRefund",
      "outputs": [],
      "payable": false,
      "stateMutability": "nonpayable",
      "type": "function"
    },
    {
      "constant": false,
      "inputs": [],
      "name": "claimExpired",
      "outputs": [],
      "payable": false,
      "stateMutability": "nonpayable",
      "type": "function"
    },
    {
      "constant": false,
      "inputs": [],
      "name": "fundFetching",
      "outputs": [],
      "payable": true,
      "stateMutability": "payable",
      "type": "function"
    },
    {
      "constant": true,
      "inputs": [],
      "name": "fundingNeeded",
      "outputs": [
        {
          "name": "",
          "type": "uint256"
        }
      ],
      "payable": false,
      "stateMutability": "view",
      "type": "function"
    },
    {
      "constant": false,
      "inputs": [
        {
          "name": "_extra",
          "type": "uint256"
        }
      ],
      "name": "increaseGasPriceBy",
      "outputs": [],
      "payable": false,
      "stateMutability": "nonpayable",
      "type": "function"
    }
  ],
  "bytecode": "0x60806040526001600560146101000a81548160ff021916908360018111156200002457fe5b0217905550640165a0bc006012556000601660006101000a81548160ff0219169083151502179055506000601660016101000a81548160ff0219169083151502179055506000601d60006101000a81548160ff0219169083151502179055506000601d60016101000a81548160ff0219169083151502179055506000601d60026101000a81548160ff0219169083151502179055506000601d60036101000a81548160ff0219169083151502179055506000601d60046101000a81548160ff0219169083151502179055506000601d60056101000a81548160ff021916908315150217905550604051620061d7380380620061d783398101806040528101908080519060200190929190805182019291906020018051820192919060200180518201929190602001805182019291906020018051906020019092919080519060200190929190805190602001909291908051906020019092919050505033600560006101000a81548173ffffffffffffffffffffffffffffffffffffffff021916908373ffffffffffffffffffffffffffffffffffffffff160217905550620001de60125462000370640100000000026401000000009004565b60405180807f46494e49534845440000000000000000000000000000000000000000000000008152506008019050604051809103902060178160001916905550346014819055508860068190555087600790805190602001906200024492919062000cbd565b5086600890805190602001906200025d92919062000cbd565b5085600990805190602001906200027692919062000cbd565b5084600a90805190602001906200028f92919062000cbd565b5083600b60006101000a81548160ff021916908315150217905550608060405190810160405280605981526020017f68747470733a2f2f7261772e67697468756275736572636f6e74656e742e636f81526020017f6d2f65746865726375702f65746865726375702e6769746875622e696f2f6d6181526020017f737465722f6261636b656e642f6170692f6c6976652e74787400000000000000815250601390805190602001906200034492919062000cbd565b5062000361838383620006e0640100000000026401000000009004565b50505050505050505062000d6c565b60008060009054906101000a900473ffffffffffffffffffffffffffffffffffffffff1673ffffffffffffffffffffffffffffffffffffffff161480620003f157506000620003ef6000809054906101000a900473ffffffffffffffffffffffffffffffffffffffff166200073c640100000000026401000000009004565b145b15620004145762000412600062000747640100000000026401000000009004565b505b6000809054906101000a900473ffffffffffffffffffffffffffffffffffffffff1673ffffffffffffffffffffffffffffffffffffffff166338cc48316040518163ffffffff167c0100000000000000000000000000000000000000000000000000000000028152600401602060405180830381600087803b1580156200049a57600080fd5b505af1158015620004af573d6000803e3d6000fd5b505050506040513d6020811015620004c657600080fd5b810190808051906020019092919050505073ffffffffffffffffffffffffffffffffffffffff16600160009054906101000a900473ffffffffffffffffffffffffffffffffffffffff1673ffffffffffffffffffffffffffffffffffffffff1614151562000632576000809054906101000a900473ffffffffffffffffffffffffffffffffffffffff1673ffffffffffffffffffffffffffffffffffffffff166338cc48316040518163ffffffff167c0100000000000000000000000000000000000000000000000000000000028152600401602060405180830381600087803b158015620005b457600080fd5b505af1158015620005c9573d6000803e3d6000fd5b505050506040513d6020811015620005e057600080fd5b8101908080519060200190929190505050600160006101000a81548173ffffffffffffffffffffffffffffffffffffffff021916908373ffffffffffffffffffffffffffffffffffffffff1602179055505b600160009054906101000a900473ffffffffffffffffffffffffffffffffffffffff1673ffffffffffffffffffffffffffffffffffffffff1663ca6ad1e4826040518263ffffffff167c010000000000000000000000000000000000000000000000000000000002815260040180828152602001915050600060405180830381600087803b158015620006c457600080fd5b505af1158015620006d9573d6000803e3d6000fd5b5050505050565b610e108110151515620006f257600080fd5b6103848303600d81905550818303600c8190555061189c600d5401600e81905550610708600e5401600f819055508083016010819055506249d40060105401601181905550505050565b6000813b9050919050565b60008062000778731d3b2638a7cc9f2cb3d298a3da7a90b67e5506ed6200073c640100000000026401000000009004565b11156200082c57731d3b2638a7cc9f2cb3d298a3da7a90b67e5506ed6000806101000a81548173ffffffffffffffffffffffffffffffffffffffff021916908373ffffffffffffffffffffffffffffffffffffffff160217905550620008226040805190810160405280600b81526020017f6574685f6d61696e6e657400000000000000000000000000000000000000000081525062000ca1640100000000026401000000009004565b6001905062000c9c565b60006200085c73c03a2615d5efaf5f49f60b7bb6583eaec212fdf16200073c640100000000026401000000009004565b1115620009105773c03a2615d5efaf5f49f60b7bb6583eaec212fdf16000806101000a81548173ffffffffffffffffffffffffffffffffffffffff021916908373ffffffffffffffffffffffffffffffffffffffff160217905550620009066040805190810160405280600c81526020017f6574685f726f707374656e33000000000000000000000000000000000000000081525062000ca1640100000000026401000000009004565b6001905062000c9c565b60006200094073b7a07bcf2ba2f2703b24c0691b5278999c59ac7e6200073c640100000000026401000000009004565b1115620009f45773b7a07bcf2ba2f2703b24c0691b5278999c59ac7e6000806101000a81548173ffffffffffffffffffffffffffffffffffffffff021916908373ffffffffffffffffffffffffffffffffffffffff160217905550620009ea6040805190810160405280600981526020017f6574685f6b6f76616e000000000000000000000000000000000000000000000081525062000ca1640100000000026401000000009004565b6001905062000c9c565b600062000a2473146500cfd35b22e4a392fe0adc06de1a1368ed486200073c640100000000026401000000009004565b111562000ad85773146500cfd35b22e4a392fe0adc06de1a1368ed486000806101000a81548173ffffffffffffffffffffffffffffffffffffffff021916908373ffffffffffffffffffffffffffffffffffffffff16021790555062000ace6040805190810160405280600b81526020017f6574685f72696e6b65627900000000000000000000000000000000000000000081525062000ca1640100000000026401000000009004565b6001905062000c9c565b600062000b08736f485c8bf6fc43ea212e93bbf8ce046c7f1cb4756200073c640100000000026401000000009004565b111562000b6d57736f485c8bf6fc43ea212e93bbf8ce046c7f1cb4756000806101000a81548173ffffffffffffffffffffffffffffffffffffffff021916908373ffffffffffffffffffffffffffffffffffffffff1602179055506001905062000c9c565b600062000b9d7320e12a1f859b3feae5fb2a0a32c18f5a65555bbf6200073c640100000000026401000000009004565b111562000c02577320e12a1f859b3feae5fb2a0a32c18f5a65555bbf6000806101000a81548173ffffffffffffffffffffffffffffffffffffffff021916908373ffffffffffffffffffffffffffffffffffffffff1602179055506001905062000c9c565b600062000c327351efaf4c8b3c9afbd5ab9f4bbc82784ab6ef8faa6200073c640100000000026401000000009004565b111562000c97577351efaf4c8b3c9afbd5ab9f4bbc82784ab6ef8faa6000806101000a81548173ffffffffffffffffffffffffffffffffffffffff021916908373ffffffffffffffffffffffffffffffffffffffff1602179055506001905062000c9c565b600090505b919050565b806002908051906020019062000cb992919062000cbd565b5050565b828054600181600116156101000203166002900490600052602060002090601f016020900481019282601f1062000d0057805160ff191683800117855562000d31565b8280016001018555821562000d31579182015b8281111562000d3057825182559160200191906001019062000d13565b5b50905062000d40919062000d44565b5090565b62000d6991905b8082111562000d6557600081600090555060010162000d4b565b5090565b90565b61545b8062000d7c6000396000f3006080604052600436106102b4576000357c0100000000000000000000000000000000000000000000000000000000900463ffffffff16806316f0115b146102b95780631d2a1c6f146102e45780631d35489b146102ee578063200d2ed214610319578063205dd50314610352578063215995881461037d57806327dc297e146103ac5780632a91efe7146104235780632ddbd13a146104b357806338bbfa50146104de578063465f80c81461059b57806346ac2054146105c65780634af415351461061d5780634f4d4bf0146106275780635f60f485146106565780636273106a1461066d57806365080a901461069857806365522a2a146106c55780637299551f146106f25780637583dc651461071d57806377313b501461075e5780637d99dd78146107895780637e670b54146107b45780637f7634ba146107df57806380e8c5861461080e57806381d01ed31461083d578063833c3890146108cd57806385e4fee3146108f85780638655286d146109275780638da5cb5b1461095a578063934b495b146109b157806399892e47146109dc578063a5c93cae14610a07578063abb98c6114610a32578063adcafb6a14610a65578063af1197a414610a90578063b5545a3c14610abf578063be666fce14610ad6578063c1eec35514610b01578063c2a2747b14610b91578063c3bf930e14610c21578063c590b60914610c54578063c75fd34114610c7f578063cd58a17114610c96578063cd6011cd14610cc5578063ce55671414610cf0578063d061eaac14610d1b578063d2ff19af14610d4a578063d430e3d714610da1578063d80a600614610db8578063dfbf53ae14610dc2578063e41d9cb714610dfb578063e43ea77214610e26578063ea8a1af014610e55578063f2fde38b14610e6c578063f634eafd14610eaf578063f8a8fd6d14610eda578063f8fa35bc14610f6a575b600080fd5b3480156102c557600080fd5b506102ce610f95565b6040518082815260200191505060405180910390f35b6102ec610f9b565b005b3480156102fa57600080fd5b50610303611115565b6040518082815260200191505060405180910390f35b34801561032557600080fd5b5061032e61111b565b6040518082600181111561033e57fe5b60ff16815260200191505060405180910390f35b34801561035e57600080fd5b5061036761112e565b6040518082815260200191505060405180910390f35b34801561038957600080fd5b50610392611134565b604051808215151515815260200191505060405180910390f35b3480156103b857600080fd5b506104216004803603810190808035600019169060200190929190803590602001908201803590602001908080601f0160208091040260200160405190810160405280939291908181526020018383808284378201915050505050509192919290505050611147565b005b34801561042f57600080fd5b5061043861122b565b6040518080602001828103825283818151815260200191508051906020019080838360005b8381101561047857808201518184015260208101905061045d565b50505050905090810190601f1680156104a55780820380516001836020036101000a031916815260200191505b509250505060405180910390f35b3480156104bf57600080fd5b506104c86112c9565b6040518082815260200191505060405180910390f35b3480156104ea57600080fd5b506105996004803603810190808035600019169060200190929190803590602001908201803590602001908080601f0160208091040260200160405190810160405280939291908181526020018383808284378201915050505050509192919290803590602001908201803590602001908080601f01602080910402602001604051908101604052809392919081815260200183838082843782019150505050505091929192905050506112cf565b005b3480156105a757600080fd5b506105b06112d4565b6040518082815260200191505060405180910390f35b3480156105d257600080fd5b50610607600480360381019080803573ffffffffffffffffffffffffffffffffffffffff1690602001909291905050506112da565b6040518082815260200191505060405180910390f35b6106256112f2565b005b34801561063357600080fd5b5061063c6114ab565b604051808215151515815260200191505060405180910390f35b34801561066257600080fd5b5061066b6114be565b005b34801561067957600080fd5b506106826115d6565b6040518082815260200191505060405180910390f35b3480156106a457600080fd5b506106c3600480360381019080803590602001909291905050506115dc565b005b3480156106d157600080fd5b506106f060048036038101908080359060200190929190505050611916565b005b3480156106fe57600080fd5b50610707611990565b6040518082815260200191505060405180910390f35b34801561072957600080fd5b5061075c600480360381019080803590602001909291908035906020019092919080359060200190929190505050611996565b005b34801561076a57600080fd5b506107736119f1565b6040518082815260200191505060405180910390f35b34801561079557600080fd5b5061079e6119f7565b6040518082815260200191505060405180910390f35b3480156107c057600080fd5b506107c96119fd565b6040518082815260200191505060405180910390f35b3480156107eb57600080fd5b506107f4611a03565b604051808215151515815260200191505060405180910390f35b34801561081a57600080fd5b50610823611a16565b604051808215151515815260200191505060405180910390f35b34801561084957600080fd5b50610852611a29565b6040518080602001828103825283818151815260200191508051906020019080838360005b83811015610892578082015181840152602081019050610877565b50505050905090810190601f1680156108bf5780820380516001836020036101000a031916815260200191505b509250505060405180910390f35b3480156108d957600080fd5b506108e2611ac7565b6040518082815260200191505060405180910390f35b34801561090457600080fd5b5061090d611acd565b604051808215151515815260200191505060405180910390f35b34801561093357600080fd5b5061093c611ae0565b60405180826000191660001916815260200191505060405180910390f35b34801561096657600080fd5b5061096f611ae6565b604051808273ffffffffffffffffffffffffffffffffffffffff1673ffffffffffffffffffffffffffffffffffffffff16815260200191505060405180910390f35b3480156109bd57600080fd5b506109c6611b0c565b6040518082815260200191505060405180910390f35b3480156109e857600080fd5b506109f1611b12565b6040518082815260200191505060405180910390f35b348015610a1357600080fd5b50610a1c611b18565b6040518082815260200191505060405180910390f35b348015610a3e57600080fd5b50610a47611b1e565b60405180826000191660001916815260200191505060405180910390f35b348015610a7157600080fd5b50610a7a611b24565b6040518082815260200191505060405180910390f35b348015610a9c57600080fd5b50610aa5611b2a565b604051808215151515815260200191505060405180910390f35b348015610acb57600080fd5b50610ad4611b3d565b005b348015610ae257600080fd5b50610aeb611dad565b6040518082815260200191505060405180910390f35b348015610b0d57600080fd5b50610b16611e34565b6040518080602001828103825283818151815260200191508051906020019080838360005b83811015610b56578082015181840152602081019050610b3b565b50505050905090810190601f168015610b835780820380516001836020036101000a031916815260200191505b509250505060405180910390f35b348015610b9d57600080fd5b50610ba6611ed2565b6040518080602001828103825283818151815260200191508051906020019080838360005b83811015610be6578082015181840152602081019050610bcb565b50505050905090810190601f168015610c135780820380516001836020036101000a031916815260200191505b509250505060405180910390f35b348015610c2d57600080fd5b50610c36611f70565b60405180826000191660001916815260200191505060405180910390f35b348015610c6057600080fd5b50610c69611f76565b6040518082815260200191505060405180910390f35b348015610c8b57600080fd5b50610c94611f7c565b005b348015610ca257600080fd5b50610cab612058565b604051808215151515815260200191505060405180910390f35b348015610cd157600080fd5b50610cda61206b565b6040518082815260200191505060405180910390f35b348015610cfc57600080fd5b50610d056120b4565b6040518082815260200191505060405180910390f35b348015610d2757600080fd5b50610d306120ba565b604051808215151515815260200191505060405180910390f35b348015610d5657600080fd5b50610d8b600480360381019080803573ffffffffffffffffffffffffffffffffffffffff1690602001909291905050506120cd565b6040518082815260200191505060405180910390f35b348015610dad57600080fd5b50610db66120e5565b005b610dc061272e565b005b348015610dce57600080fd5b50610dd76128e7565b60405180826003811115610de757fe5b60ff16815260200191505060405180910390f35b348015610e0757600080fd5b50610e106128fa565b6040518082815260200191505060405180910390f35b348015610e3257600080fd5b50610e3b612900565b604051808215151515815260200191505060405180910390f35b348015610e6157600080fd5b50610e6a612913565b005b348015610e7857600080fd5b50610ead600480360381019080803573ffffffffffffffffffffffffffffffffffffffff169060200190929190505050612979565b005b348015610ebb57600080fd5b50610ec4612ad1565b6040518082815260200191505060405180910390f35b348015610ee657600080fd5b50610eef612ad7565b6040518080602001828103825283818151815260200191508051906020019080838360005b83811015610f2f578082015181840152602081019050610f14565b50505050905090810190601f168015610f5c5780820380516001836020036101000a031916815260200191505b509250505060405180910390f35b348015610f7657600080fd5b50610f7f612b75565b6040518082815260200191505060405180910390f35b601f5481565b600180811115610fa757fe5b600560149054906101000a900460ff166001811115610fc257fe5b141515610fce57600080fd5b60001515601d60039054906101000a900460ff161515141515610ff057600080fd5b60105442118015611014575060001515601d60049054906101000a900460ff161515145b1561107757611021612b7b565b6000341115611072573373ffffffffffffffffffffffffffffffffffffffff166108fc349081150290604051600060405180830381858888f19350505050158015611070573d6000803e3d6000fd5b505b611113565b6110b96040805190810160405280600381526020017f55524c00000000000000000000000000000000000000000000000000000000008152506203a980612df0565b60050234101515156110ca57600080fd5b6110df346014546131c990919063ffffffff16565b60148190555060006015819055506001601660006101000a81548160ff02191690831515021790555061111260006131e5565b5b565b60215481565b600560149054906101000a900460ff1681565b601b5481565b601660019054906101000a900460ff1681565b61114f613314565b73ffffffffffffffffffffffffffffffffffffffff163373ffffffffffffffffffffffffffffffffffffffff1614151561118857600080fd5b60001515601d60039054906101000a900460ff1615151415156111aa57600080fd5b6018546000191682600019161480156111d6575060001515601660019054906101000a900460ff161515145b156111e9576111e481613672565b611227565b601954600019168260001916141561120957611204816136c5565b611226565b601a546000191682600019161415611225576112248161374e565b5b5b5b5050565b60088054600181600116156101000203166002900480601f0160208091040260200160405190810160405280929190818152602001828054600181600116156101000203166002900480156112c15780601f10611296576101008083540402835291602001916112c1565b820191906000526020600020905b8154815290600101906020018083116112a457829003601f168201915b505050505081565b60255481565b505050565b600e5481565b60246020528060005260406000206000915090505481565b6001808111156112fe57fe5b600560149054906101000a900460ff16600181111561131957fe5b14151561132557600080fd5b600c5442101580156113385750600d5442105b15156113d2576040517f08c379a00000000000000000000000000000000000000000000000000000000081526004018080602001828103825260238152602001807f497420697320746f6f206561726c79206f7220746f6f206c61746520746f206281526020017f65742e000000000000000000000000000000000000000000000000000000000081525060400191505060405180910390fd5b66038d7ea4c6800034101515156113e857600080fd5b61143a34602460003373ffffffffffffffffffffffffffffffffffffffff1673ffffffffffffffffffffffffffffffffffffffff168152602001908152602001600020546131c990919063ffffffff16565b602460003373ffffffffffffffffffffffffffffffffffffffff1673ffffffffffffffffffffffffffffffffffffffff1681526020019081526020016000208190555060016029600082825401925050819055506114a3346027546131c990919063ffffffff16565b602781905550565b601d60059054906101000a900460ff1681565b6001808111156114ca57fe5b600560149054906101000a900460ff1660018111156114e557fe5b1415156114f157600080fd5b60001515601d60049054906101000a900460ff1615151415156115a2576040517f08c379a00000000000000000000000000000000000000000000000000000000081526004018080602001828103825260378152602001807f43616e6e6f742062652063616e63656c6c656420626563617573652077696e6e81526020017f657220697320616c726561647920636f6e6669726d656400000000000000000081525060400191505060405180910390fd5b601054421180156115c6575060001515601d60049054906101000a900460ff161515145b156115d4576115d3612b7b565b5b565b60205481565b6000600560009054906101000a900473ffffffffffffffffffffffffffffffffffffffff1673ffffffffffffffffffffffffffffffffffffffff163373ffffffffffffffffffffffffffffffffffffffff1614151561163a57600080fd5b60018081111561164657fe5b600560149054906101000a900460ff16600181111561166157fe5b14151561166d57600080fd5b60011515601d60039054906101000a900460ff16151514151561168f57600080fd5b601054421180156116b3575060001515601d60049054906101000a900460ff161515145b15611716576116c0612b7b565b6000341115611711573373ffffffffffffffffffffffffffffffffffffffff166108fc349081150290604051600060405180830381858888f1935050505015801561170f573d6000803e3d6000fd5b505b611912565b60001515601d60059054906101000a900460ff16151514151561173857600080fd5b611741826137d7565b151561174c57600080fd5b6001601d60056101000a81548160ff02191690831515021790555081600381111561177357fe5b600381111561177e57fe5b601d60069054906101000a900460ff16600381111561179957fe5b1415611908576001601d60046101000a81548160ff0219169083151502179055506117d16027546026546131c990919063ffffffff16565b601f819055506000601f5411156118a65761180b60646117fd6001601f5461383190919063ffffffff16565b61386990919063ffffffff16565b90508060228190555061182981601f5461387f90919063ffffffff16565b602081905550602054602181905550600560009054906101000a900473ffffffffffffffffffffffffffffffffffffffff1673ffffffffffffffffffffffffffffffffffffffff166108fc829081150290604051600060405180830381858888f193505050501580156118a0573d6000803e3d6000fd5b506118af565b60006020819055505b7f9a42273d5fd9b1a1046e18ae34880b8b51e28293fe5c863cdc602582f3bd518e601d60069054906101000a900460ff16604051808260038111156118f057fe5b60ff16815260200191505060405180910390a1611911565b611910612b7b565b5b5b5050565b600560009054906101000a900473ffffffffffffffffffffffffffffffffffffffff1673ffffffffffffffffffffffffffffffffffffffff163373ffffffffffffffffffffffffffffffffffffffff1614151561197257600080fd5b611987816012546131c990919063ffffffff16565b60128190555050565b60275481565b610e1081101515156119a757600080fd5b6103848303600d81905550818303600c8190555061189c600d5401600e81905550610708600e5401600f819055508083016010819055506249d40060105401601181905550505050565b60105481565b60285481565b60265481565b601d60049054906101000a900460ff1681565b601d60009054906101000a900460ff1681565b600a8054600181600116156101000203166002900480601f016020809104026020016040519081016040528092919081815260200182805460018160011615610100020316600290048015611abf5780601f10611a9457610100808354040283529160200191611abf565b820191906000526020600020905b815481529060010190602001808311611aa257829003601f168201915b505050505081565b60115481565b600b60009054906101000a900460ff1681565b60195481565b600560009054906101000a900473ffffffffffffffffffffffffffffffffffffffff1681565b600c5481565b60065481565b60295481565b601a5481565b60145481565b601d60019054906101000a900460ff1681565b6000806001811115611b4b57fe5b600560149054906101000a900460ff166001811115611b6657fe5b141515611b7257600080fd5b60115442101515611b8257600080fd5b6000602360003373ffffffffffffffffffffffffffffffffffffffff1673ffffffffffffffffffffffffffffffffffffffff168152602001908152602001600020541180611c0f57506000602460003373ffffffffffffffffffffffffffffffffffffffff1673ffffffffffffffffffffffffffffffffffffffff16815260200190815260200160002054115b1515611c1a57600080fd5b611cab602460003373ffffffffffffffffffffffffffffffffffffffff1673ffffffffffffffffffffffffffffffffffffffff16815260200190815260200160002054602360003373ffffffffffffffffffffffffffffffffffffffff1673ffffffffffffffffffffffffffffffffffffffff168152602001908152602001600020546131c990919063ffffffff16565b90506000602360003373ffffffffffffffffffffffffffffffffffffffff1673ffffffffffffffffffffffffffffffffffffffff168152602001908152602001600020819055506000602460003373ffffffffffffffffffffffffffffffffffffffff1673ffffffffffffffffffffffffffffffffffffffff168152602001908152602001600020819055508060215410151515611d4857600080fd5b611d5d8160215461387f90919063ffffffff16565b6021819055503373ffffffffffffffffffffffffffffffffffffffff166108fc829081150290604051600060405180830381858888f19350505050158015611da9573d6000803e3d6000fd5b5050565b600080611e18600a611e0a600b611dfc6040805190810160405280600381526020017f55524c00000000000000000000000000000000000000000000000000000000008152506203a980612df0565b61383190919063ffffffff16565b61386990919063ffffffff16565b905080601454101515611e2a57600080fd5b8060050291505090565b60078054600181600116156101000203166002900480601f016020809104026020016040519081016040528092919081815260200182805460018160011615610100020316600290048015611eca5780601f10611e9f57610100808354040283529160200191611eca565b820191906000526020600020905b815481529060010190602001808311611ead57829003601f168201915b505050505081565b60098054600181600116156101000203166002900480601f016020809104026020016040519081016040528092919081815260200182805460018160011615610100020316600290048015611f685780601f10611f3d57610100808354040283529160200191611f68565b820191906000526020600020905b815481529060010190602001808311611f4b57829003601f168201915b505050505081565b60185481565b600f5481565b600560009054906101000a900473ffffffffffffffffffffffffffffffffffffffff1673ffffffffffffffffffffffffffffffffffffffff163373ffffffffffffffffffffffffffffffffffffffff16141515611fd857600080fd5b60115442111515611fe857600080fd5b600060208190555060006014819055503373ffffffffffffffffffffffffffffffffffffffff166108fc3073ffffffffffffffffffffffffffffffffffffffff16319081150290604051600060405180830381858888f19350505050158015612055573d6000803e3d6000fd5b50565b601d60039054906101000a900460ff1681565b60006120af6040805190810160405280600381526020017f55524c00000000000000000000000000000000000000000000000000000000008152506203a980612df0565b905090565b60155481565b601660009054906101000a900460ff1681565b60236020528060005260406000206000915090505481565b60006001808111156120f357fe5b600560149054906101000a900460ff16600181111561210e57fe5b14151561211a57600080fd5b600f544211151561212a57600080fd5b6010544211801561214e575060001515601d60049054906101000a900460ff161515145b156121b15761215b612b7b565b60003411156121ac573373ffffffffffffffffffffffffffffffffffffffff166108fc349081150290604051600060405180830381858888f193505050501580156121aa573d6000803e3d6000fd5b505b61272b565b60001515601660009054906101000a900460ff16151514156121f7576121d760006131e5565b6001601660006101000a81548160ff02191690831515021790555061272a565b60011515601d60039054906101000a900460ff16151514801561222d575060011515601d60049054906101000a900460ff161515145b151561223857600080fd5b6011544210151561224857600080fd5b6001600381111561225557fe5b601d60069054906101000a900460ff16600381111561227057fe5b1480156122bc57506000602360003373ffffffffffffffffffffffffffffffffffffffff1673ffffffffffffffffffffffffffffffffffffffff16815260200190815260200160002054115b156123755761232960265461231b602360003373ffffffffffffffffffffffffffffffffffffffff1673ffffffffffffffffffffffffffffffffffffffff1681526020019081526020016000205460205461383190919063ffffffff16565b61386990919063ffffffff16565b90506000602360003373ffffffffffffffffffffffffffffffffffffffff1673ffffffffffffffffffffffffffffffffffffffff168152602001908152602001600020819055506126b6565b6002600381111561238257fe5b601d60069054906101000a900460ff16600381111561239d57fe5b1480156123e957506000602460003373ffffffffffffffffffffffffffffffffffffffff1673ffffffffffffffffffffffffffffffffffffffff16815260200190815260200160002054115b156124a257612456602754612448602460003373ffffffffffffffffffffffffffffffffffffffff1673ffffffffffffffffffffffffffffffffffffffff1681526020019081526020016000205460205461383190919063ffffffff16565b61386990919063ffffffff16565b90506000602460003373ffffffffffffffffffffffffffffffffffffffff1673ffffffffffffffffffffffffffffffffffffffff168152602001908152602001600020819055506126b5565b6003808111156124ae57fe5b601d60069054906101000a900460ff1660038111156124c957fe5b14801561255f57506000602360003373ffffffffffffffffffffffffffffffffffffffff1673ffffffffffffffffffffffffffffffffffffffff16815260200190815260200160002054118061255e57506000602460003373ffffffffffffffffffffffffffffffffffffffff1673ffffffffffffffffffffffffffffffffffffffff16815260200190815260200160002054115b5b156126af5761261e60646126106001606403612602602460003373ffffffffffffffffffffffffffffffffffffffff1673ffffffffffffffffffffffffffffffffffffffff16815260200190815260200160002054602360003373ffffffffffffffffffffffffffffffffffffffff1673ffffffffffffffffffffffffffffffffffffffff168152602001908152602001600020546131c990919063ffffffff16565b61383190919063ffffffff16565b61386990919063ffffffff16565b90506000602360003373ffffffffffffffffffffffffffffffffffffffff1673ffffffffffffffffffffffffffffffffffffffff168152602001908152602001600020819055506000602460003373ffffffffffffffffffffffffffffffffffffffff1673ffffffffffffffffffffffffffffffffffffffff168152602001908152602001600020819055506126b4565b600080fd5b5b5b80602154101515156126c757600080fd5b6126dc8160215461387f90919063ffffffff16565b6021819055503373ffffffffffffffffffffffffffffffffffffffff166108fc829081150290604051600060405180830381858888f19350505050158015612728573d6000803e3d6000fd5b505b5b50565b60018081111561273a57fe5b600560149054906101000a900460ff16600181111561275557fe5b14151561276157600080fd5b600c5442101580156127745750600d5442105b151561280e576040517f08c379a00000000000000000000000000000000000000000000000000000000081526004018080602001828103825260238152602001807f497420697320746f6f206561726c79206f7220746f6f206c61746520746f206281526020017f65742e000000000000000000000000000000000000000000000000000000000081525060400191505060405180910390fd5b66038d7ea4c68000341015151561282457600080fd5b61287634602360003373ffffffffffffffffffffffffffffffffffffffff1673ffffffffffffffffffffffffffffffffffffffff168152602001908152602001600020546131c990919063ffffffff16565b602360003373ffffffffffffffffffffffffffffffffffffffff1673ffffffffffffffffffffffffffffffffffffffff1681526020019081526020016000208190555060016028600082825401925050819055506128df346026546131c990919063ffffffff16565b602681905550565b601d60069054906101000a900460ff1681565b600d5481565b601d60029054906101000a900460ff1681565b600560009054906101000a900473ffffffffffffffffffffffffffffffffffffffff1673ffffffffffffffffffffffffffffffffffffffff163373ffffffffffffffffffffffffffffffffffffffff1614151561296f57600080fd5b612977612b7b565b565b600560009054906101000a900473ffffffffffffffffffffffffffffffffffffffff1673ffffffffffffffffffffffffffffffffffffffff163373ffffffffffffffffffffffffffffffffffffffff161415156129d557600080fd5b600073ffffffffffffffffffffffffffffffffffffffff168173ffffffffffffffffffffffffffffffffffffffff1614151515612a1157600080fd5b8073ffffffffffffffffffffffffffffffffffffffff16600560009054906101000a900473ffffffffffffffffffffffffffffffffffffffff1673ffffffffffffffffffffffffffffffffffffffff167f8be0079c531659141344cd1fd0a4f28419497f9722a3daafe3b4186f6b6457e060405160405180910390a380600560006101000a81548173ffffffffffffffffffffffffffffffffffffffff021916908373ffffffffffffffffffffffffffffffffffffffff16021790555050565b601c5481565b601e8054600181600116156101000203166002900480601f016020809104026020016040519081016040528092919081815260200182805460018160011615610100020316600290048015612b6d5780601f10612b4257610100808354040283529160200191612b6d565b820191906000526020600020905b815481529060010190602001808311612b5057829003601f168201915b505050505081565b60225481565b600180811115612b8757fe5b600560149054906101000a900460ff166001811115612ba257fe5b141515612bae57600080fd5b60001515601d60049054906101000a900460ff161515141515612c5f576040517f08c379a00000000000000000000000000000000000000000000000000000000081526004018080602001828103825260378152602001807f43616e6e6f742062652063616e63656c6c656420626563617573652077696e6e81526020017f657220697320616c726561647920636f6e6669726d656400000000000000000081525060400191505060405180910390fd5b6000600560146101000a81548160ff02191690836001811115612c7e57fe5b0217905550612c9a6027546026546131c990919063ffffffff16565b6020819055506020546021819055507fec8dc6335c2196b8a6d65cd542069150bf6373e8330640096a2074c2ba36df046009600a604051808060200180602001838103835285818154600181600116156101000203166002900481526020019150805460018160011615610100020316600290048015612d5b5780601f10612d3057610100808354040283529160200191612d5b565b820191906000526020600020905b815481529060010190602001808311612d3e57829003601f168201915b5050838103825284818154600181600116156101000203166002900481526020019150805460018160011615610100020316600290048015612dde5780601f10612db357610100808354040283529160200191612dde565b820191906000526020600020905b815481529060010190602001808311612dc157829003601f168201915b505094505050505060405180910390a1565b6000806000809054906101000a900473ffffffffffffffffffffffffffffffffffffffff1673ffffffffffffffffffffffffffffffffffffffff161480612e6057506000612e5e6000809054906101000a900473ffffffffffffffffffffffffffffffffffffffff16613898565b145b15612e7157612e6f60006138a3565b505b6000809054906101000a900473ffffffffffffffffffffffffffffffffffffffff1673ffffffffffffffffffffffffffffffffffffffff166338cc48316040518163ffffffff167c0100000000000000000000000000000000000000000000000000000000028152600401602060405180830381600087803b158015612ef657600080fd5b505af1158015612f0a573d6000803e3d6000fd5b505050506040513d6020811015612f2057600080fd5b810190808051906020019092919050505073ffffffffffffffffffffffffffffffffffffffff16600160009054906101000a900473ffffffffffffffffffffffffffffffffffffffff1673ffffffffffffffffffffffffffffffffffffffff16141515613088576000809054906101000a900473ffffffffffffffffffffffffffffffffffffffff1673ffffffffffffffffffffffffffffffffffffffff166338cc48316040518163ffffffff167c0100000000000000000000000000000000000000000000000000000000028152600401602060405180830381600087803b15801561300c57600080fd5b505af1158015613020573d6000803e3d6000fd5b505050506040513d602081101561303657600080fd5b8101908080519060200190929190505050600160006101000a81548173ffffffffffffffffffffffffffffffffffffffff021916908373ffffffffffffffffffffffffffffffffffffffff1602179055505b600160009054906101000a900473ffffffffffffffffffffffffffffffffffffffff1673ffffffffffffffffffffffffffffffffffffffff16632ef3accc84846040518363ffffffff167c01000000000000000000000000000000000000000000000000000000000281526004018080602001838152602001828103825284818151815260200191508051906020019080838360005b8381101561313957808201518184015260208101905061311e565b50505050905090810190601f1680156131665780820380516001836020036101000a031916815260200191505b509350505050602060405180830381600087803b15801561318657600080fd5b505af115801561319a573d6000803e3d6000fd5b505050506040513d60208110156131b057600080fd5b8101908080519060200190929190505050905092915050565b600081830190508281101515156131dc57fe5b80905092915050565b60606132f66040805190810160405280600581526020017f6a736f6e2800000000000000000000000000000000000000000000000000000081525060138054600181600116156101000203166002900480601f0160208091040260200160405190810160405280929190818152602001828054600181600116156101000203166002900480156132b65780601f1061328b576101008083540402835291602001916132b6565b820191906000526020600020905b81548152906001019060200180831161329957829003601f168201915b50505050506040805190810160405280601081526020017f292e666978747572652e73746174757300000000000000000000000000000000815250613d34565b9050613306818362036ee8613d6c565b601881600019169055505050565b6000806000809054906101000a900473ffffffffffffffffffffffffffffffffffffffff1673ffffffffffffffffffffffffffffffffffffffff161480613384575060006133826000809054906101000a900473ffffffffffffffffffffffffffffffffffffffff16613898565b145b156133955761339360006138a3565b505b6000809054906101000a900473ffffffffffffffffffffffffffffffffffffffff1673ffffffffffffffffffffffffffffffffffffffff166338cc48316040518163ffffffff167c0100000000000000000000000000000000000000000000000000000000028152600401602060405180830381600087803b15801561341a57600080fd5b505af115801561342e573d6000803e3d6000fd5b505050506040513d602081101561344457600080fd5b810190808051906020019092919050505073ffffffffffffffffffffffffffffffffffffffff16600160009054906101000a900473ffffffffffffffffffffffffffffffffffffffff1673ffffffffffffffffffffffffffffffffffffffff161415156135ac576000809054906101000a900473ffffffffffffffffffffffffffffffffffffffff1673ffffffffffffffffffffffffffffffffffffffff166338cc48316040518163ffffffff167c0100000000000000000000000000000000000000000000000000000000028152600401602060405180830381600087803b15801561353057600080fd5b505af1158015613544573d6000803e3d6000fd5b505050506040513d602081101561355a57600080fd5b8101908080519060200190929190505050600160006101000a81548173ffffffffffffffffffffffffffffffffffffffff021916908373ffffffffffffffffffffffffffffffffffffffff1602179055505b600160009054906101000a900473ffffffffffffffffffffffffffffffffffffffff1673ffffffffffffffffffffffffffffffffffffffff1663c281d19e6040518163ffffffff167c0100000000000000000000000000000000000000000000000000000000028152600401602060405180830381600087803b15801561363257600080fd5b505af1158015613646573d6000803e3d6000fd5b505050506040513d602081101561365c57600080fd5b8101908080519060200190929190505050905090565b61367b81613ea3565b156136b6576001601660016101000a81548160ff0219169083151502179055506136a6600080613f1b565b6136b16000806141ad565b6136c2565b6136c1610e106131e5565b5b50565b60608190506000815114156136f4576136ef610e10601d60029054906101000a900460ff16613f1b565b61374a565b6136fd8261443f565b601b819055506001601d60006101000a81548160ff02191690831515021790555060011515601d60019054906101000a900460ff161515141561374957613748601b54601c54614453565b5b5b5050565b606081905060008151141561377d57613778610e10601d60029054906101000a900460ff166141ad565b6137d3565b6137868261443f565b601c819055506001601d60016101000a81548160ff02191690831515021790555060011515601d60009054906101000a900460ff16151514156137d2576137d1601b54601c54614453565b5b5b5050565b600060018214806137e85750600282145b156137f6576001905061382c565b60011515600b60009054906101000a900460ff1615151480156138195750600382145b15613827576001905061382c565b600090505b919050565b6000808314156138445760009050613863565b818302905081838281151561385557fe5b0414151561385f57fe5b8090505b92915050565b6000818381151561387657fe5b04905092915050565b600082821115151561388d57fe5b818303905092915050565b6000813b9050919050565b6000806138c3731d3b2638a7cc9f2cb3d298a3da7a90b67e5506ed613898565b111561396457731d3b2638a7cc9f2cb3d298a3da7a90b67e5506ed6000806101000a81548173ffffffffffffffffffffffffffffffffffffffff021916908373ffffffffffffffffffffffffffffffffffffffff16021790555061395b6040805190810160405280600b81526020017f6574685f6d61696e6e65740000000000000000000000000000000000000000008152506146b7565b60019050613d2f565b600061398373c03a2615d5efaf5f49f60b7bb6583eaec212fdf1613898565b1115613a245773c03a2615d5efaf5f49f60b7bb6583eaec212fdf16000806101000a81548173ffffffffffffffffffffffffffffffffffffffff021916908373ffffffffffffffffffffffffffffffffffffffff160217905550613a1b6040805190810160405280600c81526020017f6574685f726f707374656e3300000000000000000000000000000000000000008152506146b7565b60019050613d2f565b6000613a4373b7a07bcf2ba2f2703b24c0691b5278999c59ac7e613898565b1115613ae45773b7a07bcf2ba2f2703b24c0691b5278999c59ac7e6000806101000a81548173ffffffffffffffffffffffffffffffffffffffff021916908373ffffffffffffffffffffffffffffffffffffffff160217905550613adb6040805190810160405280600981526020017f6574685f6b6f76616e00000000000000000000000000000000000000000000008152506146b7565b60019050613d2f565b6000613b0373146500cfd35b22e4a392fe0adc06de1a1368ed48613898565b1115613ba45773146500cfd35b22e4a392fe0adc06de1a1368ed486000806101000a81548173ffffffffffffffffffffffffffffffffffffffff021916908373ffffffffffffffffffffffffffffffffffffffff160217905550613b9b6040805190810160405280600b81526020017f6574685f72696e6b6562790000000000000000000000000000000000000000008152506146b7565b60019050613d2f565b6000613bc3736f485c8bf6fc43ea212e93bbf8ce046c7f1cb475613898565b1115613c2657736f485c8bf6fc43ea212e93bbf8ce046c7f1cb4756000806101000a81548173ffffffffffffffffffffffffffffffffffffffff021916908373ffffffffffffffffffffffffffffffffffffffff16021790555060019050613d2f565b6000613c457320e12a1f859b3feae5fb2a0a32c18f5a65555bbf613898565b1115613ca8577320e12a1f859b3feae5fb2a0a32c18f5a65555bbf6000806101000a81548173ffffffffffffffffffffffffffffffffffffffff021916908373ffffffffffffffffffffffffffffffffffffffff16021790555060019050613d2f565b6000613cc77351efaf4c8b3c9afbd5ab9f4bbc82784ab6ef8faa613898565b1115613d2a577351efaf4c8b3c9afbd5ab9f4bbc82784ab6ef8faa6000806101000a81548173ffffffffffffffffffffffffffffffffffffffff021916908373ffffffffffffffffffffffffffffffffffffffff16021790555060019050613d2f565b600090505b919050565b6060613d63848484602060405190810160405280600081525060206040519081016040528060008152506146d1565b90509392505050565b600080613dae6040805190810160405280600381526020017f55524c000000000000000000000000000000000000000000000000000000000081525084612df0565b90508060145410158015613dc457506009601554105b15613e4857613ddf60016015546131c990919063ffffffff16565b601581905550613dfa8160145461387f90919063ffffffff16565b601481905550613e41846040805190810160405280600381526020017f55524c00000000000000000000000000000000000000000000000000000000008152508786614ae6565b9150613e9b565b7fdfbccc2e555a5097298f8210cf3ed2f1db7b57eafd86b5eb985bed374cc0bb12601454601554600960405180848152602001838152602001828152602001935050505060405180910390a16001800291505b509392505050565b600060175460001916826040518082805190602001908083835b602083101515613ee25780518252602082019150602081019050602083039250613ebd565b6001836020036101000a038019825116818451168082178552505050505050905001915050604051809103902060001916149050919050565b606060011515821515141561407e576140606040805190810160405280600581526020017f6a736f6e2800000000000000000000000000000000000000000000000000000081525060138054600181600116156101000203166002900480601f016020809104026020016040519081016040528092919081815260200182805460018160011615610100020316600290048015613ff95780601f10613fce57610100808354040283529160200191613ff9565b820191906000526020600020905b815481529060010190602001808311613fdc57829003601f168201915b5050505050606060405190810160405280602e81526020017f292e666978747572652e726573756c742e70656e616c747953686f6f746f757481526020017f2e676f616c73486f6d655465616d000000000000000000000000000000000000815250613d34565b905061406f818461ea60613d6c565b601981600019169055506141a8565b61418d6040805190810160405280600581526020017f6a736f6e2800000000000000000000000000000000000000000000000000000081525060138054600181600116156101000203166002900480601f01602080910402602001604051908101604052809291908181526020018280546001816001161561010002031660029004801561414d5780601f106141225761010080835404028352916020019161414d565b820191906000526020600020905b81548152906001019060200180831161413057829003601f168201915b50505050506040805190810160405280601e81526020017f292e666978747572652e726573756c742e676f616c73486f6d655465616d0000815250613d34565b905061419d81846203a980613d6c565b601981600019169055505b505050565b6060600115158215151415614310576142f26040805190810160405280600581526020017f6a736f6e2800000000000000000000000000000000000000000000000000000081525060138054600181600116156101000203166002900480601f01602080910402602001604051908101604052809291908181526020018280546001816001161561010002031660029004801561428b5780601f106142605761010080835404028352916020019161428b565b820191906000526020600020905b81548152906001019060200180831161426e57829003601f168201915b5050505050606060405190810160405280602e81526020017f292e666978747572652e726573756c742e70656e616c747953686f6f746f757481526020017f2e676f616c73417761795465616d000000000000000000000000000000000000815250613d34565b9050614301818461ea60613d6c565b601a816000191690555061443a565b61441f6040805190810160405280600581526020017f6a736f6e2800000000000000000000000000000000000000000000000000000081525060138054600181600116156101000203166002900480601f0160208091040260200160405190810160405280929190818152602001828054600181600116156101000203166002900480156143df5780601f106143b4576101008083540402835291602001916143df565b820191906000526020600020905b8154815290600101906020018083116143c257829003601f168201915b50505050506040805190810160405280601e81526020017f292e666978747572652e726573756c742e676f616c73417761795465616d0000815250613d34565b905061442f81846203a980613d6c565b601a81600019169055505b505050565b600061444c826000615096565b9050919050565b808211156144f3576001601d60066101000a81548160ff0219169083600381111561447a57fe5b02179055506001601d60036101000a81548160ff0219169083151502179055507faf402f25d965dbb8046c429c4c6165a2dd4c0df5f2326f426a6a2ff7e404b01b601d60069054906101000a900460ff16604051808260038111156144db57fe5b60ff16815260200191505060405180910390a16146b3565b80821015614593576002601d60066101000a81548160ff0219169083600381111561451a57fe5b02179055506001601d60036101000a81548160ff0219169083151502179055507faf402f25d965dbb8046c429c4c6165a2dd4c0df5f2326f426a6a2ff7e404b01b601d60069054906101000a900460ff166040518082600381111561457b57fe5b60ff16815260200191505060405180910390a16146b2565b60011515600b60009054906101000a900460ff1615151415614647576003601d60066101000a81548160ff021916908360038111156145ce57fe5b02179055506001601d60036101000a81548160ff0219169083151502179055507faf402f25d965dbb8046c429c4c6165a2dd4c0df5f2326f426a6a2ff7e404b01b601d60069054906101000a900460ff166040518082600381111561462f57fe5b60ff16815260200191505060405180910390a16146b1565b6001601d60026101000a81548160ff0219169083151502179055506000601d60006101000a81548160ff0219169083151502179055506000601d60016101000a81548160ff0219169083151502179055506146a460006001613f1b565b6146b0600060016141ad565b5b5b5b5050565b80600290805190602001906146cd92919061538a565b5050565b6060806060806060806060806000808e98508d97508c96508b95508a94508451865188518a518c51010101016040519080825280601f01601f19166020018201604052801561472f5781602001602082028038833980820191505090505b50935083925060009150600090505b88518110156147f157888181518110151561475557fe5b9060200101517f010000000000000000000000000000000000000000000000000000000000000090047f01000000000000000000000000000000000000000000000000000000000000000283838060010194508151811015156147b457fe5b9060200101907effffffffffffffffffffffffffffffffffffffffffffffffffffffffffffff1916908160001a905350808060010191505061473e565b600090505b87518110156148a957878181518110151561480d57fe5b9060200101517f010000000000000000000000000000000000000000000000000000000000000090047f010000000000000000000000000000000000000000000000000000000000000002838380600101945081518110151561486c57fe5b9060200101907effffffffffffffffffffffffffffffffffffffffffffffffffffffffffffff1916908160001a90535080806001019150506147f6565b600090505b86518110156149615786818151811015156148c557fe5b9060200101517f010000000000000000000000000000000000000000000000000000000000000090047f010000000000000000000000000000000000000000000000000000000000000002838380600101945081518110151561492457fe5b9060200101907effffffffffffffffffffffffffffffffffffffffffffffffffffffffffffff1916908160001a90535080806001019150506148ae565b600090505b8551811015614a1957858181518110151561497d57fe5b9060200101517f010000000000000000000000000000000000000000000000000000000000000090047f01000000000000000000000000000000000000000000000000000000000000000283838060010194508151811015156149dc57fe5b9060200101907effffffffffffffffffffffffffffffffffffffffffffffffffffffffffffff1916908160001a9053508080600101915050614966565b600090505b8451811015614ad1578481815181101515614a3557fe5b9060200101517f010000000000000000000000000000000000000000000000000000000000000090047f0100000000000000000000000000000000000000000000000000000000000000028383806001019450815181101515614a9457fe5b9060200101907effffffffffffffffffffffffffffffffffffffffffffffffffffffffffffff1916908160001a9053508080600101915050614a1e565b82995050505050505050505095945050505050565b60008060008060009054906101000a900473ffffffffffffffffffffffffffffffffffffffff1673ffffffffffffffffffffffffffffffffffffffff161480614b5857506000614b566000809054906101000a900473ffffffffffffffffffffffffffffffffffffffff16613898565b145b15614b6957614b6760006138a3565b505b6000809054906101000a900473ffffffffffffffffffffffffffffffffffffffff1673ffffffffffffffffffffffffffffffffffffffff166338cc48316040518163ffffffff167c0100000000000000000000000000000000000000000000000000000000028152600401602060405180830381600087803b158015614bee57600080fd5b505af1158015614c02573d6000803e3d6000fd5b505050506040513d6020811015614c1857600080fd5b810190808051906020019092919050505073ffffffffffffffffffffffffffffffffffffffff16600160009054906101000a900473ffffffffffffffffffffffffffffffffffffffff1673ffffffffffffffffffffffffffffffffffffffff16141515614d80576000809054906101000a900473ffffffffffffffffffffffffffffffffffffffff1673ffffffffffffffffffffffffffffffffffffffff166338cc48316040518163ffffffff167c0100000000000000000000000000000000000000000000000000000000028152600401602060405180830381600087803b158015614d0457600080fd5b505af1158015614d18573d6000803e3d6000fd5b505050506040513d6020811015614d2e57600080fd5b8101908080519060200190929190505050600160006101000a81548173ffffffffffffffffffffffffffffffffffffffff021916908373ffffffffffffffffffffffffffffffffffffffff1602179055505b600160009054906101000a900473ffffffffffffffffffffffffffffffffffffffff1673ffffffffffffffffffffffffffffffffffffffff16632ef3accc86856040518363ffffffff167c01000000000000000000000000000000000000000000000000000000000281526004018080602001838152602001828103825284818151815260200191508051906020019080838360005b83811015614e31578082015181840152602081019050614e16565b50505050905090810190601f168015614e5e5780820380516001836020036101000a031916815260200191505b509350505050602060405180830381600087803b158015614e7e57600080fd5b505af1158015614e92573d6000803e3d6000fd5b505050506040513d6020811015614ea857600080fd5b81019080805190602001909291905050509050823a02670de0b6b3a764000001811115614edb576000600102915061508d565b600160009054906101000a900473ffffffffffffffffffffffffffffffffffffffff1673ffffffffffffffffffffffffffffffffffffffff1663c51be90f82888888886040518663ffffffff167c0100000000000000000000000000000000000000000000000000000000028152600401808581526020018060200180602001848152602001838103835286818151815260200191508051906020019080838360005b83811015614f99578082015181840152602081019050614f7e565b50505050905090810190601f168015614fc65780820380516001836020036101000a031916815260200191505b50838103825285818151815260200191508051906020019080838360005b83811015614fff578082015181840152602081019050614fe4565b50505050905090810190601f16801561502c5780820380516001836020036101000a031916815260200191505b5096505050505050506020604051808303818588803b15801561504e57600080fd5b505af1158015615062573d6000803e3d6000fd5b50505050506040513d602081101561507957600080fd5b810190808051906020019092919050505091505b50949350505050565b6000606060008060008693506000925060009150600090505b835181101561536b5760307f01000000000000000000000000000000000000000000000000000000000000000284828151811015156150ea57fe5b9060200101517f010000000000000000000000000000000000000000000000000000000000000090047f0100000000000000000000000000000000000000000000000000000000000000027effffffffffffffffffffffffffffffffffffffffffffffffffffffffffffff191610158015615202575060397f010000000000000000000000000000000000000000000000000000000000000002848281518110151561519257fe5b9060200101517f010000000000000000000000000000000000000000000000000000000000000090047f0100000000000000000000000000000000000000000000000000000000000000027effffffffffffffffffffffffffffffffffffffffffffffffffffffffffffff191611155b156152b357811561522557600086141561521b5761536b565b8580600190039650505b600a830292506030848281518110151561523b57fe5b9060200101517f010000000000000000000000000000000000000000000000000000000000000090047f0100000000000000000000000000000000000000000000000000000000000000027f01000000000000000000000000000000000000000000000000000000000000009004038301925061535e565b602e7f01000000000000000000000000000000000000000000000000000000000000000284828151811015156152e557fe5b9060200101517f010000000000000000000000000000000000000000000000000000000000000090047f0100000000000000000000000000000000000000000000000000000000000000027effffffffffffffffffffffffffffffffffffffffffffffffffffffffffffff1916141561535d57600191505b5b80806001019150506150af565b600086111561537d5785600a0a830292505b8294505050505092915050565b828054600181600116156101000203166002900490600052602060002090601f016020900481019282601f106153cb57805160ff19168380011785556153f9565b828001600101855582156153f9579182015b828111156153f85782518255916020019190600101906153dd565b5b509050615406919061540a565b5090565b61542c91905b80821115615428576000816000905550600101615410565b5090565b905600a165627a7a7230582002e2d2cc9cc0e0e1dbcbb9927f8f10d809883b45235c179ebc1f9f3cdd79ab260029",
  "source": "pragma solidity ^0.4.24;\n\nimport 'openzeppelin-solidity/contracts/ownership/Ownable.sol';\nimport 'openzeppelin-solidity/contracts/math/SafeMath.sol';\nimport './oraclizeAPI_0.4.sol';\n\ncontract Bet is usingOraclize, Ownable {\n  using SafeMath for uint;\n\n  enum Status { Cancelled, Active }\n  enum Winner { Undecided, Player1, Player2, Draw }\n\n  uint private constant FEE_PERCENT = 1;\n  uint private constant MIN_BET = 1e15;\n  uint private constant MIN_SUGGESTCONFIRM_DURATION = 60 minutes; // TODO: change it back to 6h or so\n  uint private constant CLAIM_EXPIRES_AFTER = 8 weeks;\n  uint private constant MAX_GOALS = 25;\n\n  Status public status = Status.Active;\n\n  uint public matchId;\n  string public apiMatchId;\n  string public matchContext;\n  string public p1;\n  string public p2;\n  bool public isGroupPhase;\n  uint public timeBettingOpens;\n  uint public timeBettingCloses;\n  uint public timeMatchEnds;\n  uint public timeFetchStarts;\n  uint public timeSuggestConfirmEnds;\n  uint public timeClaimsExpire;\n\n  event FetchingFailed(uint balance, uint fetchAttempt, uint MAX_FETCH_ATTEMPTS);\n  event WinnerSuggested(Winner winner);\n  event WinnerConfirmed(Winner winner);\n  event BettingCancelled(string p1, string p2);\n\n  uint private MAX_GAS_PRICE = 6e9; // 8GWei. Not constant so that it can be increased by the owner in case of higher demands in the future\n  //uint private constant GAS_LIMIT = 300000; // works: 300000\n  uint private constant GAS_LIMIT_MATCHSTATUS = 225000; // works: 300000\n  uint private constant GAS_LIMIT_GOALS = 240000; // works: 300000\n  uint private constant GAS_LIMIT_GOALS_PENALTY = 60000; // works: 300000\n  uint private constant MAX_GAS = GAS_LIMIT_GOALS;\n  // Best case (api has result after match ends): Min 3 fetches, max 5 fetches.\n  // Add a buffer of 4 fetches (4 hours since 1 fetch/h)\n  // --> 9 fetches max. Can be reset when refunded (see fundFetching())\n  uint private constant NORMAL_MAX_FETCHES = 5; // 1x match result, 2x normal goals, 2x penalty shootout goals\n  uint private constant MAX_FETCH_ATTEMPTS = 9; // One fetch costs around 0.8-1.2 USD\n  uint private constant FETCH_INTERVAL = 60*60; // 60min in seconds\n  string private URL;\n  uint public fetchFund;\n  uint public fetchAttempt;\n  bool public isFetchingStarted = false;\n  bool public matchFinished = false;\n  bytes32 private hashFinished;\n\n  bytes32 public queryStatus;\n  bytes32 public queryGoalsP1;\n  bytes32 public queryGoalsP2;\n  uint public goalsP1;\n  uint public goalsP2;\n  bool public goalsP1Fetched = false;\n  bool public goalsP2Fetched = false;\n  bool public fetchingPenaltyGoals = false;\n  bool public winnerSuggested = false;\n  bool public winnerConfirmed = false;\n  bool public ownerCalledConfirmFunction = false;\n  Winner public winner; // default = 0, meaning Undecided\n\n  string public test;\n\n  uint public pool;\n  uint public payoutPool;\n  uint public remainingPayoutPool;\n  uint public feeEarning;\n  mapping(address => uint) public betsPlayer1;\n  mapping(address => uint) public betsPlayer2;\n  uint public total;\n  uint public totalPlayer1;\n  uint public totalPlayer2;\n  uint public numBetsPlayer1;\n  uint public numBetsPlayer2;\n\n  modifier hasMinWei() {\n      require(msg.value >= MIN_BET);\n      _;\n  }\n\n  /*\n    Time-based modifiers\n  */\n  modifier isBettingPhase() {\n      require(now >= timeBettingOpens && now < timeBettingCloses, 'It is too early or too late to bet.');\n      _;\n  }\n\n  modifier canStartFetch() {\n      require(now > timeFetchStarts);\n      _;\n  }\n\n  modifier isExpiredPhase() {\n      require(now > timeClaimsExpire);\n      _;\n  }\n\n  modifier isClaimNotExpired() {\n      require(now < timeClaimsExpire);\n      _;\n  }\n\n  /*\n    Cancelled modifiers\n  */\n  modifier isCancelled() {\n      require(status == Status.Cancelled);\n      _;\n  }\n\n  modifier isNotCancelled() {\n      require(status == Status.Active);\n      _;\n  }\n\n  modifier canBeCancelled() {\n      require(winnerConfirmed == false, 'Cannot be cancelled because winner is already confirmed');\n      _;\n  }\n\n  modifier cancelIfTooLateForConfirmation() {\n      if (now > timeSuggestConfirmEnds && winnerConfirmed == false) {\n        cancelInternal();\n        // In case the modifier is called from a payable function, a cancel \n        // would result in lost funds. In case msg.sender sent funds, he'll\n        // be reimbursed.\n        if (msg.value > 0) {\n          msg.sender.transfer(msg.value);\n        }\n      } else {\n        _;\n      }\n  }\n\n  /*\n    Winner check modifiers\n  */\n  modifier isWinnerSuggested() {\n      require(winnerSuggested == true);\n      _;\n  }\n\n  modifier isNotWinnerSuggested() {\n      require(winnerSuggested == false);\n      _;\n  }\n\n  modifier isWinnerConfirmed() {\n      require(winnerSuggested == true && winnerConfirmed == true);\n      _;\n  }\n\n  modifier isFirstConfirmCall() {\n      require(ownerCalledConfirmFunction == false);\n      _;\n  }\n\n  /*\n    Other modifiers\n  */\n  modifier onlyOraclize() {\n      require(msg.sender == oraclize_cbAddress());\n      _;\n  }\n\n  modifier hasBetsOnWinner() {\n      require(\n        (winner == Winner.Player1 && betsPlayer1[msg.sender] > 0) ||\n        (winner == Winner.Player2 && betsPlayer2[msg.sender] > 0) ||\n        (winner == Winner.Draw && ((betsPlayer1[msg.sender] > 0) || (betsPlayer2[msg.sender] > 0)))\n      );\n      _;\n  }\n\n  modifier hasBets() {\n      require(betsPlayer1[msg.sender] > 0 || betsPlayer2[msg.sender] > 0);\n      _;\n  }\n\n  modifier startFetchingIfUnstarted() {\n      if (isFetchingStarted == false) {\n          fetchMatchStatus(0); // 0 == fetch now, without delay\n          isFetchingStarted = true;\n      } else {\n          _;\n      }\n  }\n\n  modifier enoughFetchFund() {\n      require(msg.value >= (NORMAL_MAX_FETCHES * oraclize_getPrice(\"URL\", MAX_GAS)));\n      _;\n  }\n\n  /*\n    Helper functions\n  */\n  function getMinOraclizeGasCost() public returns (uint) {\n      return oraclize_getPrice(\"URL\", GAS_LIMIT_GOALS);\n  }\n\n  function isValidWinner(uint _winner) private view returns (bool) {\n      if (_winner == 1 ||  _winner == 2) {\n          return true;\n      }\n      if (isGroupPhase == true && _winner == 3) {\n          return true;\n      }\n      return false;\n  }\n\n  function isFinished(string s) private view returns (bool) {\n      return keccak256(s) == hashFinished;\n  }\n\n  constructor(\n      uint _matchId,\n      string _apiMatchId,\n      string _matchContext,\n      string _p1,\n      string _p2,\n      bool _isGroupPhase,\n      uint _matchStart,\n      uint _durationBetting,\n      uint _durationSuggestConfirm)\n      public\n      payable\n  {\n      oraclize_setCustomGasPrice(MAX_GAS_PRICE);\n      hashFinished = keccak256('FINISHED');\n      \n      fetchFund = msg.value;\n      matchId = _matchId;\n      apiMatchId = _apiMatchId;\n      matchContext = _matchContext;\n      p1 = _p1;\n      p2 = _p2;\n      isGroupPhase = _isGroupPhase;\n      //strConcat('http://api.football-data.org/v1/fixtures/', apiMatchId);\n      URL = 'https://raw.githubusercontent.com/ethercup/ethercup.github.io/master/backend/api/live.txt';\n      _setTimes(_matchStart, _durationBetting, _durationSuggestConfirm);\n  }\n\n  // public for testing\n  function _setTimes(uint _matchStart, uint _durationBetting, uint _durationSuggestConfirm) public {\n      require(_durationSuggestConfirm >= MIN_SUGGESTCONFIRM_DURATION); // longer than 2h in case max match duration is reached (overtimes + penalty shootout)\n\n      // Miners can cheat on block timestamp with a tolerance of 900 seconds.\n      // That's why betting is closed 900 seconds before match start.\n      timeBettingCloses = _matchStart - 15 minutes;\n      timeBettingOpens = _matchStart - _durationBetting;\n      timeMatchEnds = timeBettingCloses + 105 minutes;\n      timeFetchStarts = timeMatchEnds + 30 minutes;\n      timeSuggestConfirmEnds = _matchStart + _durationSuggestConfirm;\n      timeClaimsExpire = timeSuggestConfirmEnds + 8 weeks;\n  }\n\n  /* OLD BET FUNCTION: gas: 93620,  93627, 94136 */\n  /* OLD BET FUNCTION: KOVAN: 54857 */\n\n  // KOVAN: 84260\n  function betOnPlayer1() external payable\n      isNotCancelled\n      isBettingPhase\n      hasMinWei\n  {\n      betsPlayer1[msg.sender] = betsPlayer1[msg.sender].add(msg.value);\n      numBetsPlayer1 += 1;\n      totalPlayer1 = totalPlayer1.add(msg.value);\n  }\n\n  // 53534, 83534\n  function betOnPlayer2() external payable\n      isNotCancelled\n      isBettingPhase\n      hasMinWei\n  {\n      betsPlayer2[msg.sender] = betsPlayer2[msg.sender].add(msg.value);\n      numBetsPlayer2 += 1;\n      totalPlayer2 = totalPlayer2.add(msg.value);\n  }\n\n\n  /* kovan: 97000 gas, 106694, 106716 */\n  // gas used when not first call (second or higher call): 76716\n  // oraclize fee paid: 0.0018277 ether\n  function fetchMatchStatus(uint _delay) private {\n      string memory query = strConcat('json(', URL, ').fixture.status');\n      queryStatus = fetch(query, _delay, GAS_LIMIT_MATCHSTATUS);\n  }\n\n  function fetchGoalsP1(uint _delay, bool _isPenalty) private {\n      string memory query;\n\n      if (_isPenalty == true) {\n        query = strConcat('json(', URL, ').fixture.result.penaltyShootout.goalsHomeTeam');\n        queryGoalsP1 = fetch(query, _delay, GAS_LIMIT_GOALS_PENALTY);\n      } else {\n        query = strConcat('json(', URL, ').fixture.result.goalsHomeTeam');\n        queryGoalsP1 = fetch(query, _delay, GAS_LIMIT_GOALS);\n      }\n  }\n\n  function fetchGoalsP2(uint _delay, bool _isPenalty) private {\n      string memory query;\n\n      if (_isPenalty == true) {\n        query = strConcat('json(', URL, ').fixture.result.penaltyShootout.goalsAwayTeam');\n        queryGoalsP2 = fetch(query, _delay, GAS_LIMIT_GOALS_PENALTY);\n      } else {\n        query = strConcat('json(', URL, ').fixture.result.goalsAwayTeam');\n        queryGoalsP2 = fetch(query, _delay, GAS_LIMIT_GOALS);\n      }\n  }\n\n  function fetch(string _query, uint _delay, uint _gaslimit) private\n      returns (bytes32)\n  {\n      uint fetchCost = oraclize_getPrice(\"URL\", _gaslimit);\n      if (fetchFund >= fetchCost && fetchAttempt < MAX_FETCH_ATTEMPTS) {\n          fetchAttempt = fetchAttempt.add(1);\n          fetchFund = fetchFund.sub(fetchCost);\n          return oraclize_query(_delay, 'URL', _query, _gaslimit);  \n      } else {\n          emit FetchingFailed(fetchFund, fetchAttempt, MAX_FETCH_ATTEMPTS);\n          return 0x1;\n      }\n  }\n\n\n  // when match is FINISHED the first time: 212461\n  // when match is IN_PLAY: 102053\n  // retrieve goals: 73773, 229709 (paid 2x 0.0003877 fee)\n  // retrieve penalty goals: 43773, 56538\n  function __callback(bytes32 myid, string response) public\n      onlyOraclize\n      isNotWinnerSuggested\n  {\n      // Keeping track of query IDs because one query can result in more than one callback.\n      // Once callback received, query tracker set to 0 to prevent double handling of response.\n      // See https://docs.oraclize.it/#ethereum-best-practices-mapping-query-ids\n      if (myid == queryStatus && matchFinished == false) {\n          _handleMatchStatusResponse(response);\n      } else if (myid == queryGoalsP1) {\n          _handleGoalsP1Response(response);\n      } else if (myid == queryGoalsP2) {\n          _handleGoalsP2Response(response);\n      }\n  }\n\n  function _handleMatchStatusResponse(string response) private {\n      if (isFinished(response)) {\n          matchFinished = true;\n\n          fetchGoalsP1(0, false);\n          fetchGoalsP2(0, false);\n      } else {\n          fetchMatchStatus(FETCH_INTERVAL);\n      }\n  }\n\n  function _handleGoalsP1Response(string strGoals) private {\n      bytes memory byteGoals = bytes(strGoals);\n\n      if(byteGoals.length == 0) {\n          fetchGoalsP1(FETCH_INTERVAL, fetchingPenaltyGoals);\n      } else {\n          goalsP1 = parseInt(strGoals);\n          goalsP1Fetched = true;\n\n          if (goalsP2Fetched == true) {\n              _suggestWinner(goalsP1, goalsP2);\n          }\n      }\n  }\n\n  function _handleGoalsP2Response(string strGoals) private {\n      bytes memory byteGoals = bytes(strGoals);\n\n      if(byteGoals.length == 0) {\n          fetchGoalsP2(FETCH_INTERVAL, fetchingPenaltyGoals);\n      } else {\n          goalsP2 = parseInt(strGoals);\n          goalsP2Fetched = true;\n\n          if (goalsP1Fetched == true) {\n              _suggestWinner(goalsP1, goalsP2);\n          }\n      }\n  }\n\n  function _suggestWinner(uint _goalsP1, uint _goalsP2) private {\n      if (_goalsP1 > _goalsP2) {\n          winner = Winner.Player1;\n          winnerSuggested = true;\n          emit WinnerSuggested(winner);\n      } else if (_goalsP1 < _goalsP2) {\n          winner = Winner.Player2;\n          winnerSuggested = true;\n          emit WinnerSuggested(winner);\n      } else {\n          // same amount of goals\n          if (isGroupPhase == true) {\n              winner = Winner.Draw;\n              winnerSuggested = true;\n              emit WinnerSuggested(winner);\n          } else {\n              // If this is reached match is knockout-match, meaning no draw is possible\n              // --> Fetch penalty shootout goals\n              // If still P1 and P2 have same amount of goals (shouldn't happen), MAX_FETCH_ATTEMPTS eventually cancels the bet\n              fetchingPenaltyGoals = true;\n              goalsP1Fetched = false;\n              goalsP2Fetched = false;\n              fetchGoalsP1(0, true);\n              fetchGoalsP2(0, true);\n          }\n      }\n  }\n\n  // gas: 106286, 126500\n  // WHEN already confirmed (fail): 24450\n  function confirmWinner(uint _winnerAsInt) external\n      onlyOwner\n      isNotCancelled\n      isWinnerSuggested\n      cancelIfTooLateForConfirmation\n      isFirstConfirmCall // alternative modifier: canBeCancelled\n  {\n      require(isValidWinner(_winnerAsInt));\n      ownerCalledConfirmFunction = true;\n\n      if (winner == Winner(_winnerAsInt)) {\n          winnerConfirmed = true;\n\n          pool = totalPlayer1.add(totalPlayer2);\n\n          if (pool > 0) {\n              uint feeAmount = pool.mul(FEE_PERCENT).div(100);\n              feeEarning = feeAmount;\n              payoutPool = pool.sub(feeAmount);\n              remainingPayoutPool = payoutPool;\n              owner.transfer(feeAmount);\n          } else {\n              payoutPool = 0;\n          }\n\n          emit WinnerConfirmed(winner);\n      } else {\n          cancelInternal();\n      }\n  }\n\n  function cancel() public\n      onlyOwner\n  {\n      cancelInternal();\n  }\n\n  function cancelInternal() private\n      isNotCancelled\n      canBeCancelled\n  {\n      status = Status.Cancelled;\n      payoutPool = totalPlayer1.add(totalPlayer2);\n      remainingPayoutPool = payoutPool;\n\n      emit BettingCancelled(p1, p2);\n  }\n\n  function updateStatus() external\n      isNotCancelled\n      canBeCancelled\n  {\n      if (now > timeSuggestConfirmEnds && winnerConfirmed == false) {\n        cancelInternal();\n      }\n  }\n\n  // KOVAN start fetch (enough gas): 142302\n  // kOVAN fee transfered to oraclize: 0.0013777\n  // KOVAN claim success: 90976, 45976, 29300, 22150\n  function claimWinOrDraw() external\n      isNotCancelled\n      canStartFetch\n      cancelIfTooLateForConfirmation\n      startFetchingIfUnstarted\n      isWinnerConfirmed\n      isClaimNotExpired\n  {\n      uint payout;\n      // Check if msg.sender has bets on winner team\n      if (winner == Winner.Player1 && betsPlayer1[msg.sender] > 0) {\n          payout = payoutPool.mul(betsPlayer1[msg.sender]).div(totalPlayer1);\n          betsPlayer1[msg.sender] = 0;\n      } else if (winner == Winner.Player2 && betsPlayer2[msg.sender] > 0) {\n          payout = payoutPool.mul(betsPlayer2[msg.sender]).div(totalPlayer2);\n          betsPlayer2[msg.sender] = 0;\n      } else if (winner == Winner.Draw &&\n          (betsPlayer1[msg.sender] > 0 || betsPlayer2[msg.sender] > 0))\n      {\n          payout = betsPlayer1[msg.sender].add(betsPlayer2[msg.sender]).mul(100-FEE_PERCENT).div(100);\n          betsPlayer1[msg.sender] = 0;\n          betsPlayer2[msg.sender] = 0;\n      } else {\n          revert();\n      }\n\n      require(remainingPayoutPool >= payout);\n      remainingPayoutPool = remainingPayoutPool.sub(payout);\n\n      msg.sender.transfer(payout);\n  }\n\n  function claimRefund() external\n      isCancelled\n      isClaimNotExpired\n      hasBets\n  {\n      uint refund = betsPlayer1[msg.sender].add(betsPlayer2[msg.sender]);\n      betsPlayer1[msg.sender] = 0;\n      betsPlayer2[msg.sender] = 0;\n\n      require(remainingPayoutPool >= refund);\n      remainingPayoutPool = remainingPayoutPool.sub(refund);\n      \n      msg.sender.transfer(refund);\n  }\n\n  // collects unclaimed payouts and dust from wei divisions\n  function claimExpired() external\n      onlyOwner\n      isExpiredPhase\n  {\n      payoutPool = 0;\n      fetchFund = 0;\n\n      msg.sender.transfer(address(this).balance);\n  }\n\n  function fundFetching() public payable\n      isNotCancelled\n      isNotWinnerSuggested\n      cancelIfTooLateForConfirmation\n      enoughFetchFund\n  {\n      fetchFund = fetchFund.add(msg.value);\n      fetchAttempt = 0;\n      isFetchingStarted = true;\n      fetchMatchStatus(0);\n  }\n\n  // If funding needed, returns amount of Wei needed for a fund (+10% safety buffer)\n  // If no additional funds needed, it throws.\n  function fundingNeeded() public view \n      returns (uint)\n  {\n      uint costPerFetch = oraclize_getPrice(\"URL\", MAX_GAS).mul(11).div(10);\n      require(fetchFund < costPerFetch);\n\n      return NORMAL_MAX_FETCHES * costPerFetch;\n  }\n\n  function increaseGasPriceBy(uint _extra) external\n      onlyOwner\n  {\n      MAX_GAS_PRICE = MAX_GAS_PRICE.add(_extra);\n  }\n\n  /* fallback function */\n  function () external payable {\n      revert(); \n  }\n}\n",
  "sourcePath": "/home/mo/dev/ethercup/backend/contracts/Bet.sol",
  "compiler": {
    "name": "solc",
    "version": "0.4.24+commit.e67f0147.Emscripten.clang"
  },
  "schemaVersion": "2.0.0",
  "updatedAt": "2018-06-01T20:34:37.960Z"
}