{
  "contractName": "Bet",
  "abi": [
    {
      "constant": true,
      "inputs": [],
      "name": "pool",
      "outputs": [
        {
          "name": "",
          "type": "uint256"
        }
      ],
      "payable": false,
      "stateMutability": "view",
      "type": "function"
    },
    {
      "constant": true,
      "inputs": [],
      "name": "status",
      "outputs": [
        {
          "name": "",
          "type": "uint8"
        }
      ],
      "payable": false,
      "stateMutability": "view",
      "type": "function"
    },
    {
      "constant": true,
      "inputs": [],
      "name": "goalsP1",
      "outputs": [
        {
          "name": "",
          "type": "uint256"
        }
      ],
      "payable": false,
      "stateMutability": "view",
      "type": "function"
    },
    {
      "constant": true,
      "inputs": [],
      "name": "matchFinished",
      "outputs": [
        {
          "name": "",
          "type": "bool"
        }
      ],
      "payable": false,
      "stateMutability": "view",
      "type": "function"
    },
    {
      "constant": true,
      "inputs": [],
      "name": "group",
      "outputs": [
        {
          "name": "",
          "type": "string"
        }
      ],
      "payable": false,
      "stateMutability": "view",
      "type": "function"
    },
    {
      "constant": true,
      "inputs": [],
      "name": "total",
      "outputs": [
        {
          "name": "",
          "type": "uint256"
        }
      ],
      "payable": false,
      "stateMutability": "view",
      "type": "function"
    },
    {
      "constant": true,
      "inputs": [],
      "name": "timeMatchEnds",
      "outputs": [
        {
          "name": "",
          "type": "uint256"
        }
      ],
      "payable": false,
      "stateMutability": "view",
      "type": "function"
    },
    {
      "constant": true,
      "inputs": [
        {
          "name": "",
          "type": "address"
        }
      ],
      "name": "betsPlayer2",
      "outputs": [
        {
          "name": "",
          "type": "uint256"
        }
      ],
      "payable": false,
      "stateMutability": "view",
      "type": "function"
    },
    {
      "constant": true,
      "inputs": [],
      "name": "ownerCalledConfirmFunction",
      "outputs": [
        {
          "name": "",
          "type": "bool"
        }
      ],
      "payable": false,
      "stateMutability": "view",
      "type": "function"
    },
    {
      "constant": true,
      "inputs": [],
      "name": "payoutPool",
      "outputs": [
        {
          "name": "",
          "type": "uint256"
        }
      ],
      "payable": false,
      "stateMutability": "view",
      "type": "function"
    },
    {
      "constant": true,
      "inputs": [],
      "name": "totalPlayer2",
      "outputs": [
        {
          "name": "",
          "type": "uint256"
        }
      ],
      "payable": false,
      "stateMutability": "view",
      "type": "function"
    },
    {
      "constant": true,
      "inputs": [],
      "name": "timeSuggestConfirmEnds",
      "outputs": [
        {
          "name": "",
          "type": "uint256"
        }
      ],
      "payable": false,
      "stateMutability": "view",
      "type": "function"
    },
    {
      "constant": true,
      "inputs": [],
      "name": "numBetsPlayer1",
      "outputs": [
        {
          "name": "",
          "type": "uint256"
        }
      ],
      "payable": false,
      "stateMutability": "view",
      "type": "function"
    },
    {
      "constant": true,
      "inputs": [],
      "name": "totalPlayer1",
      "outputs": [
        {
          "name": "",
          "type": "uint256"
        }
      ],
      "payable": false,
      "stateMutability": "view",
      "type": "function"
    },
    {
      "constant": true,
      "inputs": [],
      "name": "winnerConfirmed",
      "outputs": [
        {
          "name": "",
          "type": "bool"
        }
      ],
      "payable": false,
      "stateMutability": "view",
      "type": "function"
    },
    {
      "constant": true,
      "inputs": [],
      "name": "goalsP1Fetched",
      "outputs": [
        {
          "name": "",
          "type": "bool"
        }
      ],
      "payable": false,
      "stateMutability": "view",
      "type": "function"
    },
    {
      "constant": true,
      "inputs": [],
      "name": "p2",
      "outputs": [
        {
          "name": "",
          "type": "string"
        }
      ],
      "payable": false,
      "stateMutability": "view",
      "type": "function"
    },
    {
      "constant": true,
      "inputs": [],
      "name": "timeClaimsExpire",
      "outputs": [
        {
          "name": "",
          "type": "uint256"
        }
      ],
      "payable": false,
      "stateMutability": "view",
      "type": "function"
    },
    {
      "constant": true,
      "inputs": [],
      "name": "isGroupPhase",
      "outputs": [
        {
          "name": "",
          "type": "bool"
        }
      ],
      "payable": false,
      "stateMutability": "view",
      "type": "function"
    },
    {
      "constant": true,
      "inputs": [],
      "name": "queryGoalsP1",
      "outputs": [
        {
          "name": "",
          "type": "bytes32"
        }
      ],
      "payable": false,
      "stateMutability": "view",
      "type": "function"
    },
    {
      "constant": true,
      "inputs": [],
      "name": "owner",
      "outputs": [
        {
          "name": "",
          "type": "address"
        }
      ],
      "payable": false,
      "stateMutability": "view",
      "type": "function"
    },
    {
      "constant": true,
      "inputs": [],
      "name": "timeBettingOpens",
      "outputs": [
        {
          "name": "",
          "type": "uint256"
        }
      ],
      "payable": false,
      "stateMutability": "view",
      "type": "function"
    },
    {
      "constant": true,
      "inputs": [],
      "name": "numBetsPlayer2",
      "outputs": [
        {
          "name": "",
          "type": "uint256"
        }
      ],
      "payable": false,
      "stateMutability": "view",
      "type": "function"
    },
    {
      "constant": true,
      "inputs": [],
      "name": "queryGoalsP2",
      "outputs": [
        {
          "name": "",
          "type": "bytes32"
        }
      ],
      "payable": false,
      "stateMutability": "view",
      "type": "function"
    },
    {
      "constant": true,
      "inputs": [],
      "name": "goalsP2Fetched",
      "outputs": [
        {
          "name": "",
          "type": "bool"
        }
      ],
      "payable": false,
      "stateMutability": "view",
      "type": "function"
    },
    {
      "constant": true,
      "inputs": [],
      "name": "p1",
      "outputs": [
        {
          "name": "",
          "type": "string"
        }
      ],
      "payable": false,
      "stateMutability": "view",
      "type": "function"
    },
    {
      "constant": true,
      "inputs": [],
      "name": "queryStatus",
      "outputs": [
        {
          "name": "",
          "type": "bytes32"
        }
      ],
      "payable": false,
      "stateMutability": "view",
      "type": "function"
    },
    {
      "constant": true,
      "inputs": [],
      "name": "winnerSuggested",
      "outputs": [
        {
          "name": "",
          "type": "bool"
        }
      ],
      "payable": false,
      "stateMutability": "view",
      "type": "function"
    },
    {
      "constant": true,
      "inputs": [],
      "name": "fetchAttempt",
      "outputs": [
        {
          "name": "",
          "type": "uint256"
        }
      ],
      "payable": false,
      "stateMutability": "view",
      "type": "function"
    },
    {
      "constant": true,
      "inputs": [],
      "name": "isFetchingStarted",
      "outputs": [
        {
          "name": "",
          "type": "bool"
        }
      ],
      "payable": false,
      "stateMutability": "view",
      "type": "function"
    },
    {
      "constant": true,
      "inputs": [
        {
          "name": "",
          "type": "address"
        }
      ],
      "name": "betsPlayer1",
      "outputs": [
        {
          "name": "",
          "type": "uint256"
        }
      ],
      "payable": false,
      "stateMutability": "view",
      "type": "function"
    },
    {
      "constant": true,
      "inputs": [],
      "name": "gameId",
      "outputs": [
        {
          "name": "",
          "type": "string"
        }
      ],
      "payable": false,
      "stateMutability": "view",
      "type": "function"
    },
    {
      "constant": true,
      "inputs": [],
      "name": "winner",
      "outputs": [
        {
          "name": "",
          "type": "uint8"
        }
      ],
      "payable": false,
      "stateMutability": "view",
      "type": "function"
    },
    {
      "constant": true,
      "inputs": [],
      "name": "timeBettingCloses",
      "outputs": [
        {
          "name": "",
          "type": "uint256"
        }
      ],
      "payable": false,
      "stateMutability": "view",
      "type": "function"
    },
    {
      "constant": true,
      "inputs": [],
      "name": "fetchingPenaltyGoals",
      "outputs": [
        {
          "name": "",
          "type": "bool"
        }
      ],
      "payable": false,
      "stateMutability": "view",
      "type": "function"
    },
    {
      "constant": false,
      "inputs": [
        {
          "name": "newOwner",
          "type": "address"
        }
      ],
      "name": "transferOwnership",
      "outputs": [],
      "payable": false,
      "stateMutability": "nonpayable",
      "type": "function"
    },
    {
      "constant": true,
      "inputs": [],
      "name": "goalsP2",
      "outputs": [
        {
          "name": "",
          "type": "uint256"
        }
      ],
      "payable": false,
      "stateMutability": "view",
      "type": "function"
    },
    {
      "constant": true,
      "inputs": [],
      "name": "test",
      "outputs": [
        {
          "name": "",
          "type": "string"
        }
      ],
      "payable": false,
      "stateMutability": "view",
      "type": "function"
    },
    {
      "constant": true,
      "inputs": [],
      "name": "feeEarning",
      "outputs": [
        {
          "name": "",
          "type": "uint256"
        }
      ],
      "payable": false,
      "stateMutability": "view",
      "type": "function"
    },
    {
      "inputs": [
        {
          "name": "_gameId",
          "type": "string"
        },
        {
          "name": "_group",
          "type": "string"
        },
        {
          "name": "_p1",
          "type": "string"
        },
        {
          "name": "_p2",
          "type": "string"
        },
        {
          "name": "_isGroupPhase",
          "type": "bool"
        },
        {
          "name": "_matchStart",
          "type": "uint256"
        },
        {
          "name": "_durationBetting",
          "type": "uint256"
        },
        {
          "name": "_durationSuggestConfirm",
          "type": "uint256"
        }
      ],
      "payable": true,
      "stateMutability": "payable",
      "type": "constructor"
    },
    {
      "payable": true,
      "stateMutability": "payable",
      "type": "fallback"
    },
    {
      "anonymous": false,
      "inputs": [
        {
          "indexed": false,
          "name": "balance",
          "type": "uint256"
        },
        {
          "indexed": false,
          "name": "fetchAttempt",
          "type": "uint256"
        },
        {
          "indexed": false,
          "name": "MAX_FETCH_ATTEMPTS",
          "type": "uint256"
        }
      ],
      "name": "FetchingFailed",
      "type": "event"
    },
    {
      "anonymous": false,
      "inputs": [
        {
          "indexed": false,
          "name": "winner",
          "type": "uint8"
        }
      ],
      "name": "WinnerSuggested",
      "type": "event"
    },
    {
      "anonymous": false,
      "inputs": [
        {
          "indexed": false,
          "name": "winner",
          "type": "uint8"
        }
      ],
      "name": "WinnerConfirmed",
      "type": "event"
    },
    {
      "anonymous": false,
      "inputs": [
        {
          "indexed": false,
          "name": "p1",
          "type": "string"
        },
        {
          "indexed": false,
          "name": "p2",
          "type": "string"
        }
      ],
      "name": "BettingCancelled",
      "type": "event"
    },
    {
      "anonymous": false,
      "inputs": [
        {
          "indexed": true,
          "name": "previousOwner",
          "type": "address"
        },
        {
          "indexed": true,
          "name": "newOwner",
          "type": "address"
        }
      ],
      "name": "OwnershipTransferred",
      "type": "event"
    },
    {
      "constant": false,
      "inputs": [],
      "name": "getMinOraclizeGasCost",
      "outputs": [
        {
          "name": "",
          "type": "uint256"
        }
      ],
      "payable": false,
      "stateMutability": "nonpayable",
      "type": "function"
    },
    {
      "constant": false,
      "inputs": [
        {
          "name": "_matchStart",
          "type": "uint256"
        },
        {
          "name": "_durationBetting",
          "type": "uint256"
        },
        {
          "name": "_durationSuggestConfirm",
          "type": "uint256"
        }
      ],
      "name": "_setTimes",
      "outputs": [],
      "payable": false,
      "stateMutability": "nonpayable",
      "type": "function"
    },
    {
      "constant": false,
      "inputs": [],
      "name": "betOnPlayer1",
      "outputs": [],
      "payable": true,
      "stateMutability": "payable",
      "type": "function"
    },
    {
      "constant": false,
      "inputs": [],
      "name": "betOnPlayer2",
      "outputs": [],
      "payable": true,
      "stateMutability": "payable",
      "type": "function"
    },
    {
      "constant": false,
      "inputs": [
        {
          "name": "_delay",
          "type": "uint256"
        }
      ],
      "name": "fetchMatchStatus",
      "outputs": [],
      "payable": false,
      "stateMutability": "nonpayable",
      "type": "function"
    },
    {
      "constant": false,
      "inputs": [
        {
          "name": "_delay",
          "type": "uint256"
        },
        {
          "name": "_isPenalty",
          "type": "bool"
        }
      ],
      "name": "fetchGoalsP1",
      "outputs": [],
      "payable": false,
      "stateMutability": "nonpayable",
      "type": "function"
    },
    {
      "constant": false,
      "inputs": [
        {
          "name": "_delay",
          "type": "uint256"
        },
        {
          "name": "_isPenalty",
          "type": "bool"
        }
      ],
      "name": "fetchGoalsP2",
      "outputs": [],
      "payable": false,
      "stateMutability": "nonpayable",
      "type": "function"
    },
    {
      "constant": false,
      "inputs": [
        {
          "name": "_query",
          "type": "string"
        },
        {
          "name": "_delay",
          "type": "uint256"
        }
      ],
      "name": "fetch",
      "outputs": [
        {
          "name": "",
          "type": "bytes32"
        }
      ],
      "payable": false,
      "stateMutability": "nonpayable",
      "type": "function"
    },
    {
      "constant": false,
      "inputs": [
        {
          "name": "myid",
          "type": "bytes32"
        },
        {
          "name": "result",
          "type": "string"
        },
        {
          "name": "proof",
          "type": "bytes"
        }
      ],
      "name": "__callback",
      "outputs": [],
      "payable": false,
      "stateMutability": "nonpayable",
      "type": "function"
    },
    {
      "constant": false,
      "inputs": [
        {
          "name": "myid",
          "type": "bytes32"
        },
        {
          "name": "response",
          "type": "string"
        }
      ],
      "name": "__callback",
      "outputs": [],
      "payable": false,
      "stateMutability": "nonpayable",
      "type": "function"
    },
    {
      "constant": false,
      "inputs": [
        {
          "name": "response",
          "type": "string"
        }
      ],
      "name": "_handleMatchStatusResponse",
      "outputs": [],
      "payable": false,
      "stateMutability": "nonpayable",
      "type": "function"
    },
    {
      "constant": false,
      "inputs": [
        {
          "name": "strGoals",
          "type": "string"
        }
      ],
      "name": "_handleGoalsP1Response",
      "outputs": [],
      "payable": false,
      "stateMutability": "nonpayable",
      "type": "function"
    },
    {
      "constant": false,
      "inputs": [
        {
          "name": "strGoals",
          "type": "string"
        }
      ],
      "name": "_handleGoalsP2Response",
      "outputs": [],
      "payable": false,
      "stateMutability": "nonpayable",
      "type": "function"
    },
    {
      "constant": false,
      "inputs": [
        {
          "name": "_goalsP1",
          "type": "uint256"
        },
        {
          "name": "_goalsP2",
          "type": "uint256"
        }
      ],
      "name": "_suggestWinner",
      "outputs": [],
      "payable": false,
      "stateMutability": "nonpayable",
      "type": "function"
    },
    {
      "constant": false,
      "inputs": [
        {
          "name": "_winnerAsInt",
          "type": "uint8"
        }
      ],
      "name": "confirmWinner",
      "outputs": [],
      "payable": false,
      "stateMutability": "nonpayable",
      "type": "function"
    },
    {
      "constant": false,
      "inputs": [],
      "name": "cancel",
      "outputs": [],
      "payable": false,
      "stateMutability": "nonpayable",
      "type": "function"
    },
    {
      "constant": false,
      "inputs": [],
      "name": "claimWinOrDraw",
      "outputs": [],
      "payable": false,
      "stateMutability": "nonpayable",
      "type": "function"
    },
    {
      "constant": false,
      "inputs": [],
      "name": "claimCancelled",
      "outputs": [],
      "payable": false,
      "stateMutability": "nonpayable",
      "type": "function"
    },
    {
      "constant": false,
      "inputs": [],
      "name": "claimExpired",
      "outputs": [],
      "payable": false,
      "stateMutability": "nonpayable",
      "type": "function"
    },
    {
      "constant": false,
      "inputs": [
        {
          "name": "_extra",
          "type": "uint256"
        }
      ],
      "name": "increaseGasPriceBy",
      "outputs": [],
      "payable": false,
      "stateMutability": "nonpayable",
      "type": "function"
    }
  ],
  "bytecode": "0x60806040526001600560146101000a81548160ff021916908360018111156200002457fe5b0217905550640165a0bc0060105560016012556000601360006101000a81548160ff0219169083151502179055506000601360016101000a81548160ff0219169083151502179055506000601a60006101000a81548160ff0219169083151502179055506000601a60016101000a81548160ff0219169083151502179055506000601a60026101000a81548160ff0219169083151502179055506000601a60036101000a81548160ff0219169083151502179055506000601a60046101000a81548160ff0219169083151502179055506000601a60056101000a81548160ff021916908315150217905550604051620061f0380380620061f0833981018060405281019080805182019291906020018051820192919060200180518201929190602001805182019291906020018051906020019092919080519060200190929190805190602001909291908051906020019092919050505033600560006101000a81548173ffffffffffffffffffffffffffffffffffffffff021916908373ffffffffffffffffffffffffffffffffffffffff160217905550620001d96010546200030f640100000000026401000000009004565b60405180807f46494e4953484544000000000000000000000000000000000000000000000000815250600801905060405180910390206014816000191690555087600690805190602001906200023192919062000c51565b5086600790805190602001906200024a92919062000c51565b5085600890805190602001906200026392919062000c51565b5084600990805190602001906200027c92919062000c51565b5083600a60006101000a81548160ff0219169083151502179055506040805190810160405280601a81526020017f68747470733a2f2f6d6f686f66662e64652f6c6976652e74787400000000000081525060119080519060200190620002e492919062000c51565b50620003018383836200067f640100000000026401000000009004565b505050505050505062000d00565b60008060009054906101000a900473ffffffffffffffffffffffffffffffffffffffff1673ffffffffffffffffffffffffffffffffffffffff16148062000390575060006200038e6000809054906101000a900473ffffffffffffffffffffffffffffffffffffffff16620006d0640100000000026401000000009004565b145b15620003b357620003b16000620006db640100000000026401000000009004565b505b6000809054906101000a900473ffffffffffffffffffffffffffffffffffffffff1673ffffffffffffffffffffffffffffffffffffffff166338cc48316040518163ffffffff167c0100000000000000000000000000000000000000000000000000000000028152600401602060405180830381600087803b1580156200043957600080fd5b505af11580156200044e573d6000803e3d6000fd5b505050506040513d60208110156200046557600080fd5b810190808051906020019092919050505073ffffffffffffffffffffffffffffffffffffffff16600160009054906101000a900473ffffffffffffffffffffffffffffffffffffffff1673ffffffffffffffffffffffffffffffffffffffff16141515620005d1576000809054906101000a900473ffffffffffffffffffffffffffffffffffffffff1673ffffffffffffffffffffffffffffffffffffffff166338cc48316040518163ffffffff167c0100000000000000000000000000000000000000000000000000000000028152600401602060405180830381600087803b1580156200055357600080fd5b505af115801562000568573d6000803e3d6000fd5b505050506040513d60208110156200057f57600080fd5b8101908080519060200190929190505050600160006101000a81548173ffffffffffffffffffffffffffffffffffffffff021916908373ffffffffffffffffffffffffffffffffffffffff1602179055505b600160009054906101000a900473ffffffffffffffffffffffffffffffffffffffff1673ffffffffffffffffffffffffffffffffffffffff1663ca6ad1e4826040518263ffffffff167c010000000000000000000000000000000000000000000000000000000002815260040180828152602001915050600060405180830381600087803b1580156200066357600080fd5b505af115801562000678573d6000803e3d6000fd5b5050505050565b611c2081101515156200069157600080fd5b6103848303600c81905550818303600b8190555061189c600c5401600d8190555080600d5401600e819055506249d400600e5401600f81905550505050565b6000813b9050919050565b6000806200070c731d3b2638a7cc9f2cb3d298a3da7a90b67e5506ed620006d0640100000000026401000000009004565b1115620007c057731d3b2638a7cc9f2cb3d298a3da7a90b67e5506ed6000806101000a81548173ffffffffffffffffffffffffffffffffffffffff021916908373ffffffffffffffffffffffffffffffffffffffff160217905550620007b66040805190810160405280600b81526020017f6574685f6d61696e6e657400000000000000000000000000000000000000000081525062000c35640100000000026401000000009004565b6001905062000c30565b6000620007f073c03a2615d5efaf5f49f60b7bb6583eaec212fdf1620006d0640100000000026401000000009004565b1115620008a45773c03a2615d5efaf5f49f60b7bb6583eaec212fdf16000806101000a81548173ffffffffffffffffffffffffffffffffffffffff021916908373ffffffffffffffffffffffffffffffffffffffff1602179055506200089a6040805190810160405280600c81526020017f6574685f726f707374656e33000000000000000000000000000000000000000081525062000c35640100000000026401000000009004565b6001905062000c30565b6000620008d473b7a07bcf2ba2f2703b24c0691b5278999c59ac7e620006d0640100000000026401000000009004565b1115620009885773b7a07bcf2ba2f2703b24c0691b5278999c59ac7e6000806101000a81548173ffffffffffffffffffffffffffffffffffffffff021916908373ffffffffffffffffffffffffffffffffffffffff1602179055506200097e6040805190810160405280600981526020017f6574685f6b6f76616e000000000000000000000000000000000000000000000081525062000c35640100000000026401000000009004565b6001905062000c30565b6000620009b873146500cfd35b22e4a392fe0adc06de1a1368ed48620006d0640100000000026401000000009004565b111562000a6c5773146500cfd35b22e4a392fe0adc06de1a1368ed486000806101000a81548173ffffffffffffffffffffffffffffffffffffffff021916908373ffffffffffffffffffffffffffffffffffffffff16021790555062000a626040805190810160405280600b81526020017f6574685f72696e6b65627900000000000000000000000000000000000000000081525062000c35640100000000026401000000009004565b6001905062000c30565b600062000a9c736f485c8bf6fc43ea212e93bbf8ce046c7f1cb475620006d0640100000000026401000000009004565b111562000b0157736f485c8bf6fc43ea212e93bbf8ce046c7f1cb4756000806101000a81548173ffffffffffffffffffffffffffffffffffffffff021916908373ffffffffffffffffffffffffffffffffffffffff1602179055506001905062000c30565b600062000b317320e12a1f859b3feae5fb2a0a32c18f5a65555bbf620006d0640100000000026401000000009004565b111562000b96577320e12a1f859b3feae5fb2a0a32c18f5a65555bbf6000806101000a81548173ffffffffffffffffffffffffffffffffffffffff021916908373ffffffffffffffffffffffffffffffffffffffff1602179055506001905062000c30565b600062000bc67351efaf4c8b3c9afbd5ab9f4bbc82784ab6ef8faa620006d0640100000000026401000000009004565b111562000c2b577351efaf4c8b3c9afbd5ab9f4bbc82784ab6ef8faa6000806101000a81548173ffffffffffffffffffffffffffffffffffffffff021916908373ffffffffffffffffffffffffffffffffffffffff1602179055506001905062000c30565b600090505b919050565b806002908051906020019062000c4d92919062000c51565b5050565b828054600181600116156101000203166002900490600052602060002090601f016020900481019282601f1062000c9457805160ff191683800117855562000cc5565b8280016001018555821562000cc5579182015b8281111562000cc457825182559160200191906001019062000ca7565b5b50905062000cd4919062000cd8565b5090565b62000cfd91905b8082111562000cf957600081600090555060010162000cdf565b5090565b90565b6154e08062000d106000396000f3006080604052600436106102bf576000357c0100000000000000000000000000000000000000000000000000000000900463ffffffff16806316f0115b1461032d578063200d2ed214610358578063205dd5031461039157806321599588146103bc57806327dc297e146103eb578063297116b31461046257806329e7ef2d146104995780632ddbd13a1461052957806338bbfa5014610554578063465f80c81461061157806346ac20541461063c5780634af41535146106935780634c6a28ad1461069d5780634f4d4bf0146106d657806358421344146107055780636273106a1461073e57806365522a2a146107695780637299551f146107965780637583dc65146107c157806377313b501461080257806377df9f4c1461082d5780637a492816146108965780637d99dd78146108c35780637e670b54146108ee5780637f7634ba1461091957806380e8c5861461094857806381d01ed314610977578063833c389014610a0757806385e4fee314610a325780638655286d14610a615780638da5cb5b14610a94578063934b495b14610aeb578063958fe12b14610b16578063968eeabb14610ba55780639d6aa37514610c0e578063a5c93cae14610c77578063abb98c6114610ca2578063af1197a414610cd5578063c2a2747b14610d04578063c3bf930e14610d94578063c75fd34114610dc7578063c80c975b14610dde578063cd58a17114610df5578063cd6011cd14610e24578063ce55671414610e4f578063d061eaac14610e7a578063d2ff19af14610ea9578063d430e3d714610f00578063d7c81b5514610f17578063d80a600614610fa7578063de477c7f14610fb1578063dfbf53ae14610fe1578063e41d9cb71461101a578063e43ea77214611045578063ea8a1af014611074578063f2fde38b1461108b578063f634eafd146110ce578063f8a8fd6d146110f9578063f8fa35bc14611189575b6040517f08c379a00000000000000000000000000000000000000000000000000000000081526004018080602001828103825260138152602001807f46756e6374696f6e206e6f7420666f756e642e0000000000000000000000000081525060200191505060405180910390fd5b34801561033957600080fd5b506103426111b4565b6040518082815260200191505060405180910390f35b34801561036457600080fd5b5061036d6111ba565b6040518082600181111561037d57fe5b60ff16815260200191505060405180910390f35b34801561039d57600080fd5b506103a66111cd565b6040518082815260200191505060405180910390f35b3480156103c857600080fd5b506103d16111d3565b604051808215151515815260200191505060405180910390f35b3480156103f757600080fd5b506104606004803603810190808035600019169060200190929190803590602001908201803590602001908080601f01602080910402602001604051908101604052809392919081815260200183838082843782019150505050505091929192905050506111e6565b005b34801561046e57600080fd5b5061049760048036038101908080359060200190929190803590602001909291905050506112ca565b005b3480156104a557600080fd5b506104ae61152e565b6040518080602001828103825283818151815260200191508051906020019080838360005b838110156104ee5780820151818401526020810190506104d3565b50505050905090810190601f16801561051b5780820380516001836020036101000a031916815260200191505b509250505060405180910390f35b34801561053557600080fd5b5061053e6115cc565b6040518082815260200191505060405180910390f35b34801561056057600080fd5b5061060f6004803603810190808035600019169060200190929190803590602001908201803590602001908080601f0160208091040260200160405190810160405280939291908181526020018383808284378201915050505050509192919290803590602001908201803590602001908080601f01602080910402602001604051908101604052809392919081815260200183838082843782019150505050505091929192905050506115d2565b005b34801561061d57600080fd5b506106266115d7565b6040518082815260200191505060405180910390f35b34801561064857600080fd5b5061067d600480360381019080803573ffffffffffffffffffffffffffffffffffffffff1690602001909291905050506115dd565b6040518082815260200191505060405180910390f35b61069b6115f4565b005b3480156106a957600080fd5b506106d4600480360381019080803590602001909291908035151590602001909291905050506117a6565b005b3480156106e257600080fd5b506106eb611a1d565b604051808215151515815260200191505060405180910390f35b34801561071157600080fd5b5061073c60048036038101908080359060200190929190803515159060200190929190505050611a30565b005b34801561074a57600080fd5b50610753611ca7565b6040518082815260200191505060405180910390f35b34801561077557600080fd5b5061079460048036038101908080359060200190929190505050611cad565b005b3480156107a257600080fd5b506107ab611d0c565b6040518082815260200191505060405180910390f35b3480156107cd57600080fd5b50610800600480360381019080803590602001909291908035906020019092919080359060200190929190505050611d12565b005b34801561080e57600080fd5b50610817611d62565b6040518082815260200191505060405180910390f35b34801561083957600080fd5b50610894600480360381019080803590602001908201803590602001908080601f0160208091040260200160405190810160405280939291908181526020018383808284378201915050505050509192919290505050611d68565b005b3480156108a257600080fd5b506108c160048036038101908080359060200190929190505050611df3565b005b3480156108cf57600080fd5b506108d8611f1e565b6040518082815260200191505060405180910390f35b3480156108fa57600080fd5b50610903611f24565b6040518082815260200191505060405180910390f35b34801561092557600080fd5b5061092e611f2a565b604051808215151515815260200191505060405180910390f35b34801561095457600080fd5b5061095d611f3d565b604051808215151515815260200191505060405180910390f35b34801561098357600080fd5b5061098c611f50565b6040518080602001828103825283818151815260200191508051906020019080838360005b838110156109cc5780820151818401526020810190506109b1565b50505050905090810190601f1680156109f95780820380516001836020036101000a031916815260200191505b509250505060405180910390f35b348015610a1357600080fd5b50610a1c611fee565b6040518082815260200191505060405180910390f35b348015610a3e57600080fd5b50610a47611ff4565b604051808215151515815260200191505060405180910390f35b348015610a6d57600080fd5b50610a76612007565b60405180826000191660001916815260200191505060405180910390f35b348015610aa057600080fd5b50610aa961200d565b604051808273ffffffffffffffffffffffffffffffffffffffff1673ffffffffffffffffffffffffffffffffffffffff16815260200191505060405180910390f35b348015610af757600080fd5b50610b00612033565b6040518082815260200191505060405180910390f35b348015610b2257600080fd5b50610b87600480360381019080803590602001908201803590602001908080601f016020809104026020016040519081016040528093929190818152602001838380828437820191505050505050919291929080359060200190929190505050612039565b60405180826000191660001916815260200191505060405180910390f35b348015610bb157600080fd5b50610c0c600480360381019080803590602001908201803590602001908080601f01602080910402602001604051908101604052809392919081815260200183838082843782019150505050505091929192905050506121a2565b005b348015610c1a57600080fd5b50610c75600480360381019080803590602001908201803590602001908080601f016020809104026020016040519081016040528093929190818152602001838380828437820191505050505050919291929050505061222d565b005b348015610c8357600080fd5b50610c8c61229c565b6040518082815260200191505060405180910390f35b348015610cae57600080fd5b50610cb76122a2565b60405180826000191660001916815260200191505060405180910390f35b348015610ce157600080fd5b50610cea6122a8565b604051808215151515815260200191505060405180910390f35b348015610d1057600080fd5b50610d196122bb565b6040518080602001828103825283818151815260200191508051906020019080838360005b83811015610d59578082015181840152602081019050610d3e565b50505050905090810190601f168015610d865780820380516001836020036101000a031916815260200191505b509250505060405180910390f35b348015610da057600080fd5b50610da9612359565b60405180826000191660001916815260200191505060405180910390f35b348015610dd357600080fd5b50610ddc61235f565b005b348015610dea57600080fd5b50610df3612433565b005b348015610e0157600080fd5b50610e0a6127a8565b604051808215151515815260200191505060405180910390f35b348015610e3057600080fd5b50610e396127bb565b6040518082815260200191505060405180910390f35b348015610e5b57600080fd5b50610e64612804565b6040518082815260200191505060405180910390f35b348015610e8657600080fd5b50610e8f61280a565b604051808215151515815260200191505060405180910390f35b348015610eb557600080fd5b50610eea600480360381019080803573ffffffffffffffffffffffffffffffffffffffff16906020019092919050505061281d565b6040518082815260200191505060405180910390f35b348015610f0c57600080fd5b50610f15612835565b005b348015610f2357600080fd5b50610f2c612f1d565b6040518080602001828103825283818151815260200191508051906020019080838360005b83811015610f6c578082015181840152602081019050610f51565b50505050905090810190601f168015610f995780820380516001836020036101000a031916815260200191505b509250505060405180910390f35b610faf612fbb565b005b348015610fbd57600080fd5b50610fdf600480360381019080803560ff16906020019092919050505061316d565b005b348015610fed57600080fd5b50610ff66134c9565b6040518082600381111561100657fe5b60ff16815260200191505060405180910390f35b34801561102657600080fd5b5061102f6134dc565b6040518082815260200191505060405180910390f35b34801561105157600080fd5b5061105a6134e2565b604051808215151515815260200191505060405180910390f35b34801561108057600080fd5b506110896134f5565b005b34801561109757600080fd5b506110cc600480360381019080803573ffffffffffffffffffffffffffffffffffffffff1690602001909291905050506137bd565b005b3480156110da57600080fd5b506110e3613915565b6040518082815260200191505060405180910390f35b34801561110557600080fd5b5061110e61391b565b6040518080602001828103825283818151815260200191508051906020019080838360005b8381101561114e578082015181840152602081019050611133565b50505050905090810190601f16801561117b5780820380516001836020036101000a031916815260200191505b509250505060405180910390f35b34801561119557600080fd5b5061119e6139b9565b6040518082815260200191505060405180910390f35b601c5481565b600560149054906101000a900460ff1681565b60185481565b601360019054906101000a900460ff1681565b6111ee6139bf565b73ffffffffffffffffffffffffffffffffffffffff163373ffffffffffffffffffffffffffffffffffffffff1614151561122757600080fd5b60001515601a60039054906101000a900460ff16151514151561124957600080fd5b601554600019168260001916148015611275575060001515601360019054906101000a900460ff161515145b15611288576112838161222d565b6112c6565b60165460001916826000191614156112a8576112a381611d68565b6112c5565b60175460001916826000191614156112c4576112c3816121a2565b5b5b5b5050565b8082111561136a576001601a60066101000a81548160ff021916908360038111156112f157fe5b02179055506001601a60036101000a81548160ff0219169083151502179055507faf402f25d965dbb8046c429c4c6165a2dd4c0df5f2326f426a6a2ff7e404b01b601a60069054906101000a900460ff166040518082600381111561135257fe5b60ff16815260200191505060405180910390a161152a565b8082101561140a576002601a60066101000a81548160ff0219169083600381111561139157fe5b02179055506001601a60036101000a81548160ff0219169083151502179055507faf402f25d965dbb8046c429c4c6165a2dd4c0df5f2326f426a6a2ff7e404b01b601a60069054906101000a900460ff16604051808260038111156113f257fe5b60ff16815260200191505060405180910390a1611529565b60011515600a60009054906101000a900460ff16151514156114be576003601a60066101000a81548160ff0219169083600381111561144557fe5b02179055506001601a60036101000a81548160ff0219169083151502179055507faf402f25d965dbb8046c429c4c6165a2dd4c0df5f2326f426a6a2ff7e404b01b601a60069054906101000a900460ff16604051808260038111156114a657fe5b60ff16815260200191505060405180910390a1611528565b6001601a60026101000a81548160ff0219169083151502179055506000601a60006101000a81548160ff0219169083151502179055506000601a60016101000a81548160ff02191690831515021790555061151b600060016117a6565b61152760006001611a30565b5b5b5b5050565b60078054600181600116156101000203166002900480601f0160208091040260200160405190810160405280929190818152602001828054600181600116156101000203166002900480156115c45780601f10611599576101008083540402835291602001916115c4565b820191906000526020600020905b8154815290600101906020018083116115a757829003601f168201915b505050505081565b60215481565b505050565b600d5481565b602080528060005260406000206000915090505481565b60018081111561160057fe5b600560149054906101000a900460ff16600181111561161b57fe5b14151561162757600080fd5b600b54421015801561163a5750600c5442105b15156116d4576040517f08c379a00000000000000000000000000000000000000000000000000000000081526004018080602001828103825260238152602001807f497420697320746f6f206561726c79206f7220746f6f206c61746520746f206281526020017f65742e000000000000000000000000000000000000000000000000000000000081525060400191505060405180910390fd5b6000341115156116e357600080fd5b61173534602060003373ffffffffffffffffffffffffffffffffffffffff1673ffffffffffffffffffffffffffffffffffffffff16815260200190815260200160002054613d1d90919063ffffffff16565b602060003373ffffffffffffffffffffffffffffffffffffffff1673ffffffffffffffffffffffffffffffffffffffff16815260200190815260200160002081905550600160256000828254019250508190555061179e34602354613d1d90919063ffffffff16565b602381905550565b60606001151582151514156118f2576118eb6040805190810160405280600581526020017f6a736f6e2800000000000000000000000000000000000000000000000000000081525060118054600181600116156101000203166002900480601f0160208091040260200160405190810160405280929190818152602001828054600181600116156101000203166002900480156118845780601f1061185957610100808354040283529160200191611884565b820191906000526020600020905b81548152906001019060200180831161186757829003601f168201915b5050505050606060405190810160405280602e81526020017f292e666978747572652e726573756c742e70656e616c747953686f6f746f757481526020017f2e676f616c73486f6d655465616d000000000000000000000000000000000000815250613d39565b9050611a04565b611a016040805190810160405280600581526020017f6a736f6e2800000000000000000000000000000000000000000000000000000081525060118054600181600116156101000203166002900480601f0160208091040260200160405190810160405280929190818152602001828054600181600116156101000203166002900480156119c15780601f10611996576101008083540402835291602001916119c1565b820191906000526020600020905b8154815290600101906020018083116119a457829003601f168201915b50505050506040805190810160405280601e81526020017f292e666978747572652e726573756c742e676f616c73486f6d655465616d0000815250613d39565b90505b611a0e8184612039565b60168160001916905550505050565b601a60059054906101000a900460ff1681565b6060600115158215151415611b7c57611b756040805190810160405280600581526020017f6a736f6e2800000000000000000000000000000000000000000000000000000081525060118054600181600116156101000203166002900480601f016020809104026020016040519081016040528092919081815260200182805460018160011615610100020316600290048015611b0e5780601f10611ae357610100808354040283529160200191611b0e565b820191906000526020600020905b815481529060010190602001808311611af157829003601f168201915b5050505050606060405190810160405280602e81526020017f292e666978747572652e726573756c742e70656e616c747953686f6f746f757481526020017f2e676f616c73417761795465616d000000000000000000000000000000000000815250613d39565b9050611c8e565b611c8b6040805190810160405280600581526020017f6a736f6e2800000000000000000000000000000000000000000000000000000081525060118054600181600116156101000203166002900480601f016020809104026020016040519081016040528092919081815260200182805460018160011615610100020316600290048015611c4b5780601f10611c2057610100808354040283529160200191611c4b565b820191906000526020600020905b815481529060010190602001808311611c2e57829003601f168201915b50505050506040805190810160405280601e81526020017f292e666978747572652e726573756c742e676f616c73417761795465616d0000815250613d39565b90505b611c988184612039565b60178160001916905550505050565b601d5481565b600560009054906101000a900473ffffffffffffffffffffffffffffffffffffffff1673ffffffffffffffffffffffffffffffffffffffff163373ffffffffffffffffffffffffffffffffffffffff16141515611d0957600080fd5b50565b60235481565b611c208110151515611d2357600080fd5b6103848303600c81905550818303600b8190555061189c600c5401600d8190555080600d5401600e819055506249d400600e5401600f81905550505050565b600e5481565b6000611d7382613d71565b9050601960ff16811115611da157611d9c610708601a60029054906101000a900460ff166117a6565b611def565b806018819055506001601a60006101000a81548160ff02191690831515021790555060011515601a60019054906101000a900460ff1615151415611dee57611ded6018546019546112ca565b5b5b5050565b6060611f046040805190810160405280600581526020017f6a736f6e2800000000000000000000000000000000000000000000000000000081525060118054600181600116156101000203166002900480601f016020809104026020016040519081016040528092919081815260200182805460018160011615610100020316600290048015611ec45780601f10611e9957610100808354040283529160200191611ec4565b820191906000526020600020905b815481529060010190602001808311611ea757829003601f168201915b50505050506040805190810160405280601081526020017f292e666978747572652e73746174757300000000000000000000000000000000815250613d39565b9050611f108183612039565b601581600019169055505050565b60245481565b60225481565b601a60049054906101000a900460ff1681565b601a60009054906101000a900460ff1681565b60098054600181600116156101000203166002900480601f016020809104026020016040519081016040528092919081815260200182805460018160011615610100020316600290048015611fe65780601f10611fbb57610100808354040283529160200191611fe6565b820191906000526020600020905b815481529060010190602001808311611fc957829003601f168201915b505050505081565b600f5481565b600a60009054906101000a900460ff1681565b60165481565b600560009054906101000a900473ffffffffffffffffffffffffffffffffffffffff1681565b600b5481565b600061207d6040805190810160405280600381526020017f55524c0000000000000000000000000000000000000000000000000000000000815250620493e0613d85565b3073ffffffffffffffffffffffffffffffffffffffff16311180156120a457506014601254105b15612110576120bf6001601254613d1d90919063ffffffff16565b601281905550612109826040805190810160405280600381526020017f55524c000000000000000000000000000000000000000000000000000000000081525085620493e061415e565b905061219c565b6000600560146101000a81548160ff0219169083600181111561212f57fe5b02179055507fdfbccc2e555a5097298f8210cf3ed2f1db7b57eafd86b5eb985bed374cc0bb123073ffffffffffffffffffffffffffffffffffffffff1631601254601460405180848152602001838152602001828152602001935050505060405180910390a16001800290505b92915050565b60006121ad82613d71565b9050601960ff168111156121db576121d6610708601a60029054906101000a900460ff16611a30565b612229565b806019819055506001601a60016101000a81548160ff02191690831515021790555060011515601a60009054906101000a900460ff1615151415612228576122276018546019546112ca565b5b5b5050565b6122368161470e565b1561228d576001601360016101000a81548160ff02191690831515021790555061226c6002601254613d1d90919063ffffffff16565b60128190555061227d6000806117a6565b612288600080611a30565b612299565b612298610708611df3565b5b50565b60255481565b60175481565b601a60019054906101000a900460ff1681565b60088054600181600116156101000203166002900480601f0160208091040260200160405190810160405280929190818152602001828054600181600116156101000203166002900480156123515780601f1061232657610100808354040283529160200191612351565b820191906000526020600020905b81548152906001019060200180831161233457829003601f168201915b505050505081565b60155481565b600560009054906101000a900473ffffffffffffffffffffffffffffffffffffffff1673ffffffffffffffffffffffffffffffffffffffff163373ffffffffffffffffffffffffffffffffffffffff161415156123bb57600080fd5b600f54421115156123cb57600080fd5b6000601d819055503373ffffffffffffffffffffffffffffffffffffffff166108fc3073ffffffffffffffffffffffffffffffffffffffff16319081150290604051600060405180830381858888f19350505050158015612430573d6000803e3d6000fd5b50565b600080600181111561244157fe5b600560149054906101000a900460ff16600181111561245c57fe5b14151561246857600080fd5b600f544210151561247857600080fd5b6001600381111561248557fe5b601a60069054906101000a900460ff1660038111156124a057fe5b1480156124ec57506000601f60003373ffffffffffffffffffffffffffffffffffffffff1673ffffffffffffffffffffffffffffffffffffffff16815260200190815260200160002054115b806125675750600260038111156124ff57fe5b601a60069054906101000a900460ff16600381111561251a57fe5b14801561256657506000602060003373ffffffffffffffffffffffffffffffffffffffff1673ffffffffffffffffffffffffffffffffffffffff16815260200190815260200160002054115b5b8061262b575060038081111561257957fe5b601a60069054906101000a900460ff16600381111561259457fe5b14801561262a57506000601f60003373ffffffffffffffffffffffffffffffffffffffff1673ffffffffffffffffffffffffffffffffffffffff16815260200190815260200160002054118061262957506000602060003373ffffffffffffffffffffffffffffffffffffffff1673ffffffffffffffffffffffffffffffffffffffff16815260200190815260200160002054115b5b5b151561263657600080fd5b602060003373ffffffffffffffffffffffffffffffffffffffff1673ffffffffffffffffffffffffffffffffffffffff16815260200190815260200160002054601f60003373ffffffffffffffffffffffffffffffffffffffff1673ffffffffffffffffffffffffffffffffffffffff168152602001908152602001600020540190506000601f60003373ffffffffffffffffffffffffffffffffffffffff1673ffffffffffffffffffffffffffffffffffffffff168152602001908152602001600020819055506000602060003373ffffffffffffffffffffffffffffffffffffffff1673ffffffffffffffffffffffffffffffffffffffff1681526020019081526020016000208190555061275881601d5461478690919063ffffffff16565b601d819055503373ffffffffffffffffffffffffffffffffffffffff166108fc829081150290604051600060405180830381858888f193505050501580156127a4573d6000803e3d6000fd5b5050565b601a60039054906101000a900460ff1681565b60006127ff6040805190810160405280600381526020017f55524c0000000000000000000000000000000000000000000000000000000000815250620493e0613d85565b905090565b60125481565b601360009054906101000a900460ff1681565b601f6020528060005260406000206000915090505481565b60008060018081111561284457fe5b600560149054906101000a900460ff16600181111561285f57fe5b14151561286b57600080fd5b600d544211151561287b57600080fd5b600f544210151561288b57600080fd5b60001515601360009054906101000a900460ff16151514156128d1576128b16000611df3565b6001601360006101000a81548160ff021916908315150217905550612f19565b60011515601a60039054906101000a900460ff161515148015612907575060011515601a60049054906101000a900460ff161515145b151561291257600080fd5b6001600381111561291f57fe5b601a60069054906101000a900460ff16600381111561293a57fe5b14801561298657506000601f60003373ffffffffffffffffffffffffffffffffffffffff1673ffffffffffffffffffffffffffffffffffffffff16815260200190815260200160002054115b80612a0157506002600381111561299957fe5b601a60069054906101000a900460ff1660038111156129b457fe5b148015612a0057506000602060003373ffffffffffffffffffffffffffffffffffffffff1673ffffffffffffffffffffffffffffffffffffffff16815260200190815260200160002054115b5b80612ac55750600380811115612a1357fe5b601a60069054906101000a900460ff166003811115612a2e57fe5b148015612ac457506000601f60003373ffffffffffffffffffffffffffffffffffffffff1673ffffffffffffffffffffffffffffffffffffffff168152602001908152602001600020541180612ac357506000602060003373ffffffffffffffffffffffffffffffffffffffff1673ffffffffffffffffffffffffffffffffffffffff16815260200190815260200160002054115b5b5b1515612ad057600080fd5b606060405190810160405280602f81526020017f2d2d2d2d485552524141412d2d2d2d2d2d2d2d2d2d2d2d2d2d2d2d2d2d2d2d2d81526020017f2d2d2d2d2d2d2d2d2d2d2d2d2d2d2d0000000000000000000000000000000000815250601b9080519060200190612b4292919061540f565b5060016003811115612b5057fe5b601a60069054906101000a900460ff166003811115612b6b57fe5b1415612c5e57612be0602254612bd268056bc75e2d63100000601f60003373ffffffffffffffffffffffffffffffffffffffff1673ffffffffffffffffffffffffffffffffffffffff1681526020019081526020016000205461479f90919063ffffffff16565b6147d790919063ffffffff16565b9150612c1268056bc75e2d63100000612c0484601d5461479f90919063ffffffff16565b6147d790919063ffffffff16565b90506000601f60003373ffffffffffffffffffffffffffffffffffffffff1673ffffffffffffffffffffffffffffffffffffffff16815260200190815260200160002081905550612eb6565b60026003811115612c6b57fe5b601a60069054906101000a900460ff166003811115612c8657fe5b1415612d7957612cfb602354612ced68056bc75e2d63100000602060003373ffffffffffffffffffffffffffffffffffffffff1673ffffffffffffffffffffffffffffffffffffffff1681526020019081526020016000205461479f90919063ffffffff16565b6147d790919063ffffffff16565b9150612d2d68056bc75e2d63100000612d1f84601d5461479f90919063ffffffff16565b6147d790919063ffffffff16565b90506000602060003373ffffffffffffffffffffffffffffffffffffffff1673ffffffffffffffffffffffffffffffffffffffff16815260200190815260200160002081905550612eb5565b600380811115612d8557fe5b601a60069054906101000a900460ff166003811115612da057fe5b1415612eb457602060003373ffffffffffffffffffffffffffffffffffffffff1673ffffffffffffffffffffffffffffffffffffffff16815260200190815260200160002054601f60003373ffffffffffffffffffffffffffffffffffffffff1673ffffffffffffffffffffffffffffffffffffffff168152602001908152602001600020540190506000601f60003373ffffffffffffffffffffffffffffffffffffffff1673ffffffffffffffffffffffffffffffffffffffff168152602001908152602001600020819055506000602060003373ffffffffffffffffffffffffffffffffffffffff1673ffffffffffffffffffffffffffffffffffffffff168152602001908152602001600020819055505b5b5b612ecb81601d5461478690919063ffffffff16565b601d819055503373ffffffffffffffffffffffffffffffffffffffff166108fc829081150290604051600060405180830381858888f19350505050158015612f17573d6000803e3d6000fd5b505b5050565b60068054600181600116156101000203166002900480601f016020809104026020016040519081016040528092919081815260200182805460018160011615610100020316600290048015612fb35780601f10612f8857610100808354040283529160200191612fb3565b820191906000526020600020905b815481529060010190602001808311612f9657829003601f168201915b505050505081565b600180811115612fc757fe5b600560149054906101000a900460ff166001811115612fe257fe5b141515612fee57600080fd5b600b5442101580156130015750600c5442105b151561309b576040517f08c379a00000000000000000000000000000000000000000000000000000000081526004018080602001828103825260238152602001807f497420697320746f6f206561726c79206f7220746f6f206c61746520746f206281526020017f65742e000000000000000000000000000000000000000000000000000000000081525060400191505060405180910390fd5b6000341115156130aa57600080fd5b6130fc34601f60003373ffffffffffffffffffffffffffffffffffffffff1673ffffffffffffffffffffffffffffffffffffffff16815260200190815260200160002054613d1d90919063ffffffff16565b601f60003373ffffffffffffffffffffffffffffffffffffffff1673ffffffffffffffffffffffffffffffffffffffff16815260200190815260200160002081905550600160246000828254019250508190555061316534602254613d1d90919063ffffffff16565b602281905550565b6000600560009054906101000a900473ffffffffffffffffffffffffffffffffffffffff1673ffffffffffffffffffffffffffffffffffffffff163373ffffffffffffffffffffffffffffffffffffffff161415156131cb57600080fd5b6001808111156131d757fe5b600560149054906101000a900460ff1660018111156131f257fe5b1415156131fe57600080fd5b600d54421180156132115750600e544211155b15156132ab576040517f08c379a00000000000000000000000000000000000000000000000000000000081526004018080602001828103825260378152602001807f497420697320746f6f206561726c79206f7220746f6f206c61746520746f207381526020017f7567676573742f636f6e6669726d20612077696e6e657200000000000000000081525060400191505060405180910390fd5b60011515601a60039054906101000a900460ff1615151415156132cd57600080fd5b60001515601a60059054906101000a900460ff1615151415156132ef57600080fd5b6132f8826147ed565b151561330357600080fd5b6001601a60056101000a81548160ff0219169083151502179055508160ff16600381111561332d57fe5b600381111561333857fe5b601a60069054906101000a900460ff16600381111561335357fe5b14156134bc576001601a60046101000a81548160ff02191690831515021790555061338b602354602254613d1d90919063ffffffff16565b601c819055506000601c54111561345a576133c860646133ba600160ff16601c5461479f90919063ffffffff16565b6147d790919063ffffffff16565b905080601e819055506133e681601c5461478690919063ffffffff16565b601d81905550600560009054906101000a900473ffffffffffffffffffffffffffffffffffffffff1673ffffffffffffffffffffffffffffffffffffffff166108fc829081150290604051600060405180830381858888f19350505050158015613454573d6000803e3d6000fd5b50613463565b6000601d819055505b7f9a42273d5fd9b1a1046e18ae34880b8b51e28293fe5c863cdc602582f3bd518e601a60069054906101000a900460ff16604051808260038111156134a457fe5b60ff16815260200191505060405180910390a16134c5565b6134c46134f5565b5b5050565b601a60069054906101000a900460ff1681565b600c5481565b601a60029054906101000a900460ff1681565b600560009054906101000a900473ffffffffffffffffffffffffffffffffffffffff1673ffffffffffffffffffffffffffffffffffffffff163373ffffffffffffffffffffffffffffffffffffffff1614151561355157600080fd5b60001515601a60049054906101000a900460ff161515141515613602576040517f08c379a00000000000000000000000000000000000000000000000000000000081526004018080602001828103825260378152602001807f43616e6e6f742062652063616e63656c6c656420626563617573652077696e6e81526020017f657220697320616c726561647920636f6e6669726d656400000000000000000081525060400191505060405180910390fd5b60018081111561360e57fe5b600560149054906101000a900460ff16600181111561362957fe5b14151561363557600080fd5b6000600560146101000a81548160ff0219169083600181111561365457fe5b0217905550613670602354602254613d1d90919063ffffffff16565b601d819055507fec8dc6335c2196b8a6d65cd542069150bf6373e8330640096a2074c2ba36df04600860096040518080602001806020018381038352858181546001816001161561010002031660029004815260200191508054600181600116156101000203166002900480156137285780601f106136fd57610100808354040283529160200191613728565b820191906000526020600020905b81548152906001019060200180831161370b57829003601f168201915b50508381038252848181546001816001161561010002031660029004815260200191508054600181600116156101000203166002900480156137ab5780601f10613780576101008083540402835291602001916137ab565b820191906000526020600020905b81548152906001019060200180831161378e57829003601f168201915b505094505050505060405180910390a1565b600560009054906101000a900473ffffffffffffffffffffffffffffffffffffffff1673ffffffffffffffffffffffffffffffffffffffff163373ffffffffffffffffffffffffffffffffffffffff1614151561381957600080fd5b600073ffffffffffffffffffffffffffffffffffffffff168173ffffffffffffffffffffffffffffffffffffffff161415151561385557600080fd5b8073ffffffffffffffffffffffffffffffffffffffff16600560009054906101000a900473ffffffffffffffffffffffffffffffffffffffff1673ffffffffffffffffffffffffffffffffffffffff167f8be0079c531659141344cd1fd0a4f28419497f9722a3daafe3b4186f6b6457e060405160405180910390a380600560006101000a81548173ffffffffffffffffffffffffffffffffffffffff021916908373ffffffffffffffffffffffffffffffffffffffff16021790555050565b60195481565b601b8054600181600116156101000203166002900480601f0160208091040260200160405190810160405280929190818152602001828054600181600116156101000203166002900480156139b15780601f10613986576101008083540402835291602001916139b1565b820191906000526020600020905b81548152906001019060200180831161399457829003601f168201915b505050505081565b601e5481565b6000806000809054906101000a900473ffffffffffffffffffffffffffffffffffffffff1673ffffffffffffffffffffffffffffffffffffffff161480613a2f57506000613a2d6000809054906101000a900473ffffffffffffffffffffffffffffffffffffffff16614850565b145b15613a4057613a3e600061485b565b505b6000809054906101000a900473ffffffffffffffffffffffffffffffffffffffff1673ffffffffffffffffffffffffffffffffffffffff166338cc48316040518163ffffffff167c0100000000000000000000000000000000000000000000000000000000028152600401602060405180830381600087803b158015613ac557600080fd5b505af1158015613ad9573d6000803e3d6000fd5b505050506040513d6020811015613aef57600080fd5b810190808051906020019092919050505073ffffffffffffffffffffffffffffffffffffffff16600160009054906101000a900473ffffffffffffffffffffffffffffffffffffffff1673ffffffffffffffffffffffffffffffffffffffff16141515613c57576000809054906101000a900473ffffffffffffffffffffffffffffffffffffffff1673ffffffffffffffffffffffffffffffffffffffff166338cc48316040518163ffffffff167c0100000000000000000000000000000000000000000000000000000000028152600401602060405180830381600087803b158015613bdb57600080fd5b505af1158015613bef573d6000803e3d6000fd5b505050506040513d6020811015613c0557600080fd5b8101908080519060200190929190505050600160006101000a81548173ffffffffffffffffffffffffffffffffffffffff021916908373ffffffffffffffffffffffffffffffffffffffff1602179055505b600160009054906101000a900473ffffffffffffffffffffffffffffffffffffffff1673ffffffffffffffffffffffffffffffffffffffff1663c281d19e6040518163ffffffff167c0100000000000000000000000000000000000000000000000000000000028152600401602060405180830381600087803b158015613cdd57600080fd5b505af1158015613cf1573d6000803e3d6000fd5b505050506040513d6020811015613d0757600080fd5b8101908080519060200190929190505050905090565b60008183019050828110151515613d3057fe5b80905092915050565b6060613d6884848460206040519081016040528060008152506020604051908101604052806000815250614cec565b90509392505050565b6000613d7e826000615101565b9050919050565b6000806000809054906101000a900473ffffffffffffffffffffffffffffffffffffffff1673ffffffffffffffffffffffffffffffffffffffff161480613df557506000613df36000809054906101000a900473ffffffffffffffffffffffffffffffffffffffff16614850565b145b15613e0657613e04600061485b565b505b6000809054906101000a900473ffffffffffffffffffffffffffffffffffffffff1673ffffffffffffffffffffffffffffffffffffffff166338cc48316040518163ffffffff167c0100000000000000000000000000000000000000000000000000000000028152600401602060405180830381600087803b158015613e8b57600080fd5b505af1158015613e9f573d6000803e3d6000fd5b505050506040513d6020811015613eb557600080fd5b810190808051906020019092919050505073ffffffffffffffffffffffffffffffffffffffff16600160009054906101000a900473ffffffffffffffffffffffffffffffffffffffff1673ffffffffffffffffffffffffffffffffffffffff1614151561401d576000809054906101000a900473ffffffffffffffffffffffffffffffffffffffff1673ffffffffffffffffffffffffffffffffffffffff166338cc48316040518163ffffffff167c0100000000000000000000000000000000000000000000000000000000028152600401602060405180830381600087803b158015613fa157600080fd5b505af1158015613fb5573d6000803e3d6000fd5b505050506040513d6020811015613fcb57600080fd5b8101908080519060200190929190505050600160006101000a81548173ffffffffffffffffffffffffffffffffffffffff021916908373ffffffffffffffffffffffffffffffffffffffff1602179055505b600160009054906101000a900473ffffffffffffffffffffffffffffffffffffffff1673ffffffffffffffffffffffffffffffffffffffff16632ef3accc84846040518363ffffffff167c01000000000000000000000000000000000000000000000000000000000281526004018080602001838152602001828103825284818151815260200191508051906020019080838360005b838110156140ce5780820151818401526020810190506140b3565b50505050905090810190601f1680156140fb5780820380516001836020036101000a031916815260200191505b509350505050602060405180830381600087803b15801561411b57600080fd5b505af115801561412f573d6000803e3d6000fd5b505050506040513d602081101561414557600080fd5b8101908080519060200190929190505050905092915050565b60008060008060009054906101000a900473ffffffffffffffffffffffffffffffffffffffff1673ffffffffffffffffffffffffffffffffffffffff1614806141d0575060006141ce6000809054906101000a900473ffffffffffffffffffffffffffffffffffffffff16614850565b145b156141e1576141df600061485b565b505b6000809054906101000a900473ffffffffffffffffffffffffffffffffffffffff1673ffffffffffffffffffffffffffffffffffffffff166338cc48316040518163ffffffff167c0100000000000000000000000000000000000000000000000000000000028152600401602060405180830381600087803b15801561426657600080fd5b505af115801561427a573d6000803e3d6000fd5b505050506040513d602081101561429057600080fd5b810190808051906020019092919050505073ffffffffffffffffffffffffffffffffffffffff16600160009054906101000a900473ffffffffffffffffffffffffffffffffffffffff1673ffffffffffffffffffffffffffffffffffffffff161415156143f8576000809054906101000a900473ffffffffffffffffffffffffffffffffffffffff1673ffffffffffffffffffffffffffffffffffffffff166338cc48316040518163ffffffff167c0100000000000000000000000000000000000000000000000000000000028152600401602060405180830381600087803b15801561437c57600080fd5b505af1158015614390573d6000803e3d6000fd5b505050506040513d60208110156143a657600080fd5b8101908080519060200190929190505050600160006101000a81548173ffffffffffffffffffffffffffffffffffffffff021916908373ffffffffffffffffffffffffffffffffffffffff1602179055505b600160009054906101000a900473ffffffffffffffffffffffffffffffffffffffff1673ffffffffffffffffffffffffffffffffffffffff16632ef3accc86856040518363ffffffff167c01000000000000000000000000000000000000000000000000000000000281526004018080602001838152602001828103825284818151815260200191508051906020019080838360005b838110156144a957808201518184015260208101905061448e565b50505050905090810190601f1680156144d65780820380516001836020036101000a031916815260200191505b509350505050602060405180830381600087803b1580156144f657600080fd5b505af115801561450a573d6000803e3d6000fd5b505050506040513d602081101561452057600080fd5b81019080805190602001909291905050509050823a02670de0b6b3a7640000018111156145535760006001029150614705565b600160009054906101000a900473ffffffffffffffffffffffffffffffffffffffff1673ffffffffffffffffffffffffffffffffffffffff1663c51be90f82888888886040518663ffffffff167c0100000000000000000000000000000000000000000000000000000000028152600401808581526020018060200180602001848152602001838103835286818151815260200191508051906020019080838360005b838110156146115780820151818401526020810190506145f6565b50505050905090810190601f16801561463e5780820380516001836020036101000a031916815260200191505b50838103825285818151815260200191508051906020019080838360005b8381101561467757808201518184015260208101905061465c565b50505050905090810190601f1680156146a45780820380516001836020036101000a031916815260200191505b5096505050505050506020604051808303818588803b1580156146c657600080fd5b505af11580156146da573d6000803e3d6000fd5b50505050506040513d60208110156146f157600080fd5b810190808051906020019092919050505091505b50949350505050565b600060145460001916826040518082805190602001908083835b60208310151561474d5780518252602082019150602081019050602083039250614728565b6001836020036101000a038019825116818451168082178552505050505050905001915050604051809103902060001916149050919050565b600082821115151561479457fe5b818303905092915050565b6000808314156147b257600090506147d1565b81830290508183828115156147c357fe5b041415156147cd57fe5b8090505b92915050565b600081838115156147e457fe5b04905092915050565b600060018260ff161480614804575060028260ff16145b15614812576001905061484b565b60011515600a60009054906101000a900460ff161515148015614838575060038260ff16145b15614846576001905061484b565b600090505b919050565b6000813b9050919050565b60008061487b731d3b2638a7cc9f2cb3d298a3da7a90b67e5506ed614850565b111561491c57731d3b2638a7cc9f2cb3d298a3da7a90b67e5506ed6000806101000a81548173ffffffffffffffffffffffffffffffffffffffff021916908373ffffffffffffffffffffffffffffffffffffffff1602179055506149136040805190810160405280600b81526020017f6574685f6d61696e6e65740000000000000000000000000000000000000000008152506153f5565b60019050614ce7565b600061493b73c03a2615d5efaf5f49f60b7bb6583eaec212fdf1614850565b11156149dc5773c03a2615d5efaf5f49f60b7bb6583eaec212fdf16000806101000a81548173ffffffffffffffffffffffffffffffffffffffff021916908373ffffffffffffffffffffffffffffffffffffffff1602179055506149d36040805190810160405280600c81526020017f6574685f726f707374656e3300000000000000000000000000000000000000008152506153f5565b60019050614ce7565b60006149fb73b7a07bcf2ba2f2703b24c0691b5278999c59ac7e614850565b1115614a9c5773b7a07bcf2ba2f2703b24c0691b5278999c59ac7e6000806101000a81548173ffffffffffffffffffffffffffffffffffffffff021916908373ffffffffffffffffffffffffffffffffffffffff160217905550614a936040805190810160405280600981526020017f6574685f6b6f76616e00000000000000000000000000000000000000000000008152506153f5565b60019050614ce7565b6000614abb73146500cfd35b22e4a392fe0adc06de1a1368ed48614850565b1115614b5c5773146500cfd35b22e4a392fe0adc06de1a1368ed486000806101000a81548173ffffffffffffffffffffffffffffffffffffffff021916908373ffffffffffffffffffffffffffffffffffffffff160217905550614b536040805190810160405280600b81526020017f6574685f72696e6b6562790000000000000000000000000000000000000000008152506153f5565b60019050614ce7565b6000614b7b736f485c8bf6fc43ea212e93bbf8ce046c7f1cb475614850565b1115614bde57736f485c8bf6fc43ea212e93bbf8ce046c7f1cb4756000806101000a81548173ffffffffffffffffffffffffffffffffffffffff021916908373ffffffffffffffffffffffffffffffffffffffff16021790555060019050614ce7565b6000614bfd7320e12a1f859b3feae5fb2a0a32c18f5a65555bbf614850565b1115614c60577320e12a1f859b3feae5fb2a0a32c18f5a65555bbf6000806101000a81548173ffffffffffffffffffffffffffffffffffffffff021916908373ffffffffffffffffffffffffffffffffffffffff16021790555060019050614ce7565b6000614c7f7351efaf4c8b3c9afbd5ab9f4bbc82784ab6ef8faa614850565b1115614ce2577351efaf4c8b3c9afbd5ab9f4bbc82784ab6ef8faa6000806101000a81548173ffffffffffffffffffffffffffffffffffffffff021916908373ffffffffffffffffffffffffffffffffffffffff16021790555060019050614ce7565b600090505b919050565b6060806060806060806060806000808e98508d97508c96508b95508a94508451865188518a518c51010101016040519080825280601f01601f191660200182016040528015614d4a5781602001602082028038833980820191505090505b50935083925060009150600090505b8851811015614e0c578881815181101515614d7057fe5b9060200101517f010000000000000000000000000000000000000000000000000000000000000090047f0100000000000000000000000000000000000000000000000000000000000000028383806001019450815181101515614dcf57fe5b9060200101907effffffffffffffffffffffffffffffffffffffffffffffffffffffffffffff1916908160001a9053508080600101915050614d59565b600090505b8751811015614ec4578781815181101515614e2857fe5b9060200101517f010000000000000000000000000000000000000000000000000000000000000090047f0100000000000000000000000000000000000000000000000000000000000000028383806001019450815181101515614e8757fe5b9060200101907effffffffffffffffffffffffffffffffffffffffffffffffffffffffffffff1916908160001a9053508080600101915050614e11565b600090505b8651811015614f7c578681815181101515614ee057fe5b9060200101517f010000000000000000000000000000000000000000000000000000000000000090047f0100000000000000000000000000000000000000000000000000000000000000028383806001019450815181101515614f3f57fe5b9060200101907effffffffffffffffffffffffffffffffffffffffffffffffffffffffffffff1916908160001a9053508080600101915050614ec9565b600090505b8551811015615034578581815181101515614f9857fe5b9060200101517f010000000000000000000000000000000000000000000000000000000000000090047f0100000000000000000000000000000000000000000000000000000000000000028383806001019450815181101515614ff757fe5b9060200101907effffffffffffffffffffffffffffffffffffffffffffffffffffffffffffff1916908160001a9053508080600101915050614f81565b600090505b84518110156150ec57848181518110151561505057fe5b9060200101517f010000000000000000000000000000000000000000000000000000000000000090047f01000000000000000000000000000000000000000000000000000000000000000283838060010194508151811015156150af57fe5b9060200101907effffffffffffffffffffffffffffffffffffffffffffffffffffffffffffff1916908160001a9053508080600101915050615039565b82995050505050505050505095945050505050565b6000606060008060008693506000925060009150600090505b83518110156153d65760307f010000000000000000000000000000000000000000000000000000000000000002848281518110151561515557fe5b9060200101517f010000000000000000000000000000000000000000000000000000000000000090047f0100000000000000000000000000000000000000000000000000000000000000027effffffffffffffffffffffffffffffffffffffffffffffffffffffffffffff19161015801561526d575060397f01000000000000000000000000000000000000000000000000000000000000000284828151811015156151fd57fe5b9060200101517f010000000000000000000000000000000000000000000000000000000000000090047f0100000000000000000000000000000000000000000000000000000000000000027effffffffffffffffffffffffffffffffffffffffffffffffffffffffffffff191611155b1561531e578115615290576000861415615286576153d6565b8580600190039650505b600a83029250603084828151811015156152a657fe5b9060200101517f010000000000000000000000000000000000000000000000000000000000000090047f0100000000000000000000000000000000000000000000000000000000000000027f0100000000000000000000000000000000000000000000000000000000000000900403830192506153c9565b602e7f010000000000000000000000000000000000000000000000000000000000000002848281518110151561535057fe5b9060200101517f010000000000000000000000000000000000000000000000000000000000000090047f0100000000000000000000000000000000000000000000000000000000000000027effffffffffffffffffffffffffffffffffffffffffffffffffffffffffffff191614156153c857600191505b5b808060010191505061511a565b60008611156153e85785600a0a830292505b8294505050505092915050565b806002908051906020019061540b92919061540f565b5050565b828054600181600116156101000203166002900490600052602060002090601f016020900481019282601f1061545057805160ff191683800117855561547e565b8280016001018555821561547e579182015b8281111561547d578251825591602001919060010190615462565b5b50905061548b919061548f565b5090565b6154b191905b808211156154ad576000816000905550600101615495565b5090565b905600a165627a7a7230582024736144157723bf223028c38c6cae10277ada96c904e472a5ae7bef3aaa912d0029",
  "source": "pragma solidity ^0.4.23;\n\nimport 'zeppelin-solidity/contracts/ownership/Ownable.sol';\nimport 'zeppelin-solidity/contracts/math/SafeMath.sol';\nimport './oraclizeAPI_0.4.sol';\n\ncontract Bet is usingOraclize, Ownable {\n  using SafeMath for uint256;\n\n  enum Status { Cancelled, Active }\n  enum Winner { Undecided, Player1, Player2, Draw }\n\n  uint8 private constant FEE_PERCENT = 1;\n  uint256 private constant MIN_SUGGESTCONFIRM_DURATION = 2 hours;\n  uint256 private constant CLAIM_EXPIRES_AFTER = 8 weeks;\n  uint8 private constant MAX_GOALS = 25;\n\n  Status public status = Status.Active;\n\n  string public gameId;\n  string public group;\n  string public p1;\n  string public p2;\n  bool public isGroupPhase;\n  uint256 public timeBettingOpens;\n  uint256 public timeBettingCloses;\n  uint256 public timeMatchEnds;\n  uint256 public timeSuggestConfirmEnds;\n  uint256 public timeClaimsExpire;\n\n  event FetchingFailed(uint256 balance, uint256 fetchAttempt, uint256 MAX_FETCH_ATTEMPTS);\n  event WinnerSuggested(Winner winner);\n  event WinnerConfirmed(Winner winner);\n  event BettingCancelled(string p1, string p2);\n\n  uint256 private MAX_GAS_PRICE = 6e9; // 8GWei. Not constant so that it can be increased by the owner\n  uint256 private constant GAS_LIMIT = 300000; // works: 300000\n  uint256 private constant MAX_FETCH_ATTEMPTS = 20;\n  uint256 private constant FETCH_INTERVAL = 60*30; // 15min in seconds\n  string private URL;\n  uint256 public fetchAttempt = 1;\n  bool public isFetchingStarted = false;\n  bool public matchFinished = false;\n  bytes32 private hashFinished;\n\n  bytes32 public queryStatus;\n  bytes32 public queryGoalsP1;\n  bytes32 public queryGoalsP2;\n  uint public goalsP1;\n  uint public goalsP2;\n  bool public goalsP1Fetched = false;\n  bool public goalsP2Fetched = false;\n  bool public fetchingPenaltyGoals = false;\n  bool public winnerSuggested = false;\n  bool public winnerConfirmed = false;\n  bool public ownerCalledConfirmFunction = false;\n  Winner public winner; // default = 0, meaning Undecided\n\n  string public test;\n\n  uint256 public pool;\n  uint256 public payoutPool;\n  uint256 public feeEarning;\n  mapping(address => uint256) public betsPlayer1;\n  mapping(address => uint256) public betsPlayer2;\n  uint256 public total;\n  uint256 public totalPlayer1;\n  uint256 public totalPlayer2;\n  uint256 public numBetsPlayer1;\n  uint256 public numBetsPlayer2;\n\n  modifier hasWei() {\n      require(msg.value > 0);\n      _;\n  }\n\n  /*\n    Time-based modifiers\n  */\n  modifier isBettingPhase() {\n      require(now >= timeBettingOpens && now < timeBettingCloses, 'It is too early or too late to bet.');\n      _;\n  }\n\n  modifier isMatchOver() {\n      require(now > timeMatchEnds);\n      _;\n  }\n\n  modifier isSuggestConfirmPhase() {\n      require(now > timeMatchEnds && now <= timeSuggestConfirmEnds, 'It is too early or too late to suggest/confirm a winner');\n      _;\n  }\n\n  modifier isExpiredPhase() {\n      require(now > timeClaimsExpire);\n      _;\n  }\n\n  modifier isNotExpiredPhase() {\n      require(now < timeClaimsExpire);\n      _;\n  }\n\n  /*\n    Cancelled modifiers\n  */\n  modifier isCancelled() {\n      require(status == Status.Cancelled);\n      _;\n  }\n\n  modifier isNotCancelled() {\n      require(status == Status.Active);\n      _;\n  }\n\n  modifier canBeCancelled() {\n      require(winnerConfirmed == false, 'Cannot be cancelled because winner is already confirmed');\n      _;\n  }\n\n  /*\n    Winner check modifiers\n  */\n  modifier isWinnerSuggested() {\n      require(winnerSuggested == true);\n      _;\n  }\n\n  modifier isNotWinnerSuggested() {\n      require(winnerSuggested == false);\n      _;\n  }\n\n  modifier isWinnerConfirmed() {\n      require(winnerSuggested == true && winnerConfirmed == true);\n      _;\n  }\n\n  modifier isFirstConfirmCall() {\n      require(ownerCalledConfirmFunction == false);\n      _;\n  }\n\n  /*\n    Other modifiers\n  */\n  modifier onlyOraclize() {\n      require(msg.sender == oraclize_cbAddress());\n      _;\n  }\n\n  modifier hasClaims() {\n      require(\n        (winner == Winner.Player1 && betsPlayer1[msg.sender] > 0) ||\n        (winner == Winner.Player2 && betsPlayer2[msg.sender] > 0) ||\n        (winner == Winner.Draw && ((betsPlayer1[msg.sender] > 0) || (betsPlayer2[msg.sender] > 0)))\n      );\n      _;\n  }\n\n  modifier startFetchingIfUnstarted() {\n      if (isFetchingStarted == false) {\n          fetchMatchStatus(0); // 0 == fetch now, without delay\n          isFetchingStarted = true;\n      } else {\n          // require(winnerConfirmed == true);\n          // require(\n          //   (winner == Winner.Player1 && betsPlayer1[msg.sender] > 0) ||\n          //   (winner == Winner.Player2 && betsPlayer2[msg.sender] > 0) ||\n          //   (winner == Winner.Draw && ((betsPlayer1[msg.sender] > 0) || (betsPlayer2[msg.sender] > 0)))\n          // );\n          _;\n      }\n  }\n\n  /*\n    Helper functions\n  */\n  function getMinOraclizeGasCost() public returns (uint256) {\n      return oraclize_getPrice(\"URL\", GAS_LIMIT);\n  }\n\n  function isValidWinner(uint8 _winner) internal view returns (bool) {\n      if (_winner == 1 ||  _winner == 2) {\n          return true;\n      }\n      if (isGroupPhase == true && _winner == 3) {\n          return true;\n      }\n      return false;\n  }\n\n  function isFinished(string s) private view returns (bool) {\n      return keccak256(s) == hashFinished;\n  }\n\n  constructor(\n      string _gameId,\n      string _group,\n      string _p1,\n      string _p2,\n      bool _isGroupPhase,\n      uint256 _matchStart,\n      uint256 _durationBetting,\n      uint256 _durationSuggestConfirm)\n      public\n      payable\n  {\n      oraclize_setCustomGasPrice(MAX_GAS_PRICE);\n      hashFinished = keccak256('FINISHED');\n      \n      gameId = _gameId;\n      group = _group;\n      p1 = _p1;\n      p2 = _p2;\n      isGroupPhase = _isGroupPhase;\n      URL = 'https://mohoff.de/live.txt';//strConcat('http://api.football-data.org/v1/fixtures/', gameId);\n      _setTimes(_matchStart, _durationBetting, _durationSuggestConfirm);\n  }\n\n  // public for testing\n  function _setTimes(uint256 _matchStart, uint256 _durationBetting, uint256 _durationSuggestConfirm) public {\n      require(_durationSuggestConfirm >= MIN_SUGGESTCONFIRM_DURATION); // longer than 2h in case max match duration is reached (overtimes + penalty shootout)\n\n      // Miners can cheat on block timestamp with a tolerance of 900 seconds.\n      // That's why betting is closed 900 seconds before match start.\n      timeBettingCloses = _matchStart - 900 seconds;\n      timeBettingOpens = _matchStart - _durationBetting;\n      timeMatchEnds = timeBettingCloses + 105 minutes;\n      timeSuggestConfirmEnds = timeMatchEnds + _durationSuggestConfirm;\n      timeClaimsExpire = timeSuggestConfirmEnds + 8 weeks;\n  }\n\n  /* OLD BET FUNCTION: gas: 93620,  93627, 94136 */\n  /* OLD BET FUNCTION: KOVAN: 54857 */\n\n  // KOVAN: 84370, 53534\n  function betOnPlayer1() external payable\n      isNotCancelled\n      isBettingPhase\n      hasWei\n  {\n      betsPlayer1[msg.sender] = betsPlayer1[msg.sender].add(msg.value);\n      numBetsPlayer1 += 1;\n      totalPlayer1 = totalPlayer1.add(msg.value);\n  }\n\n  // 83534\n  function betOnPlayer2() external payable\n      isNotCancelled\n      isBettingPhase\n      hasWei\n  {\n      betsPlayer2[msg.sender] = betsPlayer2[msg.sender].add(msg.value);\n      numBetsPlayer2 += 1;\n      totalPlayer2 = totalPlayer2.add(msg.value);\n  }\n\n\n  /* kovan: 97000 gas, 106694, 106716 */\n  // gas used when not first call (second or higher call): 76716\n  // oraclize fee paid: 0.0018277 ether\n  function fetchMatchStatus(uint256 _delay) public {\n      string memory query = strConcat('json(', URL, ').fixture.status');\n      queryStatus = fetch(query, _delay);\n  }\n\n  function fetchGoalsP1(uint256 _delay, bool _isPenalty) public {\n      string memory query;\n\n      if (_isPenalty == true) {\n        query = strConcat('json(', URL, ').fixture.result.penaltyShootout.goalsHomeTeam');\n      } else {\n        query = strConcat('json(', URL, ').fixture.result.goalsHomeTeam');\n      }\n      \n      queryGoalsP1 = fetch(query, _delay);\n  }\n\n  function fetchGoalsP2(uint256 _delay, bool _isPenalty) public {\n      string memory query;\n\n      if (_isPenalty == true) {\n        query = strConcat('json(', URL, ').fixture.result.penaltyShootout.goalsAwayTeam');\n      } else {\n        query = strConcat('json(', URL, ').fixture.result.goalsAwayTeam');\n      }\n\n      queryGoalsP2 = fetch(query, _delay);\n  }\n\n  function fetch(string _query, uint256 _delay) public\n      returns (bytes32)\n  {\n      if (this.balance > oraclize_getPrice(\"URL\", GAS_LIMIT) &&\n          fetchAttempt < MAX_FETCH_ATTEMPTS)\n      {\n          fetchAttempt = fetchAttempt.add(1);\n          return oraclize_query(_delay, 'URL', _query, GAS_LIMIT);  \n      } else {\n          status = Status.Cancelled;\n          emit FetchingFailed(address(this).balance, fetchAttempt, MAX_FETCH_ATTEMPTS);\n          return 1;\n      }\n  }\n\n\n  // when match is FINISHED the first time: 217752, 217688\n  // retrieve goals: 73985, 219830, 73751, 227547, 73687, 227547\n  // retrieve penalty goals: 43985, 56282, 43751, 56516\n  function __callback(bytes32 myid, string response) public\n      onlyOraclize\n      isNotWinnerSuggested\n  {\n      // Keeping track of query IDs because one query can result in more than one callback.\n      // Once callback received, query tracker set to 0 to prevent double handling of response.\n      // See https://docs.oraclize.it/#ethereum-best-practices-mapping-query-ids\n      if (myid == queryStatus && matchFinished == false) {\n          _handleMatchStatusResponse(response);\n      } else if (myid == queryGoalsP1) {\n          _handleGoalsP1Response(response);\n      } else if (myid == queryGoalsP2) {\n          _handleGoalsP2Response(response);\n      }\n  }\n\n  function _handleMatchStatusResponse(string response) public {\n      if (isFinished(response)) {\n          matchFinished = true;\n\n          fetchAttempt = fetchAttempt.add(2);\n          fetchGoalsP1(0, false);\n          fetchGoalsP2(0, false);\n      } else {\n          fetchMatchStatus(FETCH_INTERVAL);\n      }\n  }\n\n  function _handleGoalsP1Response(string strGoals) public {\n      uint goals = parseInt(strGoals);\n      if (goals > MAX_GOALS) {\n          fetchGoalsP1(FETCH_INTERVAL, fetchingPenaltyGoals);\n      } else {\n          goalsP1 = goals;\n          goalsP1Fetched = true;\n\n          if (goalsP2Fetched == true) {\n              _suggestWinner(goalsP1, goalsP2);\n          }\n      }\n  }\n\n  function _handleGoalsP2Response(string strGoals) public {\n      uint goals = parseInt(strGoals);\n      if (goals > MAX_GOALS) {\n          fetchGoalsP2(FETCH_INTERVAL, fetchingPenaltyGoals);\n      } else {\n          goalsP2 = goals;\n          goalsP2Fetched = true;\n\n          if (goalsP1Fetched == true) {\n              _suggestWinner(goalsP1, goalsP2);\n          }\n      }\n  }\n\n  function _suggestWinner(uint _goalsP1, uint _goalsP2) public {\n      if (_goalsP1 > _goalsP2) {\n          winner = Winner.Player1;\n          winnerSuggested = true;\n          emit WinnerSuggested(winner);\n      } else if (_goalsP1 < _goalsP2) {\n          winner = Winner.Player2;\n          winnerSuggested = true;\n        emit WinnerSuggested(winner);\n      } else {\n          // same amount of goals\n          if (isGroupPhase == true) {\n              winner = Winner.Draw;\n              winnerSuggested = true;\n              emit WinnerSuggested(winner);\n          } else {\n              // We are in knockout-stage, thus Winner.Draw not possible\n              // --> Fetch penalty shootout goals\n              // If still P1 and P2 have same amount of goals (shouldn't happen), MAX_FETCH_ATTEMPTS should eventually cancel the bet\n              fetchingPenaltyGoals = true;\n              goalsP1Fetched = false;\n              goalsP2Fetched = false;\n              fetchGoalsP1(0, true);\n              fetchGoalsP2(0, true);\n          }\n      }\n  }\n\n  // gas: 47791, 47813\n  // WHEN already confirmed (fail): 24450\n  function confirmWinner(uint8 _winnerAsInt) external\n      onlyOwner\n      isNotCancelled\n      isSuggestConfirmPhase\n      isWinnerSuggested\n      isFirstConfirmCall\n  {\n      require(isValidWinner(_winnerAsInt));\n      ownerCalledConfirmFunction = true;\n\n      if (winner == Winner(_winnerAsInt)) {\n          winnerConfirmed = true;\n\n          pool = totalPlayer1.add(totalPlayer2);\n\n          if (pool > 0) {\n              uint256 feeAmount = pool.mul(FEE_PERCENT).div(100);\n              feeEarning = feeAmount;\n              payoutPool = pool.sub(feeAmount);\n              owner.transfer(feeAmount);\n          } else {\n              payoutPool = 0;\n          }\n\n          emit WinnerConfirmed(winner);\n      } else {\n          cancel();\n      }\n  }\n\n  function cancel() public\n      onlyOwner\n      canBeCancelled\n      isNotCancelled\n  {\n      status = Status.Cancelled;\n      payoutPool = totalPlayer1.add(totalPlayer2);\n\n      emit BettingCancelled(p1, p2);\n  }\n\n  // KOVAN start fetch (enough gas): 142162, 142162, 142162\n  // KOVAN fail (second call, hasnoclaims?): 23966\n  //       fail (second call, winner not confirmed): 23657\n  function claimWinOrDraw() external\n      isNotCancelled\n      isMatchOver\n      isNotExpiredPhase\n      startFetchingIfUnstarted\n      isWinnerConfirmed\n      hasClaims\n  {\n      test = \"----HURRAAA------------------------------------\";\n\n      uint256 wonShare;\n      uint256 payout;\n      if (winner == Winner.Player1){\n          wonShare = betsPlayer1[msg.sender].mul(1e20).div(totalPlayer1);//.div(1e20)\n          payout = payoutPool.mul(wonShare).div(1e20);\n          betsPlayer1[msg.sender] = 0;\n      } else if (winner == Winner.Player2) {\n          wonShare = betsPlayer2[msg.sender].mul(1e20).div(totalPlayer2);//.div(1e20)\n          payout = payoutPool.mul(wonShare).div(1e20);\n          betsPlayer2[msg.sender] = 0;\n      } else if (winner == Winner.Draw) {\n          payout = betsPlayer1[msg.sender] + betsPlayer2[msg.sender];\n          betsPlayer1[msg.sender] = 0;\n          betsPlayer2[msg.sender] = 0;\n      }\n      payoutPool = payoutPool.sub(payout);\n\n      msg.sender.transfer(payout);\n  }\n\n  function claimCancelled() external\n      isCancelled\n      isNotExpiredPhase\n      hasClaims\n  {\n      uint256 claim = betsPlayer1[msg.sender] + betsPlayer2[msg.sender]; // claim > 0 since check in hasClaims\n\n      betsPlayer1[msg.sender] = 0;\n      betsPlayer2[msg.sender] = 0;\n      payoutPool = payoutPool.sub(claim);\n      \n      msg.sender.transfer(claim);\n  }\n\n  function claimExpired() external\n      onlyOwner\n      isExpiredPhase\n  {\n      payoutPool = 0;\n\n      msg.sender.transfer(address(this).balance);\n  }\n\n  function increaseGasPriceBy(uint256 _extra) external\n      onlyOwner\n  {\n\n  }\n\n  /* fallback function */\n  function () public payable {\n      revert('Function not found.'); \n  }\n}\n",
  "sourcePath": "/home/mo/dev/worldcup-bettingTEST/contracts/Bet.sol",
  "compiler": {
    "name": "solc",
    "version": "0.4.23+commit.124ca40d.Emscripten.clang"
  },
  "schemaVersion": "2.0.0",
  "updatedAt": "2018-05-16T13:12:19.830Z"
}