{
  "contractName": "Bet",
  "abi": [
    {
      "constant": true,
      "inputs": [],
      "name": "suggestedWinner",
      "outputs": [
        {
          "name": "",
          "type": "uint8"
        }
      ],
      "payable": false,
      "stateMutability": "view",
      "type": "function"
    },
    {
      "constant": true,
      "inputs": [],
      "name": "pool",
      "outputs": [
        {
          "name": "",
          "type": "uint256"
        }
      ],
      "payable": false,
      "stateMutability": "view",
      "type": "function"
    },
    {
      "constant": true,
      "inputs": [],
      "name": "matchFinished",
      "outputs": [
        {
          "name": "",
          "type": "bool"
        }
      ],
      "payable": false,
      "stateMutability": "view",
      "type": "function"
    },
    {
      "constant": true,
      "inputs": [],
      "name": "total",
      "outputs": [
        {
          "name": "",
          "type": "uint256"
        }
      ],
      "payable": false,
      "stateMutability": "view",
      "type": "function"
    },
    {
      "constant": true,
      "inputs": [],
      "name": "timeMatchEnds",
      "outputs": [
        {
          "name": "",
          "type": "uint256"
        }
      ],
      "payable": false,
      "stateMutability": "view",
      "type": "function"
    },
    {
      "constant": true,
      "inputs": [
        {
          "name": "",
          "type": "address"
        }
      ],
      "name": "betsPlayer2",
      "outputs": [
        {
          "name": "",
          "type": "uint256"
        }
      ],
      "payable": false,
      "stateMutability": "view",
      "type": "function"
    },
    {
      "constant": true,
      "inputs": [],
      "name": "payoutPool",
      "outputs": [
        {
          "name": "",
          "type": "uint256"
        }
      ],
      "payable": false,
      "stateMutability": "view",
      "type": "function"
    },
    {
      "constant": false,
      "inputs": [],
      "name": "renounceOwnership",
      "outputs": [],
      "payable": false,
      "stateMutability": "nonpayable",
      "type": "function"
    },
    {
      "constant": true,
      "inputs": [],
      "name": "totalPlayer2",
      "outputs": [
        {
          "name": "",
          "type": "uint256"
        }
      ],
      "payable": false,
      "stateMutability": "view",
      "type": "function"
    },
    {
      "constant": true,
      "inputs": [],
      "name": "timeSuggestConfirmEnds",
      "outputs": [
        {
          "name": "",
          "type": "uint256"
        }
      ],
      "payable": false,
      "stateMutability": "view",
      "type": "function"
    },
    {
      "constant": true,
      "inputs": [],
      "name": "numBetsPlayer1",
      "outputs": [
        {
          "name": "",
          "type": "uint256"
        }
      ],
      "payable": false,
      "stateMutability": "view",
      "type": "function"
    },
    {
      "constant": true,
      "inputs": [],
      "name": "totalPlayer1",
      "outputs": [
        {
          "name": "",
          "type": "uint256"
        }
      ],
      "payable": false,
      "stateMutability": "view",
      "type": "function"
    },
    {
      "constant": true,
      "inputs": [],
      "name": "p2",
      "outputs": [
        {
          "name": "",
          "type": "string"
        }
      ],
      "payable": false,
      "stateMutability": "view",
      "type": "function"
    },
    {
      "constant": true,
      "inputs": [],
      "name": "timeClaimsExpire",
      "outputs": [
        {
          "name": "",
          "type": "uint256"
        }
      ],
      "payable": false,
      "stateMutability": "view",
      "type": "function"
    },
    {
      "constant": true,
      "inputs": [],
      "name": "owner",
      "outputs": [
        {
          "name": "",
          "type": "address"
        }
      ],
      "payable": false,
      "stateMutability": "view",
      "type": "function"
    },
    {
      "constant": true,
      "inputs": [],
      "name": "timeBettingOpens",
      "outputs": [
        {
          "name": "",
          "type": "uint256"
        }
      ],
      "payable": false,
      "stateMutability": "view",
      "type": "function"
    },
    {
      "constant": true,
      "inputs": [],
      "name": "numBetsPlayer2",
      "outputs": [
        {
          "name": "",
          "type": "uint256"
        }
      ],
      "payable": false,
      "stateMutability": "view",
      "type": "function"
    },
    {
      "constant": true,
      "inputs": [],
      "name": "phase",
      "outputs": [
        {
          "name": "",
          "type": "uint8"
        }
      ],
      "payable": false,
      "stateMutability": "view",
      "type": "function"
    },
    {
      "constant": true,
      "inputs": [],
      "name": "p1",
      "outputs": [
        {
          "name": "",
          "type": "string"
        }
      ],
      "payable": false,
      "stateMutability": "view",
      "type": "function"
    },
    {
      "constant": true,
      "inputs": [],
      "name": "drawAllowed",
      "outputs": [
        {
          "name": "",
          "type": "bool"
        }
      ],
      "payable": false,
      "stateMutability": "view",
      "type": "function"
    },
    {
      "constant": true,
      "inputs": [
        {
          "name": "",
          "type": "address"
        }
      ],
      "name": "betsPlayer1",
      "outputs": [
        {
          "name": "",
          "type": "uint256"
        }
      ],
      "payable": false,
      "stateMutability": "view",
      "type": "function"
    },
    {
      "constant": true,
      "inputs": [],
      "name": "gameId",
      "outputs": [
        {
          "name": "",
          "type": "string"
        }
      ],
      "payable": false,
      "stateMutability": "view",
      "type": "function"
    },
    {
      "constant": true,
      "inputs": [],
      "name": "winner",
      "outputs": [
        {
          "name": "",
          "type": "uint8"
        }
      ],
      "payable": false,
      "stateMutability": "view",
      "type": "function"
    },
    {
      "constant": true,
      "inputs": [],
      "name": "timeBettingCloses",
      "outputs": [
        {
          "name": "",
          "type": "uint256"
        }
      ],
      "payable": false,
      "stateMutability": "view",
      "type": "function"
    },
    {
      "constant": false,
      "inputs": [
        {
          "name": "newOwner",
          "type": "address"
        }
      ],
      "name": "transferOwnership",
      "outputs": [],
      "payable": false,
      "stateMutability": "nonpayable",
      "type": "function"
    },
    {
      "constant": true,
      "inputs": [],
      "name": "feeEarning",
      "outputs": [
        {
          "name": "",
          "type": "uint256"
        }
      ],
      "payable": false,
      "stateMutability": "view",
      "type": "function"
    },
    {
      "inputs": [
        {
          "name": "_gameId",
          "type": "string"
        },
        {
          "name": "_p1",
          "type": "string"
        },
        {
          "name": "_p2",
          "type": "string"
        },
        {
          "name": "_drawAllowed",
          "type": "bool"
        },
        {
          "name": "_matchStart",
          "type": "uint256"
        },
        {
          "name": "_durationBetting",
          "type": "uint256"
        },
        {
          "name": "_durationSuggestConfirm",
          "type": "uint256"
        }
      ],
      "payable": true,
      "stateMutability": "payable",
      "type": "constructor"
    },
    {
      "payable": true,
      "stateMutability": "payable",
      "type": "fallback"
    },
    {
      "anonymous": false,
      "inputs": [],
      "name": "FetchStatusRequest",
      "type": "event"
    },
    {
      "anonymous": false,
      "inputs": [
        {
          "indexed": false,
          "name": "result",
          "type": "string"
        },
        {
          "indexed": false,
          "name": "fetchAttempt",
          "type": "uint256"
        },
        {
          "indexed": false,
          "name": "MAX_FETCH_ATTEMPTS",
          "type": "uint256"
        }
      ],
      "name": "FetchStatusResult",
      "type": "event"
    },
    {
      "anonymous": false,
      "inputs": [
        {
          "indexed": false,
          "name": "result",
          "type": "string"
        },
        {
          "indexed": false,
          "name": "fetchAttempt",
          "type": "uint256"
        },
        {
          "indexed": false,
          "name": "MAX_FETCH_ATTEMPTS",
          "type": "uint256"
        }
      ],
      "name": "FetchStatusFinalResult",
      "type": "event"
    },
    {
      "anonymous": false,
      "inputs": [
        {
          "indexed": false,
          "name": "lastResult",
          "type": "string"
        },
        {
          "indexed": false,
          "name": "MAX_FETCH_ATTEMPTS",
          "type": "uint256"
        }
      ],
      "name": "FetchMaxAttemptReached",
      "type": "event"
    },
    {
      "anonymous": false,
      "inputs": [
        {
          "indexed": false,
          "name": "winner",
          "type": "string"
        }
      ],
      "name": "WinnerSuggested",
      "type": "event"
    },
    {
      "anonymous": false,
      "inputs": [
        {
          "indexed": false,
          "name": "p1",
          "type": "string"
        },
        {
          "indexed": false,
          "name": "p2",
          "type": "string"
        },
        {
          "indexed": false,
          "name": "timeBettingCloses",
          "type": "uint256"
        }
      ],
      "name": "BettingOpen",
      "type": "event"
    },
    {
      "anonymous": false,
      "inputs": [
        {
          "indexed": false,
          "name": "p1",
          "type": "string"
        },
        {
          "indexed": false,
          "name": "p2",
          "type": "string"
        }
      ],
      "name": "BettingClosed",
      "type": "event"
    },
    {
      "anonymous": false,
      "inputs": [
        {
          "indexed": false,
          "name": "p1",
          "type": "string"
        },
        {
          "indexed": false,
          "name": "p2",
          "type": "string"
        },
        {
          "indexed": false,
          "name": "winner",
          "type": "uint8"
        }
      ],
      "name": "BettingConfirmed",
      "type": "event"
    },
    {
      "anonymous": false,
      "inputs": [
        {
          "indexed": false,
          "name": "p1",
          "type": "string"
        },
        {
          "indexed": false,
          "name": "p2",
          "type": "string"
        }
      ],
      "name": "BettingCancelled",
      "type": "event"
    },
    {
      "anonymous": false,
      "inputs": [
        {
          "indexed": true,
          "name": "previousOwner",
          "type": "address"
        }
      ],
      "name": "OwnershipRenounced",
      "type": "event"
    },
    {
      "anonymous": false,
      "inputs": [
        {
          "indexed": true,
          "name": "previousOwner",
          "type": "address"
        },
        {
          "indexed": true,
          "name": "newOwner",
          "type": "address"
        }
      ],
      "name": "OwnershipTransferred",
      "type": "event"
    },
    {
      "constant": false,
      "inputs": [
        {
          "name": "_matchStart",
          "type": "uint256"
        },
        {
          "name": "_durationBetting",
          "type": "uint256"
        },
        {
          "name": "_durationSuggestConfirm",
          "type": "uint256"
        }
      ],
      "name": "_setTimes",
      "outputs": [],
      "payable": false,
      "stateMutability": "nonpayable",
      "type": "function"
    },
    {
      "constant": false,
      "inputs": [
        {
          "name": "_player",
          "type": "uint8"
        }
      ],
      "name": "bet",
      "outputs": [
        {
          "name": "",
          "type": "bool"
        }
      ],
      "payable": true,
      "stateMutability": "payable",
      "type": "function"
    },
    {
      "constant": false,
      "inputs": [
        {
          "name": "myid",
          "type": "bytes32"
        },
        {
          "name": "response",
          "type": "string"
        }
      ],
      "name": "__callback",
      "outputs": [],
      "payable": false,
      "stateMutability": "nonpayable",
      "type": "function"
    },
    {
      "constant": false,
      "inputs": [
        {
          "name": "myid",
          "type": "bytes32"
        },
        {
          "name": "result",
          "type": "string"
        },
        {
          "name": "proof",
          "type": "bytes"
        }
      ],
      "name": "__callback",
      "outputs": [],
      "payable": false,
      "stateMutability": "nonpayable",
      "type": "function"
    },
    {
      "constant": false,
      "inputs": [
        {
          "name": "_winnerAsInt",
          "type": "uint8"
        }
      ],
      "name": "suggestWinner",
      "outputs": [],
      "payable": false,
      "stateMutability": "nonpayable",
      "type": "function"
    },
    {
      "constant": false,
      "inputs": [
        {
          "name": "_winnerAsInt",
          "type": "uint8"
        }
      ],
      "name": "confirmWinner",
      "outputs": [],
      "payable": false,
      "stateMutability": "nonpayable",
      "type": "function"
    },
    {
      "constant": false,
      "inputs": [],
      "name": "cancel",
      "outputs": [],
      "payable": false,
      "stateMutability": "nonpayable",
      "type": "function"
    },
    {
      "constant": false,
      "inputs": [],
      "name": "claimWinOrDraw",
      "outputs": [],
      "payable": false,
      "stateMutability": "nonpayable",
      "type": "function"
    },
    {
      "constant": false,
      "inputs": [],
      "name": "claimCancelled",
      "outputs": [],
      "payable": false,
      "stateMutability": "nonpayable",
      "type": "function"
    },
    {
      "constant": false,
      "inputs": [],
      "name": "claimExpired",
      "outputs": [],
      "payable": false,
      "stateMutability": "nonpayable",
      "type": "function"
    }
  ],
  "bytecode": "0x60806040526000600560146101000a81548160ff021916908360068111156200002457fe5b02179055506000600f60006101000a81548160ff02191690831515021790555060016010556000601160006101000a81548160ff0219169083151502179055506000601760006101000a81548160ff0219169083151502179055506000601760016101000a81548160ff02191690831515021790555060405162005296380380620052968339810180604052810190808051820192919060200180518201929190602001805182019291906020018051906020019092919080519060200190929190805190602001909291908051906020019092919050505033600560006101000a81548173ffffffffffffffffffffffffffffffffffffffff021916908373ffffffffffffffffffffffffffffffffffffffff1602179055508660069080519060200190620001569291906200020d565b5085600790805190602001906200016f9291906200020d565b508460089080519060200190620001889291906200020d565b5083600960006101000a81548160ff021916908315150217905550620001bf838383620001cc640100000000026401000000009004565b50505050505050620002bc565b6103848303600b8190555081600b5403600a8190555061189c600b5401600c8190555080600c5401600d819055506249d400600d5401600e81905550505050565b828054600181600116156101000203166002900490600052602060002090601f016020900481019282601f106200025057805160ff191683800117855562000281565b8280016001018555821562000281579182015b828111156200028057825182559160200191906001019062000263565b5b50905062000290919062000294565b5090565b620002b991905b80821115620002b55760008160009055506001016200029b565b5090565b90565b614fca80620002cc6000396000f3006080604052600436106101c2576000357c0100000000000000000000000000000000000000000000000000000000900463ffffffff168063059db9ca146101c757806316f0115b14610200578063215995881461022b57806327dc297e1461025a5780632ddbd13a146102d157806338bbfa50146102fc578063465f80c8146103b957806346ac2054146103e45780636273106a1461043b57806367819ab414610466578063715018a6146104965780637299551f146104ad5780637583dc65146104d857806377313b50146105195780637d99dd78146105445780637e670b541461056f57806381d01ed31461059a578063833c38901461062a5780638da5cb5b14610655578063934b495b146106ac578063a5c93cae146106d7578063b1c9fe6e14610702578063c2a2747b1461073b578063c3d17a45146107cb578063c75fd341146107fa578063c80c975b14610811578063d0821b0e14610828578063d2ff19af14610863578063d430e3d7146108ba578063d7c81b55146108d1578063de477c7f14610961578063dfbf53ae14610991578063e41d9cb7146109ca578063ea8a1af0146109f5578063f2fde38b14610a0c578063f8fa35bc14610a4f575b600080fd5b3480156101d357600080fd5b506101dc610a7a565b604051808260038111156101ec57fe5b60ff16815260200191505060405180910390f35b34801561020c57600080fd5b50610215610a8d565b6040518082815260200191505060405180910390f35b34801561023757600080fd5b50610240610a93565b604051808215151515815260200191505060405180910390f35b34801561026657600080fd5b506102cf6004803603810190808035600019169060200190929190803590602001908201803590602001908080601f0160208091040260200160405190810160405280939291908181526020018383808284378201915050505050509192919290505050610aa6565b005b3480156102dd57600080fd5b506102e6610beb565b6040518082815260200191505060405180910390f35b34801561030857600080fd5b506103b76004803603810190808035600019169060200190929190803590602001908201803590602001908080601f0160208091040260200160405190810160405280939291908181526020018383808284378201915050505050509192919290803590602001908201803590602001908080601f0160208091040260200160405190810160405280939291908181526020018383808284378201915050505050509192919290505050610bf1565b005b3480156103c557600080fd5b506103ce610bf6565b6040518082815260200191505060405180910390f35b3480156103f057600080fd5b50610425600480360381019080803573ffffffffffffffffffffffffffffffffffffffff169060200190929190505050610bfc565b6040518082815260200191505060405180910390f35b34801561044757600080fd5b50610450610c14565b6040518082815260200191505060405180910390f35b34801561047257600080fd5b50610494600480360381019080803560ff169060200190929190505050610c1a565b005b3480156104a257600080fd5b506104ab610d67565b005b3480156104b957600080fd5b506104c2610e6c565b6040518082815260200191505060405180910390f35b3480156104e457600080fd5b50610517600480360381019080803590602001909291908035906020019092919080359060200190929190505050610e72565b005b34801561052557600080fd5b5061052e610eb3565b6040518082815260200191505060405180910390f35b34801561055057600080fd5b50610559610eb9565b6040518082815260200191505060405180910390f35b34801561057b57600080fd5b50610584610ebf565b6040518082815260200191505060405180910390f35b3480156105a657600080fd5b506105af610ec5565b6040518080602001828103825283818151815260200191508051906020019080838360005b838110156105ef5780820151818401526020810190506105d4565b50505050905090810190601f16801561061c5780820380516001836020036101000a031916815260200191505b509250505060405180910390f35b34801561063657600080fd5b5061063f610f63565b6040518082815260200191505060405180910390f35b34801561066157600080fd5b5061066a610f69565b604051808273ffffffffffffffffffffffffffffffffffffffff1673ffffffffffffffffffffffffffffffffffffffff16815260200191505060405180910390f35b3480156106b857600080fd5b506106c1610f8f565b6040518082815260200191505060405180910390f35b3480156106e357600080fd5b506106ec610f95565b6040518082815260200191505060405180910390f35b34801561070e57600080fd5b50610717610f9b565b6040518082600681111561072757fe5b60ff16815260200191505060405180910390f35b34801561074757600080fd5b50610750610fae565b6040518080602001828103825283818151815260200191508051906020019080838360005b83811015610790578082015181840152602081019050610775565b50505050905090810190601f1680156107bd5780820380516001836020036101000a031916815260200191505b509250505060405180910390f35b3480156107d757600080fd5b506107e061104c565b604051808215151515815260200191505060405180910390f35b34801561080657600080fd5b5061080f61105f565b005b34801561081d57600080fd5b50610826611148565b005b610849600480360381019080803560ff169060200190929190505050611552565b604051808215151515815260200191505060405180910390f35b34801561086f57600080fd5b506108a4600480360381019080803573ffffffffffffffffffffffffffffffffffffffff169060200190929190505050611aeb565b6040518082815260200191505060405180910390f35b3480156108c657600080fd5b506108cf611b03565b005b3480156108dd57600080fd5b506108e6612236565b6040518080602001828103825283818151815260200191508051906020019080838360005b8381101561092657808201518184015260208101905061090b565b50505050905090810190601f1680156109535780820380516001836020036101000a031916815260200191505b509250505060405180910390f35b34801561096d57600080fd5b5061098f600480360381019080803560ff1690602001909291905050506122d4565b005b34801561099d57600080fd5b506109a66126f7565b604051808260038111156109b657fe5b60ff16815260200191505060405180910390f35b3480156109d657600080fd5b506109df61270a565b6040518082815260200191505060405180910390f35b348015610a0157600080fd5b50610a0a612710565b005b348015610a1857600080fd5b50610a4d600480360381019080803573ffffffffffffffffffffffffffffffffffffffff1690602001909291905050506129b7565b005b348015610a5b57600080fd5b50610a64612b0f565b6040518082815260200191505060405180910390f35b601760029054906101000a900460ff1681565b60185481565b601160009054906101000a900460ff1681565b60011515600f60009054906101000a900460ff161515141515610ac857600080fd5b60026006811115610ad557fe5b600560149054906101000a900460ff166006811115610af057fe5b141515610afc57600080fd5b610b04612b15565b73ffffffffffffffffffffffffffffffffffffffff163373ffffffffffffffffffffffffffffffffffffffff16141515610b3d57600080fd5b601254600019168260001916148015610b69575060001515601160009054906101000a900460ff161515145b15610b8b57600060010260128160001916905550610b8681612e73565b610be7565b6013546000191682600019161415610bba57600060010260138160001916905550610bb58161316c565b610be6565b6014546000191682600019161415610be557600060010260148160001916905550610be4816132d8565b5b5b5b5050565b601d5481565b505050565b600c5481565b601c6020528060005260406000206000915090505481565b60195481565b600560009054906101000a900473ffffffffffffffffffffffffffffffffffffffff1673ffffffffffffffffffffffffffffffffffffffff163373ffffffffffffffffffffffffffffffffffffffff16141515610c7657600080fd5b60056006811115610c8357fe5b600560149054906101000a900460ff166006811115610c9e57fe5b14158015610cd2575060046006811115610cb457fe5b600560149054906101000a900460ff166006811115610ccf57fe5b14155b1515610cdd57600080fd5b600c5442118015610cf05750600d544211155b1515610cfb57600080fd5b610d0481613444565b1515610d0f57600080fd5b8060ff166003811115610d1e57fe5b601760026101000a81548160ff02191690836003811115610d3b57fe5b02179055506003600560146101000a81548160ff02191690836006811115610d5f57fe5b021790555050565b600560009054906101000a900473ffffffffffffffffffffffffffffffffffffffff1673ffffffffffffffffffffffffffffffffffffffff163373ffffffffffffffffffffffffffffffffffffffff16141515610dc357600080fd5b600560009054906101000a900473ffffffffffffffffffffffffffffffffffffffff1673ffffffffffffffffffffffffffffffffffffffff167ff8df31144d9c2f0f6b59d69b8b98abd5459d07f2742c4df920b25aae33c6482060405160405180910390a26000600560006101000a81548173ffffffffffffffffffffffffffffffffffffffff021916908373ffffffffffffffffffffffffffffffffffffffff160217905550565b601f5481565b6103848303600b8190555081600b5403600a8190555061189c600b5401600c8190555080600c5401600d819055506249d400600d5401600e81905550505050565b600d5481565b60205481565b601e5481565b60088054600181600116156101000203166002900480601f016020809104026020016040519081016040528092919081815260200182805460018160011615610100020316600290048015610f5b5780601f10610f3057610100808354040283529160200191610f5b565b820191906000526020600020905b815481529060010190602001808311610f3e57829003601f168201915b505050505081565b600e5481565b600560009054906101000a900473ffffffffffffffffffffffffffffffffffffffff1681565b600a5481565b60215481565b600560149054906101000a900460ff1681565b60078054600181600116156101000203166002900480601f0160208091040260200160405190810160405280929190818152602001828054600181600116156101000203166002900480156110445780601f1061101957610100808354040283529160200191611044565b820191906000526020600020905b81548152906001019060200180831161102757829003601f168201915b505050505081565b600960009054906101000a900460ff1681565b6000600560009054906101000a900473ffffffffffffffffffffffffffffffffffffffff1673ffffffffffffffffffffffffffffffffffffffff163373ffffffffffffffffffffffffffffffffffffffff161415156110bd57600080fd5b600e54421115156110cd57600080fd5b601954905060006019819055506006600560146101000a81548160ff021916908360068111156110f957fe5b02179055503373ffffffffffffffffffffffffffffffffffffffff166108fc829081150290604051600060405180830381858888f19350505050158015611144573d6000803e3d6000fd5b5050565b60006005600681111561115757fe5b600560149054906101000a900460ff16600681111561117257fe5b14151561117e57600080fd5b6005600681111561118b57fe5b600560149054906101000a900460ff1660068111156111a657fe5b14806111d75750600460068111156111ba57fe5b600560149054906101000a900460ff1660068111156111d557fe5b145b15156111e257600080fd5b600e54421015156111f257600080fd5b600160038111156111ff57fe5b601760039054906101000a900460ff16600381111561121a57fe5b14801561126657506000601b60003373ffffffffffffffffffffffffffffffffffffffff1673ffffffffffffffffffffffffffffffffffffffff16815260200190815260200160002054115b806112e157506002600381111561127957fe5b601760039054906101000a900460ff16600381111561129457fe5b1480156112e057506000601c60003373ffffffffffffffffffffffffffffffffffffffff1673ffffffffffffffffffffffffffffffffffffffff16815260200190815260200160002054115b5b806113d557506003808111156112f357fe5b601760039054906101000a900460ff16600381111561130e57fe5b148061133f57506005600681111561132257fe5b600560149054906101000a900460ff16600681111561133d57fe5b145b80156113d457506000601b60003373ffffffffffffffffffffffffffffffffffffffff1673ffffffffffffffffffffffffffffffffffffffff1681526020019081526020016000205411806113d357506000601c60003373ffffffffffffffffffffffffffffffffffffffff1673ffffffffffffffffffffffffffffffffffffffff16815260200190815260200160002054115b5b5b15156113e057600080fd5b601c60003373ffffffffffffffffffffffffffffffffffffffff1673ffffffffffffffffffffffffffffffffffffffff16815260200190815260200160002054601b60003373ffffffffffffffffffffffffffffffffffffffff1673ffffffffffffffffffffffffffffffffffffffff168152602001908152602001600020540190506000601b60003373ffffffffffffffffffffffffffffffffffffffff1673ffffffffffffffffffffffffffffffffffffffff168152602001908152602001600020819055506000601c60003373ffffffffffffffffffffffffffffffffffffffff1673ffffffffffffffffffffffffffffffffffffffff16815260200190815260200160002081905550611502816019546134a790919063ffffffff16565b6019819055503373ffffffffffffffffffffffffffffffffffffffff166108fc829081150290604051600060405180830381858888f1935050505015801561154e573d6000803e3d6000fd5b5050565b600080600681111561156057fe5b600560149054906101000a900460ff16600681111561157b57fe5b14801561158a5750600a544210155b80156115975750600b5442105b15611714576001600560146101000a81548160ff021916908360068111156115bb57fe5b02179055507f3ced90e3557a635a9e84df8530d5fbacd36e7003f133e3b818949cc8bae9e3a860076008600b5460405180806020018060200184815260200183810383528681815460018160011615610100020316600290048152602001915080546001816001161561010002031660029004801561167b5780601f106116505761010080835404028352916020019161167b565b820191906000526020600020905b81548152906001019060200180831161165e57829003601f168201915b50508381038252858181546001816001161561010002031660029004815260200191508054600181600116156101000203166002900480156116fe5780601f106116d3576101008083540402835291602001916116fe565b820191906000526020600020905b8154815290600101906020018083116116e157829003601f168201915b50509550505050505060405180910390a16118eb565b6001600681111561172157fe5b600560149054906101000a900460ff16600681111561173c57fe5b148061176d57506000600681111561175057fe5b600560149054906101000a900460ff16600681111561176b57fe5b145b801561177b5750600b544210155b156118ea576002600560146101000a81548160ff0219169083600681111561179f57fe5b02179055507f9fbf140f4490578e8b792fd42715a4736ecde3b30840bfb653d2dc5a1fc69264600760086040518080602001806020018381038352858181546001816001161561010002031660029004815260200191508054600181600116156101000203166002900480156118565780601f1061182b57610100808354040283529160200191611856565b820191906000526020600020905b81548152906001019060200180831161183957829003601f168201915b50508381038252848181546001816001161561010002031660029004815260200191508054600181600116156101000203166002900480156118d95780601f106118ae576101008083540402835291602001916118d9565b820191906000526020600020905b8154815290600101906020018083116118bc57829003601f168201915b505094505050505060405180910390a15b5b600160068111156118f857fe5b600560149054906101000a900460ff16600681111561191357fe5b14151561191f57600080fd5b60018260ff161480611934575060028260ff16145b151561193f57600080fd5b60003411151561194e57600080fd5b60018260ff161415611a20576119ac34601b60003373ffffffffffffffffffffffffffffffffffffffff1673ffffffffffffffffffffffffffffffffffffffff168152602001908152602001600020546134c090919063ffffffff16565b601b60003373ffffffffffffffffffffffffffffffffffffffff1673ffffffffffffffffffffffffffffffffffffffff168152602001908152602001600020819055506001602060008282540192505081905550611a1534601e546134c090919063ffffffff16565b601e81905550611ae2565b611a7234601c60003373ffffffffffffffffffffffffffffffffffffffff1673ffffffffffffffffffffffffffffffffffffffff168152602001908152602001600020546134c090919063ffffffff16565b601c60003373ffffffffffffffffffffffffffffffffffffffff1673ffffffffffffffffffffffffffffffffffffffff168152602001908152602001600020819055506001602160008282540192505081905550611adb34601f546134c090919063ffffffff16565b601f819055505b60019050919050565b601b6020528060005260406000206000915090505481565b60008060001515600f60009054906101000a900460ff161515148015611b4f575060046006811115611b3157fe5b600560149054906101000a900460ff166006811115611b4c57fe5b14155b8015611b81575060056006811115611b6357fe5b600560149054906101000a900460ff166006811115611b7e57fe5b14155b8015611b8e5750600c5442115b8015611b9c5750600d544211155b15611bc757611bab60006134dc565b6001600f60006101000a81548160ff0219169083151502179055505b60046006811115611bd457fe5b600560149054906101000a900460ff166006811115611bef57fe5b141515611bfb57600080fd5b60056006811115611c0857fe5b600560149054906101000a900460ff166006811115611c2357fe5b1480611c54575060046006811115611c3757fe5b600560149054906101000a900460ff166006811115611c5257fe5b145b1515611c5f57600080fd5b600e5442101515611c6f57600080fd5b60016003811115611c7c57fe5b601760039054906101000a900460ff166003811115611c9757fe5b148015611ce357506000601b60003373ffffffffffffffffffffffffffffffffffffffff1673ffffffffffffffffffffffffffffffffffffffff16815260200190815260200160002054115b80611d5e575060026003811115611cf657fe5b601760039054906101000a900460ff166003811115611d1157fe5b148015611d5d57506000601c60003373ffffffffffffffffffffffffffffffffffffffff1673ffffffffffffffffffffffffffffffffffffffff16815260200190815260200160002054115b5b80611e525750600380811115611d7057fe5b601760039054906101000a900460ff166003811115611d8b57fe5b1480611dbc575060056006811115611d9f57fe5b600560149054906101000a900460ff166006811115611dba57fe5b145b8015611e5157506000601b60003373ffffffffffffffffffffffffffffffffffffffff1673ffffffffffffffffffffffffffffffffffffffff168152602001908152602001600020541180611e5057506000601c60003373ffffffffffffffffffffffffffffffffffffffff1673ffffffffffffffffffffffffffffffffffffffff16815260200190815260200160002054115b5b5b1515611e5d57600080fd5b60016003811115611e6a57fe5b601760039054906101000a900460ff166003811115611e8557fe5b1415611f7857611efa601e54611eec68056bc75e2d63100000601b60003373ffffffffffffffffffffffffffffffffffffffff1673ffffffffffffffffffffffffffffffffffffffff1681526020019081526020016000205461366490919063ffffffff16565b61369c90919063ffffffff16565b9150611f2c68056bc75e2d63100000611f1e8460195461366490919063ffffffff16565b61369c90919063ffffffff16565b90506000601b60003373ffffffffffffffffffffffffffffffffffffffff1673ffffffffffffffffffffffffffffffffffffffff168152602001908152602001600020819055506121d0565b60026003811115611f8557fe5b601760039054906101000a900460ff166003811115611fa057fe5b141561209357612015601f5461200768056bc75e2d63100000601c60003373ffffffffffffffffffffffffffffffffffffffff1673ffffffffffffffffffffffffffffffffffffffff1681526020019081526020016000205461366490919063ffffffff16565b61369c90919063ffffffff16565b915061204768056bc75e2d631000006120398460195461366490919063ffffffff16565b61369c90919063ffffffff16565b90506000601c60003373ffffffffffffffffffffffffffffffffffffffff1673ffffffffffffffffffffffffffffffffffffffff168152602001908152602001600020819055506121cf565b60038081111561209f57fe5b601760039054906101000a900460ff1660038111156120ba57fe5b14156121ce57601c60003373ffffffffffffffffffffffffffffffffffffffff1673ffffffffffffffffffffffffffffffffffffffff16815260200190815260200160002054601b60003373ffffffffffffffffffffffffffffffffffffffff1673ffffffffffffffffffffffffffffffffffffffff168152602001908152602001600020540190506000601b60003373ffffffffffffffffffffffffffffffffffffffff1673ffffffffffffffffffffffffffffffffffffffff168152602001908152602001600020819055506000601c60003373ffffffffffffffffffffffffffffffffffffffff1673ffffffffffffffffffffffffffffffffffffffff168152602001908152602001600020819055505b5b5b6121e5816019546134a790919063ffffffff16565b6019819055503373ffffffffffffffffffffffffffffffffffffffff166108fc829081150290604051600060405180830381858888f19350505050158015612231573d6000803e3d6000fd5b505050565b60068054600181600116156101000203166002900480601f0160208091040260200160405190810160405280929190818152602001828054600181600116156101000203166002900480156122cc5780601f106122a1576101008083540402835291602001916122cc565b820191906000526020600020905b8154815290600101906020018083116122af57829003601f168201915b505050505081565b600080600560009054906101000a900473ffffffffffffffffffffffffffffffffffffffff1673ffffffffffffffffffffffffffffffffffffffff163373ffffffffffffffffffffffffffffffffffffffff1614151561233357600080fd5b600380600681111561234157fe5b600560149054906101000a900460ff16600681111561235c57fe5b14151561236857600080fd5b6005600681111561237557fe5b600560149054906101000a900460ff16600681111561239057fe5b141580156123c45750600460068111156123a657fe5b600560149054906101000a900460ff1660068111156123c157fe5b14155b15156123cf57600080fd5b600c54421180156123e25750600d544211155b15156123ed57600080fd5b6123f684613444565b151561240157600080fd5b8360ff16600381111561241057fe5b925082600381111561241e57fe5b601760029054906101000a900460ff16600381111561243957fe5b14156126e85782601760036101000a81548160ff0219169083600381111561245d57fe5b02179055506004600560146101000a81548160ff0219169083600681111561248157fe5b021790555061249d601f54601e546134c090919063ffffffff16565b6018819055506000601854111561256c576124da60646124cc600160ff1660185461366490919063ffffffff16565b61369c90919063ffffffff16565b915081601a819055506124f8826018546134a790919063ffffffff16565b601981905550600560009054906101000a900473ffffffffffffffffffffffffffffffffffffffff1673ffffffffffffffffffffffffffffffffffffffff166108fc839081150290604051600060405180830381858888f19350505050158015612566573d6000803e3d6000fd5b50612579565b6000915060006019819055505b7fcae23523c91fbbb6338a9dfb6cfe38b5f81ea6eab21de2e5b4f1f22e4edeb2a660076008601760039054906101000a900460ff166040518080602001806020018460038111156125c657fe5b60ff16815260200183810383528681815460018160011615610100020316600290048152602001915080546001816001161561010002031660029004801561264f5780601f106126245761010080835404028352916020019161264f565b820191906000526020600020905b81548152906001019060200180831161263257829003601f168201915b50508381038252858181546001816001161561010002031660029004815260200191508054600181600116156101000203166002900480156126d25780601f106126a7576101008083540402835291602001916126d2565b820191906000526020600020905b8154815290600101906020018083116126b557829003601f168201915b50509550505050505060405180910390a16126f1565b6126f0612710565b5b50505050565b601760039054906101000a900460ff1681565b600b5481565b600560009054906101000a900473ffffffffffffffffffffffffffffffffffffffff1673ffffffffffffffffffffffffffffffffffffffff163373ffffffffffffffffffffffffffffffffffffffff1614151561276c57600080fd5b6000600681111561277957fe5b600560149054906101000a900460ff16600681111561279457fe5b14806127c55750600160068111156127a857fe5b600560149054906101000a900460ff1660068111156127c357fe5b145b806127f55750600260068111156127d857fe5b600560149054906101000a900460ff1660068111156127f357fe5b145b8061282557506003600681111561280857fe5b600560149054906101000a900460ff16600681111561282357fe5b145b151561283057600080fd5b60058060146101000a81548160ff0219169083600681111561284e57fe5b021790555061286a601f54601e546134c090919063ffffffff16565b6019819055507fec8dc6335c2196b8a6d65cd542069150bf6373e8330640096a2074c2ba36df04600760086040518080602001806020018381038352858181546001816001161561010002031660029004815260200191508054600181600116156101000203166002900480156129225780601f106128f757610100808354040283529160200191612922565b820191906000526020600020905b81548152906001019060200180831161290557829003601f168201915b50508381038252848181546001816001161561010002031660029004815260200191508054600181600116156101000203166002900480156129a55780601f1061297a576101008083540402835291602001916129a5565b820191906000526020600020905b81548152906001019060200180831161298857829003601f168201915b505094505050505060405180910390a1565b600560009054906101000a900473ffffffffffffffffffffffffffffffffffffffff1673ffffffffffffffffffffffffffffffffffffffff163373ffffffffffffffffffffffffffffffffffffffff16141515612a1357600080fd5b600073ffffffffffffffffffffffffffffffffffffffff168173ffffffffffffffffffffffffffffffffffffffff1614151515612a4f57600080fd5b8073ffffffffffffffffffffffffffffffffffffffff16600560009054906101000a900473ffffffffffffffffffffffffffffffffffffffff1673ffffffffffffffffffffffffffffffffffffffff167f8be0079c531659141344cd1fd0a4f28419497f9722a3daafe3b4186f6b6457e060405160405180910390a380600560006101000a81548173ffffffffffffffffffffffffffffffffffffffff021916908373ffffffffffffffffffffffffffffffffffffffff16021790555050565b601a5481565b6000806000809054906101000a900473ffffffffffffffffffffffffffffffffffffffff1673ffffffffffffffffffffffffffffffffffffffff161480612b8557506000612b836000809054906101000a900473ffffffffffffffffffffffffffffffffffffffff166136b2565b145b15612b9657612b9460006136bd565b505b6000809054906101000a900473ffffffffffffffffffffffffffffffffffffffff1673ffffffffffffffffffffffffffffffffffffffff166338cc48316040518163ffffffff167c0100000000000000000000000000000000000000000000000000000000028152600401602060405180830381600087803b158015612c1b57600080fd5b505af1158015612c2f573d6000803e3d6000fd5b505050506040513d6020811015612c4557600080fd5b810190808051906020019092919050505073ffffffffffffffffffffffffffffffffffffffff16600160009054906101000a900473ffffffffffffffffffffffffffffffffffffffff1673ffffffffffffffffffffffffffffffffffffffff16141515612dad576000809054906101000a900473ffffffffffffffffffffffffffffffffffffffff1673ffffffffffffffffffffffffffffffffffffffff166338cc48316040518163ffffffff167c0100000000000000000000000000000000000000000000000000000000028152600401602060405180830381600087803b158015612d3157600080fd5b505af1158015612d45573d6000803e3d6000fd5b505050506040513d6020811015612d5b57600080fd5b8101908080519060200190929190505050600160006101000a81548173ffffffffffffffffffffffffffffffffffffffff021916908373ffffffffffffffffffffffffffffffffffffffff1602179055505b600160009054906101000a900473ffffffffffffffffffffffffffffffffffffffff1673ffffffffffffffffffffffffffffffffffffffff1663c281d19e6040518163ffffffff167c0100000000000000000000000000000000000000000000000000000000028152600401602060405180830381600087803b158015612e3357600080fd5b505af1158015612e47573d6000803e3d6000fd5b505050506040513d6020811015612e5d57600080fd5b8101908080519060200190929190505050905090565b612eb2816040805190810160405280600881526020017f46494e49534845440000000000000000000000000000000000000000000000008152506136ce565b15612fb6576001601160006101000a81548160ff0219169083151502179055507f78ef5e7791787e8439189a673069ee2a505a32c5117ef4108e7d36ec8ae125188160105460646040518080602001848152602001838152602001828103825285818151815260200191508051906020019080838360005b83811015612f45578082015181840152602081019050612f2a565b50505050905090810190601f168015612f725780820380516001836020036101000a031916815260200191505b5094505050505060405180910390a1612f9760026010546134c090919063ffffffff16565b601081905550612fa760006137a7565b612fb1600061392f565b613169565b6001606403601054101561309f57612fda60016010546134c090919063ffffffff16565b6010819055507f447a51a33618697c92f85c03d7db33e291f660476e8fea9934173935c7efc0f18160105460646040518080602001848152602001838152602001828103825285818151815260200191508051906020019080838360005b83811015613053578082015181840152602081019050613038565b50505050905090810190601f1680156130805780820380516001836020036101000a031916815260200191505b5094505050505060405180910390a161309a61012c6134dc565b613168565b60058060146101000a81548160ff021916908360068111156130bd57fe5b02179055507fe541b4f0e599859696632b45febeaa08da9d13440690feed224729a3e82382108160646040518080602001838152602001828103825284818151815260200191508051906020019080838360005b8381101561312c578082015181840152602081019050613111565b50505050905090810190601f1680156131595780820380516001836020036101000a031916815260200191505b50935050505060405180910390a15b5b50565b600061317782613ab7565b9050601960ff168111156132865761319b60016010546134c090919063ffffffff16565b601081905550606460105410156131bc576131b761012c61392f565b613285565b60058060146101000a81548160ff021916908360068111156131da57fe5b02179055507fe541b4f0e599859696632b45febeaa08da9d13440690feed224729a3e82382108260646040518080602001838152602001828103825284818151815260200191508051906020019080838360005b8381101561324957808201518184015260208101905061322e565b50505050905090810190601f1680156132765780820380516001836020036101000a031916815260200191505b50935050505060405180910390a15b5b806015819055506001601760006101000a81548160ff02191690831515021790555060011515601760019054906101000a900460ff16151514156132d4576132d2601554601654613acb565b505b5050565b60006132e382613ab7565b9050601960ff168111156133f25761330760016010546134c090919063ffffffff16565b601081905550606460105410156133285761332361012c61392f565b6133f1565b60058060146101000a81548160ff0219169083600681111561334657fe5b02179055507fe541b4f0e599859696632b45febeaa08da9d13440690feed224729a3e82382108260646040518080602001838152602001828103825284818151815260200191508051906020019080838360005b838110156133b557808201518184015260208101905061339a565b50505050905090810190601f1680156133e25780820380516001836020036101000a031916815260200191505b50935050505060405180910390a15b5b806016819055506001601760016101000a81548160ff02191690831515021790555060011515601760009054906101000a900460ff16151514156134405761343e601554601654613acb565b505b5050565b600060018260ff16148061345b575060028260ff16145b1561346957600190506134a2565b60011515600960009054906101000a900460ff16151514801561348f575060038260ff16145b1561349d57600190506134a2565b600090505b919050565b60008282111515156134b557fe5b818303905092915050565b600081830190508281101515156134d357fe5b80905092915050565b6060613614606060405190810160405280602e81526020017f6a736f6e28687474703a2f2f6170692e666f6f7462616c6c2d646174612e6f7281526020017f672f76312f66697874757265732f00000000000000000000000000000000000081525060068054600181600116156101000203166002900480601f0160208091040260200160405190810160405280929190818152602001828054600181600116156101000203166002900480156135d45780601f106135a9576101008083540402835291602001916135d4565b820191906000526020600020905b8154815290600101906020018083116135b757829003601f168201915b50505050506040805190810160405280600881526020017f2e66697874757265000000000000000000000000000000000000000000000000815250613d6d565b9050613656826040805190810160405280600381526020017f55524c000000000000000000000000000000000000000000000000000000000081525083613da5565b601281600019169055505050565b6000808314156136775760009050613696565b818302905081838281151561368857fe5b0414151561369257fe5b8090505b92915050565b600081838115156136a957fe5b04905092915050565b6000813b9050919050565b60006136c7614347565b9050919050565b6000816040518082805190602001908083835b60208310151561370657805182526020820191506020810190506020830392506136e1565b6001836020036101000a038019825116818451168082178552505050505050905001915050604051809103902060001916836040518082805190602001908083835b60208310151561376d5780518252602082019150602081019050602083039250613748565b6001836020036101000a03801982511681845116808217855250505050505090500191505060405180910390206000191614905092915050565b60606138df606060405190810160405280602e81526020017f6a736f6e28687474703a2f2f6170692e666f6f7462616c6c2d646174612e6f7281526020017f672f76312f66697874757265732f00000000000000000000000000000000000081525060068054600181600116156101000203166002900480601f01602080910402602001604051908101604052809291908181526020018280546001816001161561010002031660029004801561389f5780601f106138745761010080835404028352916020019161389f565b820191906000526020600020905b81548152906001019060200180831161388257829003601f168201915b50505050506040805190810160405280601d81526020017f2e666978747572652e726573756c742e676f616c73486f6d655465616d000000815250613d6d565b9050613921826040805190810160405280600381526020017f55524c000000000000000000000000000000000000000000000000000000000081525083613da5565b601381600019169055505050565b6060613a67606060405190810160405280602e81526020017f6a736f6e28687474703a2f2f6170692e666f6f7462616c6c2d646174612e6f7281526020017f672f76312f66697874757265732f00000000000000000000000000000000000081525060068054600181600116156101000203166002900480601f016020809104026020016040519081016040528092919081815260200182805460018160011615610100020316600290048015613a275780601f106139fc57610100808354040283529160200191613a27565b820191906000526020600020905b815481529060010190602001808311613a0a57829003601f168201915b50505050506040805190810160405280601d81526020017f2e666978747572652e726573756c742e676f616c73417761795465616d000000815250613d6d565b9050613aa9826040805190810160405280600381526020017f55524c000000000000000000000000000000000000000000000000000000000081525083613da5565b601481600019169055505050565b6000613ac48260006147d6565b9050919050565b600081831115613bb8576001601760026101000a81548160ff02191690836003811115613af457fe5b02179055507ffa742edf78b989f59c18806f1130797d826414c5128e9b266575835786805d7060076040518080602001828103825283818154600181600116156101000203166002900481526020019150805460018160011615610100020316600290048015613ba55780601f10613b7a57610100808354040283529160200191613ba5565b820191906000526020600020905b815481529060010190602001808311613b8857829003601f168201915b50509250505060405180910390a1613d31565b81831015613ca3576002601760026101000a81548160ff02191690836003811115613bdf57fe5b02179055507ffa742edf78b989f59c18806f1130797d826414c5128e9b266575835786805d7060086040518080602001828103825283818154600181600116156101000203166002900481526020019150805460018160011615610100020316600290048015613c905780601f10613c6557610100808354040283529160200191613c90565b820191906000526020600020905b815481529060010190602001808311613c7357829003601f168201915b50509250505060405180910390a1613d30565b6003601760026101000a81548160ff02191690836003811115613cc257fe5b02179055507ffa742edf78b989f59c18806f1130797d826414c5128e9b266575835786805d706040518080602001828103825260048152602001807f445241570000000000000000000000000000000000000000000000000000000081525060200191505060405180910390a15b5b6003600560146101000a81548160ff02191690836006811115613d5057fe5b0217905550601760029054906101000a900460ff16905092915050565b6060613d9c84848460206040519081016040528060008152506020604051908101604052806000815250614aca565b90509392505050565b60008060008060009054906101000a900473ffffffffffffffffffffffffffffffffffffffff1673ffffffffffffffffffffffffffffffffffffffff161480613e1757506000613e156000809054906101000a900473ffffffffffffffffffffffffffffffffffffffff166136b2565b145b15613e2857613e2660006136bd565b505b6000809054906101000a900473ffffffffffffffffffffffffffffffffffffffff1673ffffffffffffffffffffffffffffffffffffffff166338cc48316040518163ffffffff167c0100000000000000000000000000000000000000000000000000000000028152600401602060405180830381600087803b158015613ead57600080fd5b505af1158015613ec1573d6000803e3d6000fd5b505050506040513d6020811015613ed757600080fd5b810190808051906020019092919050505073ffffffffffffffffffffffffffffffffffffffff16600160009054906101000a900473ffffffffffffffffffffffffffffffffffffffff1673ffffffffffffffffffffffffffffffffffffffff1614151561403f576000809054906101000a900473ffffffffffffffffffffffffffffffffffffffff1673ffffffffffffffffffffffffffffffffffffffff166338cc48316040518163ffffffff167c0100000000000000000000000000000000000000000000000000000000028152600401602060405180830381600087803b158015613fc357600080fd5b505af1158015613fd7573d6000803e3d6000fd5b505050506040513d6020811015613fed57600080fd5b8101908080519060200190929190505050600160006101000a81548173ffffffffffffffffffffffffffffffffffffffff021916908373ffffffffffffffffffffffffffffffffffffffff1602179055505b600160009054906101000a900473ffffffffffffffffffffffffffffffffffffffff1673ffffffffffffffffffffffffffffffffffffffff1663524f3889856040518263ffffffff167c01000000000000000000000000000000000000000000000000000000000281526004018080602001828103825283818151815260200191508051906020019080838360005b838110156140e95780820151818401526020810190506140ce565b50505050905090810190601f1680156141165780820380516001836020036101000a031916815260200191505b5092505050602060405180830381600087803b15801561413557600080fd5b505af1158015614149573d6000803e3d6000fd5b505050506040513d602081101561415f57600080fd5b8101908080519060200190929190505050905062030d403a02670de0b6b3a764000001811115614195576000600102915061433f565b600160009054906101000a900473ffffffffffffffffffffffffffffffffffffffff1673ffffffffffffffffffffffffffffffffffffffff1663adf59f99828787876040518563ffffffff167c0100000000000000000000000000000000000000000000000000000000028152600401808481526020018060200180602001838103835285818151815260200191508051906020019080838360005b8381101561424c578082015181840152602081019050614231565b50505050905090810190601f1680156142795780820380516001836020036101000a031916815260200191505b50838103825284818151815260200191508051906020019080838360005b838110156142b2578082015181840152602081019050614297565b50505050905090810190601f1680156142df5780820380516001836020036101000a031916815260200191505b50955050505050506020604051808303818588803b15801561430057600080fd5b505af1158015614314573d6000803e3d6000fd5b50505050506040513d602081101561432b57600080fd5b810190808051906020019092919050505091505b509392505050565b600080614367731d3b2638a7cc9f2cb3d298a3da7a90b67e5506ed6136b2565b111561440857731d3b2638a7cc9f2cb3d298a3da7a90b67e5506ed6000806101000a81548173ffffffffffffffffffffffffffffffffffffffff021916908373ffffffffffffffffffffffffffffffffffffffff1602179055506143ff6040805190810160405280600b81526020017f6574685f6d61696e6e6574000000000000000000000000000000000000000000815250614edf565b600190506147d3565b600061442773c03a2615d5efaf5f49f60b7bb6583eaec212fdf16136b2565b11156144c85773c03a2615d5efaf5f49f60b7bb6583eaec212fdf16000806101000a81548173ffffffffffffffffffffffffffffffffffffffff021916908373ffffffffffffffffffffffffffffffffffffffff1602179055506144bf6040805190810160405280600c81526020017f6574685f726f707374656e330000000000000000000000000000000000000000815250614edf565b600190506147d3565b60006144e773b7a07bcf2ba2f2703b24c0691b5278999c59ac7e6136b2565b11156145885773b7a07bcf2ba2f2703b24c0691b5278999c59ac7e6000806101000a81548173ffffffffffffffffffffffffffffffffffffffff021916908373ffffffffffffffffffffffffffffffffffffffff16021790555061457f6040805190810160405280600981526020017f6574685f6b6f76616e0000000000000000000000000000000000000000000000815250614edf565b600190506147d3565b60006145a773146500cfd35b22e4a392fe0adc06de1a1368ed486136b2565b11156146485773146500cfd35b22e4a392fe0adc06de1a1368ed486000806101000a81548173ffffffffffffffffffffffffffffffffffffffff021916908373ffffffffffffffffffffffffffffffffffffffff16021790555061463f6040805190810160405280600b81526020017f6574685f72696e6b656279000000000000000000000000000000000000000000815250614edf565b600190506147d3565b6000614667736f485c8bf6fc43ea212e93bbf8ce046c7f1cb4756136b2565b11156146ca57736f485c8bf6fc43ea212e93bbf8ce046c7f1cb4756000806101000a81548173ffffffffffffffffffffffffffffffffffffffff021916908373ffffffffffffffffffffffffffffffffffffffff160217905550600190506147d3565b60006146e97320e12a1f859b3feae5fb2a0a32c18f5a65555bbf6136b2565b111561474c577320e12a1f859b3feae5fb2a0a32c18f5a65555bbf6000806101000a81548173ffffffffffffffffffffffffffffffffffffffff021916908373ffffffffffffffffffffffffffffffffffffffff160217905550600190506147d3565b600061476b7351efaf4c8b3c9afbd5ab9f4bbc82784ab6ef8faa6136b2565b11156147ce577351efaf4c8b3c9afbd5ab9f4bbc82784ab6ef8faa6000806101000a81548173ffffffffffffffffffffffffffffffffffffffff021916908373ffffffffffffffffffffffffffffffffffffffff160217905550600190506147d3565b600090505b90565b6000606060008060008693506000925060009150600090505b8351811015614aab5760307f010000000000000000000000000000000000000000000000000000000000000002848281518110151561482a57fe5b9060200101517f010000000000000000000000000000000000000000000000000000000000000090047f0100000000000000000000000000000000000000000000000000000000000000027effffffffffffffffffffffffffffffffffffffffffffffffffffffffffffff191610158015614942575060397f01000000000000000000000000000000000000000000000000000000000000000284828151811015156148d257fe5b9060200101517f010000000000000000000000000000000000000000000000000000000000000090047f0100000000000000000000000000000000000000000000000000000000000000027effffffffffffffffffffffffffffffffffffffffffffffffffffffffffffff191611155b156149f357811561496557600086141561495b57614aab565b8580600190039650505b600a830292506030848281518110151561497b57fe5b9060200101517f010000000000000000000000000000000000000000000000000000000000000090047f0100000000000000000000000000000000000000000000000000000000000000027f010000000000000000000000000000000000000000000000000000000000000090040383019250614a9e565b602e7f0100000000000000000000000000000000000000000000000000000000000000028482815181101515614a2557fe5b9060200101517f010000000000000000000000000000000000000000000000000000000000000090047f0100000000000000000000000000000000000000000000000000000000000000027effffffffffffffffffffffffffffffffffffffffffffffffffffffffffffff19161415614a9d57600191505b5b80806001019150506147ef565b6000861115614abd5785600a0a830292505b8294505050505092915050565b6060806060806060806060806000808e98508d97508c96508b95508a94508451865188518a518c51010101016040519080825280601f01601f191660200182016040528015614b285781602001602082028038833980820191505090505b50935083925060009150600090505b8851811015614bea578881815181101515614b4e57fe5b9060200101517f010000000000000000000000000000000000000000000000000000000000000090047f0100000000000000000000000000000000000000000000000000000000000000028383806001019450815181101515614bad57fe5b9060200101907effffffffffffffffffffffffffffffffffffffffffffffffffffffffffffff1916908160001a9053508080600101915050614b37565b600090505b8751811015614ca2578781815181101515614c0657fe5b9060200101517f010000000000000000000000000000000000000000000000000000000000000090047f0100000000000000000000000000000000000000000000000000000000000000028383806001019450815181101515614c6557fe5b9060200101907effffffffffffffffffffffffffffffffffffffffffffffffffffffffffffff1916908160001a9053508080600101915050614bef565b600090505b8651811015614d5a578681815181101515614cbe57fe5b9060200101517f010000000000000000000000000000000000000000000000000000000000000090047f0100000000000000000000000000000000000000000000000000000000000000028383806001019450815181101515614d1d57fe5b9060200101907effffffffffffffffffffffffffffffffffffffffffffffffffffffffffffff1916908160001a9053508080600101915050614ca7565b600090505b8551811015614e12578581815181101515614d7657fe5b9060200101517f010000000000000000000000000000000000000000000000000000000000000090047f0100000000000000000000000000000000000000000000000000000000000000028383806001019450815181101515614dd557fe5b9060200101907effffffffffffffffffffffffffffffffffffffffffffffffffffffffffffff1916908160001a9053508080600101915050614d5f565b600090505b8451811015614eca578481815181101515614e2e57fe5b9060200101517f010000000000000000000000000000000000000000000000000000000000000090047f0100000000000000000000000000000000000000000000000000000000000000028383806001019450815181101515614e8d57fe5b9060200101907effffffffffffffffffffffffffffffffffffffffffffffffffffffffffffff1916908160001a9053508080600101915050614e17565b82995050505050505050505095945050505050565b8060029080519060200190614ef5929190614ef9565b5050565b828054600181600116156101000203166002900490600052602060002090601f016020900481019282601f10614f3a57805160ff1916838001178555614f68565b82800160010185558215614f68579182015b82811115614f67578251825591602001919060010190614f4c565b5b509050614f759190614f79565b5090565b614f9b91905b80821115614f97576000816000905550600101614f7f565b5090565b905600a165627a7a72305820ca47fa138ace937414dae0969e0510224a31902aab0d8f0b0fd2b04f4021fd170029",
  "source": "pragma solidity ^0.4.23;\r\n\r\nimport './zeppelin/Ownable.sol';\r\nimport 'zeppelin-solidity/contracts/math/SafeMath.sol';\r\nimport './oraclizeAPI_0.5.sol';\r\n\r\ncontract Bet is usingOraclize, Ownable {\r\n  using SafeMath for uint256;\r\n\r\n  enum Phase { Inactive, BettingOpen, BettingClosed, BettingWinnerSuggested, BettingConfirmed, BettingCancelled, BettingConfirmedExpired }\r\n  enum Winner { Undecided, Player1, Player2, Draw }\r\n\r\n  uint8 private constant FEE_PERCENT = 1;\r\n  uint256 private constant CLAIM_EXPIRES_AFTER = 8 weeks;\r\n  uint8 private constant MAX_GOALS = 25;\r\n\r\n  Phase public phase = Phase.Inactive;\r\n\r\n  string public gameId;\r\n  string public p1;\r\n  string public p2;\r\n  bool public drawAllowed;\r\n  uint256 public timeBettingOpens;\r\n  uint256 public timeBettingCloses;\r\n  uint256 public timeMatchEnds;\r\n  uint256 public timeSuggestConfirmEnds;\r\n  uint256 public timeClaimsExpire;\r\n\r\n  event FetchStatusRequest();\r\n  event FetchStatusResult(string result, uint256 fetchAttempt, uint256 MAX_FETCH_ATTEMPTS);\r\n  event FetchStatusFinalResult(string result, uint256 fetchAttempt, uint256 MAX_FETCH_ATTEMPTS);\r\n  event FetchMaxAttemptReached(string lastResult, uint256 MAX_FETCH_ATTEMPTS);\r\n\r\n  event WinnerSuggested(string winner);\r\n\r\n  event BettingOpen(string p1, string p2, uint timeBettingCloses);\r\n  event BettingClosed(string p1, string p2);\r\n  event BettingConfirmed(string p1, string p2, Winner winner);\r\n  event BettingCancelled(string p1, string p2);\r\n\r\n  bool private fetchingStarted = false;\r\n  uint256 constant MAX_FETCH_ATTEMPTS = 100;\r\n  uint256 constant FETCH_INTERVAL = 60*5; // 5min in seconds\r\n  uint256 private fetchAttempt = 1;\r\n  bool public matchFinished = false;\r\n\r\n  bytes32 private queryStatus;\r\n  bytes32 private queryGoalsP1;\r\n  bytes32 private queryGoalsP2;\r\n  uint private goalsP1;\r\n  uint private goalsP2;\r\n  bool private goalsP1Fetched = false;\r\n  bool private goalsP2Fetched = false;\r\n  Winner public suggestedWinner; // default = 0, meaning Undecided\r\n  Winner public winner; // default = 0, meaning Undecided\r\n\r\n  uint256 public pool;\r\n  uint256 public payoutPool;\r\n  uint256 public feeEarning;\r\n  mapping(address => uint256) public betsPlayer1;\r\n  mapping(address => uint256) public betsPlayer2;\r\n  uint256 public total;\r\n  uint256 public totalPlayer1;\r\n  uint256 public totalPlayer2;\r\n  uint256 public numBetsPlayer1;\r\n  uint256 public numBetsPlayer2;\r\n\r\n  /* atPhase modifier or individual modifiers for every phase? */\r\n  modifier atPhase(Phase _phase) {\r\n      require(phase == _phase);\r\n      _;\r\n  }\r\n\r\n  modifier isBettingOpen() {\r\n      require(phase == Phase.BettingOpen);\r\n      _;\r\n  }\r\n\r\n  modifier isBettingClosed() {\r\n      require(phase == Phase.BettingOpen);\r\n      _;\r\n  }\r\n\r\n  modifier isConfirmed() {\r\n      require(phase == Phase.BettingConfirmed);\r\n      _;\r\n  }\r\n\r\n  modifier isCancelled() {\r\n      require(phase == Phase.BettingCancelled);\r\n      _;\r\n  }\r\n\r\n  modifier canBeCancelled() {\r\n      require(\r\n          phase == Phase.Inactive ||\r\n          phase == Phase.BettingOpen ||\r\n          phase == Phase.BettingClosed ||\r\n          phase == Phase.BettingWinnerSuggested\r\n      );\r\n      _;\r\n  }\r\n\r\n  modifier withinSuggestConfirmWinnerTime() {\r\n      require(phase != Phase.BettingCancelled && phase != Phase.BettingConfirmed);\r\n      require(now > timeMatchEnds && now <= timeSuggestConfirmEnds);\r\n      _;\r\n  }\r\n\r\n  modifier withinBettingPhase() {\r\n      if (phase == Phase.Inactive && now >= timeBettingOpens && now < timeBettingCloses) {\r\n          phase = Phase.BettingOpen;\r\n          emit BettingOpen(p1, p2, timeBettingCloses);\r\n      } else if ((phase == Phase.BettingOpen || phase == Phase.Inactive) && now >= timeBettingCloses) {\r\n          phase = Phase.BettingClosed;\r\n          emit BettingClosed(p1, p2);\r\n      }\r\n      _;\r\n  }\r\n\r\n  modifier stillFetching() {\r\n      require(fetchingStarted == true);\r\n      // Makes sure that phase != BettingWinnerSuggested and phase != BettingCancelled\r\n      require(phase == Phase.BettingClosed); \r\n      _;\r\n  }\r\n\r\n  modifier withinClaimNotExpired() {\r\n      require(phase == Phase.BettingCancelled || phase == Phase.BettingConfirmed);\r\n      require(now < timeClaimsExpire);\r\n      _;\r\n  }\r\n\r\n  modifier afterClaimsExpired() {\r\n      require(now > timeClaimsExpire);\r\n      _;\r\n  }\r\n\r\n  modifier eventuallyStartFetch() {\r\n      if (\r\n          fetchingStarted == false &&\r\n          phase != Phase.BettingConfirmed && phase != Phase.BettingCancelled && \r\n          now > timeMatchEnds && now <= timeSuggestConfirmEnds\r\n      ) {\r\n          fetchMatchStatus(0); // 0 == fetch now, without delay\r\n          fetchingStarted = true;\r\n      }\r\n      _;\r\n  }\r\n\r\n  modifier hasClaims() {\r\n      require(\r\n        (winner == Winner.Player1 && betsPlayer1[msg.sender] > 0) ||\r\n        (winner == Winner.Player2 && betsPlayer2[msg.sender] > 0) ||\r\n        ((winner == Winner.Draw || phase == Phase.BettingCancelled) && ((betsPlayer1[msg.sender] > 0) || (betsPlayer2[msg.sender] > 0)))\r\n      );\r\n      _;\r\n  }\r\n\r\n  function hasBets(address _address) internal view returns (bool) {\r\n      if (betsPlayer1[_address] > 0 || betsPlayer2[_address] > 0) {\r\n          return true;\r\n      }\r\n      return false;\r\n  }\r\n\r\n  constructor(\r\n      string _gameId,\r\n      string _p1,\r\n      string _p2,\r\n      bool _drawAllowed,\r\n      uint256 _matchStart,\r\n      uint256 _durationBetting,\r\n      uint256 _durationSuggestConfirm)\r\n      public\r\n      payable\r\n  {\r\n      //oraclize_setCustomGasPrice(8e9);   // 4Gwei: 4000000000\r\n      //uint256 valueGETPRICE = oraclize_getPrice(\"URL\");\r\n      //uint256 valueMSGSENDER = msg.value;\r\n      //require((oraclize_getPrice(\"URL\")) < msg.value); // is it msg.value or this.balance here? TODO: enable\r\n      gameId = _gameId;\r\n      p1 = _p1;\r\n      p2 = _p2;\r\n      drawAllowed = _drawAllowed;\r\n      _setTimes(_matchStart, _durationBetting, _durationSuggestConfirm);\r\n  }\r\n\r\n  function _setTimes(uint256 _matchStart, uint256 _durationBetting, uint256 _durationSuggestConfirm) public {\r\n      // miners can cheat on block timestamp with a tolerance of 900 seconds.\r\n      // That's why betting is closed 900 seconds before match start.\r\n      timeBettingCloses = _matchStart - 900 seconds;\r\n      timeBettingOpens = timeBettingCloses - _durationBetting;\r\n      timeMatchEnds = timeBettingCloses + 105 minutes;\r\n      timeSuggestConfirmEnds = timeMatchEnds + _durationSuggestConfirm;\r\n      timeClaimsExpire = timeSuggestConfirmEnds + 8 weeks;\r\n  }\r\n\r\n  /* gas: 93620,  93627, 94136 */\r\n  function bet(uint8 _player) public payable withinBettingPhase isBettingOpen returns (bool) {\r\n      require(_player == 1 || _player == 2);\r\n      require(msg.value > 0);\r\n\r\n      if (_player == 1) {\r\n          betsPlayer1[msg.sender] = betsPlayer1[msg.sender].add(msg.value);\r\n          numBetsPlayer1 += 1;\r\n          totalPlayer1 = totalPlayer1.add(msg.value);\r\n      } else {\r\n          betsPlayer2[msg.sender] = betsPlayer2[msg.sender].add(msg.value);\r\n          numBetsPlayer2 += 1;\r\n          totalPlayer2 = totalPlayer2.add(msg.value);\r\n      }\r\n      return true;\r\n  }\r\n\r\n  function fetchMatchStatus(uint256 _delay) internal {\r\n      string memory query = strConcat('json(http://api.football-data.org/v1/fixtures/', gameId, '.fixture');\r\n      queryStatus = oraclize_query(_delay, \"URL\", query);    \r\n  }\r\n\r\n  function fetchGoalsP1(uint256 _delay) internal {\r\n      string memory query = strConcat('json(http://api.football-data.org/v1/fixtures/', gameId, '.fixture.result.goalsHomeTeam');\r\n      queryGoalsP1 = oraclize_query(_delay, \"URL\", query);  \r\n  }\r\n\r\n  function fetchGoalsP2(uint256 _delay) internal {\r\n      string memory query = strConcat('json(http://api.football-data.org/v1/fixtures/', gameId, '.fixture.result.goalsAwayTeam');\r\n      queryGoalsP2 = oraclize_query(_delay, \"URL\", query);  \r\n  }\r\n\r\n  function __callback(bytes32 myid, string response) public stillFetching {\r\n      require(msg.sender == oraclize_cbAddress());\r\n      \r\n      // Keeping track of query IDs because one query can result in more than one callback.\r\n      // Once callback received, query tracker set to 0 to prevent double handling of response.\r\n      // See https://docs.oraclize.it/#ethereum-best-practices-mapping-query-ids\r\n      if (myid == queryStatus && matchFinished == false) {\r\n          queryStatus = 0x0;\r\n          _handleMatchStatusResponse(response);\r\n      } else if (myid == queryGoalsP1) {\r\n          queryGoalsP1 = 0x0;\r\n          _handleGoalsP1Response(response);\r\n      } else if (myid == queryGoalsP2) {\r\n          queryGoalsP2 = 0x0;\r\n          _handleGoalsP2Response(response);\r\n      }\r\n  }\r\n\r\n  function _handleMatchStatusResponse(string response) private {\r\n      if (areEqualStrings(response, 'FINISHED')) {\r\n          matchFinished = true;\r\n          emit FetchStatusFinalResult(response, fetchAttempt, MAX_FETCH_ATTEMPTS);\r\n\r\n          fetchAttempt = fetchAttempt.add(2);\r\n          fetchGoalsP1(0);\r\n          fetchGoalsP2(0);\r\n      } else if (fetchAttempt < (MAX_FETCH_ATTEMPTS-1)) {\r\n          fetchAttempt = fetchAttempt.add(1);\r\n          emit FetchStatusResult(response, fetchAttempt, MAX_FETCH_ATTEMPTS);\r\n          fetchMatchStatus(FETCH_INTERVAL);\r\n      } else {\r\n          phase = Phase.BettingCancelled;\r\n          emit FetchMaxAttemptReached(response, MAX_FETCH_ATTEMPTS);\r\n      }\r\n  }\r\n\r\n  function _handleGoalsP1Response(string strGoals) private {\r\n      uint goals = parseInt(strGoals);\r\n      if (goals > MAX_GOALS) {\r\n          fetchAttempt = fetchAttempt.add(1);\r\n          if (fetchAttempt < MAX_FETCH_ATTEMPTS) {\r\n              fetchGoalsP2(FETCH_INTERVAL);\r\n          } else {\r\n              phase = Phase.BettingCancelled;\r\n              emit FetchMaxAttemptReached(strGoals, MAX_FETCH_ATTEMPTS);\r\n          }\r\n      }\r\n\r\n      goalsP1 = goals;\r\n      goalsP1Fetched = true;\r\n\r\n      if (goalsP2Fetched == true) {\r\n          _suggestWinner(goalsP1, goalsP2);\r\n      }\r\n  }\r\n\r\n  function _handleGoalsP2Response(string strGoals) private {\r\n      uint goals = parseInt(strGoals);\r\n      if (goals > MAX_GOALS) {\r\n          fetchAttempt = fetchAttempt.add(1);\r\n          if (fetchAttempt < MAX_FETCH_ATTEMPTS) {\r\n              fetchGoalsP2(FETCH_INTERVAL);\r\n          } else {\r\n              phase = Phase.BettingCancelled;\r\n              emit FetchMaxAttemptReached(strGoals, MAX_FETCH_ATTEMPTS);\r\n          }\r\n      }\r\n      \r\n      goalsP2 = goals;\r\n      goalsP2Fetched = true;\r\n\r\n      if (goalsP1Fetched == true) {\r\n          _suggestWinner(goalsP1, goalsP2);\r\n      }\r\n  }\r\n\r\n  function _suggestWinner(uint _goalsP1, uint _goalsP2) private returns (Winner) {\r\n      if (_goalsP1 > _goalsP2) {\r\n          suggestedWinner = Winner.Player1;\r\n          emit WinnerSuggested(p1);\r\n      } else if (_goalsP1 < _goalsP2) {\r\n          suggestedWinner = Winner.Player2;\r\n          emit WinnerSuggested(p2);\r\n      } else {\r\n          suggestedWinner = Winner.Draw;\r\n          emit WinnerSuggested('DRAW');\r\n      }\r\n\r\n      phase = Phase.BettingWinnerSuggested;\r\n\r\n      return suggestedWinner;\r\n  }\r\n\r\n  function areEqualStrings(string a, string b) private pure returns (bool) {\r\n       return keccak256(a) == keccak256(b);\r\n  }\r\n\r\n  // for testing\r\n  function suggestWinner(uint8 _winnerAsInt) external onlyOwner withinSuggestConfirmWinnerTime {\r\n      require(isValidWinner(_winnerAsInt));\r\n      suggestedWinner = Winner(_winnerAsInt);\r\n\r\n      phase = Phase.BettingWinnerSuggested;\r\n  }\r\n\r\n  function confirmWinner(uint8 _winnerAsInt) external onlyOwner atPhase(Phase.BettingWinnerSuggested) withinSuggestConfirmWinnerTime {\r\n      require(isValidWinner(_winnerAsInt));\r\n      Winner _winner = Winner(_winnerAsInt);\r\n\r\n      if (suggestedWinner == _winner) {\r\n          winner = _winner;\r\n          phase = Phase.BettingConfirmed;\r\n\r\n          pool = totalPlayer1.add(totalPlayer2);\r\n\r\n          uint256 feeAmount;\r\n          if (pool > 0) {\r\n              feeAmount = pool.mul(FEE_PERCENT).div(100);\r\n              feeEarning = feeAmount;\r\n              payoutPool = pool.sub(feeAmount);\r\n              owner.transfer(feeAmount);\r\n          } else {\r\n              feeAmount = 0;\r\n              payoutPool = 0;\r\n          }\r\n\r\n          emit BettingConfirmed(p1, p2, winner);\r\n      } else {\r\n          cancel();\r\n      }\r\n  }\r\n\r\n  function isValidWinner(uint8 _winner) internal view returns (bool) {\r\n      if (_winner == 1 ||  _winner == 2) {\r\n          return true;\r\n      }\r\n      if (drawAllowed == true && _winner == 3) {\r\n          return true;\r\n      }\r\n      return false;\r\n  }\r\n\r\n  function cancel() public onlyOwner canBeCancelled {\r\n      phase = Phase.BettingCancelled;\r\n      payoutPool = totalPlayer1.add(totalPlayer2);\r\n\r\n      emit BettingCancelled(p1, p2);\r\n  }\r\n\r\n  function claimWinOrDraw() external eventuallyStartFetch isConfirmed withinClaimNotExpired hasClaims {\r\n      uint256 wonShare;\r\n      uint256 payout;\r\n      if (winner == Winner.Player1){\r\n          wonShare = betsPlayer1[msg.sender].mul(1e20).div(totalPlayer1);//.div(1e20)\r\n          payout = payoutPool.mul(wonShare).div(1e20);\r\n          betsPlayer1[msg.sender] = 0;\r\n      } else if (winner == Winner.Player2) {\r\n          wonShare = betsPlayer2[msg.sender].mul(1e20).div(totalPlayer2);//.div(1e20)\r\n          payout = payoutPool.mul(wonShare).div(1e20);\r\n          betsPlayer2[msg.sender] = 0;\r\n      } else if (winner == Winner.Draw) {\r\n          payout = betsPlayer1[msg.sender] + betsPlayer2[msg.sender];\r\n          betsPlayer1[msg.sender] = 0;\r\n          betsPlayer2[msg.sender] = 0;\r\n      }\r\n      payoutPool = payoutPool.sub(payout);\r\n\r\n      msg.sender.transfer(payout);\r\n  }\r\n\r\n  function claimCancelled() external isCancelled withinClaimNotExpired hasClaims {\r\n      uint256 claim = betsPlayer1[msg.sender] + betsPlayer2[msg.sender]; // claim > 0 since check in hasClaims\r\n\r\n      betsPlayer1[msg.sender] = 0;\r\n      betsPlayer2[msg.sender] = 0;\r\n      payoutPool = payoutPool.sub(claim);\r\n      \r\n      msg.sender.transfer(claim);\r\n  }\r\n\r\n  function claimExpired() external onlyOwner afterClaimsExpired {\r\n      uint256 expired = payoutPool;\r\n      payoutPool = 0;\r\n\r\n      phase = Phase.BettingConfirmedExpired;\r\n\r\n      msg.sender.transfer(expired);\r\n  }\r\n\r\n  /* fallback function */\r\n  function () public payable {\r\n      revert(); \r\n  }\r\n}\r\n",
  "sourcePath": "/home/mo/dev/worldcup-betting/contracts/Bet.sol",
  "compiler": {
    "name": "solc",
    "version": "0.4.23+commit.124ca40d.Emscripten.clang"
  },
  "schemaVersion": "2.0.0",
  "updatedAt": "2018-05-09T11:37:02.179Z"
}