{
  "contractName": "Bet",
  "abi": [
    {
      "constant": true,
      "inputs": [],
      "name": "pool",
      "outputs": [
        {
          "name": "",
          "type": "uint256"
        }
      ],
      "payable": false,
      "stateMutability": "view",
      "type": "function"
    },
    {
      "constant": true,
      "inputs": [],
      "name": "status",
      "outputs": [
        {
          "name": "",
          "type": "uint8"
        }
      ],
      "payable": false,
      "stateMutability": "view",
      "type": "function"
    },
    {
      "constant": true,
      "inputs": [],
      "name": "matchFinished",
      "outputs": [
        {
          "name": "",
          "type": "bool"
        }
      ],
      "payable": false,
      "stateMutability": "view",
      "type": "function"
    },
    {
      "constant": true,
      "inputs": [],
      "name": "total",
      "outputs": [
        {
          "name": "",
          "type": "uint256"
        }
      ],
      "payable": false,
      "stateMutability": "view",
      "type": "function"
    },
    {
      "constant": true,
      "inputs": [],
      "name": "timeMatchEnds",
      "outputs": [
        {
          "name": "",
          "type": "uint256"
        }
      ],
      "payable": false,
      "stateMutability": "view",
      "type": "function"
    },
    {
      "constant": true,
      "inputs": [
        {
          "name": "",
          "type": "address"
        }
      ],
      "name": "betsPlayer2",
      "outputs": [
        {
          "name": "",
          "type": "uint256"
        }
      ],
      "payable": false,
      "stateMutability": "view",
      "type": "function"
    },
    {
      "constant": true,
      "inputs": [],
      "name": "payoutPool",
      "outputs": [
        {
          "name": "",
          "type": "uint256"
        }
      ],
      "payable": false,
      "stateMutability": "view",
      "type": "function"
    },
    {
      "constant": true,
      "inputs": [],
      "name": "totalPlayer2",
      "outputs": [
        {
          "name": "",
          "type": "uint256"
        }
      ],
      "payable": false,
      "stateMutability": "view",
      "type": "function"
    },
    {
      "constant": true,
      "inputs": [],
      "name": "timeSuggestConfirmEnds",
      "outputs": [
        {
          "name": "",
          "type": "uint256"
        }
      ],
      "payable": false,
      "stateMutability": "view",
      "type": "function"
    },
    {
      "constant": true,
      "inputs": [],
      "name": "numBetsPlayer1",
      "outputs": [
        {
          "name": "",
          "type": "uint256"
        }
      ],
      "payable": false,
      "stateMutability": "view",
      "type": "function"
    },
    {
      "constant": true,
      "inputs": [],
      "name": "totalPlayer1",
      "outputs": [
        {
          "name": "",
          "type": "uint256"
        }
      ],
      "payable": false,
      "stateMutability": "view",
      "type": "function"
    },
    {
      "constant": true,
      "inputs": [],
      "name": "p2",
      "outputs": [
        {
          "name": "",
          "type": "string"
        }
      ],
      "payable": false,
      "stateMutability": "view",
      "type": "function"
    },
    {
      "constant": true,
      "inputs": [],
      "name": "timeClaimsExpire",
      "outputs": [
        {
          "name": "",
          "type": "uint256"
        }
      ],
      "payable": false,
      "stateMutability": "view",
      "type": "function"
    },
    {
      "constant": true,
      "inputs": [],
      "name": "owner",
      "outputs": [
        {
          "name": "",
          "type": "address"
        }
      ],
      "payable": false,
      "stateMutability": "view",
      "type": "function"
    },
    {
      "constant": true,
      "inputs": [],
      "name": "timeBettingOpens",
      "outputs": [
        {
          "name": "",
          "type": "uint256"
        }
      ],
      "payable": false,
      "stateMutability": "view",
      "type": "function"
    },
    {
      "constant": true,
      "inputs": [],
      "name": "numBetsPlayer2",
      "outputs": [
        {
          "name": "",
          "type": "uint256"
        }
      ],
      "payable": false,
      "stateMutability": "view",
      "type": "function"
    },
    {
      "constant": true,
      "inputs": [],
      "name": "p1",
      "outputs": [
        {
          "name": "",
          "type": "string"
        }
      ],
      "payable": false,
      "stateMutability": "view",
      "type": "function"
    },
    {
      "constant": true,
      "inputs": [],
      "name": "drawAllowed",
      "outputs": [
        {
          "name": "",
          "type": "bool"
        }
      ],
      "payable": false,
      "stateMutability": "view",
      "type": "function"
    },
    {
      "constant": true,
      "inputs": [
        {
          "name": "",
          "type": "address"
        }
      ],
      "name": "betsPlayer1",
      "outputs": [
        {
          "name": "",
          "type": "uint256"
        }
      ],
      "payable": false,
      "stateMutability": "view",
      "type": "function"
    },
    {
      "constant": true,
      "inputs": [],
      "name": "gameId",
      "outputs": [
        {
          "name": "",
          "type": "string"
        }
      ],
      "payable": false,
      "stateMutability": "view",
      "type": "function"
    },
    {
      "constant": true,
      "inputs": [],
      "name": "winner",
      "outputs": [
        {
          "name": "",
          "type": "uint8"
        }
      ],
      "payable": false,
      "stateMutability": "view",
      "type": "function"
    },
    {
      "constant": true,
      "inputs": [],
      "name": "timeBettingCloses",
      "outputs": [
        {
          "name": "",
          "type": "uint256"
        }
      ],
      "payable": false,
      "stateMutability": "view",
      "type": "function"
    },
    {
      "constant": false,
      "inputs": [
        {
          "name": "newOwner",
          "type": "address"
        }
      ],
      "name": "transferOwnership",
      "outputs": [],
      "payable": false,
      "stateMutability": "nonpayable",
      "type": "function"
    },
    {
      "inputs": [
        {
          "name": "_gameId",
          "type": "string"
        },
        {
          "name": "_p1",
          "type": "string"
        },
        {
          "name": "_p2",
          "type": "string"
        },
        {
          "name": "_drawAllowed",
          "type": "bool"
        },
        {
          "name": "_matchStart",
          "type": "uint256"
        },
        {
          "name": "_durationBetting",
          "type": "uint256"
        },
        {
          "name": "_durationSuggestConfirm",
          "type": "uint256"
        }
      ],
      "payable": true,
      "stateMutability": "payable",
      "type": "constructor"
    },
    {
      "payable": true,
      "stateMutability": "payable",
      "type": "fallback"
    },
    {
      "anonymous": false,
      "inputs": [
        {
          "indexed": false,
          "name": "lastResult",
          "type": "string"
        },
        {
          "indexed": false,
          "name": "MAX_FETCH_ATTEMPTS",
          "type": "uint256"
        }
      ],
      "name": "FetchMaxAttemptReached",
      "type": "event"
    },
    {
      "anonymous": false,
      "inputs": [
        {
          "indexed": false,
          "name": "winner",
          "type": "uint8"
        }
      ],
      "name": "WinnerSuggested",
      "type": "event"
    },
    {
      "anonymous": false,
      "inputs": [
        {
          "indexed": false,
          "name": "winner",
          "type": "uint8"
        }
      ],
      "name": "WinnerConfirmed",
      "type": "event"
    },
    {
      "anonymous": false,
      "inputs": [
        {
          "indexed": false,
          "name": "p1",
          "type": "string"
        },
        {
          "indexed": false,
          "name": "p2",
          "type": "string"
        }
      ],
      "name": "BettingCancelled",
      "type": "event"
    },
    {
      "anonymous": false,
      "inputs": [
        {
          "indexed": true,
          "name": "previousOwner",
          "type": "address"
        },
        {
          "indexed": true,
          "name": "newOwner",
          "type": "address"
        }
      ],
      "name": "OwnershipTransferred",
      "type": "event"
    },
    {
      "constant": false,
      "inputs": [
        {
          "name": "_matchStart",
          "type": "uint256"
        },
        {
          "name": "_durationBetting",
          "type": "uint256"
        },
        {
          "name": "_durationSuggestConfirm",
          "type": "uint256"
        }
      ],
      "name": "_setTimes",
      "outputs": [],
      "payable": false,
      "stateMutability": "nonpayable",
      "type": "function"
    },
    {
      "constant": false,
      "inputs": [],
      "name": "betOnPlayer1",
      "outputs": [],
      "payable": true,
      "stateMutability": "payable",
      "type": "function"
    },
    {
      "constant": false,
      "inputs": [],
      "name": "betOnPlayer2",
      "outputs": [],
      "payable": true,
      "stateMutability": "payable",
      "type": "function"
    },
    {
      "constant": false,
      "inputs": [
        {
          "name": "myid",
          "type": "bytes32"
        },
        {
          "name": "response",
          "type": "string"
        }
      ],
      "name": "__callback",
      "outputs": [],
      "payable": false,
      "stateMutability": "nonpayable",
      "type": "function"
    },
    {
      "constant": false,
      "inputs": [
        {
          "name": "myid",
          "type": "bytes32"
        },
        {
          "name": "result",
          "type": "string"
        },
        {
          "name": "proof",
          "type": "bytes"
        }
      ],
      "name": "__callback",
      "outputs": [],
      "payable": false,
      "stateMutability": "nonpayable",
      "type": "function"
    },
    {
      "constant": false,
      "inputs": [
        {
          "name": "_winnerAsInt",
          "type": "uint8"
        }
      ],
      "name": "confirmWinner",
      "outputs": [],
      "payable": false,
      "stateMutability": "nonpayable",
      "type": "function"
    },
    {
      "constant": false,
      "inputs": [],
      "name": "cancel",
      "outputs": [],
      "payable": false,
      "stateMutability": "nonpayable",
      "type": "function"
    },
    {
      "constant": false,
      "inputs": [],
      "name": "claimWinOrDraw",
      "outputs": [],
      "payable": false,
      "stateMutability": "nonpayable",
      "type": "function"
    },
    {
      "constant": false,
      "inputs": [],
      "name": "claimCancelled",
      "outputs": [],
      "payable": false,
      "stateMutability": "nonpayable",
      "type": "function"
    },
    {
      "constant": false,
      "inputs": [],
      "name": "claimExpired",
      "outputs": [],
      "payable": false,
      "stateMutability": "nonpayable",
      "type": "function"
    }
  ],
  "bytecode": "0x60806040526000600560146101000a81548160ff021916908360018111156200002457fe5b02179055506001600f556000601060006101000a81548160ff0219169083151502179055506000601060016101000a81548160ff0219169083151502179055506000601760006101000a81548160ff0219169083151502179055506000601760016101000a81548160ff0219169083151502179055506000601760026101000a81548160ff0219169083151502179055506000601760036101000a81548160ff0219169083151502179055506040516200518b3803806200518b8339810180604052810190808051820192919060200180518201929190602001805182019291906020018051906020019092919080519060200190929190805190602001909291908051906020019092919050505033600560006101000a81548173ffffffffffffffffffffffffffffffffffffffff021916908373ffffffffffffffffffffffffffffffffffffffff160217905550620001936401dcd6500062000261640100000000026401000000009004565b60405180807f46494e495348454400000000000000000000000000000000000000000000000081525060080190506040518091039020601181600019169055508660069080519060200190620001eb92919062000bc4565b5085600790805190602001906200020492919062000bc4565b5084600890805190602001906200021d92919062000bc4565b5083600960006101000a81548160ff02191690831515021790555062000254838383620005d1640100000000026401000000009004565b5050505050505062000c73565b60008060009054906101000a900473ffffffffffffffffffffffffffffffffffffffff1673ffffffffffffffffffffffffffffffffffffffff161480620002e257506000620002e06000809054906101000a900473ffffffffffffffffffffffffffffffffffffffff1662000623640100000000026401000000009004565b145b1562000305576200030360006200062e640100000000026401000000009004565b505b6000809054906101000a900473ffffffffffffffffffffffffffffffffffffffff1673ffffffffffffffffffffffffffffffffffffffff166338cc48316040518163ffffffff167c0100000000000000000000000000000000000000000000000000000000028152600401602060405180830381600087803b1580156200038b57600080fd5b505af1158015620003a0573d6000803e3d6000fd5b505050506040513d6020811015620003b757600080fd5b810190808051906020019092919050505073ffffffffffffffffffffffffffffffffffffffff16600160009054906101000a900473ffffffffffffffffffffffffffffffffffffffff1673ffffffffffffffffffffffffffffffffffffffff1614151562000523576000809054906101000a900473ffffffffffffffffffffffffffffffffffffffff1673ffffffffffffffffffffffffffffffffffffffff166338cc48316040518163ffffffff167c0100000000000000000000000000000000000000000000000000000000028152600401602060405180830381600087803b158015620004a557600080fd5b505af1158015620004ba573d6000803e3d6000fd5b505050506040513d6020811015620004d157600080fd5b8101908080519060200190929190505050600160006101000a81548173ffffffffffffffffffffffffffffffffffffffff021916908373ffffffffffffffffffffffffffffffffffffffff1602179055505b600160009054906101000a900473ffffffffffffffffffffffffffffffffffffffff1673ffffffffffffffffffffffffffffffffffffffff1663ca6ad1e4826040518263ffffffff167c010000000000000000000000000000000000000000000000000000000002815260040180828152602001915050600060405180830381600087803b158015620005b557600080fd5b505af1158015620005ca573d6000803e3d6000fd5b5050505050565b611c2081111515620005e257600080fd5b6103848303600b8190555081600b5403600a8190555061189c600b5401600c8190555080600c5401600d819055506249d400600d5401600e81905550505050565b6000813b9050919050565b60006200064962000650640100000000026401000000009004565b9050919050565b60008062000681731d3b2638a7cc9f2cb3d298a3da7a90b67e5506ed62000623640100000000026401000000009004565b11156200073557731d3b2638a7cc9f2cb3d298a3da7a90b67e5506ed6000806101000a81548173ffffffffffffffffffffffffffffffffffffffff021916908373ffffffffffffffffffffffffffffffffffffffff1602179055506200072b6040805190810160405280600b81526020017f6574685f6d61696e6e657400000000000000000000000000000000000000000081525062000ba8640100000000026401000000009004565b6001905062000ba5565b60006200076573c03a2615d5efaf5f49f60b7bb6583eaec212fdf162000623640100000000026401000000009004565b1115620008195773c03a2615d5efaf5f49f60b7bb6583eaec212fdf16000806101000a81548173ffffffffffffffffffffffffffffffffffffffff021916908373ffffffffffffffffffffffffffffffffffffffff1602179055506200080f6040805190810160405280600c81526020017f6574685f726f707374656e33000000000000000000000000000000000000000081525062000ba8640100000000026401000000009004565b6001905062000ba5565b60006200084973b7a07bcf2ba2f2703b24c0691b5278999c59ac7e62000623640100000000026401000000009004565b1115620008fd5773b7a07bcf2ba2f2703b24c0691b5278999c59ac7e6000806101000a81548173ffffffffffffffffffffffffffffffffffffffff021916908373ffffffffffffffffffffffffffffffffffffffff160217905550620008f36040805190810160405280600981526020017f6574685f6b6f76616e000000000000000000000000000000000000000000000081525062000ba8640100000000026401000000009004565b6001905062000ba5565b60006200092d73146500cfd35b22e4a392fe0adc06de1a1368ed4862000623640100000000026401000000009004565b1115620009e15773146500cfd35b22e4a392fe0adc06de1a1368ed486000806101000a81548173ffffffffffffffffffffffffffffffffffffffff021916908373ffffffffffffffffffffffffffffffffffffffff160217905550620009d76040805190810160405280600b81526020017f6574685f72696e6b65627900000000000000000000000000000000000000000081525062000ba8640100000000026401000000009004565b6001905062000ba5565b600062000a11736f485c8bf6fc43ea212e93bbf8ce046c7f1cb47562000623640100000000026401000000009004565b111562000a7657736f485c8bf6fc43ea212e93bbf8ce046c7f1cb4756000806101000a81548173ffffffffffffffffffffffffffffffffffffffff021916908373ffffffffffffffffffffffffffffffffffffffff1602179055506001905062000ba5565b600062000aa67320e12a1f859b3feae5fb2a0a32c18f5a65555bbf62000623640100000000026401000000009004565b111562000b0b577320e12a1f859b3feae5fb2a0a32c18f5a65555bbf6000806101000a81548173ffffffffffffffffffffffffffffffffffffffff021916908373ffffffffffffffffffffffffffffffffffffffff1602179055506001905062000ba5565b600062000b3b7351efaf4c8b3c9afbd5ab9f4bbc82784ab6ef8faa62000623640100000000026401000000009004565b111562000ba0577351efaf4c8b3c9afbd5ab9f4bbc82784ab6ef8faa6000806101000a81548173ffffffffffffffffffffffffffffffffffffffff021916908373ffffffffffffffffffffffffffffffffffffffff1602179055506001905062000ba5565b600090505b90565b806002908051906020019062000bc092919062000bc4565b5050565b828054600181600116156101000203166002900490600052602060002090601f016020900481019282601f1062000c0757805160ff191683800117855562000c38565b8280016001018555821562000c38579182015b8281111562000c3757825182559160200191906001019062000c1a565b5b50905062000c47919062000c4b565b5090565b62000c7091905b8082111562000c6c57600081600090555060010162000c52565b5090565b90565b6145088062000c836000396000f3006080604052600436106101a1576000357c0100000000000000000000000000000000000000000000000000000000900463ffffffff16806316f0115b1461020f578063200d2ed21461023a578063215995881461027357806327dc297e146102a25780632ddbd13a1461031957806338bbfa5014610344578063465f80c81461040157806346ac20541461042c5780634af41535146104835780636273106a1461048d5780637299551f146104b85780637583dc65146104e357806377313b50146105245780637d99dd781461054f5780637e670b541461057a57806381d01ed3146105a5578063833c3890146106355780638da5cb5b14610660578063934b495b146106b7578063a5c93cae146106e2578063c2a2747b1461070d578063c3d17a451461079d578063c75fd341146107cc578063c80c975b146107e3578063d2ff19af146107fa578063d430e3d714610851578063d7c81b5514610868578063d80a6006146108f8578063de477c7f14610902578063dfbf53ae14610932578063e41d9cb71461096b578063ea8a1af014610996578063f2fde38b146109ad575b6040517f08c379a00000000000000000000000000000000000000000000000000000000081526004018080602001828103825260138152602001807f46756e6374696f6e206e6f7420666f756e642e0000000000000000000000000081525060200191505060405180910390fd5b34801561021b57600080fd5b506102246109f0565b6040518082815260200191505060405180910390f35b34801561024657600080fd5b5061024f6109f6565b6040518082600181111561025f57fe5b60ff16815260200191505060405180910390f35b34801561027f57600080fd5b50610288610a09565b604051808215151515815260200191505060405180910390f35b3480156102ae57600080fd5b506103176004803603810190808035600019169060200190929190803590602001908201803590602001908080601f0160208091040260200160405190810160405280939291908181526020018383808284378201915050505050509192919290505050610a1c565b005b34801561032557600080fd5b5061032e610c0e565b6040518082815260200191505060405180910390f35b34801561035057600080fd5b506103ff6004803603810190808035600019169060200190929190803590602001908201803590602001908080601f0160208091040260200160405190810160405280939291908181526020018383808284378201915050505050509192919290803590602001908201803590602001908080601f0160208091040260200160405190810160405280939291908181526020018383808284378201915050505050509192919290505050610c14565b005b34801561040d57600080fd5b50610416610c19565b6040518082815260200191505060405180910390f35b34801561043857600080fd5b5061046d600480360381019080803573ffffffffffffffffffffffffffffffffffffffff169060200190929190505050610c1f565b6040518082815260200191505060405180910390f35b61048b610c37565b005b34801561049957600080fd5b506104a2610dea565b6040518082815260200191505060405180910390f35b3480156104c457600080fd5b506104cd610df0565b6040518082815260200191505060405180910390f35b3480156104ef57600080fd5b50610522600480360381019080803590602001909291908035906020019092919080359060200190929190505050610df6565b005b34801561053057600080fd5b50610539610e47565b6040518082815260200191505060405180910390f35b34801561055b57600080fd5b50610564610e4d565b6040518082815260200191505060405180910390f35b34801561058657600080fd5b5061058f610e53565b6040518082815260200191505060405180910390f35b3480156105b157600080fd5b506105ba610e59565b6040518080602001828103825283818151815260200191508051906020019080838360005b838110156105fa5780820151818401526020810190506105df565b50505050905090810190601f1680156106275780820380516001836020036101000a031916815260200191505b509250505060405180910390f35b34801561064157600080fd5b5061064a610ef7565b6040518082815260200191505060405180910390f35b34801561066c57600080fd5b50610675610efd565b604051808273ffffffffffffffffffffffffffffffffffffffff1673ffffffffffffffffffffffffffffffffffffffff16815260200191505060405180910390f35b3480156106c357600080fd5b506106cc610f23565b6040518082815260200191505060405180910390f35b3480156106ee57600080fd5b506106f7610f29565b6040518082815260200191505060405180910390f35b34801561071957600080fd5b50610722610f2f565b6040518080602001828103825283818151815260200191508051906020019080838360005b83811015610762578082015181840152602081019050610747565b50505050905090810190601f16801561078f5780820380516001836020036101000a031916815260200191505b509250505060405180910390f35b3480156107a957600080fd5b506107b2610fcd565b604051808215151515815260200191505060405180910390f35b3480156107d857600080fd5b506107e1610fe0565b005b3480156107ef57600080fd5b506107f86110b4565b005b34801561080657600080fd5b5061083b600480360381019080803573ffffffffffffffffffffffffffffffffffffffff169060200190929190505050611429565b6040518082815260200191505060405180910390f35b34801561085d57600080fd5b50610866611441565b005b34801561087457600080fd5b5061087d611aa2565b6040518080602001828103825283818151815260200191508051906020019080838360005b838110156108bd5780820151818401526020810190506108a2565b50505050905090810190601f1680156108ea5780820380516001836020036101000a031916815260200191505b509250505060405180910390f35b610900611b40565b005b34801561090e57600080fd5b50610930600480360381019080803560ff169060200190929190505050611cf3565b005b34801561093e57600080fd5b5061094761200c565b6040518082600381111561095757fe5b60ff16815260200191505060405180910390f35b34801561097757600080fd5b5061098061201f565b6040518082815260200191505060405180910390f35b3480156109a257600080fd5b506109ab612025565b005b3480156109b957600080fd5b506109ee600480360381019080803573ffffffffffffffffffffffffffffffffffffffff1690602001909291905050506122ee565b005b60185481565b600560149054906101000a900460ff1681565b601060019054906101000a900460ff1681565b60006001811115610a2957fe5b600560149054906101000a900460ff166001811115610a4457fe5b141515610a5057600080fd5b600c5442118015610a635750600d544211155b1515610afd576040517f08c379a00000000000000000000000000000000000000000000000000000000081526004018080602001828103825260378152602001807f497420697320746f6f206561726c79206f7220746f6f206c61746520746f207381526020017f7567676573742f636f6e6669726d20612077696e6e657200000000000000000081525060400191505060405180910390fd5b60001515601760029054906101000a900460ff161515141515610b1f57600080fd5b610b27612446565b73ffffffffffffffffffffffffffffffffffffffff163373ffffffffffffffffffffffffffffffffffffffff16141515610b6057600080fd5b601254600019168260001916148015610b8c575060001515601060019054906101000a900460ff161515145b15610bae57600060010260128160001916905550610ba9816127a4565b610c0a565b6013546000191682600019161415610bdd57600060010260138160001916905550610bd88161290a565b610c09565b6014546000191682600019161415610c0857600060010260148160001916905550610c0781612a76565b5b5b5b5050565b601c5481565b505050565b600c5481565b601b6020528060005260406000206000915090505481565b60006001811115610c4457fe5b600560149054906101000a900460ff166001811115610c5f57fe5b141515610c6b57600080fd5b600a544210158015610c7e5750600b5442105b1515610d18576040517f08c379a00000000000000000000000000000000000000000000000000000000081526004018080602001828103825260238152602001807f497420697320746f6f206561726c79206f7220746f6f206c61746520746f206281526020017f65742e000000000000000000000000000000000000000000000000000000000081525060400191505060405180910390fd5b600034111515610d2757600080fd5b610d7934601b60003373ffffffffffffffffffffffffffffffffffffffff1673ffffffffffffffffffffffffffffffffffffffff16815260200190815260200160002054612be290919063ffffffff16565b601b60003373ffffffffffffffffffffffffffffffffffffffff1673ffffffffffffffffffffffffffffffffffffffff168152602001908152602001600020819055506001602060008282540192505081905550610de234601e54612be290919063ffffffff16565b601e81905550565b60195481565b601e5481565b611c2081111515610e0657600080fd5b6103848303600b8190555081600b5403600a8190555061189c600b5401600c8190555080600c5401600d819055506249d400600d5401600e81905550505050565b600d5481565b601f5481565b601d5481565b60088054600181600116156101000203166002900480601f016020809104026020016040519081016040528092919081815260200182805460018160011615610100020316600290048015610eef5780601f10610ec457610100808354040283529160200191610eef565b820191906000526020600020905b815481529060010190602001808311610ed257829003601f168201915b505050505081565b600e5481565b600560009054906101000a900473ffffffffffffffffffffffffffffffffffffffff1681565b600a5481565b60205481565b60078054600181600116156101000203166002900480601f016020809104026020016040519081016040528092919081815260200182805460018160011615610100020316600290048015610fc55780601f10610f9a57610100808354040283529160200191610fc5565b820191906000526020600020905b815481529060010190602001808311610fa857829003601f168201915b505050505081565b600960009054906101000a900460ff1681565b600560009054906101000a900473ffffffffffffffffffffffffffffffffffffffff1673ffffffffffffffffffffffffffffffffffffffff163373ffffffffffffffffffffffffffffffffffffffff1614151561103c57600080fd5b600e544211151561104c57600080fd5b60006019819055503373ffffffffffffffffffffffffffffffffffffffff166108fc3073ffffffffffffffffffffffffffffffffffffffff16319081150290604051600060405180830381858888f193505050501580156110b1573d6000803e3d6000fd5b50565b60006001808111156110c257fe5b600560149054906101000a900460ff1660018111156110dd57fe5b1415156110e957600080fd5b600e54421015156110f957600080fd5b6001600381111561110657fe5b601760049054906101000a900460ff16600381111561112157fe5b14801561116d57506000601a60003373ffffffffffffffffffffffffffffffffffffffff1673ffffffffffffffffffffffffffffffffffffffff16815260200190815260200160002054115b806111e857506002600381111561118057fe5b601760049054906101000a900460ff16600381111561119b57fe5b1480156111e757506000601b60003373ffffffffffffffffffffffffffffffffffffffff1673ffffffffffffffffffffffffffffffffffffffff16815260200190815260200160002054115b5b806112ac57506003808111156111fa57fe5b601760049054906101000a900460ff16600381111561121557fe5b1480156112ab57506000601a60003373ffffffffffffffffffffffffffffffffffffffff1673ffffffffffffffffffffffffffffffffffffffff1681526020019081526020016000205411806112aa57506000601b60003373ffffffffffffffffffffffffffffffffffffffff1673ffffffffffffffffffffffffffffffffffffffff16815260200190815260200160002054115b5b5b15156112b757600080fd5b601b60003373ffffffffffffffffffffffffffffffffffffffff1673ffffffffffffffffffffffffffffffffffffffff16815260200190815260200160002054601a60003373ffffffffffffffffffffffffffffffffffffffff1673ffffffffffffffffffffffffffffffffffffffff168152602001908152602001600020540190506000601a60003373ffffffffffffffffffffffffffffffffffffffff1673ffffffffffffffffffffffffffffffffffffffff168152602001908152602001600020819055506000601b60003373ffffffffffffffffffffffffffffffffffffffff1673ffffffffffffffffffffffffffffffffffffffff168152602001908152602001600020819055506113d981601954612bfe90919063ffffffff16565b6019819055503373ffffffffffffffffffffffffffffffffffffffff166108fc829081150290604051600060405180830381858888f19350505050158015611425573d6000803e3d6000fd5b5050565b601a6020528060005260406000206000915090505481565b6000806000600181111561145157fe5b600560149054906101000a900460ff16600181111561146c57fe5b14151561147857600080fd5b600e544210151561148857600080fd5b60001515601060009054906101000a900460ff16151514156114ca576114ae6000612c17565b6001601060006101000a81548160ff0219169083151502179055505b60011515601760029054906101000a900460ff161515148015611500575060011515601760039054906101000a900460ff161515145b151561150b57600080fd5b6001600381111561151857fe5b601760049054906101000a900460ff16600381111561153357fe5b14801561157f57506000601a60003373ffffffffffffffffffffffffffffffffffffffff1673ffffffffffffffffffffffffffffffffffffffff16815260200190815260200160002054115b806115fa57506002600381111561159257fe5b601760049054906101000a900460ff1660038111156115ad57fe5b1480156115f957506000601b60003373ffffffffffffffffffffffffffffffffffffffff1673ffffffffffffffffffffffffffffffffffffffff16815260200190815260200160002054115b5b806116be575060038081111561160c57fe5b601760049054906101000a900460ff16600381111561162757fe5b1480156116bd57506000601a60003373ffffffffffffffffffffffffffffffffffffffff1673ffffffffffffffffffffffffffffffffffffffff1681526020019081526020016000205411806116bc57506000601b60003373ffffffffffffffffffffffffffffffffffffffff1673ffffffffffffffffffffffffffffffffffffffff16815260200190815260200160002054115b5b5b15156116c957600080fd5b600160038111156116d657fe5b601760049054906101000a900460ff1660038111156116f157fe5b14156117e457611766601d5461175868056bc75e2d63100000601a60003373ffffffffffffffffffffffffffffffffffffffff1673ffffffffffffffffffffffffffffffffffffffff16815260200190815260200160002054612d6990919063ffffffff16565b612da190919063ffffffff16565b915061179868056bc75e2d6310000061178a84601954612d6990919063ffffffff16565b612da190919063ffffffff16565b90506000601a60003373ffffffffffffffffffffffffffffffffffffffff1673ffffffffffffffffffffffffffffffffffffffff16815260200190815260200160002081905550611a3c565b600260038111156117f157fe5b601760049054906101000a900460ff16600381111561180c57fe5b14156118ff57611881601e5461187368056bc75e2d63100000601b60003373ffffffffffffffffffffffffffffffffffffffff1673ffffffffffffffffffffffffffffffffffffffff16815260200190815260200160002054612d6990919063ffffffff16565b612da190919063ffffffff16565b91506118b368056bc75e2d631000006118a584601954612d6990919063ffffffff16565b612da190919063ffffffff16565b90506000601b60003373ffffffffffffffffffffffffffffffffffffffff1673ffffffffffffffffffffffffffffffffffffffff16815260200190815260200160002081905550611a3b565b60038081111561190b57fe5b601760049054906101000a900460ff16600381111561192657fe5b1415611a3a57601b60003373ffffffffffffffffffffffffffffffffffffffff1673ffffffffffffffffffffffffffffffffffffffff16815260200190815260200160002054601a60003373ffffffffffffffffffffffffffffffffffffffff1673ffffffffffffffffffffffffffffffffffffffff168152602001908152602001600020540190506000601a60003373ffffffffffffffffffffffffffffffffffffffff1673ffffffffffffffffffffffffffffffffffffffff168152602001908152602001600020819055506000601b60003373ffffffffffffffffffffffffffffffffffffffff1673ffffffffffffffffffffffffffffffffffffffff168152602001908152602001600020819055505b5b5b611a5181601954612bfe90919063ffffffff16565b6019819055503373ffffffffffffffffffffffffffffffffffffffff166108fc829081150290604051600060405180830381858888f19350505050158015611a9d573d6000803e3d6000fd5b505050565b60068054600181600116156101000203166002900480601f016020809104026020016040519081016040528092919081815260200182805460018160011615610100020316600290048015611b385780601f10611b0d57610100808354040283529160200191611b38565b820191906000526020600020905b815481529060010190602001808311611b1b57829003601f168201915b505050505081565b60006001811115611b4d57fe5b600560149054906101000a900460ff166001811115611b6857fe5b141515611b7457600080fd5b600a544210158015611b875750600b5442105b1515611c21576040517f08c379a00000000000000000000000000000000000000000000000000000000081526004018080602001828103825260238152602001807f497420697320746f6f206561726c79206f7220746f6f206c61746520746f206281526020017f65742e000000000000000000000000000000000000000000000000000000000081525060400191505060405180910390fd5b600034111515611c3057600080fd5b611c8234601a60003373ffffffffffffffffffffffffffffffffffffffff1673ffffffffffffffffffffffffffffffffffffffff16815260200190815260200160002054612be290919063ffffffff16565b601a60003373ffffffffffffffffffffffffffffffffffffffff1673ffffffffffffffffffffffffffffffffffffffff168152602001908152602001600020819055506001601f60008282540192505081905550611ceb34601d54612be290919063ffffffff16565b601d81905550565b6000600560009054906101000a900473ffffffffffffffffffffffffffffffffffffffff1673ffffffffffffffffffffffffffffffffffffffff163373ffffffffffffffffffffffffffffffffffffffff16141515611d5157600080fd5b60006001811115611d5e57fe5b600560149054906101000a900460ff166001811115611d7957fe5b141515611d8557600080fd5b600c5442118015611d985750600d544211155b1515611e32576040517f08c379a00000000000000000000000000000000000000000000000000000000081526004018080602001828103825260378152602001807f497420697320746f6f206561726c79206f7220746f6f206c61746520746f207381526020017f7567676573742f636f6e6669726d20612077696e6e657200000000000000000081525060400191505060405180910390fd5b60011515601760029054906101000a900460ff161515141515611e5457600080fd5b611e5d82612db7565b1515611e6857600080fd5b8160ff166003811115611e7757fe5b6003811115611e8257fe5b601760049054906101000a900460ff166003811115611e9d57fe5b1415611fff576001601760036101000a81548160ff021916908315150217905550611ed5601e54601d54612be290919063ffffffff16565b60188190555060006018541115611f9d57611f126064611f04600160ff16601854612d6990919063ffffffff16565b612da190919063ffffffff16565b9050611f2981601854612bfe90919063ffffffff16565b601981905550600560009054906101000a900473ffffffffffffffffffffffffffffffffffffffff1673ffffffffffffffffffffffffffffffffffffffff166108fc829081150290604051600060405180830381858888f19350505050158015611f97573d6000803e3d6000fd5b50611fa6565b60006019819055505b7f9a42273d5fd9b1a1046e18ae34880b8b51e28293fe5c863cdc602582f3bd518e601760049054906101000a900460ff1660405180826003811115611fe757fe5b60ff16815260200191505060405180910390a1612008565b612007612025565b5b5050565b601760049054906101000a900460ff1681565b600b5481565b600560009054906101000a900473ffffffffffffffffffffffffffffffffffffffff1673ffffffffffffffffffffffffffffffffffffffff163373ffffffffffffffffffffffffffffffffffffffff1614151561208157600080fd5b60001515601760039054906101000a900460ff161515141515612132576040517f08c379a00000000000000000000000000000000000000000000000000000000081526004018080602001828103825260378152602001807f43616e6e6f742062652063616e63656c6c656420626563617573652077696e6e81526020017f657220697320616c726561647920636f6e6669726d656400000000000000000081525060400191505060405180910390fd5b6000600181111561213f57fe5b600560149054906101000a900460ff16600181111561215a57fe5b14151561216657600080fd5b6001600560146101000a81548160ff0219169083600181111561218557fe5b02179055506121a1601e54601d54612be290919063ffffffff16565b6019819055507fec8dc6335c2196b8a6d65cd542069150bf6373e8330640096a2074c2ba36df04600760086040518080602001806020018381038352858181546001816001161561010002031660029004815260200191508054600181600116156101000203166002900480156122595780601f1061222e57610100808354040283529160200191612259565b820191906000526020600020905b81548152906001019060200180831161223c57829003601f168201915b50508381038252848181546001816001161561010002031660029004815260200191508054600181600116156101000203166002900480156122dc5780601f106122b1576101008083540402835291602001916122dc565b820191906000526020600020905b8154815290600101906020018083116122bf57829003601f168201915b505094505050505060405180910390a1565b600560009054906101000a900473ffffffffffffffffffffffffffffffffffffffff1673ffffffffffffffffffffffffffffffffffffffff163373ffffffffffffffffffffffffffffffffffffffff1614151561234a57600080fd5b600073ffffffffffffffffffffffffffffffffffffffff168173ffffffffffffffffffffffffffffffffffffffff161415151561238657600080fd5b8073ffffffffffffffffffffffffffffffffffffffff16600560009054906101000a900473ffffffffffffffffffffffffffffffffffffffff1673ffffffffffffffffffffffffffffffffffffffff167f8be0079c531659141344cd1fd0a4f28419497f9722a3daafe3b4186f6b6457e060405160405180910390a380600560006101000a81548173ffffffffffffffffffffffffffffffffffffffff021916908373ffffffffffffffffffffffffffffffffffffffff16021790555050565b6000806000809054906101000a900473ffffffffffffffffffffffffffffffffffffffff1673ffffffffffffffffffffffffffffffffffffffff1614806124b6575060006124b46000809054906101000a900473ffffffffffffffffffffffffffffffffffffffff16612e1a565b145b156124c7576124c56000612e25565b505b6000809054906101000a900473ffffffffffffffffffffffffffffffffffffffff1673ffffffffffffffffffffffffffffffffffffffff166338cc48316040518163ffffffff167c0100000000000000000000000000000000000000000000000000000000028152600401602060405180830381600087803b15801561254c57600080fd5b505af1158015612560573d6000803e3d6000fd5b505050506040513d602081101561257657600080fd5b810190808051906020019092919050505073ffffffffffffffffffffffffffffffffffffffff16600160009054906101000a900473ffffffffffffffffffffffffffffffffffffffff1673ffffffffffffffffffffffffffffffffffffffff161415156126de576000809054906101000a900473ffffffffffffffffffffffffffffffffffffffff1673ffffffffffffffffffffffffffffffffffffffff166338cc48316040518163ffffffff167c0100000000000000000000000000000000000000000000000000000000028152600401602060405180830381600087803b15801561266257600080fd5b505af1158015612676573d6000803e3d6000fd5b505050506040513d602081101561268c57600080fd5b8101908080519060200190929190505050600160006101000a81548173ffffffffffffffffffffffffffffffffffffffff021916908373ffffffffffffffffffffffffffffffffffffffff1602179055505b600160009054906101000a900473ffffffffffffffffffffffffffffffffffffffff1673ffffffffffffffffffffffffffffffffffffffff1663c281d19e6040518163ffffffff167c0100000000000000000000000000000000000000000000000000000000028152600401602060405180830381600087803b15801561276457600080fd5b505af1158015612778573d6000803e3d6000fd5b505050506040513d602081101561278e57600080fd5b8101908080519060200190929190505050905090565b6127ad81612e36565b15612802576001601060016101000a81548160ff0219169083151502179055506127e36002600f54612be290919063ffffffff16565b600f819055506127f36000612eae565b6127fd6000613000565b612907565b6001606403600f54101561283c576128266001600f54612be290919063ffffffff16565b600f8190555061283761012c612c17565b612906565b6001600560146101000a81548160ff0219169083600181111561285b57fe5b02179055507fe541b4f0e599859696632b45febeaa08da9d13440690feed224729a3e82382108160646040518080602001838152602001828103825284818151815260200191508051906020019080838360005b838110156128ca5780820151818401526020810190506128af565b50505050905090810190601f1680156128f75780820380516001836020036101000a031916815260200191505b50935050505060405180910390a15b5b50565b600061291582613152565b9050601960ff16811115612a25576129396001600f54612be290919063ffffffff16565b600f819055506064600f54101561295a5761295561012c613000565b612a24565b6001600560146101000a81548160ff0219169083600181111561297957fe5b02179055507fe541b4f0e599859696632b45febeaa08da9d13440690feed224729a3e82382108260646040518080602001838152602001828103825284818151815260200191508051906020019080838360005b838110156129e85780820151818401526020810190506129cd565b50505050905090810190601f168015612a155780820380516001836020036101000a031916815260200191505b50935050505060405180910390a15b5b806015819055506001601760006101000a81548160ff02191690831515021790555060011515601760019054906101000a900460ff1615151415612a7257612a71601554601654613166565b5b5050565b6000612a8182613152565b9050601960ff16811115612b9157612aa56001600f54612be290919063ffffffff16565b600f819055506064600f541015612ac657612ac161012c613000565b612b90565b6001600560146101000a81548160ff02191690836001811115612ae557fe5b02179055507fe541b4f0e599859696632b45febeaa08da9d13440690feed224729a3e82382108260646040518080602001838152602001828103825284818151815260200191508051906020019080838360005b83811015612b54578082015181840152602081019050612b39565b50505050905090810190601f168015612b815780820380516001836020036101000a031916815260200191505b50935050505060405180910390a15b5b806016819055506001601760016101000a81548160ff02191690831515021790555060011515601760009054906101000a900460ff1615151415612bde57612bdd601554601654613166565b5b5050565b60008183019050828110151515612bf557fe5b80905092915050565b6000828211151515612c0c57fe5b818303905092915050565b6060612d4f606060405190810160405280602e81526020017f6a736f6e28687474703a2f2f6170692e666f6f7462616c6c2d646174612e6f7281526020017f672f76312f66697874757265732f00000000000000000000000000000000000081525060068054600181600116156101000203166002900480601f016020809104026020016040519081016040528092919081815260200182805460018160011615610100020316600290048015612d0f5780601f10612ce457610100808354040283529160200191612d0f565b820191906000526020600020905b815481529060010190602001808311612cf257829003601f168201915b50505050506040805190810160405280600881526020017f2e66697874757265000000000000000000000000000000000000000000000000815250613261565b9050612d5b8183613299565b601281600019169055505050565b600080831415612d7c5760009050612d9b565b8183029050818382811515612d8d57fe5b04141515612d9757fe5b8090505b92915050565b60008183811515612dae57fe5b04905092915050565b600060018260ff161480612dce575060028260ff16145b15612ddc5760019050612e15565b60011515600960009054906101000a900460ff161515148015612e02575060038260ff16145b15612e105760019050612e15565b600090505b919050565b6000813b9050919050565b6000612e2f6132e3565b9050919050565b600060115460001916826040518082805190602001908083835b602083101515612e755780518252602082019150602081019050602083039250612e50565b6001836020036101000a038019825116818451168082178552505050505050905001915050604051809103902060001916149050919050565b6060612fe6606060405190810160405280602e81526020017f6a736f6e28687474703a2f2f6170692e666f6f7462616c6c2d646174612e6f7281526020017f672f76312f66697874757265732f00000000000000000000000000000000000081525060068054600181600116156101000203166002900480601f016020809104026020016040519081016040528092919081815260200182805460018160011615610100020316600290048015612fa65780601f10612f7b57610100808354040283529160200191612fa6565b820191906000526020600020905b815481529060010190602001808311612f8957829003601f168201915b50505050506040805190810160405280601d81526020017f2e666978747572652e726573756c742e676f616c73486f6d655465616d000000815250613261565b9050612ff28183613299565b601381600019169055505050565b6060613138606060405190810160405280602e81526020017f6a736f6e28687474703a2f2f6170692e666f6f7462616c6c2d646174612e6f7281526020017f672f76312f66697874757265732f00000000000000000000000000000000000081525060068054600181600116156101000203166002900480601f0160208091040260200160405190810160405280929190818152602001828054600181600116156101000203166002900480156130f85780601f106130cd576101008083540402835291602001916130f8565b820191906000526020600020905b8154815290600101906020018083116130db57829003601f168201915b50505050506040805190810160405280601d81526020017f2e666978747572652e726573756c742e676f616c73417761795465616d000000815250613261565b90506131448183613299565b601481600019169055505050565b600061315f826000613772565b9050919050565b80821115613197576001601760046101000a81548160ff0219169083600381111561318d57fe5b02179055506131ee565b808210156131c8576002601760046101000a81548160ff021916908360038111156131be57fe5b02179055506131ed565b6003601760046101000a81548160ff021916908360038111156131e757fe5b02179055505b5b6001601760026101000a81548160ff0219169083151502179055507faf402f25d965dbb8046c429c4c6165a2dd4c0df5f2326f426a6a2ff7e404b01b601760049054906101000a900460ff166040518082600381111561324a57fe5b60ff16815260200191505060405180910390a15050565b606061329084848460206040519081016040528060008152506020604051908101604052806000815250613a66565b90509392505050565b60006132db826040805190810160405280600381526020017f55524c000000000000000000000000000000000000000000000000000000000081525085613e7b565b905092915050565b600080613303731d3b2638a7cc9f2cb3d298a3da7a90b67e5506ed612e1a565b11156133a457731d3b2638a7cc9f2cb3d298a3da7a90b67e5506ed6000806101000a81548173ffffffffffffffffffffffffffffffffffffffff021916908373ffffffffffffffffffffffffffffffffffffffff16021790555061339b6040805190810160405280600b81526020017f6574685f6d61696e6e657400000000000000000000000000000000000000000081525061441d565b6001905061376f565b60006133c373c03a2615d5efaf5f49f60b7bb6583eaec212fdf1612e1a565b11156134645773c03a2615d5efaf5f49f60b7bb6583eaec212fdf16000806101000a81548173ffffffffffffffffffffffffffffffffffffffff021916908373ffffffffffffffffffffffffffffffffffffffff16021790555061345b6040805190810160405280600c81526020017f6574685f726f707374656e33000000000000000000000000000000000000000081525061441d565b6001905061376f565b600061348373b7a07bcf2ba2f2703b24c0691b5278999c59ac7e612e1a565b11156135245773b7a07bcf2ba2f2703b24c0691b5278999c59ac7e6000806101000a81548173ffffffffffffffffffffffffffffffffffffffff021916908373ffffffffffffffffffffffffffffffffffffffff16021790555061351b6040805190810160405280600981526020017f6574685f6b6f76616e000000000000000000000000000000000000000000000081525061441d565b6001905061376f565b600061354373146500cfd35b22e4a392fe0adc06de1a1368ed48612e1a565b11156135e45773146500cfd35b22e4a392fe0adc06de1a1368ed486000806101000a81548173ffffffffffffffffffffffffffffffffffffffff021916908373ffffffffffffffffffffffffffffffffffffffff1602179055506135db6040805190810160405280600b81526020017f6574685f72696e6b65627900000000000000000000000000000000000000000081525061441d565b6001905061376f565b6000613603736f485c8bf6fc43ea212e93bbf8ce046c7f1cb475612e1a565b111561366657736f485c8bf6fc43ea212e93bbf8ce046c7f1cb4756000806101000a81548173ffffffffffffffffffffffffffffffffffffffff021916908373ffffffffffffffffffffffffffffffffffffffff1602179055506001905061376f565b60006136857320e12a1f859b3feae5fb2a0a32c18f5a65555bbf612e1a565b11156136e8577320e12a1f859b3feae5fb2a0a32c18f5a65555bbf6000806101000a81548173ffffffffffffffffffffffffffffffffffffffff021916908373ffffffffffffffffffffffffffffffffffffffff1602179055506001905061376f565b60006137077351efaf4c8b3c9afbd5ab9f4bbc82784ab6ef8faa612e1a565b111561376a577351efaf4c8b3c9afbd5ab9f4bbc82784ab6ef8faa6000806101000a81548173ffffffffffffffffffffffffffffffffffffffff021916908373ffffffffffffffffffffffffffffffffffffffff1602179055506001905061376f565b600090505b90565b6000606060008060008693506000925060009150600090505b8351811015613a475760307f01000000000000000000000000000000000000000000000000000000000000000284828151811015156137c657fe5b9060200101517f010000000000000000000000000000000000000000000000000000000000000090047f0100000000000000000000000000000000000000000000000000000000000000027effffffffffffffffffffffffffffffffffffffffffffffffffffffffffffff1916101580156138de575060397f010000000000000000000000000000000000000000000000000000000000000002848281518110151561386e57fe5b9060200101517f010000000000000000000000000000000000000000000000000000000000000090047f0100000000000000000000000000000000000000000000000000000000000000027effffffffffffffffffffffffffffffffffffffffffffffffffffffffffffff191611155b1561398f5781156139015760008614156138f757613a47565b8580600190039650505b600a830292506030848281518110151561391757fe5b9060200101517f010000000000000000000000000000000000000000000000000000000000000090047f0100000000000000000000000000000000000000000000000000000000000000027f010000000000000000000000000000000000000000000000000000000000000090040383019250613a3a565b602e7f01000000000000000000000000000000000000000000000000000000000000000284828151811015156139c157fe5b9060200101517f010000000000000000000000000000000000000000000000000000000000000090047f0100000000000000000000000000000000000000000000000000000000000000027effffffffffffffffffffffffffffffffffffffffffffffffffffffffffffff19161415613a3957600191505b5b808060010191505061378b565b6000861115613a595785600a0a830292505b8294505050505092915050565b6060806060806060806060806000808e98508d97508c96508b95508a94508451865188518a518c51010101016040519080825280601f01601f191660200182016040528015613ac45781602001602082028038833980820191505090505b50935083925060009150600090505b8851811015613b86578881815181101515613aea57fe5b9060200101517f010000000000000000000000000000000000000000000000000000000000000090047f0100000000000000000000000000000000000000000000000000000000000000028383806001019450815181101515613b4957fe5b9060200101907effffffffffffffffffffffffffffffffffffffffffffffffffffffffffffff1916908160001a9053508080600101915050613ad3565b600090505b8751811015613c3e578781815181101515613ba257fe5b9060200101517f010000000000000000000000000000000000000000000000000000000000000090047f0100000000000000000000000000000000000000000000000000000000000000028383806001019450815181101515613c0157fe5b9060200101907effffffffffffffffffffffffffffffffffffffffffffffffffffffffffffff1916908160001a9053508080600101915050613b8b565b600090505b8651811015613cf6578681815181101515613c5a57fe5b9060200101517f010000000000000000000000000000000000000000000000000000000000000090047f0100000000000000000000000000000000000000000000000000000000000000028383806001019450815181101515613cb957fe5b9060200101907effffffffffffffffffffffffffffffffffffffffffffffffffffffffffffff1916908160001a9053508080600101915050613c43565b600090505b8551811015613dae578581815181101515613d1257fe5b9060200101517f010000000000000000000000000000000000000000000000000000000000000090047f0100000000000000000000000000000000000000000000000000000000000000028383806001019450815181101515613d7157fe5b9060200101907effffffffffffffffffffffffffffffffffffffffffffffffffffffffffffff1916908160001a9053508080600101915050613cfb565b600090505b8451811015613e66578481815181101515613dca57fe5b9060200101517f010000000000000000000000000000000000000000000000000000000000000090047f0100000000000000000000000000000000000000000000000000000000000000028383806001019450815181101515613e2957fe5b9060200101907effffffffffffffffffffffffffffffffffffffffffffffffffffffffffffff1916908160001a9053508080600101915050613db3565b82995050505050505050505095945050505050565b60008060008060009054906101000a900473ffffffffffffffffffffffffffffffffffffffff1673ffffffffffffffffffffffffffffffffffffffff161480613eed57506000613eeb6000809054906101000a900473ffffffffffffffffffffffffffffffffffffffff16612e1a565b145b15613efe57613efc6000612e25565b505b6000809054906101000a900473ffffffffffffffffffffffffffffffffffffffff1673ffffffffffffffffffffffffffffffffffffffff166338cc48316040518163ffffffff167c0100000000000000000000000000000000000000000000000000000000028152600401602060405180830381600087803b158015613f8357600080fd5b505af1158015613f97573d6000803e3d6000fd5b505050506040513d6020811015613fad57600080fd5b810190808051906020019092919050505073ffffffffffffffffffffffffffffffffffffffff16600160009054906101000a900473ffffffffffffffffffffffffffffffffffffffff1673ffffffffffffffffffffffffffffffffffffffff16141515614115576000809054906101000a900473ffffffffffffffffffffffffffffffffffffffff1673ffffffffffffffffffffffffffffffffffffffff166338cc48316040518163ffffffff167c0100000000000000000000000000000000000000000000000000000000028152600401602060405180830381600087803b15801561409957600080fd5b505af11580156140ad573d6000803e3d6000fd5b505050506040513d60208110156140c357600080fd5b8101908080519060200190929190505050600160006101000a81548173ffffffffffffffffffffffffffffffffffffffff021916908373ffffffffffffffffffffffffffffffffffffffff1602179055505b600160009054906101000a900473ffffffffffffffffffffffffffffffffffffffff1673ffffffffffffffffffffffffffffffffffffffff1663524f3889856040518263ffffffff167c01000000000000000000000000000000000000000000000000000000000281526004018080602001828103825283818151815260200191508051906020019080838360005b838110156141bf5780820151818401526020810190506141a4565b50505050905090810190601f1680156141ec5780820380516001836020036101000a031916815260200191505b5092505050602060405180830381600087803b15801561420b57600080fd5b505af115801561421f573d6000803e3d6000fd5b505050506040513d602081101561423557600080fd5b8101908080519060200190929190505050905062030d403a02670de0b6b3a76400000181111561426b5760006001029150614415565b600160009054906101000a900473ffffffffffffffffffffffffffffffffffffffff1673ffffffffffffffffffffffffffffffffffffffff1663adf59f99828787876040518563ffffffff167c0100000000000000000000000000000000000000000000000000000000028152600401808481526020018060200180602001838103835285818151815260200191508051906020019080838360005b83811015614322578082015181840152602081019050614307565b50505050905090810190601f16801561434f5780820380516001836020036101000a031916815260200191505b50838103825284818151815260200191508051906020019080838360005b8381101561438857808201518184015260208101905061436d565b50505050905090810190601f1680156143b55780820380516001836020036101000a031916815260200191505b50955050505050506020604051808303818588803b1580156143d657600080fd5b505af11580156143ea573d6000803e3d6000fd5b50505050506040513d602081101561440157600080fd5b810190808051906020019092919050505091505b509392505050565b8060029080519060200190614433929190614437565b5050565b828054600181600116156101000203166002900490600052602060002090601f016020900481019282601f1061447857805160ff19168380011785556144a6565b828001600101855582156144a6579182015b828111156144a557825182559160200191906001019061448a565b5b5090506144b391906144b7565b5090565b6144d991905b808211156144d55760008160009055506001016144bd565b5090565b905600a165627a7a72305820f49edd2e9b465484d3fc3390d1b1f862f6326acaa3b8d565b65cb476d9f590e50029",
  "source": "pragma solidity ^0.4.23;\n\nimport 'zeppelin-solidity/contracts/ownership/Ownable.sol';\nimport 'zeppelin-solidity/contracts/math/SafeMath.sol';\nimport './oraclizeAPI_0.5.sol';\n\ncontract Bet is usingOraclize, Ownable {\n  using SafeMath for uint256;\n\n  enum Status { Active, Cancelled }\n  enum Winner { Undecided, Player1, Player2, Draw }\n\n  uint8 private constant FEE_PERCENT = 1;\n  uint256 private constant CLAIM_EXPIRES_AFTER = 8 weeks;\n  uint8 private constant MAX_GOALS = 25;\n\n  Status public status = Status.Active;\n\n  string public gameId;\n  string public p1;\n  string public p2;\n  bool public drawAllowed;\n  uint256 public timeBettingOpens;\n  uint256 public timeBettingCloses;\n  uint256 public timeMatchEnds;\n  uint256 public timeSuggestConfirmEnds;\n  uint256 public timeClaimsExpire;\n\n  event FetchMaxAttemptReached(string lastResult, uint256 MAX_FETCH_ATTEMPTS);\n  event WinnerSuggested(Winner winner);\n  event WinnerConfirmed(Winner winner);\n  event BettingCancelled(string p1, string p2);\n\n  uint256 private constant MAX_GAS_PRICE = 8e9;\n  uint256 private constant MAX_FETCH_ATTEMPTS = 100;\n  uint256 private constant FETCH_INTERVAL = 60*5; // 5min in seconds\n  uint256 private fetchAttempt = 1;\n  bool private isFetchingStarted = false;\n  bool public matchFinished = false;\n  bytes32 private hashFinished;\n\n  bytes32 private queryStatus;\n  bytes32 private queryGoalsP1;\n  bytes32 private queryGoalsP2;\n  uint private goalsP1;\n  uint private goalsP2;\n  bool private goalsP1Fetched = false;\n  bool private goalsP2Fetched = false;\n  bool private winnerSuggested = false;\n  bool private winnerConfirmed = false;\n  Winner public winner; // default = 0, meaning Undecided\n\n  uint256 public pool;\n  uint256 public payoutPool;\n  mapping(address => uint256) public betsPlayer1;\n  mapping(address => uint256) public betsPlayer2;\n  uint256 public total;\n  uint256 public totalPlayer1;\n  uint256 public totalPlayer2;\n  uint256 public numBetsPlayer1;\n  uint256 public numBetsPlayer2;\n\n  modifier hasWei() {\n      require(msg.value > 0);\n      _;\n  }\n\n  /*\n    Time-based modifiers\n  */\n  modifier isBettingPhase() {\n      require(now >= timeBettingOpens && now < timeBettingCloses, 'It is too early or too late to bet.');\n      _;\n  }\n\n  modifier isSuggestConfirmPhase() {\n      require(now > timeMatchEnds && now <= timeSuggestConfirmEnds, 'It is too early or too late to suggest/confirm a winner');\n      _;\n  }\n\n  modifier isExpiredPhase() {\n      require(now > timeClaimsExpire);\n      _;\n  }\n\n  modifier isNotExpiredPhase() {\n      require(now < timeClaimsExpire);\n      _;\n  }\n\n  /*\n    Cancelled modifiers\n  */\n  modifier isCancelled() {\n      require(status == Status.Cancelled);\n      _;\n  }\n\n  modifier isNotCancelled() {\n      require(status == Status.Active);\n      _;\n  }\n\n  modifier canBeCancelled() {\n      require(winnerConfirmed == false, 'Cannot be cancelled because winner is already confirmed');\n      _;\n  }\n\n  /*\n    Winner check modifiers\n  */\n  modifier isWinnerSuggested() {\n      require(winnerSuggested == true);\n      _;\n  }\n\n  modifier isNotWinnerSuggested() {\n      require(winnerSuggested == false);\n      _;\n  }\n\n  modifier isWinnerConfirmed() {\n      require(winnerSuggested == true && winnerConfirmed == true);\n      _;\n  }\n\n  /*\n    Other modifiers\n  */\n  modifier hasClaims() {\n      require(\n        (winner == Winner.Player1 && betsPlayer1[msg.sender] > 0) ||\n        (winner == Winner.Player2 && betsPlayer2[msg.sender] > 0) ||\n        (winner == Winner.Draw && ((betsPlayer1[msg.sender] > 0) || (betsPlayer2[msg.sender] > 0)))\n      );\n      _;\n  }\n\n  modifier startFetchingIfUnstarted() {\n      if (isFetchingStarted == false) {\n          fetchMatchStatus(0); // 0 == fetch now, without delay\n          isFetchingStarted = true;\n      }\n      _;\n  }\n\n\n\n  /*\n    Non-state-changing functions (\"view\" functions)\n  */\n  function hasBets(address _address) internal view returns (bool) {\n      if (betsPlayer1[_address] > 0 || betsPlayer2[_address] > 0) {\n          return true;\n      }\n      return false;\n  }\n\n  function isValidWinner(uint8 _winner) internal view returns (bool) {\n      if (_winner == 1 ||  _winner == 2) {\n          return true;\n      }\n      if (drawAllowed == true && _winner == 3) {\n          return true;\n      }\n      return false;\n  }\n\n  function isFinished(string s) private view returns (bool) {\n      return keccak256(s) == hashFinished;\n  }\n\n  constructor(\n      string _gameId,\n      string _p1,\n      string _p2,\n      bool _drawAllowed,\n      uint256 _matchStart,\n      uint256 _durationBetting,\n      uint256 _durationSuggestConfirm)\n      public\n      payable\n  {\n      oraclize_setCustomGasPrice(MAX_GAS_PRICE);\n      hashFinished = keccak256('FINISHED');\n      \n      gameId = _gameId;\n      p1 = _p1;\n      p2 = _p2;\n      drawAllowed = _drawAllowed;\n      _setTimes(_matchStart, _durationBetting, _durationSuggestConfirm);\n  }\n\n  // public for testing\n  function _setTimes(uint256 _matchStart, uint256 _durationBetting, uint256 _durationSuggestConfirm) public {\n      require(_durationSuggestConfirm > 3600*2); // longer than 2h in case max match duration is reached (overtimes + penalty shootout)\n\n      // Miners can cheat on block timestamp with a tolerance of 900 seconds.\n      // That's why betting is closed 900 seconds before match start.\n      timeBettingCloses = _matchStart - 900 seconds;\n      timeBettingOpens = timeBettingCloses - _durationBetting;\n      timeMatchEnds = timeBettingCloses + 105 minutes;\n      timeSuggestConfirmEnds = timeMatchEnds + _durationSuggestConfirm;\n      timeClaimsExpire = timeSuggestConfirmEnds + 8 weeks;\n  }\n\n  /* OLD BET FUNCTION: gas: 93620,  93627, 94136 */\n  /* OLD BET FUNCTION: KOVAN: 54857 */\n  function betOnPlayer1() external payable\n      isNotCancelled\n      isBettingPhase\n      hasWei\n  {\n      betsPlayer1[msg.sender] = betsPlayer1[msg.sender].add(msg.value);\n      numBetsPlayer1 += 1;\n      totalPlayer1 = totalPlayer1.add(msg.value);\n  }\n\n  function betOnPlayer2() external payable\n      isNotCancelled\n      isBettingPhase\n      hasWei\n  {\n      betsPlayer2[msg.sender] = betsPlayer2[msg.sender].add(msg.value);\n      numBetsPlayer2 += 1;\n      totalPlayer2 = totalPlayer2.add(msg.value);\n  }\n\n\n  function fetchMatchStatus(uint256 _delay) internal {\n      string memory query = strConcat('json(http://api.football-data.org/v1/fixtures/', gameId, '.fixture');\n      queryStatus = fetch(query, _delay);\n  }\n\n  function fetchGoalsP1(uint256 _delay) internal {\n      string memory query = strConcat('json(http://api.football-data.org/v1/fixtures/', gameId, '.fixture.result.goalsHomeTeam');\n      queryGoalsP1 = fetch(query, _delay);\n  }\n\n  function fetchGoalsP2(uint256 _delay) internal {\n      string memory query = strConcat('json(http://api.football-data.org/v1/fixtures/', gameId, '.fixture.result.goalsAwayTeam');\n      queryGoalsP2 = fetch(query, _delay);\n  }\n\n  function fetch(string _query, uint256 _delay) internal\n      returns (bytes32)\n  {\n      return oraclize_query(_delay, \"URL\", _query);  \n  }\n\n  function __callback(bytes32 myid, string response) public\n      isNotCancelled\n      isSuggestConfirmPhase\n      isNotWinnerSuggested\n  {\n      require(msg.sender == oraclize_cbAddress());\n      \n      // Keeping track of query IDs because one query can result in more than one callback.\n      // Once callback received, query tracker set to 0 to prevent double handling of response.\n      // See https://docs.oraclize.it/#ethereum-best-practices-mapping-query-ids\n      if (myid == queryStatus && matchFinished == false) {\n          queryStatus = 0x0;\n          _handleMatchStatusResponse(response);\n      } else if (myid == queryGoalsP1) {\n          queryGoalsP1 = 0x0;\n          _handleGoalsP1Response(response);\n      } else if (myid == queryGoalsP2) {\n          queryGoalsP2 = 0x0;\n          _handleGoalsP2Response(response);\n      }\n  }\n\n  function _handleMatchStatusResponse(string response) private {\n      if (isFinished(response)) {\n          matchFinished = true;\n\n          fetchAttempt = fetchAttempt.add(2);\n          fetchGoalsP1(0);\n          fetchGoalsP2(0);\n      } else if (fetchAttempt < (MAX_FETCH_ATTEMPTS-1)) {\n          fetchAttempt = fetchAttempt.add(1);\n          fetchMatchStatus(FETCH_INTERVAL);\n      } else {\n          status = Status.Cancelled;\n          emit FetchMaxAttemptReached(response, MAX_FETCH_ATTEMPTS);\n      }\n  }\n\n  function _handleGoalsP1Response(string strGoals) private {\n      uint goals = parseInt(strGoals);\n      if (goals > MAX_GOALS) {\n          fetchAttempt = fetchAttempt.add(1);\n          if (fetchAttempt < MAX_FETCH_ATTEMPTS) {\n              fetchGoalsP2(FETCH_INTERVAL);\n          } else {\n              status = Status.Cancelled;\n              emit FetchMaxAttemptReached(strGoals, MAX_FETCH_ATTEMPTS);\n          }\n      }\n\n      goalsP1 = goals;\n      goalsP1Fetched = true;\n\n      if (goalsP2Fetched == true) {\n          _suggestWinner(goalsP1, goalsP2);\n      }\n  }\n\n  function _handleGoalsP2Response(string strGoals) private {\n      uint goals = parseInt(strGoals);\n      if (goals > MAX_GOALS) {\n          fetchAttempt = fetchAttempt.add(1);\n          if (fetchAttempt < MAX_FETCH_ATTEMPTS) {\n              fetchGoalsP2(FETCH_INTERVAL);\n          } else {\n              status = Status.Cancelled;\n              emit FetchMaxAttemptReached(strGoals, MAX_FETCH_ATTEMPTS);\n          }\n      }\n      \n      goalsP2 = goals;\n      goalsP2Fetched = true;\n\n      if (goalsP1Fetched == true) {\n          _suggestWinner(goalsP1, goalsP2);\n      }\n  }\n\n  function _suggestWinner(uint _goalsP1, uint _goalsP2) private {\n      if (_goalsP1 > _goalsP2) {\n          winner = Winner.Player1;\n      } else if (_goalsP1 < _goalsP2) {\n          winner = Winner.Player2;\n      } else {\n          winner = Winner.Draw;\n      }\n\n      winnerSuggested = true;\n      emit WinnerSuggested(winner);\n  }\n\n  function confirmWinner(uint8 _winnerAsInt) external\n      onlyOwner\n      isNotCancelled\n      isSuggestConfirmPhase\n      isWinnerSuggested\n  {\n      require(isValidWinner(_winnerAsInt));\n      \n      if (winner == Winner(_winnerAsInt)) {\n          winnerConfirmed = true;\n\n          pool = totalPlayer1.add(totalPlayer2);\n\n          if (pool > 0) {\n              uint256 feeAmount = pool.mul(FEE_PERCENT).div(100);\n              payoutPool = pool.sub(feeAmount);\n              owner.transfer(feeAmount);\n          } else {\n              payoutPool = 0;\n          }\n\n          emit WinnerConfirmed(winner);\n      } else {\n          cancel();\n      }\n  }\n\n  function cancel() public\n      onlyOwner\n      canBeCancelled\n      isNotCancelled\n  {\n      status = Status.Cancelled;\n      payoutPool = totalPlayer1.add(totalPlayer2);\n\n      emit BettingCancelled(p1, p2);\n  }\n\n  function claimWinOrDraw() external\n      isNotCancelled\n      isNotExpiredPhase\n      startFetchingIfUnstarted\n      isWinnerConfirmed\n      hasClaims\n  {\n      uint256 wonShare;\n      uint256 payout;\n      if (winner == Winner.Player1){\n          wonShare = betsPlayer1[msg.sender].mul(1e20).div(totalPlayer1);//.div(1e20)\n          payout = payoutPool.mul(wonShare).div(1e20);\n          betsPlayer1[msg.sender] = 0;\n      } else if (winner == Winner.Player2) {\n          wonShare = betsPlayer2[msg.sender].mul(1e20).div(totalPlayer2);//.div(1e20)\n          payout = payoutPool.mul(wonShare).div(1e20);\n          betsPlayer2[msg.sender] = 0;\n      } else if (winner == Winner.Draw) {\n          payout = betsPlayer1[msg.sender] + betsPlayer2[msg.sender];\n          betsPlayer1[msg.sender] = 0;\n          betsPlayer2[msg.sender] = 0;\n      }\n      payoutPool = payoutPool.sub(payout);\n\n      msg.sender.transfer(payout);\n  }\n\n  function claimCancelled() external\n      isCancelled\n      isNotExpiredPhase\n      hasClaims\n  {\n      uint256 claim = betsPlayer1[msg.sender] + betsPlayer2[msg.sender]; // claim > 0 since check in hasClaims\n\n      betsPlayer1[msg.sender] = 0;\n      betsPlayer2[msg.sender] = 0;\n      payoutPool = payoutPool.sub(claim);\n      \n      msg.sender.transfer(claim);\n  }\n\n  function claimExpired() external\n      onlyOwner\n      isExpiredPhase\n  {\n      payoutPool = 0;\n\n      msg.sender.transfer(address(this).balance);\n  }\n\n  /* fallback function */\n  function () public payable {\n      revert('Function not found.'); \n  }\n\n  // for testing\n  // function suggestWinner(uint8 _winnerAsInt) external onlyOwner withinSuggestConfirmWinnerTime {\n  //     require(isValidWinner(_winnerAsInt));\n  //     suggestedWinner = Winner(_winnerAsInt);\n\n  //     phase = Phase.WinnerSuggested;\n  // }\n}\n",
  "sourcePath": "/home/mo/dev/worldcup-betting/contracts/BetNoPhases.sol",
  "compiler": {
    "name": "solc",
    "version": "0.4.23+commit.124ca40d.Emscripten.clang"
  },
  "schemaVersion": "2.0.0",
  "updatedAt": "2018-05-10T18:19:45.101Z"
}