{
  "contractName": "Bet",
  "abi": [
    {
      "constant": true,
      "inputs": [],
      "name": "pool",
      "outputs": [
        {
          "name": "",
          "type": "uint256"
        }
      ],
      "payable": false,
      "stateMutability": "view",
      "type": "function"
    },
    {
      "constant": true,
      "inputs": [],
      "name": "status",
      "outputs": [
        {
          "name": "",
          "type": "uint8"
        }
      ],
      "payable": false,
      "stateMutability": "view",
      "type": "function"
    },
    {
      "constant": true,
      "inputs": [],
      "name": "matchFinished",
      "outputs": [
        {
          "name": "",
          "type": "bool"
        }
      ],
      "payable": false,
      "stateMutability": "view",
      "type": "function"
    },
    {
      "constant": true,
      "inputs": [],
      "name": "group",
      "outputs": [
        {
          "name": "",
          "type": "string"
        }
      ],
      "payable": false,
      "stateMutability": "view",
      "type": "function"
    },
    {
      "constant": true,
      "inputs": [],
      "name": "total",
      "outputs": [
        {
          "name": "",
          "type": "uint256"
        }
      ],
      "payable": false,
      "stateMutability": "view",
      "type": "function"
    },
    {
      "constant": true,
      "inputs": [],
      "name": "timeMatchEnds",
      "outputs": [
        {
          "name": "",
          "type": "uint256"
        }
      ],
      "payable": false,
      "stateMutability": "view",
      "type": "function"
    },
    {
      "constant": true,
      "inputs": [
        {
          "name": "",
          "type": "address"
        }
      ],
      "name": "betsPlayer2",
      "outputs": [
        {
          "name": "",
          "type": "uint256"
        }
      ],
      "payable": false,
      "stateMutability": "view",
      "type": "function"
    },
    {
      "constant": true,
      "inputs": [],
      "name": "payoutPool",
      "outputs": [
        {
          "name": "",
          "type": "uint256"
        }
      ],
      "payable": false,
      "stateMutability": "view",
      "type": "function"
    },
    {
      "constant": true,
      "inputs": [],
      "name": "totalPlayer2",
      "outputs": [
        {
          "name": "",
          "type": "uint256"
        }
      ],
      "payable": false,
      "stateMutability": "view",
      "type": "function"
    },
    {
      "constant": true,
      "inputs": [],
      "name": "timeSuggestConfirmEnds",
      "outputs": [
        {
          "name": "",
          "type": "uint256"
        }
      ],
      "payable": false,
      "stateMutability": "view",
      "type": "function"
    },
    {
      "constant": true,
      "inputs": [],
      "name": "numBetsPlayer1",
      "outputs": [
        {
          "name": "",
          "type": "uint256"
        }
      ],
      "payable": false,
      "stateMutability": "view",
      "type": "function"
    },
    {
      "constant": true,
      "inputs": [],
      "name": "totalPlayer1",
      "outputs": [
        {
          "name": "",
          "type": "uint256"
        }
      ],
      "payable": false,
      "stateMutability": "view",
      "type": "function"
    },
    {
      "constant": true,
      "inputs": [],
      "name": "winnerConfirmed",
      "outputs": [
        {
          "name": "",
          "type": "bool"
        }
      ],
      "payable": false,
      "stateMutability": "view",
      "type": "function"
    },
    {
      "constant": true,
      "inputs": [],
      "name": "p2",
      "outputs": [
        {
          "name": "",
          "type": "string"
        }
      ],
      "payable": false,
      "stateMutability": "view",
      "type": "function"
    },
    {
      "constant": true,
      "inputs": [],
      "name": "timeClaimsExpire",
      "outputs": [
        {
          "name": "",
          "type": "uint256"
        }
      ],
      "payable": false,
      "stateMutability": "view",
      "type": "function"
    },
    {
      "constant": true,
      "inputs": [],
      "name": "isGroupPhase",
      "outputs": [
        {
          "name": "",
          "type": "bool"
        }
      ],
      "payable": false,
      "stateMutability": "view",
      "type": "function"
    },
    {
      "constant": true,
      "inputs": [],
      "name": "owner",
      "outputs": [
        {
          "name": "",
          "type": "address"
        }
      ],
      "payable": false,
      "stateMutability": "view",
      "type": "function"
    },
    {
      "constant": true,
      "inputs": [],
      "name": "timeBettingOpens",
      "outputs": [
        {
          "name": "",
          "type": "uint256"
        }
      ],
      "payable": false,
      "stateMutability": "view",
      "type": "function"
    },
    {
      "constant": true,
      "inputs": [],
      "name": "numBetsPlayer2",
      "outputs": [
        {
          "name": "",
          "type": "uint256"
        }
      ],
      "payable": false,
      "stateMutability": "view",
      "type": "function"
    },
    {
      "constant": true,
      "inputs": [],
      "name": "p1",
      "outputs": [
        {
          "name": "",
          "type": "string"
        }
      ],
      "payable": false,
      "stateMutability": "view",
      "type": "function"
    },
    {
      "constant": true,
      "inputs": [],
      "name": "winnerSuggested",
      "outputs": [
        {
          "name": "",
          "type": "bool"
        }
      ],
      "payable": false,
      "stateMutability": "view",
      "type": "function"
    },
    {
      "constant": true,
      "inputs": [
        {
          "name": "",
          "type": "address"
        }
      ],
      "name": "betsPlayer1",
      "outputs": [
        {
          "name": "",
          "type": "uint256"
        }
      ],
      "payable": false,
      "stateMutability": "view",
      "type": "function"
    },
    {
      "constant": true,
      "inputs": [],
      "name": "gameId",
      "outputs": [
        {
          "name": "",
          "type": "string"
        }
      ],
      "payable": false,
      "stateMutability": "view",
      "type": "function"
    },
    {
      "constant": true,
      "inputs": [],
      "name": "winner",
      "outputs": [
        {
          "name": "",
          "type": "uint8"
        }
      ],
      "payable": false,
      "stateMutability": "view",
      "type": "function"
    },
    {
      "constant": true,
      "inputs": [],
      "name": "timeBettingCloses",
      "outputs": [
        {
          "name": "",
          "type": "uint256"
        }
      ],
      "payable": false,
      "stateMutability": "view",
      "type": "function"
    },
    {
      "constant": false,
      "inputs": [
        {
          "name": "newOwner",
          "type": "address"
        }
      ],
      "name": "transferOwnership",
      "outputs": [],
      "payable": false,
      "stateMutability": "nonpayable",
      "type": "function"
    },
    {
      "constant": true,
      "inputs": [],
      "name": "feeEarning",
      "outputs": [
        {
          "name": "",
          "type": "uint256"
        }
      ],
      "payable": false,
      "stateMutability": "view",
      "type": "function"
    },
    {
      "inputs": [
        {
          "name": "_gameId",
          "type": "string"
        },
        {
          "name": "_group",
          "type": "string"
        },
        {
          "name": "_p1",
          "type": "string"
        },
        {
          "name": "_p2",
          "type": "string"
        },
        {
          "name": "_isGroupPhase",
          "type": "bool"
        },
        {
          "name": "_matchStart",
          "type": "uint256"
        },
        {
          "name": "_durationBetting",
          "type": "uint256"
        },
        {
          "name": "_durationSuggestConfirm",
          "type": "uint256"
        }
      ],
      "payable": true,
      "stateMutability": "payable",
      "type": "constructor"
    },
    {
      "payable": true,
      "stateMutability": "payable",
      "type": "fallback"
    },
    {
      "anonymous": false,
      "inputs": [
        {
          "indexed": false,
          "name": "lastResult",
          "type": "string"
        },
        {
          "indexed": false,
          "name": "MAX_FETCH_ATTEMPTS",
          "type": "uint256"
        }
      ],
      "name": "FetchMaxAttemptReached",
      "type": "event"
    },
    {
      "anonymous": false,
      "inputs": [
        {
          "indexed": false,
          "name": "winner",
          "type": "uint8"
        }
      ],
      "name": "WinnerSuggested",
      "type": "event"
    },
    {
      "anonymous": false,
      "inputs": [
        {
          "indexed": false,
          "name": "winner",
          "type": "uint8"
        }
      ],
      "name": "WinnerConfirmed",
      "type": "event"
    },
    {
      "anonymous": false,
      "inputs": [
        {
          "indexed": false,
          "name": "p1",
          "type": "string"
        },
        {
          "indexed": false,
          "name": "p2",
          "type": "string"
        }
      ],
      "name": "BettingCancelled",
      "type": "event"
    },
    {
      "anonymous": false,
      "inputs": [
        {
          "indexed": true,
          "name": "previousOwner",
          "type": "address"
        },
        {
          "indexed": true,
          "name": "newOwner",
          "type": "address"
        }
      ],
      "name": "OwnershipTransferred",
      "type": "event"
    },
    {
      "constant": false,
      "inputs": [
        {
          "name": "_matchStart",
          "type": "uint256"
        },
        {
          "name": "_durationBetting",
          "type": "uint256"
        },
        {
          "name": "_durationSuggestConfirm",
          "type": "uint256"
        }
      ],
      "name": "_setTimes",
      "outputs": [],
      "payable": false,
      "stateMutability": "nonpayable",
      "type": "function"
    },
    {
      "constant": false,
      "inputs": [],
      "name": "betOnPlayer1",
      "outputs": [],
      "payable": true,
      "stateMutability": "payable",
      "type": "function"
    },
    {
      "constant": false,
      "inputs": [],
      "name": "betOnPlayer2",
      "outputs": [],
      "payable": true,
      "stateMutability": "payable",
      "type": "function"
    },
    {
      "constant": false,
      "inputs": [
        {
          "name": "myid",
          "type": "bytes32"
        },
        {
          "name": "response",
          "type": "string"
        }
      ],
      "name": "__callback",
      "outputs": [],
      "payable": false,
      "stateMutability": "nonpayable",
      "type": "function"
    },
    {
      "constant": false,
      "inputs": [
        {
          "name": "myid",
          "type": "bytes32"
        },
        {
          "name": "result",
          "type": "string"
        },
        {
          "name": "proof",
          "type": "bytes"
        }
      ],
      "name": "__callback",
      "outputs": [],
      "payable": false,
      "stateMutability": "nonpayable",
      "type": "function"
    },
    {
      "constant": false,
      "inputs": [
        {
          "name": "_winnerAsInt",
          "type": "uint8"
        }
      ],
      "name": "suggestWinner",
      "outputs": [],
      "payable": false,
      "stateMutability": "nonpayable",
      "type": "function"
    },
    {
      "constant": false,
      "inputs": [
        {
          "name": "_winnerAsInt",
          "type": "uint8"
        }
      ],
      "name": "confirmWinner",
      "outputs": [],
      "payable": false,
      "stateMutability": "nonpayable",
      "type": "function"
    },
    {
      "constant": false,
      "inputs": [],
      "name": "cancel",
      "outputs": [],
      "payable": false,
      "stateMutability": "nonpayable",
      "type": "function"
    },
    {
      "constant": false,
      "inputs": [],
      "name": "claimWinOrDraw",
      "outputs": [],
      "payable": false,
      "stateMutability": "nonpayable",
      "type": "function"
    },
    {
      "constant": false,
      "inputs": [],
      "name": "claimCancelled",
      "outputs": [],
      "payable": false,
      "stateMutability": "nonpayable",
      "type": "function"
    },
    {
      "constant": false,
      "inputs": [],
      "name": "claimExpired",
      "outputs": [],
      "payable": false,
      "stateMutability": "nonpayable",
      "type": "function"
    }
  ],
  "bytecode": "0x60806040526000600560146101000a81548160ff021916908360018111156200002457fe5b021790555060016010556000601160006101000a81548160ff0219169083151502179055506000601160016101000a81548160ff0219169083151502179055506000601860006101000a81548160ff0219169083151502179055506000601860016101000a81548160ff0219169083151502179055506000601860026101000a81548160ff0219169083151502179055506000601860036101000a81548160ff0219169083151502179055506000601860046101000a81548160ff0219169083151502179055506000601860056101000a81548160ff021916908315150217905550604051620050cc380380620050cc833981018060405281019080805182019291906020018051820192919060200180518201929190602001805182019291906020018051906020019092919080519060200190929190805190602001909291908051906020019092919050505033600560006101000a81548173ffffffffffffffffffffffffffffffffffffffff021916908373ffffffffffffffffffffffffffffffffffffffff16021790555060405180807f46494e4953484544000000000000000000000000000000000000000000000000815250600801905060405180910390206012816000191690555087600690805190602001906200020c929190620002ed565b50866007908051906020019062000225929190620002ed565b5085600890805190602001906200023e929190620002ed565b50846009908051906020019062000257929190620002ed565b5083600a60006101000a81548160ff0219169083151502179055506200028e8383836200029c640100000000026401000000009004565b50505050505050506200039c565b611c208110151515620002ae57600080fd5b6103848303600c81905550818303600b8190555061189c600c5401600d8190555080600d5401600e819055506249d400600e5401600f81905550505050565b828054600181600116156101000203166002900490600052602060002090601f016020900481019282601f106200033057805160ff191683800117855562000361565b8280016001018555821562000361579182015b828111156200036057825182559160200191906001019062000343565b5b50905062000370919062000374565b5090565b6200039991905b80821115620003955760008160009055506001016200037b565b5090565b90565b614d2080620003ac6000396000f3006080604052600436106101d8576000357c0100000000000000000000000000000000000000000000000000000000900463ffffffff16806316f0115b14610246578063200d2ed21461027157806321599588146102aa57806327dc297e146102d957806329e7ef2d146103505780632ddbd13a146103e057806338bbfa501461040b578063465f80c8146104c857806346ac2054146104f35780634af415351461054a5780636273106a1461055457806367819ab41461057f5780637299551f146105af5780637583dc65146105da57806377313b501461061b5780637d99dd78146106465780637e670b54146106715780637f7634ba1461069c57806381d01ed3146106cb578063833c38901461075b57806385e4fee3146107865780638da5cb5b146107b5578063934b495b1461080c578063a5c93cae14610837578063c2a2747b14610862578063c75fd341146108f2578063c80c975b14610909578063cd58a17114610920578063d2ff19af1461094f578063d430e3d7146109a6578063d7c81b55146109bd578063d80a600614610a4d578063de477c7f14610a57578063dfbf53ae14610a87578063e41d9cb714610ac0578063ea8a1af014610aeb578063f2fde38b14610b02578063f8fa35bc14610b45575b6040517f08c379a00000000000000000000000000000000000000000000000000000000081526004018080602001828103825260138152602001807f46756e6374696f6e206e6f7420666f756e642e0000000000000000000000000081525060200191505060405180910390fd5b34801561025257600080fd5b5061025b610b70565b6040518082815260200191505060405180910390f35b34801561027d57600080fd5b50610286610b76565b6040518082600181111561029657fe5b60ff16815260200191505060405180910390f35b3480156102b657600080fd5b506102bf610b89565b604051808215151515815260200191505060405180910390f35b3480156102e557600080fd5b5061034e6004803603810190808035600019169060200190929190803590602001908201803590602001908080601f0160208091040260200160405190810160405280939291908181526020018383808284378201915050505050509192919290505050610b9c565b005b34801561035c57600080fd5b50610365610d8e565b6040518080602001828103825283818151815260200191508051906020019080838360005b838110156103a557808201518184015260208101905061038a565b50505050905090810190601f1680156103d25780820380516001836020036101000a031916815260200191505b509250505060405180910390f35b3480156103ec57600080fd5b506103f5610e2c565b6040518082815260200191505060405180910390f35b34801561041757600080fd5b506104c66004803603810190808035600019169060200190929190803590602001908201803590602001908080601f0160208091040260200160405190810160405280939291908181526020018383808284378201915050505050509192919290803590602001908201803590602001908080601f0160208091040260200160405190810160405280939291908181526020018383808284378201915050505050509192919290505050610e32565b005b3480156104d457600080fd5b506104dd610e37565b6040518082815260200191505060405180910390f35b3480156104ff57600080fd5b50610534600480360381019080803573ffffffffffffffffffffffffffffffffffffffff169060200190929190505050610e3d565b6040518082815260200191505060405180910390f35b610552610e55565b005b34801561056057600080fd5b50610569611008565b6040518082815260200191505060405180910390f35b34801561058b57600080fd5b506105ad600480360381019080803560ff16906020019092919050505061100e565b005b3480156105bb57600080fd5b506105c4611210565b6040518082815260200191505060405180910390f35b3480156105e657600080fd5b50610619600480360381019080803590602001909291908035906020019092919080359060200190929190505050611216565b005b34801561062757600080fd5b50610630611266565b6040518082815260200191505060405180910390f35b34801561065257600080fd5b5061065b61126c565b6040518082815260200191505060405180910390f35b34801561067d57600080fd5b50610686611272565b6040518082815260200191505060405180910390f35b3480156106a857600080fd5b506106b1611278565b604051808215151515815260200191505060405180910390f35b3480156106d757600080fd5b506106e061128b565b6040518080602001828103825283818151815260200191508051906020019080838360005b83811015610720578082015181840152602081019050610705565b50505050905090810190601f16801561074d5780820380516001836020036101000a031916815260200191505b509250505060405180910390f35b34801561076757600080fd5b50610770611329565b6040518082815260200191505060405180910390f35b34801561079257600080fd5b5061079b61132f565b604051808215151515815260200191505060405180910390f35b3480156107c157600080fd5b506107ca611342565b604051808273ffffffffffffffffffffffffffffffffffffffff1673ffffffffffffffffffffffffffffffffffffffff16815260200191505060405180910390f35b34801561081857600080fd5b50610821611368565b6040518082815260200191505060405180910390f35b34801561084357600080fd5b5061084c61136e565b6040518082815260200191505060405180910390f35b34801561086e57600080fd5b50610877611374565b6040518080602001828103825283818151815260200191508051906020019080838360005b838110156108b757808201518184015260208101905061089c565b50505050905090810190601f1680156108e45780820380516001836020036101000a031916815260200191505b509250505060405180910390f35b3480156108fe57600080fd5b50610907611412565b005b34801561091557600080fd5b5061091e6114e6565b005b34801561092c57600080fd5b5061093561185b565b604051808215151515815260200191505060405180910390f35b34801561095b57600080fd5b50610990600480360381019080803573ffffffffffffffffffffffffffffffffffffffff16906020019092919050505061186e565b6040518082815260200191505060405180910390f35b3480156109b257600080fd5b506109bb611886565b005b3480156109c957600080fd5b506109d2611edd565b6040518080602001828103825283818151815260200191508051906020019080838360005b83811015610a125780820151818401526020810190506109f7565b50505050905090810190601f168015610a3f5780820380516001836020036101000a031916815260200191505b509250505060405180910390f35b610a55611f7b565b005b348015610a6357600080fd5b50610a85600480360381019080803560ff16906020019092919050505061212e565b005b348015610a9357600080fd5b50610a9c61248b565b60405180826003811115610aac57fe5b60ff16815260200191505060405180910390f35b348015610acc57600080fd5b50610ad561249e565b6040518082815260200191505060405180910390f35b348015610af757600080fd5b50610b006124a4565b005b348015610b0e57600080fd5b50610b43600480360381019080803573ffffffffffffffffffffffffffffffffffffffff16906020019092919050505061276d565b005b348015610b5157600080fd5b50610b5a6128c5565b6040518082815260200191505060405180910390f35b60195481565b600560149054906101000a900460ff1681565b601160019054906101000a900460ff1681565b60006001811115610ba957fe5b600560149054906101000a900460ff166001811115610bc457fe5b141515610bd057600080fd5b600d5442118015610be35750600e544211155b1515610c7d576040517f08c379a00000000000000000000000000000000000000000000000000000000081526004018080602001828103825260378152602001807f497420697320746f6f206561726c79206f7220746f6f206c61746520746f207381526020017f7567676573742f636f6e6669726d20612077696e6e657200000000000000000081525060400191505060405180910390fd5b60001515601860039054906101000a900460ff161515141515610c9f57600080fd5b610ca76128cb565b73ffffffffffffffffffffffffffffffffffffffff163373ffffffffffffffffffffffffffffffffffffffff16141515610ce057600080fd5b601354600019168260001916148015610d0c575060001515601160019054906101000a900460ff161515145b15610d2e57600060010260138160001916905550610d2981612c29565b610d8a565b6014546000191682600019161415610d5d57600060010260148160001916905550610d5881612d91565b610d89565b6015546000191682600019161415610d8857600060010260158160001916905550610d8781612f0d565b5b5b5b5050565b60078054600181600116156101000203166002900480601f016020809104026020016040519081016040528092919081815260200182805460018160011615610100020316600290048015610e245780601f10610df957610100808354040283529160200191610e24565b820191906000526020600020905b815481529060010190602001808311610e0757829003601f168201915b505050505081565b601e5481565b505050565b600d5481565b601d6020528060005260406000206000915090505481565b60006001811115610e6257fe5b600560149054906101000a900460ff166001811115610e7d57fe5b141515610e8957600080fd5b600b544210158015610e9c5750600c5442105b1515610f36576040517f08c379a00000000000000000000000000000000000000000000000000000000081526004018080602001828103825260238152602001807f497420697320746f6f206561726c79206f7220746f6f206c61746520746f206281526020017f65742e000000000000000000000000000000000000000000000000000000000081525060400191505060405180910390fd5b600034111515610f4557600080fd5b610f9734601d60003373ffffffffffffffffffffffffffffffffffffffff1673ffffffffffffffffffffffffffffffffffffffff1681526020019081526020016000205461308990919063ffffffff16565b601d60003373ffffffffffffffffffffffffffffffffffffffff1673ffffffffffffffffffffffffffffffffffffffff1681526020019081526020016000208190555060016022600082825401925050819055506110003460205461308990919063ffffffff16565b602081905550565b601a5481565b600560009054906101000a900473ffffffffffffffffffffffffffffffffffffffff1673ffffffffffffffffffffffffffffffffffffffff163373ffffffffffffffffffffffffffffffffffffffff1614151561106a57600080fd5b6000600181111561107757fe5b600560149054906101000a900460ff16600181111561109257fe5b14151561109e57600080fd5b600d54421180156110b15750600e544211155b151561114b576040517f08c379a00000000000000000000000000000000000000000000000000000000081526004018080602001828103825260378152602001807f497420697320746f6f206561726c79206f7220746f6f206c61746520746f207381526020017f7567676573742f636f6e6669726d20612077696e6e657200000000000000000081525060400191505060405180910390fd5b60001515601860039054906101000a900460ff16151514151561116d57600080fd5b8060ff16600381111561117c57fe5b601860066101000a81548160ff0219169083600381111561119957fe5b02179055506001601860036101000a81548160ff0219169083151502179055507faf402f25d965dbb8046c429c4c6165a2dd4c0df5f2326f426a6a2ff7e404b01b601860069054906101000a900460ff16604051808260038111156111fa57fe5b60ff16815260200191505060405180910390a150565b60205481565b611c20811015151561122757600080fd5b6103848303600c81905550818303600b8190555061189c600c5401600d8190555080600d5401600e819055506249d400600e5401600f81905550505050565b600e5481565b60215481565b601f5481565b601860049054906101000a900460ff1681565b60098054600181600116156101000203166002900480601f0160208091040260200160405190810160405280929190818152602001828054600181600116156101000203166002900480156113215780601f106112f657610100808354040283529160200191611321565b820191906000526020600020905b81548152906001019060200180831161130457829003601f168201915b505050505081565b600f5481565b600a60009054906101000a900460ff1681565b600560009054906101000a900473ffffffffffffffffffffffffffffffffffffffff1681565b600b5481565b60225481565b60088054600181600116156101000203166002900480601f01602080910402602001604051908101604052809291908181526020018280546001816001161561010002031660029004801561140a5780601f106113df5761010080835404028352916020019161140a565b820191906000526020600020905b8154815290600101906020018083116113ed57829003601f168201915b505050505081565b600560009054906101000a900473ffffffffffffffffffffffffffffffffffffffff1673ffffffffffffffffffffffffffffffffffffffff163373ffffffffffffffffffffffffffffffffffffffff1614151561146e57600080fd5b600f544211151561147e57600080fd5b6000601a819055503373ffffffffffffffffffffffffffffffffffffffff166108fc3073ffffffffffffffffffffffffffffffffffffffff16319081150290604051600060405180830381858888f193505050501580156114e3573d6000803e3d6000fd5b50565b60006001808111156114f457fe5b600560149054906101000a900460ff16600181111561150f57fe5b14151561151b57600080fd5b600f544210151561152b57600080fd5b6001600381111561153857fe5b601860069054906101000a900460ff16600381111561155357fe5b14801561159f57506000601c60003373ffffffffffffffffffffffffffffffffffffffff1673ffffffffffffffffffffffffffffffffffffffff16815260200190815260200160002054115b8061161a5750600260038111156115b257fe5b601860069054906101000a900460ff1660038111156115cd57fe5b14801561161957506000601d60003373ffffffffffffffffffffffffffffffffffffffff1673ffffffffffffffffffffffffffffffffffffffff16815260200190815260200160002054115b5b806116de575060038081111561162c57fe5b601860069054906101000a900460ff16600381111561164757fe5b1480156116dd57506000601c60003373ffffffffffffffffffffffffffffffffffffffff1673ffffffffffffffffffffffffffffffffffffffff1681526020019081526020016000205411806116dc57506000601d60003373ffffffffffffffffffffffffffffffffffffffff1673ffffffffffffffffffffffffffffffffffffffff16815260200190815260200160002054115b5b5b15156116e957600080fd5b601d60003373ffffffffffffffffffffffffffffffffffffffff1673ffffffffffffffffffffffffffffffffffffffff16815260200190815260200160002054601c60003373ffffffffffffffffffffffffffffffffffffffff1673ffffffffffffffffffffffffffffffffffffffff168152602001908152602001600020540190506000601c60003373ffffffffffffffffffffffffffffffffffffffff1673ffffffffffffffffffffffffffffffffffffffff168152602001908152602001600020819055506000601d60003373ffffffffffffffffffffffffffffffffffffffff1673ffffffffffffffffffffffffffffffffffffffff1681526020019081526020016000208190555061180b81601a546130a590919063ffffffff16565b601a819055503373ffffffffffffffffffffffffffffffffffffffff166108fc829081150290604051600060405180830381858888f19350505050158015611857573d6000803e3d6000fd5b5050565b601860039054906101000a900460ff1681565b601c6020528060005260406000206000915090505481565b6000806000600181111561189657fe5b600560149054906101000a900460ff1660018111156118b157fe5b1415156118bd57600080fd5b600f54421015156118cd57600080fd5b60001515601160009054906101000a900460ff1615151415611905576001601160006101000a81548160ff0219169083151502179055505b60011515601860039054906101000a900460ff16151514801561193b575060011515601860049054906101000a900460ff161515145b151561194657600080fd5b6001600381111561195357fe5b601860069054906101000a900460ff16600381111561196e57fe5b1480156119ba57506000601c60003373ffffffffffffffffffffffffffffffffffffffff1673ffffffffffffffffffffffffffffffffffffffff16815260200190815260200160002054115b80611a355750600260038111156119cd57fe5b601860069054906101000a900460ff1660038111156119e857fe5b148015611a3457506000601d60003373ffffffffffffffffffffffffffffffffffffffff1673ffffffffffffffffffffffffffffffffffffffff16815260200190815260200160002054115b5b80611af95750600380811115611a4757fe5b601860069054906101000a900460ff166003811115611a6257fe5b148015611af857506000601c60003373ffffffffffffffffffffffffffffffffffffffff1673ffffffffffffffffffffffffffffffffffffffff168152602001908152602001600020541180611af757506000601d60003373ffffffffffffffffffffffffffffffffffffffff1673ffffffffffffffffffffffffffffffffffffffff16815260200190815260200160002054115b5b5b1515611b0457600080fd5b60016003811115611b1157fe5b601860069054906101000a900460ff166003811115611b2c57fe5b1415611c1f57611ba1601f54611b9368056bc75e2d63100000601c60003373ffffffffffffffffffffffffffffffffffffffff1673ffffffffffffffffffffffffffffffffffffffff168152602001908152602001600020546130be90919063ffffffff16565b6130f690919063ffffffff16565b9150611bd368056bc75e2d63100000611bc584601a546130be90919063ffffffff16565b6130f690919063ffffffff16565b90506000601c60003373ffffffffffffffffffffffffffffffffffffffff1673ffffffffffffffffffffffffffffffffffffffff16815260200190815260200160002081905550611e77565b60026003811115611c2c57fe5b601860069054906101000a900460ff166003811115611c4757fe5b1415611d3a57611cbc602054611cae68056bc75e2d63100000601d60003373ffffffffffffffffffffffffffffffffffffffff1673ffffffffffffffffffffffffffffffffffffffff168152602001908152602001600020546130be90919063ffffffff16565b6130f690919063ffffffff16565b9150611cee68056bc75e2d63100000611ce084601a546130be90919063ffffffff16565b6130f690919063ffffffff16565b90506000601d60003373ffffffffffffffffffffffffffffffffffffffff1673ffffffffffffffffffffffffffffffffffffffff16815260200190815260200160002081905550611e76565b600380811115611d4657fe5b601860069054906101000a900460ff166003811115611d6157fe5b1415611e7557601d60003373ffffffffffffffffffffffffffffffffffffffff1673ffffffffffffffffffffffffffffffffffffffff16815260200190815260200160002054601c60003373ffffffffffffffffffffffffffffffffffffffff1673ffffffffffffffffffffffffffffffffffffffff168152602001908152602001600020540190506000601c60003373ffffffffffffffffffffffffffffffffffffffff1673ffffffffffffffffffffffffffffffffffffffff168152602001908152602001600020819055506000601d60003373ffffffffffffffffffffffffffffffffffffffff1673ffffffffffffffffffffffffffffffffffffffff168152602001908152602001600020819055505b5b5b611e8c81601a546130a590919063ffffffff16565b601a819055503373ffffffffffffffffffffffffffffffffffffffff166108fc829081150290604051600060405180830381858888f19350505050158015611ed8573d6000803e3d6000fd5b505050565b60068054600181600116156101000203166002900480601f016020809104026020016040519081016040528092919081815260200182805460018160011615610100020316600290048015611f735780601f10611f4857610100808354040283529160200191611f73565b820191906000526020600020905b815481529060010190602001808311611f5657829003601f168201915b505050505081565b60006001811115611f8857fe5b600560149054906101000a900460ff166001811115611fa357fe5b141515611faf57600080fd5b600b544210158015611fc25750600c5442105b151561205c576040517f08c379a00000000000000000000000000000000000000000000000000000000081526004018080602001828103825260238152602001807f497420697320746f6f206561726c79206f7220746f6f206c61746520746f206281526020017f65742e000000000000000000000000000000000000000000000000000000000081525060400191505060405180910390fd5b60003411151561206b57600080fd5b6120bd34601c60003373ffffffffffffffffffffffffffffffffffffffff1673ffffffffffffffffffffffffffffffffffffffff1681526020019081526020016000205461308990919063ffffffff16565b601c60003373ffffffffffffffffffffffffffffffffffffffff1673ffffffffffffffffffffffffffffffffffffffff16815260200190815260200160002081905550600160216000828254019250508190555061212634601f5461308990919063ffffffff16565b601f81905550565b6000600560009054906101000a900473ffffffffffffffffffffffffffffffffffffffff1673ffffffffffffffffffffffffffffffffffffffff163373ffffffffffffffffffffffffffffffffffffffff1614151561218c57600080fd5b6000600181111561219957fe5b600560149054906101000a900460ff1660018111156121b457fe5b1415156121c057600080fd5b600d54421180156121d35750600e544211155b151561226d576040517f08c379a00000000000000000000000000000000000000000000000000000000081526004018080602001828103825260378152602001807f497420697320746f6f206561726c79206f7220746f6f206c61746520746f207381526020017f7567676573742f636f6e6669726d20612077696e6e657200000000000000000081525060400191505060405180910390fd5b60011515601860039054906101000a900460ff16151514151561228f57600080fd5b60001515601860059054906101000a900460ff1615151415156122b157600080fd5b6122ba8261310c565b15156122c557600080fd5b6001601860056101000a81548160ff0219169083151502179055508160ff1660038111156122ef57fe5b60038111156122fa57fe5b601860069054906101000a900460ff16600381111561231557fe5b141561247e576001601860046101000a81548160ff02191690831515021790555061234d602054601f5461308990919063ffffffff16565b6019819055506000601954111561241c5761238a606461237c600160ff166019546130be90919063ffffffff16565b6130f690919063ffffffff16565b905080601b819055506123a8816019546130a590919063ffffffff16565b601a81905550600560009054906101000a900473ffffffffffffffffffffffffffffffffffffffff1673ffffffffffffffffffffffffffffffffffffffff166108fc829081150290604051600060405180830381858888f19350505050158015612416573d6000803e3d6000fd5b50612425565b6000601a819055505b7f9a42273d5fd9b1a1046e18ae34880b8b51e28293fe5c863cdc602582f3bd518e601860069054906101000a900460ff166040518082600381111561246657fe5b60ff16815260200191505060405180910390a1612487565b6124866124a4565b5b5050565b601860069054906101000a900460ff1681565b600c5481565b600560009054906101000a900473ffffffffffffffffffffffffffffffffffffffff1673ffffffffffffffffffffffffffffffffffffffff163373ffffffffffffffffffffffffffffffffffffffff1614151561250057600080fd5b60001515601860049054906101000a900460ff1615151415156125b1576040517f08c379a00000000000000000000000000000000000000000000000000000000081526004018080602001828103825260378152602001807f43616e6e6f742062652063616e63656c6c656420626563617573652077696e6e81526020017f657220697320616c726561647920636f6e6669726d656400000000000000000081525060400191505060405180910390fd5b600060018111156125be57fe5b600560149054906101000a900460ff1660018111156125d957fe5b1415156125e557600080fd5b6001600560146101000a81548160ff0219169083600181111561260457fe5b0217905550612620602054601f5461308990919063ffffffff16565b601a819055507fec8dc6335c2196b8a6d65cd542069150bf6373e8330640096a2074c2ba36df04600860096040518080602001806020018381038352858181546001816001161561010002031660029004815260200191508054600181600116156101000203166002900480156126d85780601f106126ad576101008083540402835291602001916126d8565b820191906000526020600020905b8154815290600101906020018083116126bb57829003601f168201915b505083810382528481815460018160011615610100020316600290048152602001915080546001816001161561010002031660029004801561275b5780601f106127305761010080835404028352916020019161275b565b820191906000526020600020905b81548152906001019060200180831161273e57829003601f168201915b505094505050505060405180910390a1565b600560009054906101000a900473ffffffffffffffffffffffffffffffffffffffff1673ffffffffffffffffffffffffffffffffffffffff163373ffffffffffffffffffffffffffffffffffffffff161415156127c957600080fd5b600073ffffffffffffffffffffffffffffffffffffffff168173ffffffffffffffffffffffffffffffffffffffff161415151561280557600080fd5b8073ffffffffffffffffffffffffffffffffffffffff16600560009054906101000a900473ffffffffffffffffffffffffffffffffffffffff1673ffffffffffffffffffffffffffffffffffffffff167f8be0079c531659141344cd1fd0a4f28419497f9722a3daafe3b4186f6b6457e060405160405180910390a380600560006101000a81548173ffffffffffffffffffffffffffffffffffffffff021916908373ffffffffffffffffffffffffffffffffffffffff16021790555050565b601b5481565b6000806000809054906101000a900473ffffffffffffffffffffffffffffffffffffffff1673ffffffffffffffffffffffffffffffffffffffff16148061293b575060006129396000809054906101000a900473ffffffffffffffffffffffffffffffffffffffff1661316f565b145b1561294c5761294a600061317a565b505b6000809054906101000a900473ffffffffffffffffffffffffffffffffffffffff1673ffffffffffffffffffffffffffffffffffffffff166338cc48316040518163ffffffff167c0100000000000000000000000000000000000000000000000000000000028152600401602060405180830381600087803b1580156129d157600080fd5b505af11580156129e5573d6000803e3d6000fd5b505050506040513d60208110156129fb57600080fd5b810190808051906020019092919050505073ffffffffffffffffffffffffffffffffffffffff16600160009054906101000a900473ffffffffffffffffffffffffffffffffffffffff1673ffffffffffffffffffffffffffffffffffffffff16141515612b63576000809054906101000a900473ffffffffffffffffffffffffffffffffffffffff1673ffffffffffffffffffffffffffffffffffffffff166338cc48316040518163ffffffff167c0100000000000000000000000000000000000000000000000000000000028152600401602060405180830381600087803b158015612ae757600080fd5b505af1158015612afb573d6000803e3d6000fd5b505050506040513d6020811015612b1157600080fd5b8101908080519060200190929190505050600160006101000a81548173ffffffffffffffffffffffffffffffffffffffff021916908373ffffffffffffffffffffffffffffffffffffffff1602179055505b600160009054906101000a900473ffffffffffffffffffffffffffffffffffffffff1673ffffffffffffffffffffffffffffffffffffffff1663c281d19e6040518163ffffffff167c0100000000000000000000000000000000000000000000000000000000028152600401602060405180830381600087803b158015612be957600080fd5b505af1158015612bfd573d6000803e3d6000fd5b505050506040513d6020811015612c1357600080fd5b8101908080519060200190929190505050905090565b612c328161318b565b15612c89576001601160016101000a81548160ff021916908315150217905550612c68600260105461308990919063ffffffff16565b601081905550612c79600080613203565b612c846000806134c8565b612d8e565b60016064036010541015612cc357612cad600160105461308990919063ffffffff16565b601081905550612cbe61012c61378d565b612d8d565b6001600560146101000a81548160ff02191690836001811115612ce257fe5b02179055507fe541b4f0e599859696632b45febeaa08da9d13440690feed224729a3e82382108160646040518080602001838152602001828103825284818151815260200191508051906020019080838360005b83811015612d51578082015181840152602081019050612d36565b50505050905090810190601f168015612d7e5780820380516001836020036101000a031916815260200191505b50935050505060405180910390a15b5b50565b6000612d9c826138df565b9050601960ff16811115612ebc57612dc0600160105461308990919063ffffffff16565b60108190555060646010541015612df157612dec61012c601860029054906101000a900460ff16613203565b612ebb565b6001600560146101000a81548160ff02191690836001811115612e1057fe5b02179055507fe541b4f0e599859696632b45febeaa08da9d13440690feed224729a3e82382108260646040518080602001838152602001828103825284818151815260200191508051906020019080838360005b83811015612e7f578082015181840152602081019050612e64565b50505050905090810190601f168015612eac5780820380516001836020036101000a031916815260200191505b50935050505060405180910390a15b5b806016819055506001601860006101000a81548160ff02191690831515021790555060011515601860019054906101000a900460ff1615151415612f0957612f086016546017546138f3565b5b5050565b6000612f18826138df565b9050601960ff1681111561303857612f3c600160105461308990919063ffffffff16565b60108190555060646010541015612f6d57612f6861012c601860029054906101000a900460ff166134c8565b613037565b6001600560146101000a81548160ff02191690836001811115612f8c57fe5b02179055507fe541b4f0e599859696632b45febeaa08da9d13440690feed224729a3e82382108260646040518080602001838152602001828103825284818151815260200191508051906020019080838360005b83811015612ffb578082015181840152602081019050612fe0565b50505050905090810190601f1680156130285780820380516001836020036101000a031916815260200191505b50935050505060405180910390a15b5b806017819055506001601860016101000a81548160ff02191690831515021790555060011515601860009054906101000a900460ff1615151415613085576130846016546017546138f3565b5b5050565b6000818301905082811015151561309c57fe5b80905092915050565b60008282111515156130b357fe5b818303905092915050565b6000808314156130d157600090506130f0565b81830290508183828115156130e257fe5b041415156130ec57fe5b8090505b92915050565b6000818381151561310357fe5b04905092915050565b600060018260ff161480613123575060028260ff16145b15613131576001905061316a565b60011515600a60009054906101000a900460ff161515148015613157575060038260ff16145b15613165576001905061316a565b600090505b919050565b6000813b9050919050565b6000613184613a79565b9050919050565b600060125460001916826040518082805190602001908083835b6020831015156131ca57805182526020820191506020810190506020830392506131a5565b6001836020036101000a038019825116818451168082178552505050505050905001915050604051809103902060001916149050919050565b60606001151582151514156133765761336f606060405190810160405280602e81526020017f6a736f6e28687474703a2f2f6170692e666f6f7462616c6c2d646174612e6f7281526020017f672f76312f66697874757265732f00000000000000000000000000000000000081525060068054600181600116156101000203166002900480601f0160208091040260200160405190810160405280929190818152602001828054600181600116156101000203166002900480156133085780601f106132dd57610100808354040283529160200191613308565b820191906000526020600020905b8154815290600101906020018083116132eb57829003601f168201915b5050505050606060405190810160405280602d81526020017f2e666978747572652e726573756c742e70656e616c747953686f6f746f75742e81526020017f676f616c73486f6d655465616d00000000000000000000000000000000000000815250613f08565b90506134af565b6134ac606060405190810160405280602e81526020017f6a736f6e28687474703a2f2f6170692e666f6f7462616c6c2d646174612e6f7281526020017f672f76312f66697874757265732f00000000000000000000000000000000000081525060068054600181600116156101000203166002900480601f01602080910402602001604051908101604052809291908181526020018280546001816001161561010002031660029004801561346c5780601f106134415761010080835404028352916020019161346c565b820191906000526020600020905b81548152906001019060200180831161344f57829003601f168201915b50505050506040805190810160405280601d81526020017f2e666978747572652e726573756c742e676f616c73486f6d655465616d000000815250613f08565b90505b6134b98184613f40565b60158160001916905550505050565b606060011515821515141561363b57613634606060405190810160405280602e81526020017f6a736f6e28687474703a2f2f6170692e666f6f7462616c6c2d646174612e6f7281526020017f672f76312f66697874757265732f00000000000000000000000000000000000081525060068054600181600116156101000203166002900480601f0160208091040260200160405190810160405280929190818152602001828054600181600116156101000203166002900480156135cd5780601f106135a2576101008083540402835291602001916135cd565b820191906000526020600020905b8154815290600101906020018083116135b057829003601f168201915b5050505050606060405190810160405280602d81526020017f2e666978747572652e726573756c742e70656e616c747953686f6f746f75742e81526020017f676f616c73417761795465616d00000000000000000000000000000000000000815250613f08565b9050613774565b613771606060405190810160405280602e81526020017f6a736f6e28687474703a2f2f6170692e666f6f7462616c6c2d646174612e6f7281526020017f672f76312f66697874757265732f00000000000000000000000000000000000081525060068054600181600116156101000203166002900480601f0160208091040260200160405190810160405280929190818152602001828054600181600116156101000203166002900480156137315780601f1061370657610100808354040283529160200191613731565b820191906000526020600020905b81548152906001019060200180831161371457829003601f168201915b50505050506040805190810160405280601d81526020017f2e666978747572652e726573756c742e676f616c73417761795465616d000000815250613f08565b90505b61377e8184613f40565b60158160001916905550505050565b60606138c5606060405190810160405280602e81526020017f6a736f6e28687474703a2f2f6170692e666f6f7462616c6c2d646174612e6f7281526020017f672f76312f66697874757265732f00000000000000000000000000000000000081525060068054600181600116156101000203166002900480601f0160208091040260200160405190810160405280929190818152602001828054600181600116156101000203166002900480156138855780601f1061385a57610100808354040283529160200191613885565b820191906000526020600020905b81548152906001019060200180831161386857829003601f168201915b50505050506040805190810160405280600881526020017f2e66697874757265000000000000000000000000000000000000000000000000815250613f08565b90506138d18183613f40565b601381600019169055505050565b60006138ec826000613f8a565b9050919050565b80821115613924576001601860066101000a81548160ff0219169083600381111561391a57fe5b0217905550613a06565b80821015613955576002601860066101000a81548160ff0219169083600381111561394b57fe5b0217905550613a05565b60011515600a60009054906101000a900460ff161515141561399a576003601860066101000a81548160ff0219169083600381111561399057fe5b0217905550613a04565b6001601860026101000a81548160ff0219169083151502179055506000601860006101000a81548160ff0219169083151502179055506000601860006101000a81548160ff0219169083151502179055506139f760006001613203565b613a03600060016134c8565b5b5b5b6001601860036101000a81548160ff0219169083151502179055507faf402f25d965dbb8046c429c4c6165a2dd4c0df5f2326f426a6a2ff7e404b01b601860069054906101000a900460ff1660405180826003811115613a6257fe5b60ff16815260200191505060405180910390a15050565b600080613a99731d3b2638a7cc9f2cb3d298a3da7a90b67e5506ed61316f565b1115613b3a57731d3b2638a7cc9f2cb3d298a3da7a90b67e5506ed6000806101000a81548173ffffffffffffffffffffffffffffffffffffffff021916908373ffffffffffffffffffffffffffffffffffffffff160217905550613b316040805190810160405280600b81526020017f6574685f6d61696e6e657400000000000000000000000000000000000000000081525061427e565b60019050613f05565b6000613b5973c03a2615d5efaf5f49f60b7bb6583eaec212fdf161316f565b1115613bfa5773c03a2615d5efaf5f49f60b7bb6583eaec212fdf16000806101000a81548173ffffffffffffffffffffffffffffffffffffffff021916908373ffffffffffffffffffffffffffffffffffffffff160217905550613bf16040805190810160405280600c81526020017f6574685f726f707374656e33000000000000000000000000000000000000000081525061427e565b60019050613f05565b6000613c1973b7a07bcf2ba2f2703b24c0691b5278999c59ac7e61316f565b1115613cba5773b7a07bcf2ba2f2703b24c0691b5278999c59ac7e6000806101000a81548173ffffffffffffffffffffffffffffffffffffffff021916908373ffffffffffffffffffffffffffffffffffffffff160217905550613cb16040805190810160405280600981526020017f6574685f6b6f76616e000000000000000000000000000000000000000000000081525061427e565b60019050613f05565b6000613cd973146500cfd35b22e4a392fe0adc06de1a1368ed4861316f565b1115613d7a5773146500cfd35b22e4a392fe0adc06de1a1368ed486000806101000a81548173ffffffffffffffffffffffffffffffffffffffff021916908373ffffffffffffffffffffffffffffffffffffffff160217905550613d716040805190810160405280600b81526020017f6574685f72696e6b65627900000000000000000000000000000000000000000081525061427e565b60019050613f05565b6000613d99736f485c8bf6fc43ea212e93bbf8ce046c7f1cb47561316f565b1115613dfc57736f485c8bf6fc43ea212e93bbf8ce046c7f1cb4756000806101000a81548173ffffffffffffffffffffffffffffffffffffffff021916908373ffffffffffffffffffffffffffffffffffffffff16021790555060019050613f05565b6000613e1b7320e12a1f859b3feae5fb2a0a32c18f5a65555bbf61316f565b1115613e7e577320e12a1f859b3feae5fb2a0a32c18f5a65555bbf6000806101000a81548173ffffffffffffffffffffffffffffffffffffffff021916908373ffffffffffffffffffffffffffffffffffffffff16021790555060019050613f05565b6000613e9d7351efaf4c8b3c9afbd5ab9f4bbc82784ab6ef8faa61316f565b1115613f00577351efaf4c8b3c9afbd5ab9f4bbc82784ab6ef8faa6000806101000a81548173ffffffffffffffffffffffffffffffffffffffff021916908373ffffffffffffffffffffffffffffffffffffffff16021790555060019050613f05565b600090505b90565b6060613f3784848460206040519081016040528060008152506020604051908101604052806000815250614298565b90509392505050565b6000613f82826040805190810160405280600381526020017f55524c0000000000000000000000000000000000000000000000000000000000815250856146ad565b905092915050565b6000606060008060008693506000925060009150600090505b835181101561425f5760307f0100000000000000000000000000000000000000000000000000000000000000028482815181101515613fde57fe5b9060200101517f010000000000000000000000000000000000000000000000000000000000000090047f0100000000000000000000000000000000000000000000000000000000000000027effffffffffffffffffffffffffffffffffffffffffffffffffffffffffffff1916101580156140f6575060397f010000000000000000000000000000000000000000000000000000000000000002848281518110151561408657fe5b9060200101517f010000000000000000000000000000000000000000000000000000000000000090047f0100000000000000000000000000000000000000000000000000000000000000027effffffffffffffffffffffffffffffffffffffffffffffffffffffffffffff191611155b156141a757811561411957600086141561410f5761425f565b8580600190039650505b600a830292506030848281518110151561412f57fe5b9060200101517f010000000000000000000000000000000000000000000000000000000000000090047f0100000000000000000000000000000000000000000000000000000000000000027f010000000000000000000000000000000000000000000000000000000000000090040383019250614252565b602e7f01000000000000000000000000000000000000000000000000000000000000000284828151811015156141d957fe5b9060200101517f010000000000000000000000000000000000000000000000000000000000000090047f0100000000000000000000000000000000000000000000000000000000000000027effffffffffffffffffffffffffffffffffffffffffffffffffffffffffffff1916141561425157600191505b5b8080600101915050613fa3565b60008611156142715785600a0a830292505b8294505050505092915050565b8060029080519060200190614294929190614c4f565b5050565b6060806060806060806060806000808e98508d97508c96508b95508a94508451865188518a518c51010101016040519080825280601f01601f1916602001820160405280156142f65781602001602082028038833980820191505090505b50935083925060009150600090505b88518110156143b857888181518110151561431c57fe5b9060200101517f010000000000000000000000000000000000000000000000000000000000000090047f010000000000000000000000000000000000000000000000000000000000000002838380600101945081518110151561437b57fe5b9060200101907effffffffffffffffffffffffffffffffffffffffffffffffffffffffffffff1916908160001a9053508080600101915050614305565b600090505b87518110156144705787818151811015156143d457fe5b9060200101517f010000000000000000000000000000000000000000000000000000000000000090047f010000000000000000000000000000000000000000000000000000000000000002838380600101945081518110151561443357fe5b9060200101907effffffffffffffffffffffffffffffffffffffffffffffffffffffffffffff1916908160001a90535080806001019150506143bd565b600090505b865181101561452857868181518110151561448c57fe5b9060200101517f010000000000000000000000000000000000000000000000000000000000000090047f01000000000000000000000000000000000000000000000000000000000000000283838060010194508151811015156144eb57fe5b9060200101907effffffffffffffffffffffffffffffffffffffffffffffffffffffffffffff1916908160001a9053508080600101915050614475565b600090505b85518110156145e057858181518110151561454457fe5b9060200101517f010000000000000000000000000000000000000000000000000000000000000090047f01000000000000000000000000000000000000000000000000000000000000000283838060010194508151811015156145a357fe5b9060200101907effffffffffffffffffffffffffffffffffffffffffffffffffffffffffffff1916908160001a905350808060010191505061452d565b600090505b84518110156146985784818151811015156145fc57fe5b9060200101517f010000000000000000000000000000000000000000000000000000000000000090047f010000000000000000000000000000000000000000000000000000000000000002838380600101945081518110151561465b57fe5b9060200101907effffffffffffffffffffffffffffffffffffffffffffffffffffffffffffff1916908160001a90535080806001019150506145e5565b82995050505050505050505095945050505050565b60008060008060009054906101000a900473ffffffffffffffffffffffffffffffffffffffff1673ffffffffffffffffffffffffffffffffffffffff16148061471f5750600061471d6000809054906101000a900473ffffffffffffffffffffffffffffffffffffffff1661316f565b145b156147305761472e600061317a565b505b6000809054906101000a900473ffffffffffffffffffffffffffffffffffffffff1673ffffffffffffffffffffffffffffffffffffffff166338cc48316040518163ffffffff167c0100000000000000000000000000000000000000000000000000000000028152600401602060405180830381600087803b1580156147b557600080fd5b505af11580156147c9573d6000803e3d6000fd5b505050506040513d60208110156147df57600080fd5b810190808051906020019092919050505073ffffffffffffffffffffffffffffffffffffffff16600160009054906101000a900473ffffffffffffffffffffffffffffffffffffffff1673ffffffffffffffffffffffffffffffffffffffff16141515614947576000809054906101000a900473ffffffffffffffffffffffffffffffffffffffff1673ffffffffffffffffffffffffffffffffffffffff166338cc48316040518163ffffffff167c0100000000000000000000000000000000000000000000000000000000028152600401602060405180830381600087803b1580156148cb57600080fd5b505af11580156148df573d6000803e3d6000fd5b505050506040513d60208110156148f557600080fd5b8101908080519060200190929190505050600160006101000a81548173ffffffffffffffffffffffffffffffffffffffff021916908373ffffffffffffffffffffffffffffffffffffffff1602179055505b600160009054906101000a900473ffffffffffffffffffffffffffffffffffffffff1673ffffffffffffffffffffffffffffffffffffffff1663524f3889856040518263ffffffff167c01000000000000000000000000000000000000000000000000000000000281526004018080602001828103825283818151815260200191508051906020019080838360005b838110156149f15780820151818401526020810190506149d6565b50505050905090810190601f168015614a1e5780820380516001836020036101000a031916815260200191505b5092505050602060405180830381600087803b158015614a3d57600080fd5b505af1158015614a51573d6000803e3d6000fd5b505050506040513d6020811015614a6757600080fd5b8101908080519060200190929190505050905062030d403a02670de0b6b3a764000001811115614a9d5760006001029150614c47565b600160009054906101000a900473ffffffffffffffffffffffffffffffffffffffff1673ffffffffffffffffffffffffffffffffffffffff1663adf59f99828787876040518563ffffffff167c0100000000000000000000000000000000000000000000000000000000028152600401808481526020018060200180602001838103835285818151815260200191508051906020019080838360005b83811015614b54578082015181840152602081019050614b39565b50505050905090810190601f168015614b815780820380516001836020036101000a031916815260200191505b50838103825284818151815260200191508051906020019080838360005b83811015614bba578082015181840152602081019050614b9f565b50505050905090810190601f168015614be75780820380516001836020036101000a031916815260200191505b50955050505050506020604051808303818588803b158015614c0857600080fd5b505af1158015614c1c573d6000803e3d6000fd5b50505050506040513d6020811015614c3357600080fd5b810190808051906020019092919050505091505b509392505050565b828054600181600116156101000203166002900490600052602060002090601f016020900481019282601f10614c9057805160ff1916838001178555614cbe565b82800160010185558215614cbe579182015b82811115614cbd578251825591602001919060010190614ca2565b5b509050614ccb9190614ccf565b5090565b614cf191905b80821115614ced576000816000905550600101614cd5565b5090565b905600a165627a7a723058207f5317a8e1d954380e1fbb7ea160cfb1914a21923f38cea8e8aea2c33ce2028e0029",
  "source": "pragma solidity ^0.4.23;\n\nimport 'zeppelin-solidity/contracts/ownership/Ownable.sol';\nimport 'zeppelin-solidity/contracts/math/SafeMath.sol';\nimport './oraclizeAPI_0.5.sol';\n\ncontract Bet is usingOraclize, Ownable {\n  using SafeMath for uint256;\n\n  enum Status { Active, Cancelled }\n  enum Winner { Undecided, Player1, Player2, Draw }\n\n  uint8 private constant FEE_PERCENT = 1;\n  uint256 private constant MIN_SUGGESTCONFIRM_DURATION = 2 hours;\n  uint256 private constant CLAIM_EXPIRES_AFTER = 8 weeks;\n  uint8 private constant MAX_GOALS = 25;\n\n  Status public status = Status.Active;\n\n  string public gameId;\n  string public group;\n  string public p1;\n  string public p2;\n  bool public isGroupPhase;\n  uint256 public timeBettingOpens;\n  uint256 public timeBettingCloses;\n  uint256 public timeMatchEnds;\n  uint256 public timeSuggestConfirmEnds;\n  uint256 public timeClaimsExpire;\n\n  event FetchMaxAttemptReached(string lastResult, uint256 MAX_FETCH_ATTEMPTS);\n  event WinnerSuggested(Winner winner);\n  event WinnerConfirmed(Winner winner);\n  event BettingCancelled(string p1, string p2);\n\n  uint256 private constant MAX_GAS_PRICE = 8e9;\n  uint256 private constant MAX_FETCH_ATTEMPTS = 100;\n  uint256 private constant FETCH_INTERVAL = 60*5; // 5min in seconds\n  uint256 private fetchAttempt = 1;\n  bool private isFetchingStarted = false;\n  bool public matchFinished = false;\n  bytes32 private hashFinished;\n\n  bytes32 private queryStatus;\n  bytes32 private queryGoalsP1;\n  bytes32 private queryGoalsP2;\n  uint private goalsP1;\n  uint private goalsP2;\n  bool private goalsP1Fetched = false;\n  bool private goalsP2Fetched = false;\n  bool private fetchingPenaltyGoals = false;\n  bool public winnerSuggested = false;\n  bool public winnerConfirmed = false;\n  bool private ownerCalledConfirmFunction = false;\n  Winner public winner; // default = 0, meaning Undecided\n\n  uint256 public pool;\n  uint256 public payoutPool;\n  uint256 public feeEarning;\n  mapping(address => uint256) public betsPlayer1;\n  mapping(address => uint256) public betsPlayer2;\n  uint256 public total;\n  uint256 public totalPlayer1;\n  uint256 public totalPlayer2;\n  uint256 public numBetsPlayer1;\n  uint256 public numBetsPlayer2;\n\n  modifier hasWei() {\n      require(msg.value > 0);\n      _;\n  }\n\n  /*\n    Time-based modifiers\n  */\n  modifier isBettingPhase() {\n      require(now >= timeBettingOpens && now < timeBettingCloses, 'It is too early or too late to bet.');\n      _;\n  }\n\n  modifier isSuggestConfirmPhase() {\n      require(now > timeMatchEnds && now <= timeSuggestConfirmEnds, 'It is too early or too late to suggest/confirm a winner');\n      _;\n  }\n\n  modifier isExpiredPhase() {\n      require(now > timeClaimsExpire);\n      _;\n  }\n\n  modifier isNotExpiredPhase() {\n      require(now < timeClaimsExpire);\n      _;\n  }\n\n  /*\n    Cancelled modifiers\n  */\n  modifier isCancelled() {\n      require(status == Status.Cancelled);\n      _;\n  }\n\n  modifier isNotCancelled() {\n      require(status == Status.Active);\n      _;\n  }\n\n  modifier canBeCancelled() {\n      require(winnerConfirmed == false, 'Cannot be cancelled because winner is already confirmed');\n      _;\n  }\n\n  /*\n    Winner check modifiers\n  */\n  modifier isWinnerSuggested() {\n      require(winnerSuggested == true);\n      _;\n  }\n\n  modifier isNotWinnerSuggested() {\n      require(winnerSuggested == false);\n      _;\n  }\n\n  modifier isWinnerConfirmed() {\n      require(winnerSuggested == true && winnerConfirmed == true);\n      _;\n  }\n\n  modifier isFirstConfirmCall() {\n      require(ownerCalledConfirmFunction == false);\n      _;\n  }\n\n  /*\n    Other modifiers\n  */\n  modifier hasClaims() {\n      require(\n        (winner == Winner.Player1 && betsPlayer1[msg.sender] > 0) ||\n        (winner == Winner.Player2 && betsPlayer2[msg.sender] > 0) ||\n        (winner == Winner.Draw && ((betsPlayer1[msg.sender] > 0) || (betsPlayer2[msg.sender] > 0)))\n      );\n      _;\n  }\n\n  modifier startFetchingIfUnstarted() {\n      if (isFetchingStarted == false) {\n          //fetchMatchStatus(0); // 0 == fetch now, without delay\n          isFetchingStarted = true;\n      }\n      _;\n  }\n\n\n\n  /*\n    Non-state-changing functions (\"view\" functions)\n  */\n  function hasBets(address _address) internal view returns (bool) {\n      if (betsPlayer1[_address] > 0 || betsPlayer2[_address] > 0) {\n          return true;\n      }\n      return false;\n  }\n\n  function isValidWinner(uint8 _winner) internal view returns (bool) {\n      if (_winner == 1 ||  _winner == 2) {\n          return true;\n      }\n      if (isGroupPhase == true && _winner == 3) {\n          return true;\n      }\n      return false;\n  }\n\n  function isFinished(string s) private view returns (bool) {\n      return keccak256(s) == hashFinished;\n  }\n\n  constructor(\n      string _gameId,\n      string _group,\n      string _p1,\n      string _p2,\n      bool _isGroupPhase,\n      uint256 _matchStart,\n      uint256 _durationBetting,\n      uint256 _durationSuggestConfirm)\n      public\n      payable\n  {\n      //oraclize_setCustomGasPrice(MAX_GAS_PRICE);\n      hashFinished = keccak256('FINISHED');\n      \n      gameId = _gameId;\n      group = _group;\n      p1 = _p1;\n      p2 = _p2;\n      isGroupPhase = _isGroupPhase;\n      _setTimes(_matchStart, _durationBetting, _durationSuggestConfirm);\n  }\n\n  // public for testing\n  function _setTimes(uint256 _matchStart, uint256 _durationBetting, uint256 _durationSuggestConfirm) public {\n      require(_durationSuggestConfirm >= MIN_SUGGESTCONFIRM_DURATION); // longer than 2h in case max match duration is reached (overtimes + penalty shootout)\n\n      // Miners can cheat on block timestamp with a tolerance of 900 seconds.\n      // That's why betting is closed 900 seconds before match start.\n      timeBettingCloses = _matchStart - 900 seconds;\n      timeBettingOpens = _matchStart - _durationBetting;\n      timeMatchEnds = timeBettingCloses + 105 minutes;\n      timeSuggestConfirmEnds = timeMatchEnds + _durationSuggestConfirm;\n      timeClaimsExpire = timeSuggestConfirmEnds + 8 weeks;\n  }\n\n  /* OLD BET FUNCTION: gas: 93620,  93627, 94136 */\n  /* OLD BET FUNCTION: KOVAN: 54857 */\n  function betOnPlayer1() external payable\n      isNotCancelled\n      isBettingPhase\n      hasWei\n  {\n      betsPlayer1[msg.sender] = betsPlayer1[msg.sender].add(msg.value);\n      numBetsPlayer1 += 1;\n      totalPlayer1 = totalPlayer1.add(msg.value);\n  }\n\n  function betOnPlayer2() external payable\n      isNotCancelled\n      isBettingPhase\n      hasWei\n  {\n      betsPlayer2[msg.sender] = betsPlayer2[msg.sender].add(msg.value);\n      numBetsPlayer2 += 1;\n      totalPlayer2 = totalPlayer2.add(msg.value);\n  }\n\n\n  function fetchMatchStatus(uint256 _delay) internal {\n      string memory query = strConcat('json(http://api.football-data.org/v1/fixtures/', gameId, '.fixture');\n      queryStatus = fetch(query, _delay);\n  }\n\n  function fetchGoalsP1(uint256 _delay, bool _isPenalty) internal {\n      string memory query;\n\n      if (_isPenalty == true) {\n        query = strConcat('json(http://api.football-data.org/v1/fixtures/', gameId, '.fixture.result.penaltyShootout.goalsHomeTeam');\n      } else {\n        query = strConcat('json(http://api.football-data.org/v1/fixtures/', gameId, '.fixture.result.goalsHomeTeam');\n      }\n      \n      queryGoalsP2 = fetch(query, _delay);\n  }\n\n  function fetchGoalsP2(uint256 _delay, bool _isPenalty) internal {\n      string memory query;\n\n      if (_isPenalty == true) {\n        query = strConcat('json(http://api.football-data.org/v1/fixtures/', gameId, '.fixture.result.penaltyShootout.goalsAwayTeam');\n      } else {\n        query = strConcat('json(http://api.football-data.org/v1/fixtures/', gameId, '.fixture.result.goalsAwayTeam');\n      }\n\n      queryGoalsP2 = fetch(query, _delay);\n  }\n\n  function fetch(string _query, uint256 _delay) internal\n      returns (bytes32)\n  {\n      return oraclize_query(_delay, \"URL\", _query);  \n  }\n\n  function __callback(bytes32 myid, string response) public\n      isNotCancelled\n      isSuggestConfirmPhase\n      isNotWinnerSuggested\n  {\n      require(msg.sender == oraclize_cbAddress());\n      \n      // Keeping track of query IDs because one query can result in more than one callback.\n      // Once callback received, query tracker set to 0 to prevent double handling of response.\n      // See https://docs.oraclize.it/#ethereum-best-practices-mapping-query-ids\n      if (myid == queryStatus && matchFinished == false) {\n          queryStatus = 0x0;\n          _handleMatchStatusResponse(response);\n      } else if (myid == queryGoalsP1) {\n          queryGoalsP1 = 0x0;\n          _handleGoalsP1Response(response);\n      } else if (myid == queryGoalsP2) {\n          queryGoalsP2 = 0x0;\n          _handleGoalsP2Response(response);\n      }\n  }\n\n  function _handleMatchStatusResponse(string response) private {\n      if (isFinished(response)) {\n          matchFinished = true;\n\n          fetchAttempt = fetchAttempt.add(2);\n          fetchGoalsP1(0, false);\n          fetchGoalsP2(0, false);\n      } else if (fetchAttempt < (MAX_FETCH_ATTEMPTS-1)) {\n          fetchAttempt = fetchAttempt.add(1);\n          fetchMatchStatus(FETCH_INTERVAL);\n      } else {\n          status = Status.Cancelled;\n          emit FetchMaxAttemptReached(response, MAX_FETCH_ATTEMPTS);\n      }\n  }\n\n  function _handleGoalsP1Response(string strGoals) private {\n      uint goals = parseInt(strGoals);\n      if (goals > MAX_GOALS) {\n          fetchAttempt = fetchAttempt.add(1);\n          if (fetchAttempt < MAX_FETCH_ATTEMPTS) {\n              fetchGoalsP1(FETCH_INTERVAL, fetchingPenaltyGoals);\n          } else {\n              status = Status.Cancelled;\n              emit FetchMaxAttemptReached(strGoals, MAX_FETCH_ATTEMPTS);\n          }\n      }\n\n      goalsP1 = goals;\n      goalsP1Fetched = true;\n\n      if (goalsP2Fetched == true) {\n          _suggestWinner(goalsP1, goalsP2);\n      }\n  }\n\n  function _handleGoalsP2Response(string strGoals) private {\n      uint goals = parseInt(strGoals);\n      if (goals > MAX_GOALS) {\n          fetchAttempt = fetchAttempt.add(1);\n          if (fetchAttempt < MAX_FETCH_ATTEMPTS) {\n              fetchGoalsP2(FETCH_INTERVAL, fetchingPenaltyGoals);\n          } else {\n              status = Status.Cancelled;\n              emit FetchMaxAttemptReached(strGoals, MAX_FETCH_ATTEMPTS);\n          }\n      }\n      \n      goalsP2 = goals;\n      goalsP2Fetched = true;\n\n      if (goalsP1Fetched == true) {\n          _suggestWinner(goalsP1, goalsP2);\n      }\n  }\n\n  function _suggestWinner(uint _goalsP1, uint _goalsP2) private {\n      if (_goalsP1 > _goalsP2) {\n          winner = Winner.Player1;\n      } else if (_goalsP1 < _goalsP2) {\n          winner = Winner.Player2;\n      } else {\n          // same amount of goals\n          if (isGroupPhase == true) {\n              winner = Winner.Draw;\n          } else {\n              // We are in knockout-stage, thus Winner.Draw not possible\n              // --> Fetch penalty shootout goals\n              // If still P1 and P2 have same amount of goals (shouldn't happen), MAX_FETCH_ATTEMPTS should eventually cancel the bet\n              fetchingPenaltyGoals = true;\n              goalsP1Fetched = false;\n              goalsP1Fetched = false;\n              fetchGoalsP1(0, true);\n              fetchGoalsP2(0, true);\n          }\n      }\n\n      winnerSuggested = true;\n      emit WinnerSuggested(winner);\n  }\n\n  // For testing\n  function suggestWinner(uint8 _winnerAsInt) external\n      onlyOwner\n      isNotCancelled\n      isSuggestConfirmPhase\n      isNotWinnerSuggested\n  {\n      winner = Winner(_winnerAsInt);\n      winnerSuggested = true;\n      emit WinnerSuggested(winner);\n  }\n\n  function confirmWinner(uint8 _winnerAsInt) external\n      onlyOwner\n      isNotCancelled\n      isSuggestConfirmPhase\n      isWinnerSuggested\n      isFirstConfirmCall\n  {\n      require(isValidWinner(_winnerAsInt));\n      ownerCalledConfirmFunction = true;\n\n      if (winner == Winner(_winnerAsInt)) {\n          winnerConfirmed = true;\n\n          pool = totalPlayer1.add(totalPlayer2);\n\n          if (pool > 0) {\n              uint256 feeAmount = pool.mul(FEE_PERCENT).div(100);\n              feeEarning = feeAmount;\n              payoutPool = pool.sub(feeAmount);\n              owner.transfer(feeAmount);\n          } else {\n              payoutPool = 0;\n          }\n\n          emit WinnerConfirmed(winner);\n      } else {\n          cancel();\n      }\n  }\n\n  function cancel() public\n      onlyOwner\n      canBeCancelled\n      isNotCancelled\n  {\n      status = Status.Cancelled;\n      payoutPool = totalPlayer1.add(totalPlayer2);\n\n      emit BettingCancelled(p1, p2);\n  }\n\n  function claimWinOrDraw() external\n      isNotCancelled\n      isNotExpiredPhase\n      startFetchingIfUnstarted\n      isWinnerConfirmed\n      hasClaims\n  {\n      uint256 wonShare;\n      uint256 payout;\n      if (winner == Winner.Player1){\n          wonShare = betsPlayer1[msg.sender].mul(1e20).div(totalPlayer1);//.div(1e20)\n          payout = payoutPool.mul(wonShare).div(1e20);\n          betsPlayer1[msg.sender] = 0;\n      } else if (winner == Winner.Player2) {\n          wonShare = betsPlayer2[msg.sender].mul(1e20).div(totalPlayer2);//.div(1e20)\n          payout = payoutPool.mul(wonShare).div(1e20);\n          betsPlayer2[msg.sender] = 0;\n      } else if (winner == Winner.Draw) {\n          payout = betsPlayer1[msg.sender] + betsPlayer2[msg.sender];\n          betsPlayer1[msg.sender] = 0;\n          betsPlayer2[msg.sender] = 0;\n      }\n      payoutPool = payoutPool.sub(payout);\n\n      msg.sender.transfer(payout);\n  }\n\n  function claimCancelled() external\n      isCancelled\n      isNotExpiredPhase\n      hasClaims\n  {\n      uint256 claim = betsPlayer1[msg.sender] + betsPlayer2[msg.sender]; // claim > 0 since check in hasClaims\n\n      betsPlayer1[msg.sender] = 0;\n      betsPlayer2[msg.sender] = 0;\n      payoutPool = payoutPool.sub(claim);\n      \n      msg.sender.transfer(claim);\n  }\n\n  function claimExpired() external\n      onlyOwner\n      isExpiredPhase\n  {\n      payoutPool = 0;\n\n      msg.sender.transfer(address(this).balance);\n  }\n\n  /* fallback function */\n  function () public payable {\n      revert('Function not found.'); \n  }\n\n  // for testing\n  // function suggestWinner(uint8 _winnerAsInt) external onlyOwner withinSuggestConfirmWinnerTime {\n  //     require(isValidWinner(_winnerAsInt));\n  //     suggestedWinner = Winner(_winnerAsInt);\n\n  //     phase = Phase.WinnerSuggested;\n  // }\n}\n",
  "sourcePath": "/home/mo/dev/worldcup-betting/contracts/Bet.sol",
  "compiler": {
    "name": "solc",
    "version": "0.4.23+commit.124ca40d.Emscripten.clang"
  },
  "schemaVersion": "2.0.0",
  "updatedAt": "2018-05-14T09:30:04.819Z"
}