{
  "contractName": "Bet",
  "abi": [
    {
      "constant": true,
      "inputs": [],
      "name": "pool",
      "outputs": [
        {
          "name": "",
          "type": "uint256"
        }
      ],
      "payable": false,
      "stateMutability": "view",
      "type": "function"
    },
    {
      "constant": true,
      "inputs": [],
      "name": "status",
      "outputs": [
        {
          "name": "",
          "type": "uint8"
        }
      ],
      "payable": false,
      "stateMutability": "view",
      "type": "function"
    },
    {
      "constant": true,
      "inputs": [],
      "name": "matchFinished",
      "outputs": [
        {
          "name": "",
          "type": "bool"
        }
      ],
      "payable": false,
      "stateMutability": "view",
      "type": "function"
    },
    {
      "constant": true,
      "inputs": [],
      "name": "group",
      "outputs": [
        {
          "name": "",
          "type": "string"
        }
      ],
      "payable": false,
      "stateMutability": "view",
      "type": "function"
    },
    {
      "constant": true,
      "inputs": [],
      "name": "total",
      "outputs": [
        {
          "name": "",
          "type": "uint256"
        }
      ],
      "payable": false,
      "stateMutability": "view",
      "type": "function"
    },
    {
      "constant": true,
      "inputs": [],
      "name": "timeMatchEnds",
      "outputs": [
        {
          "name": "",
          "type": "uint256"
        }
      ],
      "payable": false,
      "stateMutability": "view",
      "type": "function"
    },
    {
      "constant": true,
      "inputs": [
        {
          "name": "",
          "type": "address"
        }
      ],
      "name": "betsPlayer2",
      "outputs": [
        {
          "name": "",
          "type": "uint256"
        }
      ],
      "payable": false,
      "stateMutability": "view",
      "type": "function"
    },
    {
      "constant": true,
      "inputs": [],
      "name": "payoutPool",
      "outputs": [
        {
          "name": "",
          "type": "uint256"
        }
      ],
      "payable": false,
      "stateMutability": "view",
      "type": "function"
    },
    {
      "constant": true,
      "inputs": [],
      "name": "totalPlayer2",
      "outputs": [
        {
          "name": "",
          "type": "uint256"
        }
      ],
      "payable": false,
      "stateMutability": "view",
      "type": "function"
    },
    {
      "constant": true,
      "inputs": [],
      "name": "timeSuggestConfirmEnds",
      "outputs": [
        {
          "name": "",
          "type": "uint256"
        }
      ],
      "payable": false,
      "stateMutability": "view",
      "type": "function"
    },
    {
      "constant": true,
      "inputs": [],
      "name": "numBetsPlayer1",
      "outputs": [
        {
          "name": "",
          "type": "uint256"
        }
      ],
      "payable": false,
      "stateMutability": "view",
      "type": "function"
    },
    {
      "constant": true,
      "inputs": [],
      "name": "totalPlayer1",
      "outputs": [
        {
          "name": "",
          "type": "uint256"
        }
      ],
      "payable": false,
      "stateMutability": "view",
      "type": "function"
    },
    {
      "constant": true,
      "inputs": [],
      "name": "p2",
      "outputs": [
        {
          "name": "",
          "type": "string"
        }
      ],
      "payable": false,
      "stateMutability": "view",
      "type": "function"
    },
    {
      "constant": true,
      "inputs": [],
      "name": "timeClaimsExpire",
      "outputs": [
        {
          "name": "",
          "type": "uint256"
        }
      ],
      "payable": false,
      "stateMutability": "view",
      "type": "function"
    },
    {
      "constant": true,
      "inputs": [],
      "name": "isGroupPhase",
      "outputs": [
        {
          "name": "",
          "type": "bool"
        }
      ],
      "payable": false,
      "stateMutability": "view",
      "type": "function"
    },
    {
      "constant": true,
      "inputs": [],
      "name": "owner",
      "outputs": [
        {
          "name": "",
          "type": "address"
        }
      ],
      "payable": false,
      "stateMutability": "view",
      "type": "function"
    },
    {
      "constant": true,
      "inputs": [],
      "name": "timeBettingOpens",
      "outputs": [
        {
          "name": "",
          "type": "uint256"
        }
      ],
      "payable": false,
      "stateMutability": "view",
      "type": "function"
    },
    {
      "constant": true,
      "inputs": [],
      "name": "numBetsPlayer2",
      "outputs": [
        {
          "name": "",
          "type": "uint256"
        }
      ],
      "payable": false,
      "stateMutability": "view",
      "type": "function"
    },
    {
      "constant": true,
      "inputs": [],
      "name": "p1",
      "outputs": [
        {
          "name": "",
          "type": "string"
        }
      ],
      "payable": false,
      "stateMutability": "view",
      "type": "function"
    },
    {
      "constant": true,
      "inputs": [
        {
          "name": "",
          "type": "address"
        }
      ],
      "name": "betsPlayer1",
      "outputs": [
        {
          "name": "",
          "type": "uint256"
        }
      ],
      "payable": false,
      "stateMutability": "view",
      "type": "function"
    },
    {
      "constant": true,
      "inputs": [],
      "name": "gameId",
      "outputs": [
        {
          "name": "",
          "type": "string"
        }
      ],
      "payable": false,
      "stateMutability": "view",
      "type": "function"
    },
    {
      "constant": true,
      "inputs": [],
      "name": "winner",
      "outputs": [
        {
          "name": "",
          "type": "uint8"
        }
      ],
      "payable": false,
      "stateMutability": "view",
      "type": "function"
    },
    {
      "constant": true,
      "inputs": [],
      "name": "timeBettingCloses",
      "outputs": [
        {
          "name": "",
          "type": "uint256"
        }
      ],
      "payable": false,
      "stateMutability": "view",
      "type": "function"
    },
    {
      "constant": false,
      "inputs": [
        {
          "name": "newOwner",
          "type": "address"
        }
      ],
      "name": "transferOwnership",
      "outputs": [],
      "payable": false,
      "stateMutability": "nonpayable",
      "type": "function"
    },
    {
      "inputs": [
        {
          "name": "_gameId",
          "type": "string"
        },
        {
          "name": "_group",
          "type": "string"
        },
        {
          "name": "_p1",
          "type": "string"
        },
        {
          "name": "_p2",
          "type": "string"
        },
        {
          "name": "_isGroupPhase",
          "type": "bool"
        },
        {
          "name": "_matchStart",
          "type": "uint256"
        },
        {
          "name": "_durationBetting",
          "type": "uint256"
        },
        {
          "name": "_durationSuggestConfirm",
          "type": "uint256"
        }
      ],
      "payable": true,
      "stateMutability": "payable",
      "type": "constructor"
    },
    {
      "payable": true,
      "stateMutability": "payable",
      "type": "fallback"
    },
    {
      "anonymous": false,
      "inputs": [
        {
          "indexed": false,
          "name": "lastResult",
          "type": "string"
        },
        {
          "indexed": false,
          "name": "MAX_FETCH_ATTEMPTS",
          "type": "uint256"
        }
      ],
      "name": "FetchMaxAttemptReached",
      "type": "event"
    },
    {
      "anonymous": false,
      "inputs": [
        {
          "indexed": false,
          "name": "winner",
          "type": "uint8"
        }
      ],
      "name": "WinnerSuggested",
      "type": "event"
    },
    {
      "anonymous": false,
      "inputs": [
        {
          "indexed": false,
          "name": "winner",
          "type": "uint8"
        }
      ],
      "name": "WinnerConfirmed",
      "type": "event"
    },
    {
      "anonymous": false,
      "inputs": [
        {
          "indexed": false,
          "name": "p1",
          "type": "string"
        },
        {
          "indexed": false,
          "name": "p2",
          "type": "string"
        }
      ],
      "name": "BettingCancelled",
      "type": "event"
    },
    {
      "anonymous": false,
      "inputs": [
        {
          "indexed": true,
          "name": "previousOwner",
          "type": "address"
        },
        {
          "indexed": true,
          "name": "newOwner",
          "type": "address"
        }
      ],
      "name": "OwnershipTransferred",
      "type": "event"
    },
    {
      "constant": false,
      "inputs": [
        {
          "name": "_matchStart",
          "type": "uint256"
        },
        {
          "name": "_durationBetting",
          "type": "uint256"
        },
        {
          "name": "_durationSuggestConfirm",
          "type": "uint256"
        }
      ],
      "name": "_setTimes",
      "outputs": [],
      "payable": false,
      "stateMutability": "nonpayable",
      "type": "function"
    },
    {
      "constant": false,
      "inputs": [],
      "name": "betOnPlayer1",
      "outputs": [],
      "payable": true,
      "stateMutability": "payable",
      "type": "function"
    },
    {
      "constant": false,
      "inputs": [],
      "name": "betOnPlayer2",
      "outputs": [],
      "payable": true,
      "stateMutability": "payable",
      "type": "function"
    },
    {
      "constant": false,
      "inputs": [
        {
          "name": "myid",
          "type": "bytes32"
        },
        {
          "name": "response",
          "type": "string"
        }
      ],
      "name": "__callback",
      "outputs": [],
      "payable": false,
      "stateMutability": "nonpayable",
      "type": "function"
    },
    {
      "constant": false,
      "inputs": [
        {
          "name": "myid",
          "type": "bytes32"
        },
        {
          "name": "result",
          "type": "string"
        },
        {
          "name": "proof",
          "type": "bytes"
        }
      ],
      "name": "__callback",
      "outputs": [],
      "payable": false,
      "stateMutability": "nonpayable",
      "type": "function"
    },
    {
      "constant": false,
      "inputs": [
        {
          "name": "_winnerAsInt",
          "type": "uint8"
        }
      ],
      "name": "confirmWinner",
      "outputs": [],
      "payable": false,
      "stateMutability": "nonpayable",
      "type": "function"
    },
    {
      "constant": false,
      "inputs": [],
      "name": "cancel",
      "outputs": [],
      "payable": false,
      "stateMutability": "nonpayable",
      "type": "function"
    },
    {
      "constant": false,
      "inputs": [],
      "name": "claimWinOrDraw",
      "outputs": [],
      "payable": false,
      "stateMutability": "nonpayable",
      "type": "function"
    },
    {
      "constant": false,
      "inputs": [],
      "name": "claimCancelled",
      "outputs": [],
      "payable": false,
      "stateMutability": "nonpayable",
      "type": "function"
    },
    {
      "constant": false,
      "inputs": [],
      "name": "claimExpired",
      "outputs": [],
      "payable": false,
      "stateMutability": "nonpayable",
      "type": "function"
    }
  ],
  "bytecode": "0x60806040526000600560146101000a81548160ff021916908360018111156200002457fe5b021790555060016010556000601160006101000a81548160ff0219169083151502179055506000601160016101000a81548160ff0219169083151502179055506000601860006101000a81548160ff0219169083151502179055506000601860016101000a81548160ff0219169083151502179055506000601860026101000a81548160ff0219169083151502179055506000601860036101000a81548160ff021916908315150217905550604051620049bc380380620049bc833981018060405281019080805182019291906020018051820192919060200180518201929190602001805182019291906020018051906020019092919080519060200190929190805190602001909291908051906020019092919050505033600560006101000a81548173ffffffffffffffffffffffffffffffffffffffff021916908373ffffffffffffffffffffffffffffffffffffffff16021790555060405180807f46494e495348454400000000000000000000000000000000000000000000000081525060080190506040518091039020601281600019169055508760069080519060200190620001d6929190620002ba565b508660079080519060200190620001ef929190620002ba565b50856008908051906020019062000208929190620002ba565b50846009908051906020019062000221929190620002ba565b5083600a60006101000a81548160ff0219169083151502179055506200025883838362000266640100000000026401000000009004565b505050505050505062000369565b6202a30081101515156200027957600080fd5b6103848303600c8190555081600c5403600b8190555061189c600c5401600d8190555080600d5401600e819055506249d400600e5401600f81905550505050565b828054600181600116156101000203166002900490600052602060002090601f016020900481019282601f10620002fd57805160ff19168380011785556200032e565b828001600101855582156200032e579182015b828111156200032d57825182559160200191906001019062000310565b5b5090506200033d919062000341565b5090565b6200036691905b808211156200036257600081600090555060010162000348565b5090565b90565b61464380620003796000396000f3006080604052600436106101ac576000357c0100000000000000000000000000000000000000000000000000000000900463ffffffff16806316f0115b1461021a578063200d2ed214610245578063215995881461027e57806327dc297e146102ad57806329e7ef2d146103245780632ddbd13a146103b457806338bbfa50146103df578063465f80c81461049c57806346ac2054146104c75780634af415351461051e5780636273106a146105285780637299551f146105535780637583dc651461057e57806377313b50146105bf5780637d99dd78146105ea5780637e670b541461061557806381d01ed314610640578063833c3890146106d057806385e4fee3146106fb5780638da5cb5b1461072a578063934b495b14610781578063a5c93cae146107ac578063c2a2747b146107d7578063c75fd34114610867578063c80c975b1461087e578063d2ff19af14610895578063d430e3d7146108ec578063d7c81b5514610903578063d80a600614610993578063de477c7f1461099d578063dfbf53ae146109cd578063e41d9cb714610a06578063ea8a1af014610a31578063f2fde38b14610a48575b6040517f08c379a00000000000000000000000000000000000000000000000000000000081526004018080602001828103825260138152602001807f46756e6374696f6e206e6f7420666f756e642e0000000000000000000000000081525060200191505060405180910390fd5b34801561022657600080fd5b5061022f610a8b565b6040518082815260200191505060405180910390f35b34801561025157600080fd5b5061025a610a91565b6040518082600181111561026a57fe5b60ff16815260200191505060405180910390f35b34801561028a57600080fd5b50610293610aa4565b604051808215151515815260200191505060405180910390f35b3480156102b957600080fd5b506103226004803603810190808035600019169060200190929190803590602001908201803590602001908080601f0160208091040260200160405190810160405280939291908181526020018383808284378201915050505050509192919290505050610ab7565b005b34801561033057600080fd5b50610339610ca9565b6040518080602001828103825283818151815260200191508051906020019080838360005b8381101561037957808201518184015260208101905061035e565b50505050905090810190601f1680156103a65780820380516001836020036101000a031916815260200191505b509250505060405180910390f35b3480156103c057600080fd5b506103c9610d47565b6040518082815260200191505060405180910390f35b3480156103eb57600080fd5b5061049a6004803603810190808035600019169060200190929190803590602001908201803590602001908080601f0160208091040260200160405190810160405280939291908181526020018383808284378201915050505050509192919290803590602001908201803590602001908080601f0160208091040260200160405190810160405280939291908181526020018383808284378201915050505050509192919290505050610d4d565b005b3480156104a857600080fd5b506104b1610d52565b6040518082815260200191505060405180910390f35b3480156104d357600080fd5b50610508600480360381019080803573ffffffffffffffffffffffffffffffffffffffff169060200190929190505050610d58565b6040518082815260200191505060405180910390f35b610526610d70565b005b34801561053457600080fd5b5061053d610f23565b6040518082815260200191505060405180910390f35b34801561055f57600080fd5b50610568610f29565b6040518082815260200191505060405180910390f35b34801561058a57600080fd5b506105bd600480360381019080803590602001909291908035906020019092919080359060200190929190505050610f2f565b005b3480156105cb57600080fd5b506105d4610f82565b6040518082815260200191505060405180910390f35b3480156105f657600080fd5b506105ff610f88565b6040518082815260200191505060405180910390f35b34801561062157600080fd5b5061062a610f8e565b6040518082815260200191505060405180910390f35b34801561064c57600080fd5b50610655610f94565b6040518080602001828103825283818151815260200191508051906020019080838360005b8381101561069557808201518184015260208101905061067a565b50505050905090810190601f1680156106c25780820380516001836020036101000a031916815260200191505b509250505060405180910390f35b3480156106dc57600080fd5b506106e5611032565b6040518082815260200191505060405180910390f35b34801561070757600080fd5b50610710611038565b604051808215151515815260200191505060405180910390f35b34801561073657600080fd5b5061073f61104b565b604051808273ffffffffffffffffffffffffffffffffffffffff1673ffffffffffffffffffffffffffffffffffffffff16815260200191505060405180910390f35b34801561078d57600080fd5b50610796611071565b6040518082815260200191505060405180910390f35b3480156107b857600080fd5b506107c1611077565b6040518082815260200191505060405180910390f35b3480156107e357600080fd5b506107ec61107d565b6040518080602001828103825283818151815260200191508051906020019080838360005b8381101561082c578082015181840152602081019050610811565b50505050905090810190601f1680156108595780820380516001836020036101000a031916815260200191505b509250505060405180910390f35b34801561087357600080fd5b5061087c61111b565b005b34801561088a57600080fd5b506108936111ef565b005b3480156108a157600080fd5b506108d6600480360381019080803573ffffffffffffffffffffffffffffffffffffffff169060200190929190505050611564565b6040518082815260200191505060405180910390f35b3480156108f857600080fd5b5061090161157c565b005b34801561090f57600080fd5b50610918611bdd565b6040518080602001828103825283818151815260200191508051906020019080838360005b8381101561095857808201518184015260208101905061093d565b50505050905090810190601f1680156109855780820380516001836020036101000a031916815260200191505b509250505060405180910390f35b61099b611c7b565b005b3480156109a957600080fd5b506109cb600480360381019080803560ff169060200190929190505050611e2e565b005b3480156109d957600080fd5b506109e2612147565b604051808260038111156109f257fe5b60ff16815260200191505060405180910390f35b348015610a1257600080fd5b50610a1b61215a565b6040518082815260200191505060405180910390f35b348015610a3d57600080fd5b50610a46612160565b005b348015610a5457600080fd5b50610a89600480360381019080803573ffffffffffffffffffffffffffffffffffffffff169060200190929190505050612429565b005b60195481565b600560149054906101000a900460ff1681565b601160019054906101000a900460ff1681565b60006001811115610ac457fe5b600560149054906101000a900460ff166001811115610adf57fe5b141515610aeb57600080fd5b600d5442118015610afe5750600e544211155b1515610b98576040517f08c379a00000000000000000000000000000000000000000000000000000000081526004018080602001828103825260378152602001807f497420697320746f6f206561726c79206f7220746f6f206c61746520746f207381526020017f7567676573742f636f6e6669726d20612077696e6e657200000000000000000081525060400191505060405180910390fd5b60001515601860029054906101000a900460ff161515141515610bba57600080fd5b610bc2612581565b73ffffffffffffffffffffffffffffffffffffffff163373ffffffffffffffffffffffffffffffffffffffff16141515610bfb57600080fd5b601354600019168260001916148015610c27575060001515601160019054906101000a900460ff161515145b15610c4957600060010260138160001916905550610c44816128df565b610ca5565b6014546000191682600019161415610c7857600060010260148160001916905550610c7381612a45565b610ca4565b6015546000191682600019161415610ca357600060010260158160001916905550610ca281612bb1565b5b5b5b5050565b60078054600181600116156101000203166002900480601f016020809104026020016040519081016040528092919081815260200182805460018160011615610100020316600290048015610d3f5780601f10610d1457610100808354040283529160200191610d3f565b820191906000526020600020905b815481529060010190602001808311610d2257829003601f168201915b505050505081565b601d5481565b505050565b600d5481565b601c6020528060005260406000206000915090505481565b60006001811115610d7d57fe5b600560149054906101000a900460ff166001811115610d9857fe5b141515610da457600080fd5b600b544210158015610db75750600c5442105b1515610e51576040517f08c379a00000000000000000000000000000000000000000000000000000000081526004018080602001828103825260238152602001807f497420697320746f6f206561726c79206f7220746f6f206c61746520746f206281526020017f65742e000000000000000000000000000000000000000000000000000000000081525060400191505060405180910390fd5b600034111515610e6057600080fd5b610eb234601c60003373ffffffffffffffffffffffffffffffffffffffff1673ffffffffffffffffffffffffffffffffffffffff16815260200190815260200160002054612d1d90919063ffffffff16565b601c60003373ffffffffffffffffffffffffffffffffffffffff1673ffffffffffffffffffffffffffffffffffffffff168152602001908152602001600020819055506001602160008282540192505081905550610f1b34601f54612d1d90919063ffffffff16565b601f81905550565b601a5481565b601f5481565b6202a3008110151515610f4157600080fd5b6103848303600c8190555081600c5403600b8190555061189c600c5401600d8190555080600d5401600e819055506249d400600e5401600f81905550505050565b600e5481565b60205481565b601e5481565b60098054600181600116156101000203166002900480601f01602080910402602001604051908101604052809291908181526020018280546001816001161561010002031660029004801561102a5780601f10610fff5761010080835404028352916020019161102a565b820191906000526020600020905b81548152906001019060200180831161100d57829003601f168201915b505050505081565b600f5481565b600a60009054906101000a900460ff1681565b600560009054906101000a900473ffffffffffffffffffffffffffffffffffffffff1681565b600b5481565b60215481565b60088054600181600116156101000203166002900480601f0160208091040260200160405190810160405280929190818152602001828054600181600116156101000203166002900480156111135780601f106110e857610100808354040283529160200191611113565b820191906000526020600020905b8154815290600101906020018083116110f657829003601f168201915b505050505081565b600560009054906101000a900473ffffffffffffffffffffffffffffffffffffffff1673ffffffffffffffffffffffffffffffffffffffff163373ffffffffffffffffffffffffffffffffffffffff1614151561117757600080fd5b600f544211151561118757600080fd5b6000601a819055503373ffffffffffffffffffffffffffffffffffffffff166108fc3073ffffffffffffffffffffffffffffffffffffffff16319081150290604051600060405180830381858888f193505050501580156111ec573d6000803e3d6000fd5b50565b60006001808111156111fd57fe5b600560149054906101000a900460ff16600181111561121857fe5b14151561122457600080fd5b600f544210151561123457600080fd5b6001600381111561124157fe5b601860049054906101000a900460ff16600381111561125c57fe5b1480156112a857506000601b60003373ffffffffffffffffffffffffffffffffffffffff1673ffffffffffffffffffffffffffffffffffffffff16815260200190815260200160002054115b806113235750600260038111156112bb57fe5b601860049054906101000a900460ff1660038111156112d657fe5b14801561132257506000601c60003373ffffffffffffffffffffffffffffffffffffffff1673ffffffffffffffffffffffffffffffffffffffff16815260200190815260200160002054115b5b806113e7575060038081111561133557fe5b601860049054906101000a900460ff16600381111561135057fe5b1480156113e657506000601b60003373ffffffffffffffffffffffffffffffffffffffff1673ffffffffffffffffffffffffffffffffffffffff1681526020019081526020016000205411806113e557506000601c60003373ffffffffffffffffffffffffffffffffffffffff1673ffffffffffffffffffffffffffffffffffffffff16815260200190815260200160002054115b5b5b15156113f257600080fd5b601c60003373ffffffffffffffffffffffffffffffffffffffff1673ffffffffffffffffffffffffffffffffffffffff16815260200190815260200160002054601b60003373ffffffffffffffffffffffffffffffffffffffff1673ffffffffffffffffffffffffffffffffffffffff168152602001908152602001600020540190506000601b60003373ffffffffffffffffffffffffffffffffffffffff1673ffffffffffffffffffffffffffffffffffffffff168152602001908152602001600020819055506000601c60003373ffffffffffffffffffffffffffffffffffffffff1673ffffffffffffffffffffffffffffffffffffffff1681526020019081526020016000208190555061151481601a54612d3990919063ffffffff16565b601a819055503373ffffffffffffffffffffffffffffffffffffffff166108fc829081150290604051600060405180830381858888f19350505050158015611560573d6000803e3d6000fd5b5050565b601b6020528060005260406000206000915090505481565b6000806000600181111561158c57fe5b600560149054906101000a900460ff1660018111156115a757fe5b1415156115b357600080fd5b600f54421015156115c357600080fd5b60001515601160009054906101000a900460ff1615151415611605576115e96000612d52565b6001601160006101000a81548160ff0219169083151502179055505b60011515601860029054906101000a900460ff16151514801561163b575060011515601860039054906101000a900460ff161515145b151561164657600080fd5b6001600381111561165357fe5b601860049054906101000a900460ff16600381111561166e57fe5b1480156116ba57506000601b60003373ffffffffffffffffffffffffffffffffffffffff1673ffffffffffffffffffffffffffffffffffffffff16815260200190815260200160002054115b806117355750600260038111156116cd57fe5b601860049054906101000a900460ff1660038111156116e857fe5b14801561173457506000601c60003373ffffffffffffffffffffffffffffffffffffffff1673ffffffffffffffffffffffffffffffffffffffff16815260200190815260200160002054115b5b806117f9575060038081111561174757fe5b601860049054906101000a900460ff16600381111561176257fe5b1480156117f857506000601b60003373ffffffffffffffffffffffffffffffffffffffff1673ffffffffffffffffffffffffffffffffffffffff1681526020019081526020016000205411806117f757506000601c60003373ffffffffffffffffffffffffffffffffffffffff1673ffffffffffffffffffffffffffffffffffffffff16815260200190815260200160002054115b5b5b151561180457600080fd5b6001600381111561181157fe5b601860049054906101000a900460ff16600381111561182c57fe5b141561191f576118a1601e5461189368056bc75e2d63100000601b60003373ffffffffffffffffffffffffffffffffffffffff1673ffffffffffffffffffffffffffffffffffffffff16815260200190815260200160002054612ea490919063ffffffff16565b612edc90919063ffffffff16565b91506118d368056bc75e2d631000006118c584601a54612ea490919063ffffffff16565b612edc90919063ffffffff16565b90506000601b60003373ffffffffffffffffffffffffffffffffffffffff1673ffffffffffffffffffffffffffffffffffffffff16815260200190815260200160002081905550611b77565b6002600381111561192c57fe5b601860049054906101000a900460ff16600381111561194757fe5b1415611a3a576119bc601f546119ae68056bc75e2d63100000601c60003373ffffffffffffffffffffffffffffffffffffffff1673ffffffffffffffffffffffffffffffffffffffff16815260200190815260200160002054612ea490919063ffffffff16565b612edc90919063ffffffff16565b91506119ee68056bc75e2d631000006119e084601a54612ea490919063ffffffff16565b612edc90919063ffffffff16565b90506000601c60003373ffffffffffffffffffffffffffffffffffffffff1673ffffffffffffffffffffffffffffffffffffffff16815260200190815260200160002081905550611b76565b600380811115611a4657fe5b601860049054906101000a900460ff166003811115611a6157fe5b1415611b7557601c60003373ffffffffffffffffffffffffffffffffffffffff1673ffffffffffffffffffffffffffffffffffffffff16815260200190815260200160002054601b60003373ffffffffffffffffffffffffffffffffffffffff1673ffffffffffffffffffffffffffffffffffffffff168152602001908152602001600020540190506000601b60003373ffffffffffffffffffffffffffffffffffffffff1673ffffffffffffffffffffffffffffffffffffffff168152602001908152602001600020819055506000601c60003373ffffffffffffffffffffffffffffffffffffffff1673ffffffffffffffffffffffffffffffffffffffff168152602001908152602001600020819055505b5b5b611b8c81601a54612d3990919063ffffffff16565b601a819055503373ffffffffffffffffffffffffffffffffffffffff166108fc829081150290604051600060405180830381858888f19350505050158015611bd8573d6000803e3d6000fd5b505050565b60068054600181600116156101000203166002900480601f016020809104026020016040519081016040528092919081815260200182805460018160011615610100020316600290048015611c735780601f10611c4857610100808354040283529160200191611c73565b820191906000526020600020905b815481529060010190602001808311611c5657829003601f168201915b505050505081565b60006001811115611c8857fe5b600560149054906101000a900460ff166001811115611ca357fe5b141515611caf57600080fd5b600b544210158015611cc25750600c5442105b1515611d5c576040517f08c379a00000000000000000000000000000000000000000000000000000000081526004018080602001828103825260238152602001807f497420697320746f6f206561726c79206f7220746f6f206c61746520746f206281526020017f65742e000000000000000000000000000000000000000000000000000000000081525060400191505060405180910390fd5b600034111515611d6b57600080fd5b611dbd34601b60003373ffffffffffffffffffffffffffffffffffffffff1673ffffffffffffffffffffffffffffffffffffffff16815260200190815260200160002054612d1d90919063ffffffff16565b601b60003373ffffffffffffffffffffffffffffffffffffffff1673ffffffffffffffffffffffffffffffffffffffff168152602001908152602001600020819055506001602060008282540192505081905550611e2634601e54612d1d90919063ffffffff16565b601e81905550565b6000600560009054906101000a900473ffffffffffffffffffffffffffffffffffffffff1673ffffffffffffffffffffffffffffffffffffffff163373ffffffffffffffffffffffffffffffffffffffff16141515611e8c57600080fd5b60006001811115611e9957fe5b600560149054906101000a900460ff166001811115611eb457fe5b141515611ec057600080fd5b600d5442118015611ed35750600e544211155b1515611f6d576040517f08c379a00000000000000000000000000000000000000000000000000000000081526004018080602001828103825260378152602001807f497420697320746f6f206561726c79206f7220746f6f206c61746520746f207381526020017f7567676573742f636f6e6669726d20612077696e6e657200000000000000000081525060400191505060405180910390fd5b60011515601860029054906101000a900460ff161515141515611f8f57600080fd5b611f9882612ef2565b1515611fa357600080fd5b8160ff166003811115611fb257fe5b6003811115611fbd57fe5b601860049054906101000a900460ff166003811115611fd857fe5b141561213a576001601860036101000a81548160ff021916908315150217905550612010601f54601e54612d1d90919063ffffffff16565b601981905550600060195411156120d85761204d606461203f600160ff16601954612ea490919063ffffffff16565b612edc90919063ffffffff16565b905061206481601954612d3990919063ffffffff16565b601a81905550600560009054906101000a900473ffffffffffffffffffffffffffffffffffffffff1673ffffffffffffffffffffffffffffffffffffffff166108fc829081150290604051600060405180830381858888f193505050501580156120d2573d6000803e3d6000fd5b506120e1565b6000601a819055505b7f9a42273d5fd9b1a1046e18ae34880b8b51e28293fe5c863cdc602582f3bd518e601860049054906101000a900460ff166040518082600381111561212257fe5b60ff16815260200191505060405180910390a1612143565b612142612160565b5b5050565b601860049054906101000a900460ff1681565b600c5481565b600560009054906101000a900473ffffffffffffffffffffffffffffffffffffffff1673ffffffffffffffffffffffffffffffffffffffff163373ffffffffffffffffffffffffffffffffffffffff161415156121bc57600080fd5b60001515601860039054906101000a900460ff16151514151561226d576040517f08c379a00000000000000000000000000000000000000000000000000000000081526004018080602001828103825260378152602001807f43616e6e6f742062652063616e63656c6c656420626563617573652077696e6e81526020017f657220697320616c726561647920636f6e6669726d656400000000000000000081525060400191505060405180910390fd5b6000600181111561227a57fe5b600560149054906101000a900460ff16600181111561229557fe5b1415156122a157600080fd5b6001600560146101000a81548160ff021916908360018111156122c057fe5b02179055506122dc601f54601e54612d1d90919063ffffffff16565b601a819055507fec8dc6335c2196b8a6d65cd542069150bf6373e8330640096a2074c2ba36df04600860096040518080602001806020018381038352858181546001816001161561010002031660029004815260200191508054600181600116156101000203166002900480156123945780601f1061236957610100808354040283529160200191612394565b820191906000526020600020905b81548152906001019060200180831161237757829003601f168201915b50508381038252848181546001816001161561010002031660029004815260200191508054600181600116156101000203166002900480156124175780601f106123ec57610100808354040283529160200191612417565b820191906000526020600020905b8154815290600101906020018083116123fa57829003601f168201915b505094505050505060405180910390a1565b600560009054906101000a900473ffffffffffffffffffffffffffffffffffffffff1673ffffffffffffffffffffffffffffffffffffffff163373ffffffffffffffffffffffffffffffffffffffff1614151561248557600080fd5b600073ffffffffffffffffffffffffffffffffffffffff168173ffffffffffffffffffffffffffffffffffffffff16141515156124c157600080fd5b8073ffffffffffffffffffffffffffffffffffffffff16600560009054906101000a900473ffffffffffffffffffffffffffffffffffffffff1673ffffffffffffffffffffffffffffffffffffffff167f8be0079c531659141344cd1fd0a4f28419497f9722a3daafe3b4186f6b6457e060405160405180910390a380600560006101000a81548173ffffffffffffffffffffffffffffffffffffffff021916908373ffffffffffffffffffffffffffffffffffffffff16021790555050565b6000806000809054906101000a900473ffffffffffffffffffffffffffffffffffffffff1673ffffffffffffffffffffffffffffffffffffffff1614806125f1575060006125ef6000809054906101000a900473ffffffffffffffffffffffffffffffffffffffff16612f55565b145b15612602576126006000612f60565b505b6000809054906101000a900473ffffffffffffffffffffffffffffffffffffffff1673ffffffffffffffffffffffffffffffffffffffff166338cc48316040518163ffffffff167c0100000000000000000000000000000000000000000000000000000000028152600401602060405180830381600087803b15801561268757600080fd5b505af115801561269b573d6000803e3d6000fd5b505050506040513d60208110156126b157600080fd5b810190808051906020019092919050505073ffffffffffffffffffffffffffffffffffffffff16600160009054906101000a900473ffffffffffffffffffffffffffffffffffffffff1673ffffffffffffffffffffffffffffffffffffffff16141515612819576000809054906101000a900473ffffffffffffffffffffffffffffffffffffffff1673ffffffffffffffffffffffffffffffffffffffff166338cc48316040518163ffffffff167c0100000000000000000000000000000000000000000000000000000000028152600401602060405180830381600087803b15801561279d57600080fd5b505af11580156127b1573d6000803e3d6000fd5b505050506040513d60208110156127c757600080fd5b8101908080519060200190929190505050600160006101000a81548173ffffffffffffffffffffffffffffffffffffffff021916908373ffffffffffffffffffffffffffffffffffffffff1602179055505b600160009054906101000a900473ffffffffffffffffffffffffffffffffffffffff1673ffffffffffffffffffffffffffffffffffffffff1663c281d19e6040518163ffffffff167c0100000000000000000000000000000000000000000000000000000000028152600401602060405180830381600087803b15801561289f57600080fd5b505af11580156128b3573d6000803e3d6000fd5b505050506040513d60208110156128c957600080fd5b8101908080519060200190929190505050905090565b6128e881612f71565b1561293d576001601160016101000a81548160ff02191690831515021790555061291e6002601054612d1d90919063ffffffff16565b60108190555061292e6000612fe9565b612938600061313b565b612a42565b60016064036010541015612977576129616001601054612d1d90919063ffffffff16565b60108190555061297261012c612d52565b612a41565b6001600560146101000a81548160ff0219169083600181111561299657fe5b02179055507fe541b4f0e599859696632b45febeaa08da9d13440690feed224729a3e82382108160646040518080602001838152602001828103825284818151815260200191508051906020019080838360005b83811015612a055780820151818401526020810190506129ea565b50505050905090810190601f168015612a325780820380516001836020036101000a031916815260200191505b50935050505060405180910390a15b5b50565b6000612a508261328d565b9050601960ff16811115612b6057612a746001601054612d1d90919063ffffffff16565b60108190555060646010541015612a9557612a9061012c61313b565b612b5f565b6001600560146101000a81548160ff02191690836001811115612ab457fe5b02179055507fe541b4f0e599859696632b45febeaa08da9d13440690feed224729a3e82382108260646040518080602001838152602001828103825284818151815260200191508051906020019080838360005b83811015612b23578082015181840152602081019050612b08565b50505050905090810190601f168015612b505780820380516001836020036101000a031916815260200191505b50935050505060405180910390a15b5b806016819055506001601860006101000a81548160ff02191690831515021790555060011515601860019054906101000a900460ff1615151415612bad57612bac6016546017546132a1565b5b5050565b6000612bbc8261328d565b9050601960ff16811115612ccc57612be06001601054612d1d90919063ffffffff16565b60108190555060646010541015612c0157612bfc61012c61313b565b612ccb565b6001600560146101000a81548160ff02191690836001811115612c2057fe5b02179055507fe541b4f0e599859696632b45febeaa08da9d13440690feed224729a3e82382108260646040518080602001838152602001828103825284818151815260200191508051906020019080838360005b83811015612c8f578082015181840152602081019050612c74565b50505050905090810190601f168015612cbc5780820380516001836020036101000a031916815260200191505b50935050505060405180910390a15b5b806017819055506001601860016101000a81548160ff02191690831515021790555060011515601860009054906101000a900460ff1615151415612d1957612d186016546017546132a1565b5b5050565b60008183019050828110151515612d3057fe5b80905092915050565b6000828211151515612d4757fe5b818303905092915050565b6060612e8a606060405190810160405280602e81526020017f6a736f6e28687474703a2f2f6170692e666f6f7462616c6c2d646174612e6f7281526020017f672f76312f66697874757265732f00000000000000000000000000000000000081525060068054600181600116156101000203166002900480601f016020809104026020016040519081016040528092919081815260200182805460018160011615610100020316600290048015612e4a5780601f10612e1f57610100808354040283529160200191612e4a565b820191906000526020600020905b815481529060010190602001808311612e2d57829003601f168201915b50505050506040805190810160405280600881526020017f2e6669787475726500000000000000000000000000000000000000000000000081525061339c565b9050612e9681836133d4565b601381600019169055505050565b600080831415612eb75760009050612ed6565b8183029050818382811515612ec857fe5b04141515612ed257fe5b8090505b92915050565b60008183811515612ee957fe5b04905092915050565b600060018260ff161480612f09575060028260ff16145b15612f175760019050612f50565b60011515600a60009054906101000a900460ff161515148015612f3d575060038260ff16145b15612f4b5760019050612f50565b600090505b919050565b6000813b9050919050565b6000612f6a61341e565b9050919050565b600060125460001916826040518082805190602001908083835b602083101515612fb05780518252602082019150602081019050602083039250612f8b565b6001836020036101000a038019825116818451168082178552505050505050905001915050604051809103902060001916149050919050565b6060613121606060405190810160405280602e81526020017f6a736f6e28687474703a2f2f6170692e666f6f7462616c6c2d646174612e6f7281526020017f672f76312f66697874757265732f00000000000000000000000000000000000081525060068054600181600116156101000203166002900480601f0160208091040260200160405190810160405280929190818152602001828054600181600116156101000203166002900480156130e15780601f106130b6576101008083540402835291602001916130e1565b820191906000526020600020905b8154815290600101906020018083116130c457829003601f168201915b50505050506040805190810160405280601d81526020017f2e666978747572652e726573756c742e676f616c73486f6d655465616d00000081525061339c565b905061312d81836133d4565b601481600019169055505050565b6060613273606060405190810160405280602e81526020017f6a736f6e28687474703a2f2f6170692e666f6f7462616c6c2d646174612e6f7281526020017f672f76312f66697874757265732f00000000000000000000000000000000000081525060068054600181600116156101000203166002900480601f0160208091040260200160405190810160405280929190818152602001828054600181600116156101000203166002900480156132335780601f1061320857610100808354040283529160200191613233565b820191906000526020600020905b81548152906001019060200180831161321657829003601f168201915b50505050506040805190810160405280601d81526020017f2e666978747572652e726573756c742e676f616c73417761795465616d00000081525061339c565b905061327f81836133d4565b601581600019169055505050565b600061329a8260006138ad565b9050919050565b808211156132d2576001601860046101000a81548160ff021916908360038111156132c857fe5b0217905550613329565b80821015613303576002601860046101000a81548160ff021916908360038111156132f957fe5b0217905550613328565b6003601860046101000a81548160ff0219169083600381111561332257fe5b02179055505b5b6001601860026101000a81548160ff0219169083151502179055507faf402f25d965dbb8046c429c4c6165a2dd4c0df5f2326f426a6a2ff7e404b01b601860049054906101000a900460ff166040518082600381111561338557fe5b60ff16815260200191505060405180910390a15050565b60606133cb84848460206040519081016040528060008152506020604051908101604052806000815250613ba1565b90509392505050565b6000613416826040805190810160405280600381526020017f55524c000000000000000000000000000000000000000000000000000000000081525085613fb6565b905092915050565b60008061343e731d3b2638a7cc9f2cb3d298a3da7a90b67e5506ed612f55565b11156134df57731d3b2638a7cc9f2cb3d298a3da7a90b67e5506ed6000806101000a81548173ffffffffffffffffffffffffffffffffffffffff021916908373ffffffffffffffffffffffffffffffffffffffff1602179055506134d66040805190810160405280600b81526020017f6574685f6d61696e6e6574000000000000000000000000000000000000000000815250614558565b600190506138aa565b60006134fe73c03a2615d5efaf5f49f60b7bb6583eaec212fdf1612f55565b111561359f5773c03a2615d5efaf5f49f60b7bb6583eaec212fdf16000806101000a81548173ffffffffffffffffffffffffffffffffffffffff021916908373ffffffffffffffffffffffffffffffffffffffff1602179055506135966040805190810160405280600c81526020017f6574685f726f707374656e330000000000000000000000000000000000000000815250614558565b600190506138aa565b60006135be73b7a07bcf2ba2f2703b24c0691b5278999c59ac7e612f55565b111561365f5773b7a07bcf2ba2f2703b24c0691b5278999c59ac7e6000806101000a81548173ffffffffffffffffffffffffffffffffffffffff021916908373ffffffffffffffffffffffffffffffffffffffff1602179055506136566040805190810160405280600981526020017f6574685f6b6f76616e0000000000000000000000000000000000000000000000815250614558565b600190506138aa565b600061367e73146500cfd35b22e4a392fe0adc06de1a1368ed48612f55565b111561371f5773146500cfd35b22e4a392fe0adc06de1a1368ed486000806101000a81548173ffffffffffffffffffffffffffffffffffffffff021916908373ffffffffffffffffffffffffffffffffffffffff1602179055506137166040805190810160405280600b81526020017f6574685f72696e6b656279000000000000000000000000000000000000000000815250614558565b600190506138aa565b600061373e736f485c8bf6fc43ea212e93bbf8ce046c7f1cb475612f55565b11156137a157736f485c8bf6fc43ea212e93bbf8ce046c7f1cb4756000806101000a81548173ffffffffffffffffffffffffffffffffffffffff021916908373ffffffffffffffffffffffffffffffffffffffff160217905550600190506138aa565b60006137c07320e12a1f859b3feae5fb2a0a32c18f5a65555bbf612f55565b1115613823577320e12a1f859b3feae5fb2a0a32c18f5a65555bbf6000806101000a81548173ffffffffffffffffffffffffffffffffffffffff021916908373ffffffffffffffffffffffffffffffffffffffff160217905550600190506138aa565b60006138427351efaf4c8b3c9afbd5ab9f4bbc82784ab6ef8faa612f55565b11156138a5577351efaf4c8b3c9afbd5ab9f4bbc82784ab6ef8faa6000806101000a81548173ffffffffffffffffffffffffffffffffffffffff021916908373ffffffffffffffffffffffffffffffffffffffff160217905550600190506138aa565b600090505b90565b6000606060008060008693506000925060009150600090505b8351811015613b825760307f010000000000000000000000000000000000000000000000000000000000000002848281518110151561390157fe5b9060200101517f010000000000000000000000000000000000000000000000000000000000000090047f0100000000000000000000000000000000000000000000000000000000000000027effffffffffffffffffffffffffffffffffffffffffffffffffffffffffffff191610158015613a19575060397f01000000000000000000000000000000000000000000000000000000000000000284828151811015156139a957fe5b9060200101517f010000000000000000000000000000000000000000000000000000000000000090047f0100000000000000000000000000000000000000000000000000000000000000027effffffffffffffffffffffffffffffffffffffffffffffffffffffffffffff191611155b15613aca578115613a3c576000861415613a3257613b82565b8580600190039650505b600a8302925060308482815181101515613a5257fe5b9060200101517f010000000000000000000000000000000000000000000000000000000000000090047f0100000000000000000000000000000000000000000000000000000000000000027f010000000000000000000000000000000000000000000000000000000000000090040383019250613b75565b602e7f0100000000000000000000000000000000000000000000000000000000000000028482815181101515613afc57fe5b9060200101517f010000000000000000000000000000000000000000000000000000000000000090047f0100000000000000000000000000000000000000000000000000000000000000027effffffffffffffffffffffffffffffffffffffffffffffffffffffffffffff19161415613b7457600191505b5b80806001019150506138c6565b6000861115613b945785600a0a830292505b8294505050505092915050565b6060806060806060806060806000808e98508d97508c96508b95508a94508451865188518a518c51010101016040519080825280601f01601f191660200182016040528015613bff5781602001602082028038833980820191505090505b50935083925060009150600090505b8851811015613cc1578881815181101515613c2557fe5b9060200101517f010000000000000000000000000000000000000000000000000000000000000090047f0100000000000000000000000000000000000000000000000000000000000000028383806001019450815181101515613c8457fe5b9060200101907effffffffffffffffffffffffffffffffffffffffffffffffffffffffffffff1916908160001a9053508080600101915050613c0e565b600090505b8751811015613d79578781815181101515613cdd57fe5b9060200101517f010000000000000000000000000000000000000000000000000000000000000090047f0100000000000000000000000000000000000000000000000000000000000000028383806001019450815181101515613d3c57fe5b9060200101907effffffffffffffffffffffffffffffffffffffffffffffffffffffffffffff1916908160001a9053508080600101915050613cc6565b600090505b8651811015613e31578681815181101515613d9557fe5b9060200101517f010000000000000000000000000000000000000000000000000000000000000090047f0100000000000000000000000000000000000000000000000000000000000000028383806001019450815181101515613df457fe5b9060200101907effffffffffffffffffffffffffffffffffffffffffffffffffffffffffffff1916908160001a9053508080600101915050613d7e565b600090505b8551811015613ee9578581815181101515613e4d57fe5b9060200101517f010000000000000000000000000000000000000000000000000000000000000090047f0100000000000000000000000000000000000000000000000000000000000000028383806001019450815181101515613eac57fe5b9060200101907effffffffffffffffffffffffffffffffffffffffffffffffffffffffffffff1916908160001a9053508080600101915050613e36565b600090505b8451811015613fa1578481815181101515613f0557fe5b9060200101517f010000000000000000000000000000000000000000000000000000000000000090047f0100000000000000000000000000000000000000000000000000000000000000028383806001019450815181101515613f6457fe5b9060200101907effffffffffffffffffffffffffffffffffffffffffffffffffffffffffffff1916908160001a9053508080600101915050613eee565b82995050505050505050505095945050505050565b60008060008060009054906101000a900473ffffffffffffffffffffffffffffffffffffffff1673ffffffffffffffffffffffffffffffffffffffff161480614028575060006140266000809054906101000a900473ffffffffffffffffffffffffffffffffffffffff16612f55565b145b15614039576140376000612f60565b505b6000809054906101000a900473ffffffffffffffffffffffffffffffffffffffff1673ffffffffffffffffffffffffffffffffffffffff166338cc48316040518163ffffffff167c0100000000000000000000000000000000000000000000000000000000028152600401602060405180830381600087803b1580156140be57600080fd5b505af11580156140d2573d6000803e3d6000fd5b505050506040513d60208110156140e857600080fd5b810190808051906020019092919050505073ffffffffffffffffffffffffffffffffffffffff16600160009054906101000a900473ffffffffffffffffffffffffffffffffffffffff1673ffffffffffffffffffffffffffffffffffffffff16141515614250576000809054906101000a900473ffffffffffffffffffffffffffffffffffffffff1673ffffffffffffffffffffffffffffffffffffffff166338cc48316040518163ffffffff167c0100000000000000000000000000000000000000000000000000000000028152600401602060405180830381600087803b1580156141d457600080fd5b505af11580156141e8573d6000803e3d6000fd5b505050506040513d60208110156141fe57600080fd5b8101908080519060200190929190505050600160006101000a81548173ffffffffffffffffffffffffffffffffffffffff021916908373ffffffffffffffffffffffffffffffffffffffff1602179055505b600160009054906101000a900473ffffffffffffffffffffffffffffffffffffffff1673ffffffffffffffffffffffffffffffffffffffff1663524f3889856040518263ffffffff167c01000000000000000000000000000000000000000000000000000000000281526004018080602001828103825283818151815260200191508051906020019080838360005b838110156142fa5780820151818401526020810190506142df565b50505050905090810190601f1680156143275780820380516001836020036101000a031916815260200191505b5092505050602060405180830381600087803b15801561434657600080fd5b505af115801561435a573d6000803e3d6000fd5b505050506040513d602081101561437057600080fd5b8101908080519060200190929190505050905062030d403a02670de0b6b3a7640000018111156143a65760006001029150614550565b600160009054906101000a900473ffffffffffffffffffffffffffffffffffffffff1673ffffffffffffffffffffffffffffffffffffffff1663adf59f99828787876040518563ffffffff167c0100000000000000000000000000000000000000000000000000000000028152600401808481526020018060200180602001838103835285818151815260200191508051906020019080838360005b8381101561445d578082015181840152602081019050614442565b50505050905090810190601f16801561448a5780820380516001836020036101000a031916815260200191505b50838103825284818151815260200191508051906020019080838360005b838110156144c35780820151818401526020810190506144a8565b50505050905090810190601f1680156144f05780820380516001836020036101000a031916815260200191505b50955050505050506020604051808303818588803b15801561451157600080fd5b505af1158015614525573d6000803e3d6000fd5b50505050506040513d602081101561453c57600080fd5b810190808051906020019092919050505091505b509392505050565b806002908051906020019061456e929190614572565b5050565b828054600181600116156101000203166002900490600052602060002090601f016020900481019282601f106145b357805160ff19168380011785556145e1565b828001600101855582156145e1579182015b828111156145e05782518255916020019190600101906145c5565b5b5090506145ee91906145f2565b5090565b61461491905b808211156146105760008160009055506001016145f8565b5090565b905600a165627a7a723058205d4abb894dc13e69720aac8c2fb98ad3bfe62a1b3a61b624f5f0c19b0f9fcd490029",
  "source": "pragma solidity ^0.4.23;\n\nimport 'zeppelin-solidity/contracts/ownership/Ownable.sol';\nimport 'zeppelin-solidity/contracts/math/SafeMath.sol';\nimport './oraclizeAPI_0.5.sol';\n\ncontract Bet is usingOraclize, Ownable {\n  using SafeMath for uint256;\n\n  enum Status { Active, Cancelled }\n  enum Winner { Undecided, Player1, Player2, Draw }\n\n  uint8 private constant FEE_PERCENT = 1;\n  uint256 private constant MIN_SUGGESTCONFIRM_DURATION = 2 days;\n  uint256 private constant CLAIM_EXPIRES_AFTER = 8 weeks;\n  uint8 private constant MAX_GOALS = 25;\n\n  Status public status = Status.Active;\n\n  string public gameId;\n  string public group;\n  string public p1;\n  string public p2;\n  bool public isGroupPhase;\n  uint256 public timeBettingOpens;\n  uint256 public timeBettingCloses;\n  uint256 public timeMatchEnds;\n  uint256 public timeSuggestConfirmEnds;\n  uint256 public timeClaimsExpire;\n\n  event FetchMaxAttemptReached(string lastResult, uint256 MAX_FETCH_ATTEMPTS);\n  event WinnerSuggested(Winner winner);\n  event WinnerConfirmed(Winner winner);\n  event BettingCancelled(string p1, string p2);\n\n  uint256 private constant MAX_GAS_PRICE = 8e9;\n  uint256 private constant MAX_FETCH_ATTEMPTS = 100;\n  uint256 private constant FETCH_INTERVAL = 60*5; // 5min in seconds\n  uint256 private fetchAttempt = 1;\n  bool private isFetchingStarted = false;\n  bool public matchFinished = false;\n  bytes32 private hashFinished;\n\n  bytes32 private queryStatus;\n  bytes32 private queryGoalsP1;\n  bytes32 private queryGoalsP2;\n  uint private goalsP1;\n  uint private goalsP2;\n  bool private goalsP1Fetched = false;\n  bool private goalsP2Fetched = false;\n  bool private winnerSuggested = false;\n  bool private winnerConfirmed = false;\n  Winner public winner; // default = 0, meaning Undecided\n\n  uint256 public pool;\n  uint256 public payoutPool;\n  mapping(address => uint256) public betsPlayer1;\n  mapping(address => uint256) public betsPlayer2;\n  uint256 public total;\n  uint256 public totalPlayer1;\n  uint256 public totalPlayer2;\n  uint256 public numBetsPlayer1;\n  uint256 public numBetsPlayer2;\n\n  modifier hasWei() {\n      require(msg.value > 0);\n      _;\n  }\n\n  /*\n    Time-based modifiers\n  */\n  modifier isBettingPhase() {\n      require(now >= timeBettingOpens && now < timeBettingCloses, 'It is too early or too late to bet.');\n      _;\n  }\n\n  modifier isSuggestConfirmPhase() {\n      require(now > timeMatchEnds && now <= timeSuggestConfirmEnds, 'It is too early or too late to suggest/confirm a winner');\n      _;\n  }\n\n  modifier isExpiredPhase() {\n      require(now > timeClaimsExpire);\n      _;\n  }\n\n  modifier isNotExpiredPhase() {\n      require(now < timeClaimsExpire);\n      _;\n  }\n\n  /*\n    Cancelled modifiers\n  */\n  modifier isCancelled() {\n      require(status == Status.Cancelled);\n      _;\n  }\n\n  modifier isNotCancelled() {\n      require(status == Status.Active);\n      _;\n  }\n\n  modifier canBeCancelled() {\n      require(winnerConfirmed == false, 'Cannot be cancelled because winner is already confirmed');\n      _;\n  }\n\n  /*\n    Winner check modifiers\n  */\n  modifier isWinnerSuggested() {\n      require(winnerSuggested == true);\n      _;\n  }\n\n  modifier isNotWinnerSuggested() {\n      require(winnerSuggested == false);\n      _;\n  }\n\n  modifier isWinnerConfirmed() {\n      require(winnerSuggested == true && winnerConfirmed == true);\n      _;\n  }\n\n  /*\n    Other modifiers\n  */\n  modifier hasClaims() {\n      require(\n        (winner == Winner.Player1 && betsPlayer1[msg.sender] > 0) ||\n        (winner == Winner.Player2 && betsPlayer2[msg.sender] > 0) ||\n        (winner == Winner.Draw && ((betsPlayer1[msg.sender] > 0) || (betsPlayer2[msg.sender] > 0)))\n      );\n      _;\n  }\n\n  modifier startFetchingIfUnstarted() {\n      if (isFetchingStarted == false) {\n          fetchMatchStatus(0); // 0 == fetch now, without delay\n          isFetchingStarted = true;\n      }\n      _;\n  }\n\n\n\n  /*\n    Non-state-changing functions (\"view\" functions)\n  */\n  function hasBets(address _address) internal view returns (bool) {\n      if (betsPlayer1[_address] > 0 || betsPlayer2[_address] > 0) {\n          return true;\n      }\n      return false;\n  }\n\n  function isValidWinner(uint8 _winner) internal view returns (bool) {\n      if (_winner == 1 ||  _winner == 2) {\n          return true;\n      }\n      if (isGroupPhase == true && _winner == 3) {\n          return true;\n      }\n      return false;\n  }\n\n  function isFinished(string s) private view returns (bool) {\n      return keccak256(s) == hashFinished;\n  }\n\n  constructor(\n      string _gameId,\n      string _group,\n      string _p1,\n      string _p2,\n      bool _isGroupPhase,\n      uint256 _matchStart,\n      uint256 _durationBetting,\n      uint256 _durationSuggestConfirm)\n      public\n      payable\n  {\n      //oraclize_setCustomGasPrice(MAX_GAS_PRICE);\n      hashFinished = keccak256('FINISHED');\n      \n      gameId = _gameId;\n      group = _group;\n      p1 = _p1;\n      p2 = _p2;\n      isGroupPhase = _isGroupPhase;\n      _setTimes(_matchStart, _durationBetting, _durationSuggestConfirm);\n  }\n\n  // public for testing\n  function _setTimes(uint256 _matchStart, uint256 _durationBetting, uint256 _durationSuggestConfirm) public {\n      require(_durationSuggestConfirm >= MIN_SUGGESTCONFIRM_DURATION); // longer than 2h in case max match duration is reached (overtimes + penalty shootout)\n\n      // Miners can cheat on block timestamp with a tolerance of 900 seconds.\n      // That's why betting is closed 900 seconds before match start.\n      timeBettingCloses = _matchStart - 900 seconds;\n      timeBettingOpens = timeBettingCloses - _durationBetting;\n      timeMatchEnds = timeBettingCloses + 105 minutes;\n      timeSuggestConfirmEnds = timeMatchEnds + _durationSuggestConfirm;\n      timeClaimsExpire = timeSuggestConfirmEnds + 8 weeks;\n  }\n\n  /* OLD BET FUNCTION: gas: 93620,  93627, 94136 */\n  /* OLD BET FUNCTION: KOVAN: 54857 */\n  function betOnPlayer1() external payable\n      isNotCancelled\n      isBettingPhase\n      hasWei\n  {\n      betsPlayer1[msg.sender] = betsPlayer1[msg.sender].add(msg.value);\n      numBetsPlayer1 += 1;\n      totalPlayer1 = totalPlayer1.add(msg.value);\n  }\n\n  function betOnPlayer2() external payable\n      isNotCancelled\n      isBettingPhase\n      hasWei\n  {\n      betsPlayer2[msg.sender] = betsPlayer2[msg.sender].add(msg.value);\n      numBetsPlayer2 += 1;\n      totalPlayer2 = totalPlayer2.add(msg.value);\n  }\n\n\n  function fetchMatchStatus(uint256 _delay) internal {\n      string memory query = strConcat('json(http://api.football-data.org/v1/fixtures/', gameId, '.fixture');\n      queryStatus = fetch(query, _delay);\n  }\n\n  function fetchGoalsP1(uint256 _delay) internal {\n      string memory query = strConcat('json(http://api.football-data.org/v1/fixtures/', gameId, '.fixture.result.goalsHomeTeam');\n      queryGoalsP1 = fetch(query, _delay);\n  }\n\n  function fetchGoalsP2(uint256 _delay) internal {\n      string memory query = strConcat('json(http://api.football-data.org/v1/fixtures/', gameId, '.fixture.result.goalsAwayTeam');\n      queryGoalsP2 = fetch(query, _delay);\n  }\n\n  function fetch(string _query, uint256 _delay) internal\n      returns (bytes32)\n  {\n      return oraclize_query(_delay, \"URL\", _query);  \n  }\n\n  function __callback(bytes32 myid, string response) public\n      isNotCancelled\n      isSuggestConfirmPhase\n      isNotWinnerSuggested\n  {\n      require(msg.sender == oraclize_cbAddress());\n      \n      // Keeping track of query IDs because one query can result in more than one callback.\n      // Once callback received, query tracker set to 0 to prevent double handling of response.\n      // See https://docs.oraclize.it/#ethereum-best-practices-mapping-query-ids\n      if (myid == queryStatus && matchFinished == false) {\n          queryStatus = 0x0;\n          _handleMatchStatusResponse(response);\n      } else if (myid == queryGoalsP1) {\n          queryGoalsP1 = 0x0;\n          _handleGoalsP1Response(response);\n      } else if (myid == queryGoalsP2) {\n          queryGoalsP2 = 0x0;\n          _handleGoalsP2Response(response);\n      }\n  }\n\n  function _handleMatchStatusResponse(string response) private {\n      if (isFinished(response)) {\n          matchFinished = true;\n\n          fetchAttempt = fetchAttempt.add(2);\n          fetchGoalsP1(0);\n          fetchGoalsP2(0);\n      } else if (fetchAttempt < (MAX_FETCH_ATTEMPTS-1)) {\n          fetchAttempt = fetchAttempt.add(1);\n          fetchMatchStatus(FETCH_INTERVAL);\n      } else {\n          status = Status.Cancelled;\n          emit FetchMaxAttemptReached(response, MAX_FETCH_ATTEMPTS);\n      }\n  }\n\n  function _handleGoalsP1Response(string strGoals) private {\n      uint goals = parseInt(strGoals);\n      if (goals > MAX_GOALS) {\n          fetchAttempt = fetchAttempt.add(1);\n          if (fetchAttempt < MAX_FETCH_ATTEMPTS) {\n              fetchGoalsP2(FETCH_INTERVAL);\n          } else {\n              status = Status.Cancelled;\n              emit FetchMaxAttemptReached(strGoals, MAX_FETCH_ATTEMPTS);\n          }\n      }\n\n      goalsP1 = goals;\n      goalsP1Fetched = true;\n\n      if (goalsP2Fetched == true) {\n          _suggestWinner(goalsP1, goalsP2);\n      }\n  }\n\n  function _handleGoalsP2Response(string strGoals) private {\n      uint goals = parseInt(strGoals);\n      if (goals > MAX_GOALS) {\n          fetchAttempt = fetchAttempt.add(1);\n          if (fetchAttempt < MAX_FETCH_ATTEMPTS) {\n              fetchGoalsP2(FETCH_INTERVAL);\n          } else {\n              status = Status.Cancelled;\n              emit FetchMaxAttemptReached(strGoals, MAX_FETCH_ATTEMPTS);\n          }\n      }\n      \n      goalsP2 = goals;\n      goalsP2Fetched = true;\n\n      if (goalsP1Fetched == true) {\n          _suggestWinner(goalsP1, goalsP2);\n      }\n  }\n\n  function _suggestWinner(uint _goalsP1, uint _goalsP2) private {\n      if (_goalsP1 > _goalsP2) {\n          winner = Winner.Player1;\n      } else if (_goalsP1 < _goalsP2) {\n          winner = Winner.Player2;\n      } else {\n          winner = Winner.Draw;\n      }\n\n      winnerSuggested = true;\n      emit WinnerSuggested(winner);\n  }\n\n  function confirmWinner(uint8 _winnerAsInt) external\n      onlyOwner\n      isNotCancelled\n      isSuggestConfirmPhase\n      isWinnerSuggested\n  {\n      require(isValidWinner(_winnerAsInt));\n      \n      if (winner == Winner(_winnerAsInt)) {\n          winnerConfirmed = true;\n\n          pool = totalPlayer1.add(totalPlayer2);\n\n          if (pool > 0) {\n              uint256 feeAmount = pool.mul(FEE_PERCENT).div(100);\n              payoutPool = pool.sub(feeAmount);\n              owner.transfer(feeAmount);\n          } else {\n              payoutPool = 0;\n          }\n\n          emit WinnerConfirmed(winner);\n      } else {\n          cancel();\n      }\n  }\n\n  function cancel() public\n      onlyOwner\n      canBeCancelled\n      isNotCancelled\n  {\n      status = Status.Cancelled;\n      payoutPool = totalPlayer1.add(totalPlayer2);\n\n      emit BettingCancelled(p1, p2);\n  }\n\n  function claimWinOrDraw() external\n      isNotCancelled\n      isNotExpiredPhase\n      startFetchingIfUnstarted\n      isWinnerConfirmed\n      hasClaims\n  {\n      uint256 wonShare;\n      uint256 payout;\n      if (winner == Winner.Player1){\n          wonShare = betsPlayer1[msg.sender].mul(1e20).div(totalPlayer1);//.div(1e20)\n          payout = payoutPool.mul(wonShare).div(1e20);\n          betsPlayer1[msg.sender] = 0;\n      } else if (winner == Winner.Player2) {\n          wonShare = betsPlayer2[msg.sender].mul(1e20).div(totalPlayer2);//.div(1e20)\n          payout = payoutPool.mul(wonShare).div(1e20);\n          betsPlayer2[msg.sender] = 0;\n      } else if (winner == Winner.Draw) {\n          payout = betsPlayer1[msg.sender] + betsPlayer2[msg.sender];\n          betsPlayer1[msg.sender] = 0;\n          betsPlayer2[msg.sender] = 0;\n      }\n      payoutPool = payoutPool.sub(payout);\n\n      msg.sender.transfer(payout);\n  }\n\n  function claimCancelled() external\n      isCancelled\n      isNotExpiredPhase\n      hasClaims\n  {\n      uint256 claim = betsPlayer1[msg.sender] + betsPlayer2[msg.sender]; // claim > 0 since check in hasClaims\n\n      betsPlayer1[msg.sender] = 0;\n      betsPlayer2[msg.sender] = 0;\n      payoutPool = payoutPool.sub(claim);\n      \n      msg.sender.transfer(claim);\n  }\n\n  function claimExpired() external\n      onlyOwner\n      isExpiredPhase\n  {\n      payoutPool = 0;\n\n      msg.sender.transfer(address(this).balance);\n  }\n\n  /* fallback function */\n  function () public payable {\n      revert('Function not found.'); \n  }\n\n  // for testing\n  // function suggestWinner(uint8 _winnerAsInt) external onlyOwner withinSuggestConfirmWinnerTime {\n  //     require(isValidWinner(_winnerAsInt));\n  //     suggestedWinner = Winner(_winnerAsInt);\n\n  //     phase = Phase.WinnerSuggested;\n  // }\n}\n",
  "sourcePath": "/home/mo/dev/worldcup-betting/contracts/Bet.sol",
  "compiler": {
    "name": "solc",
    "version": "0.4.23+commit.124ca40d.Emscripten.clang"
  },
  "schemaVersion": "2.0.0",
  "updatedAt": "2018-05-11T10:33:29.403Z"
}