{
  "contractName": "BetManager",
  "abi": [
    {
      "constant": true,
      "inputs": [],
      "name": "owner",
      "outputs": [
        {
          "name": "",
          "type": "address"
        }
      ],
      "payable": false,
      "stateMutability": "view",
      "type": "function"
    },
    {
      "constant": false,
      "inputs": [
        {
          "name": "newOwner",
          "type": "address"
        }
      ],
      "name": "transferOwnership",
      "outputs": [],
      "payable": false,
      "stateMutability": "nonpayable",
      "type": "function"
    },
    {
      "inputs": [],
      "payable": false,
      "stateMutability": "nonpayable",
      "type": "constructor"
    },
    {
      "anonymous": false,
      "inputs": [
        {
          "indexed": true,
          "name": "previousOwner",
          "type": "address"
        },
        {
          "indexed": true,
          "name": "newOwner",
          "type": "address"
        }
      ],
      "name": "OwnershipTransferred",
      "type": "event"
    },
    {
      "constant": false,
      "inputs": [
        {
          "name": "_player1",
          "type": "string"
        },
        {
          "name": "_player2",
          "type": "string"
        },
        {
          "name": "_drawAllowed",
          "type": "bool"
        },
        {
          "name": "_matchStart",
          "type": "uint256"
        },
        {
          "name": "_durationBetting",
          "type": "uint256"
        }
      ],
      "name": "createBet",
      "outputs": [
        {
          "name": "",
          "type": "address"
        }
      ],
      "payable": false,
      "stateMutability": "nonpayable",
      "type": "function"
    }
  ],
  "bytecode": "0x608060405234801561001057600080fd5b50336000806101000a81548173ffffffffffffffffffffffffffffffffffffffff021916908373ffffffffffffffffffffffffffffffffffffffff16021790555061006861006d640100000000026401000000009004565b610b2f565b60018060405180807f417267656e74696e6100000000000000000000000000000000000000000000008152506009019050908152602001604051809103902060006101000a81548160ff02191690831515021790555060018060405180807f4175737472616c696100000000000000000000000000000000000000000000008152506009019050908152602001604051809103902060006101000a81548160ff02191690831515021790555060018060405180807f42656c6769756d000000000000000000000000000000000000000000000000008152506007019050908152602001604051809103902060006101000a81548160ff02191690831515021790555060018060405180807f4272617a696c00000000000000000000000000000000000000000000000000008152506006019050908152602001604051809103902060006101000a81548160ff02191690831515021790555060018060405180807f436f6c6f6d6269610000000000000000000000000000000000000000000000008152506008019050908152602001604051809103902060006101000a81548160ff02191690831515021790555060018060405180807f436f737461205269636100000000000000000000000000000000000000000000815250600a019050908152602001604051809103902060006101000a81548160ff02191690831515021790555060018060405180807f43726f61746961000000000000000000000000000000000000000000000000008152506007019050908152602001604051809103902060006101000a81548160ff02191690831515021790555060018060405180807f44656e6d61726b000000000000000000000000000000000000000000000000008152506007019050908152602001604051809103902060006101000a81548160ff02191690831515021790555060018060405180807f45677970740000000000000000000000000000000000000000000000000000008152506005019050908152602001604051809103902060006101000a81548160ff02191690831515021790555060018060405180807f456e676c616e64000000000000000000000000000000000000000000000000008152506007019050908152602001604051809103902060006101000a81548160ff02191690831515021790555060018060405180807f4672616e636500000000000000000000000000000000000000000000000000008152506006019050908152602001604051809103902060006101000a81548160ff02191690831515021790555060018060405180807f4765726d616e79000000000000000000000000000000000000000000000000008152506007019050908152602001604051809103902060006101000a81548160ff02191690831515021790555060018060405180807f4963656c616e64000000000000000000000000000000000000000000000000008152506007019050908152602001604051809103902060006101000a81548160ff02191690831515021790555060018060405180807f4972616e000000000000000000000000000000000000000000000000000000008152506004019050908152602001604051809103902060006101000a81548160ff02191690831515021790555060018060405180807f4a6170616e0000000000000000000000000000000000000000000000000000008152506005019050908152602001604051809103902060006101000a81548160ff02191690831515021790555060018060405180807f4d657869636f00000000000000000000000000000000000000000000000000008152506006019050908152602001604051809103902060006101000a81548160ff02191690831515021790555060018060405180807f4d6f726f63636f000000000000000000000000000000000000000000000000008152506007019050908152602001604051809103902060006101000a81548160ff02191690831515021790555060018060405180807f4e696765726961000000000000000000000000000000000000000000000000008152506007019050908152602001604051809103902060006101000a81548160ff02191690831515021790555060018060405180807f50616e616d6100000000000000000000000000000000000000000000000000008152506006019050908152602001604051809103902060006101000a81548160ff02191690831515021790555060018060405180807f50657275000000000000000000000000000000000000000000000000000000008152506004019050908152602001604051809103902060006101000a81548160ff02191690831515021790555060018060405180807f506f6c616e6400000000000000000000000000000000000000000000000000008152506006019050908152602001604051809103902060006101000a81548160ff02191690831515021790555060018060405180807f506f72747567616c0000000000000000000000000000000000000000000000008152506008019050908152602001604051809103902060006101000a81548160ff02191690831515021790555060018060405180807f52757373696100000000000000000000000000000000000000000000000000008152506006019050908152602001604051809103902060006101000a81548160ff02191690831515021790555060018060405180807f5361756469204172616269610000000000000000000000000000000000000000815250600c019050908152602001604051809103902060006101000a81548160ff02191690831515021790555060018060405180807f53656e6567616c000000000000000000000000000000000000000000000000008152506007019050908152602001604051809103902060006101000a81548160ff02191690831515021790555060018060405180807f53657276696100000000000000000000000000000000000000000000000000008152506006019050908152602001604051809103902060006101000a81548160ff02191690831515021790555060018060405180807f536f757468204b6f726561000000000000000000000000000000000000000000815250600b019050908152602001604051809103902060006101000a81548160ff02191690831515021790555060018060405180807f537061696e0000000000000000000000000000000000000000000000000000008152506005019050908152602001604051809103902060006101000a81548160ff02191690831515021790555060018060405180807f53776564656e00000000000000000000000000000000000000000000000000008152506006019050908152602001604051809103902060006101000a81548160ff02191690831515021790555060018060405180807f537769747a65726c616e64000000000000000000000000000000000000000000815250600b019050908152602001604051809103902060006101000a81548160ff02191690831515021790555060018060405180807f54756e69736961000000000000000000000000000000000000000000000000008152506007019050908152602001604051809103902060006101000a81548160ff02191690831515021790555060018060405180807f55727567756179000000000000000000000000000000000000000000000000008152506007019050908152602001604051809103902060006101000a81548160ff021916908315150217905550565b61280680610b3e6000396000f300608060405260043610610057576000357c0100000000000000000000000000000000000000000000000000000000900463ffffffff1680636e68b2581461005c5780638da5cb5b1461010f578063f2fde38b14610166575b600080fd5b34801561006857600080fd5b506100cd60048036038101908080359060200190820180359060200191909192939192939080359060200190820180359060200191909192939192939080351515906020019092919080359060200190929190803590602001909291905050506101a9565b604051808273ffffffffffffffffffffffffffffffffffffffff1673ffffffffffffffffffffffffffffffffffffffff16815260200191505060405180910390f35b34801561011b57600080fd5b5061012461038d565b604051808273ffffffffffffffffffffffffffffffffffffffff1673ffffffffffffffffffffffffffffffffffffffff16815260200191505060405180910390f35b34801561017257600080fd5b506101a7600480360381019080803573ffffffffffffffffffffffffffffffffffffffff1690602001909291905050506103b2565b005b6000806000809054906101000a900473ffffffffffffffffffffffffffffffffffffffff1673ffffffffffffffffffffffffffffffffffffffff163373ffffffffffffffffffffffffffffffffffffffff1614151561020757600080fd5b61027589898080601f01602080910402602001604051908101604052809392919081815260200183838082843782019150505050505088888080601f016020809104026020016040519081016040528093929190818152602001838380828437820191505050505050610507565b151561028057600080fd5b428411151561028e57600080fd5b8888888888888861029d610619565b8080602001806020018615151515815260200185815260200184815260200183810383528a8a828181526020019250808284378201915050838103825288888281815260200192508082843782019150509950505050505050505050604051809103906000f080158015610315573d6000803e3d6000fd5b50905060028190806001815401808255809150509060018203906000526020600020016000909192909190916101000a81548173ffffffffffffffffffffffffffffffffffffffff021916908373ffffffffffffffffffffffffffffffffffffffff1602179055505080915050979650505050505050565b6000809054906101000a900473ffffffffffffffffffffffffffffffffffffffff1681565b6000809054906101000a900473ffffffffffffffffffffffffffffffffffffffff1673ffffffffffffffffffffffffffffffffffffffff163373ffffffffffffffffffffffffffffffffffffffff1614151561040d57600080fd5b600073ffffffffffffffffffffffffffffffffffffffff168173ffffffffffffffffffffffffffffffffffffffff161415151561044957600080fd5b8073ffffffffffffffffffffffffffffffffffffffff166000809054906101000a900473ffffffffffffffffffffffffffffffffffffffff1673ffffffffffffffffffffffffffffffffffffffff167f8be0079c531659141344cd1fd0a4f28419497f9722a3daafe3b4186f6b6457e060405160405180910390a3806000806101000a81548173ffffffffffffffffffffffffffffffffffffffff021916908373ffffffffffffffffffffffffffffffffffffffff16021790555050565b6000600115156001846040518082805190602001908083835b6020831015156105455780518252602082019150602081019050602083039250610520565b6001836020036101000a038019825116818451168082178552505050505050905001915050908152602001604051809103902060009054906101000a900460ff1615151480156106115750600115156001836040518082805190602001908083835b6020831015156105cc57805182526020820191506020810190506020830392506105a7565b6001836020036101000a038019825116818451168082178552505050505050905001915050908152602001604051809103902060009054906101000a900460ff161515145b905092915050565b6040516121b18061062a83390190560060806040526000600360006101000a81548160ff021916908360048111156200002457fe5b02179055503480156200003657600080fd5b50604051620021b1380380620021b18339810180604052810190808051820192919060200180518201929190602001805190602001909291908051906020019092919080519060200190929190505050336000806101000a81548173ffffffffffffffffffffffffffffffffffffffff021916908373ffffffffffffffffffffffffffffffffffffffff1602179055508460019080519060200190620000de92919062000133565b508360029080519060200190620000f792919062000133565b5082600360016101000a81548160ff021916908315150217905550610384820360058190555080600554036004819055505050505050620001e2565b828054600181600116156101000203166002900490600052602060002090601f016020900481019282601f106200017657805160ff1916838001178555620001a7565b82800160010185558215620001a7579182015b82811115620001a657825182559160200191906001019062000189565b5b509050620001b69190620001ba565b5090565b620001df91905b80821115620001db576000816000905550600101620001c1565b5090565b90565b611fbf80620001f26000396000f30060806040526004361061015f576000357c0100000000000000000000000000000000000000000000000000000000900463ffffffff16806316f0115b146101645780632ddbd13a1461018f57806346ac2054146101ba57806359a5f12d146102115780636273106a146102a15780636bf5f5a7146102cc5780637299551f146102fd5780637d99dd78146103285780637e670b54146103535780638da5cb5b1461037e578063934b495b146103d5578063a5c93cae14610400578063b1c9fe6e1461042b578063c3d17a4514610464578063c75fd34114610493578063c80c975b146104aa578063d0821b0e146104c1578063d2ff19af146104fc578063d30895e414610553578063d430e3d7146105e3578063dfbf53ae146105fa578063e41d9cb714610633578063ea8a1af01461065e578063f111b39b14610675578063f2fde38b146106a0578063f592d8a9146106e3578063f8a8fd6d14610713575b600080fd5b34801561017057600080fd5b50610179610735565b6040518082815260200191505060405180910390f35b34801561019b57600080fd5b506101a461073b565b6040518082815260200191505060405180910390f35b3480156101c657600080fd5b506101fb600480360381019080803573ffffffffffffffffffffffffffffffffffffffff169060200190929190505050610741565b6040518082815260200191505060405180910390f35b34801561021d57600080fd5b50610226610759565b6040518080602001828103825283818151815260200191508051906020019080838360005b8381101561026657808201518184015260208101905061024b565b50505050905090810190601f1680156102935780820380516001836020036101000a031916815260200191505b509250505060405180910390f35b3480156102ad57600080fd5b506102b66107f7565b6040518082815260200191505060405180910390f35b3480156102d857600080fd5b506102e16107fd565b604051808260ff1660ff16815260200191505060405180910390f35b34801561030957600080fd5b50610312610802565b6040518082815260200191505060405180910390f35b34801561033457600080fd5b5061033d610808565b6040518082815260200191505060405180910390f35b34801561035f57600080fd5b5061036861080e565b6040518082815260200191505060405180910390f35b34801561038a57600080fd5b50610393610814565b604051808273ffffffffffffffffffffffffffffffffffffffff1673ffffffffffffffffffffffffffffffffffffffff16815260200191505060405180910390f35b3480156103e157600080fd5b506103ea610839565b6040518082815260200191505060405180910390f35b34801561040c57600080fd5b5061041561083f565b6040518082815260200191505060405180910390f35b34801561043757600080fd5b50610440610845565b6040518082600481111561045057fe5b60ff16815260200191505060405180910390f35b34801561047057600080fd5b50610479610858565b604051808215151515815260200191505060405180910390f35b34801561049f57600080fd5b506104a861086b565b005b3480156104b657600080fd5b506104bf610937565b005b6104e2600480360381019080803560ff169060200190929190505050610b04565b604051808215151515815260200191505060405180910390f35b34801561050857600080fd5b5061053d600480360381019080803573ffffffffffffffffffffffffffffffffffffffff16906020019092919050505061109d565b6040518082815260200191505060405180910390f35b34801561055f57600080fd5b506105686110b5565b6040518080602001828103825283818151815260200191508051906020019080838360005b838110156105a857808201518184015260208101905061058d565b50505050905090810190601f1680156105d55780820380516001836020036101000a031916815260200191505b509250505060405180910390f35b3480156105ef57600080fd5b506105f8611153565b005b34801561060657600080fd5b5061060f611658565b6040518082600281111561061f57fe5b60ff16815260200191505060405180910390f35b34801561063f57600080fd5b5061064861166b565b6040518082815260200191505060405180910390f35b34801561066a57600080fd5b50610673611671565b005b34801561068157600080fd5b5061068a6118e8565b6040518082815260200191505060405180910390f35b3480156106ac57600080fd5b506106e1600480360381019080803573ffffffffffffffffffffffffffffffffffffffff1690602001909291905050506118ef565b005b3480156106ef57600080fd5b50610711600480360381019080803560ff169060200190929190505050611a44565b005b61071b611d83565b604051808215151515815260200191505060405180910390f35b60075481565b600b5481565b600a6020528060005260406000206000915090505481565b60028054600181600116156101000203166002900480601f0160208091040260200160405190810160405280929190818152602001828054600181600116156101000203166002900480156107ef5780601f106107c4576101008083540402835291602001916107ef565b820191906000526020600020905b8154815290600101906020018083116107d257829003601f168201915b505050505081565b60085481565b600581565b600d5481565b600e5481565b600c5481565b6000809054906101000a900473ffffffffffffffffffffffffffffffffffffffff1681565b60045481565b600f5481565b600360009054906101000a900460ff1681565b600360019054906101000a900460ff1681565b60008060009054906101000a900473ffffffffffffffffffffffffffffffffffffffff1673ffffffffffffffffffffffffffffffffffffffff163373ffffffffffffffffffffffffffffffffffffffff161415156108c857600080fd5b6249d400806005540142101515156108df57600080fd5b600854915060006008819055503373ffffffffffffffffffffffffffffffffffffffff166108fc839081150290604051600060405180830381858888f19350505050158015610932573d6000803e3d6000fd5b505050565b600060048081111561094557fe5b600360009054906101000a900460ff16600481111561096057fe5b14151561096c57600080fd5b6249d40080600554014210151561098257600080fd5b600a60003373ffffffffffffffffffffffffffffffffffffffff1673ffffffffffffffffffffffffffffffffffffffff16815260200190815260200160002054600960003373ffffffffffffffffffffffffffffffffffffffff1673ffffffffffffffffffffffffffffffffffffffff16815260200190815260200160002054019150600082111515610a1457600080fd5b6000600960003373ffffffffffffffffffffffffffffffffffffffff1673ffffffffffffffffffffffffffffffffffffffff168152602001908152602001600020819055506000600a60003373ffffffffffffffffffffffffffffffffffffffff1673ffffffffffffffffffffffffffffffffffffffff16815260200190815260200160002081905550610ab382600854611d9190919063ffffffff16565b6008819055503373ffffffffffffffffffffffffffffffffffffffff166108fc839081150290604051600060405180830381858888f19350505050158015610aff573d6000803e3d6000fd5b505050565b6000806004811115610b1257fe5b600360009054906101000a900460ff166004811115610b2d57fe5b148015610b3c57506004544210155b8015610b49575060055442105b15610cc6576001600360006101000a81548160ff02191690836004811115610b6d57fe5b02179055507f3ced90e3557a635a9e84df8530d5fbacd36e7003f133e3b818949cc8bae9e3a860016002600554604051808060200180602001848152602001838103835286818154600181600116156101000203166002900481526020019150805460018160011615610100020316600290048015610c2d5780601f10610c0257610100808354040283529160200191610c2d565b820191906000526020600020905b815481529060010190602001808311610c1057829003601f168201915b5050838103825285818154600181600116156101000203166002900481526020019150805460018160011615610100020316600290048015610cb05780601f10610c8557610100808354040283529160200191610cb0565b820191906000526020600020905b815481529060010190602001808311610c9357829003601f168201915b50509550505050505060405180910390a1610e9d565b60016004811115610cd357fe5b600360009054906101000a900460ff166004811115610cee57fe5b1480610d1f575060006004811115610d0257fe5b600360009054906101000a900460ff166004811115610d1d57fe5b145b8015610d2d57506005544210155b15610e9c576002600360006101000a81548160ff02191690836004811115610d5157fe5b02179055507f9fbf140f4490578e8b792fd42715a4736ecde3b30840bfb653d2dc5a1fc6926460016002604051808060200180602001838103835285818154600181600116156101000203166002900481526020019150805460018160011615610100020316600290048015610e085780601f10610ddd57610100808354040283529160200191610e08565b820191906000526020600020905b815481529060010190602001808311610deb57829003601f168201915b5050838103825284818154600181600116156101000203166002900481526020019150805460018160011615610100020316600290048015610e8b5780601f10610e6057610100808354040283529160200191610e8b565b820191906000526020600020905b815481529060010190602001808311610e6e57829003601f168201915b505094505050505060405180910390a15b5b60016004811115610eaa57fe5b600360009054906101000a900460ff166004811115610ec557fe5b141515610ed157600080fd5b60018260ff161480610ee6575060028260ff16145b1515610ef157600080fd5b600034111515610f0057600080fd5b60018260ff161415610fd257610f5e34600960003373ffffffffffffffffffffffffffffffffffffffff1673ffffffffffffffffffffffffffffffffffffffff16815260200190815260200160002054611daa90919063ffffffff16565b600960003373ffffffffffffffffffffffffffffffffffffffff1673ffffffffffffffffffffffffffffffffffffffff168152602001908152602001600020819055506001600e60008282540192505081905550610fc734600c54611daa90919063ffffffff16565b600c81905550611094565b61102434600a60003373ffffffffffffffffffffffffffffffffffffffff1673ffffffffffffffffffffffffffffffffffffffff16815260200190815260200160002054611daa90919063ffffffff16565b600a60003373ffffffffffffffffffffffffffffffffffffffff1673ffffffffffffffffffffffffffffffffffffffff168152602001908152602001600020819055506001600f6000828254019250508190555061108d34600d54611daa90919063ffffffff16565b600d819055505b60019050919050565b60096020528060005260406000206000915090505481565b60018054600181600116156101000203166002900480601f01602080910402602001604051908101604052809291908181526020018280546001816001161561010002031660029004801561114b5780601f106111205761010080835404028352916020019161114b565b820191906000526020600020905b81548152906001019060200180831161112e57829003601f168201915b505050505081565b6000806003600481111561116357fe5b600360009054906101000a900460ff16600481111561117e57fe5b14151561118a57600080fd5b6249d4008060055401421015156111a057600080fd5b6111a933611dc8565b15156111b457600080fd5b6111cc600660009054906101000a900460ff16611ea3565b15156111d757600080fd5b600060028111156111e457fe5b600660009054906101000a900460ff1660028111156111ff57fe5b14801561124b57506000600960003373ffffffffffffffffffffffffffffffffffffffff1673ffffffffffffffffffffffffffffffffffffffff16815260200190815260200160002054115b1561133d576112bf600c546112b168056bc75e2d63100000600960003373ffffffffffffffffffffffffffffffffffffffff1673ffffffffffffffffffffffffffffffffffffffff16815260200190815260200160002054611f3d90919063ffffffff16565b611f7890919063ffffffff16565b92506112f168056bc75e2d631000006112e385600854611f3d90919063ffffffff16565b611f7890919063ffffffff16565b91506000600960003373ffffffffffffffffffffffffffffffffffffffff1673ffffffffffffffffffffffffffffffffffffffff168152602001908152602001600020819055506115f1565b6001600281111561134a57fe5b600660009054906101000a900460ff16600281111561136557fe5b1480156113b157506000600a60003373ffffffffffffffffffffffffffffffffffffffff1673ffffffffffffffffffffffffffffffffffffffff16815260200190815260200160002054115b156114a357611425600d5461141768056bc75e2d63100000600a60003373ffffffffffffffffffffffffffffffffffffffff1673ffffffffffffffffffffffffffffffffffffffff16815260200190815260200160002054611f3d90919063ffffffff16565b611f7890919063ffffffff16565b925061145768056bc75e2d6310000061144985600854611f3d90919063ffffffff16565b611f7890919063ffffffff16565b91506000600a60003373ffffffffffffffffffffffffffffffffffffffff1673ffffffffffffffffffffffffffffffffffffffff168152602001908152602001600020819055506115f0565b6002808111156114af57fe5b600660009054906101000a900460ff1660028111156114ca57fe5b1480156114dc57506114db33611dc8565b5b156115ef57600a60003373ffffffffffffffffffffffffffffffffffffffff1673ffffffffffffffffffffffffffffffffffffffff16815260200190815260200160002054600960003373ffffffffffffffffffffffffffffffffffffffff1673ffffffffffffffffffffffffffffffffffffffff168152602001908152602001600020540191506000600960003373ffffffffffffffffffffffffffffffffffffffff1673ffffffffffffffffffffffffffffffffffffffff168152602001908152602001600020819055506000600a60003373ffffffffffffffffffffffffffffffffffffffff1673ffffffffffffffffffffffffffffffffffffffff168152602001908152602001600020819055505b5b5b61160682600854611d9190919063ffffffff16565b6008819055503373ffffffffffffffffffffffffffffffffffffffff166108fc839081150290604051600060405180830381858888f19350505050158015611652573d6000803e3d6000fd5b50505050565b600660009054906101000a900460ff1681565b60055481565b6000809054906101000a900473ffffffffffffffffffffffffffffffffffffffff1673ffffffffffffffffffffffffffffffffffffffff163373ffffffffffffffffffffffffffffffffffffffff161415156116cc57600080fd5b600060048111156116d957fe5b600360009054906101000a900460ff1660048111156116f457fe5b148061172557506001600481111561170857fe5b600360009054906101000a900460ff16600481111561172357fe5b145b8061175557506002600481111561173857fe5b600360009054906101000a900460ff16600481111561175357fe5b145b151561176057600080fd5b6004600360006101000a81548160ff0219169083600481111561177f57fe5b021790555061179b600d54600c54611daa90919063ffffffff16565b6008819055507fec8dc6335c2196b8a6d65cd542069150bf6373e8330640096a2074c2ba36df04600160026040518080602001806020018381038352858181546001816001161561010002031660029004815260200191508054600181600116156101000203166002900480156118535780601f1061182857610100808354040283529160200191611853565b820191906000526020600020905b81548152906001019060200180831161183657829003601f168201915b50508381038252848181546001816001161561010002031660029004815260200191508054600181600116156101000203166002900480156118d65780601f106118ab576101008083540402835291602001916118d6565b820191906000526020600020905b8154815290600101906020018083116118b957829003601f168201915b505094505050505060405180910390a1565b6249d40081565b6000809054906101000a900473ffffffffffffffffffffffffffffffffffffffff1673ffffffffffffffffffffffffffffffffffffffff163373ffffffffffffffffffffffffffffffffffffffff1614151561194a57600080fd5b600073ffffffffffffffffffffffffffffffffffffffff168173ffffffffffffffffffffffffffffffffffffffff161415151561198657600080fd5b8073ffffffffffffffffffffffffffffffffffffffff166000809054906101000a900473ffffffffffffffffffffffffffffffffffffffff1673ffffffffffffffffffffffffffffffffffffffff167f8be0079c531659141344cd1fd0a4f28419497f9722a3daafe3b4186f6b6457e060405160405180910390a3806000806101000a81548173ffffffffffffffffffffffffffffffffffffffff021916908373ffffffffffffffffffffffffffffffffffffffff16021790555050565b60008060009054906101000a900473ffffffffffffffffffffffffffffffffffffffff1673ffffffffffffffffffffffffffffffffffffffff163373ffffffffffffffffffffffffffffffffffffffff16141515611aa157600080fd5b60016004811115611aae57fe5b600360009054906101000a900460ff166004811115611ac957fe5b141515611ad557600080fd5b61151880600554014210151515611aeb57600080fd5b611af483611ea3565b1515611aff57600080fd5b82600660006101000a81548160ff02191690836002811115611b1d57fe5b0217905550611b39600d54600c54611daa90919063ffffffff16565b600781905550611b6c6103e8611b5e600560ff16600754611f3d90919063ffffffff16565b611f7890919063ffffffff16565b9150611b8382600754611d9190919063ffffffff16565b60088190555060038060006101000a81548160ff02191690836004811115611ba757fe5b02179055507f7485716c2f853c8babeca53cf09d925920ca7d77b5bbdcec14f7213dc00619c360016002600660009054906101000a900460ff16604051808060200180602001846002811115611bf957fe5b60ff168152602001838103835286818154600181600116156101000203166002900481526020019150805460018160011615610100020316600290048015611c825780601f10611c5757610100808354040283529160200191611c82565b820191906000526020600020905b815481529060010190602001808311611c6557829003601f168201915b5050838103825285818154600181600116156101000203166002900481526020019150805460018160011615610100020316600290048015611d055780601f10611cda57610100808354040283529160200191611d05565b820191906000526020600020905b815481529060010190602001808311611ce857829003601f168201915b50509550505050505060405180910390a16000809054906101000a900473ffffffffffffffffffffffffffffffffffffffff1673ffffffffffffffffffffffffffffffffffffffff166108fc839081150290604051600060405180830381858888f19350505050158015611d7d573d6000803e3d6000fd5b50505050565b600080349050600191505090565b6000828211151515611d9f57fe5b818303905092915050565b6000808284019050838110151515611dbe57fe5b8091505092915050565b600060036004811115611dd757fe5b600360009054906101000a900460ff166004811115611df257fe5b141515611dfe57600080fd5b6000600960008473ffffffffffffffffffffffffffffffffffffffff1673ffffffffffffffffffffffffffffffffffffffff168152602001908152602001600020541180611e8b57506000600a60008473ffffffffffffffffffffffffffffffffffffffff1673ffffffffffffffffffffffffffffffffffffffff16815260200190815260200160002054115b15611e995760019050611e9e565b600090505b919050565b6000806002811115611eb157fe5b826002811115611ebd57fe5b1480611edf575060016002811115611ed157fe5b826002811115611edd57fe5b145b15611eed5760019050611f38565b60011515600360019054906101000a900460ff161515148015611f255750600280811115611f1757fe5b826002811115611f2357fe5b145b15611f335760019050611f38565b600090505b919050565b6000806000841415611f525760009150611f71565b8284029050828482811515611f6357fe5b04141515611f6d57fe5b8091505b5092915050565b6000808284811515611f8657fe5b04905080915050929150505600a165627a7a72305820eea5bb6a7e6befea872f49523101d7b710dedb7c255c455b2087c6198598f8490029a165627a7a72305820eccdfa5fb8f180a5a048932155cd88dce36bbdb28e0eb8cf0a72e123a6268fd40029",
  "source": "pragma solidity ^0.4.23;\r\n\r\nimport './Bet.sol';\r\nimport 'zeppelin-solidity/contracts/ownership/Ownable.sol';\r\n\r\ncontract BetManager is Ownable {\r\n\r\n\tmapping(string => bool) players;\r\n\taddress[] bets;\r\n\r\n\tconstructor() public {\r\n\t\tinitPlayers();\r\n\t}\r\n\r\n\tfunction createBet(\r\n\t  string _player1,\r\n\t  string _player2,\r\n\t  bool _drawAllowed,\r\n\t  uint256 _matchStart,\r\n      uint256 _durationBetting) external onlyOwner returns (address){\r\n      \trequire(areValidPlayers(_player1, _player2));\r\n      \trequire(_matchStart > now);\r\n\r\n      \taddress betContract = new Bet(_player1, _player2, _drawAllowed, _matchStart, _durationBetting);\r\n      \tbets.push(betContract);\r\n\r\n      \treturn betContract;\r\n\t}\r\n\r\n\tfunction areValidPlayers(string p1, string p2) view internal returns (bool){\r\n\t\treturn (players[p1] == true && players[p2] == true);\r\n\t}\r\n\r\n\tfunction initPlayers() private {\r\n\t\tplayers[\"Argentina\"] = true;\r\n\t\tplayers[\"Australia\"] = true;\r\n\t\tplayers[\"Belgium\"] = true;\r\n\t\tplayers[\"Brazil\"] = true;\r\n\t\tplayers[\"Colombia\"] = true;\r\n\t\tplayers[\"Costa Rica\"] = true;\r\n\t\tplayers[\"Croatia\"] = true;\r\n\t\tplayers[\"Denmark\"] = true;\r\n\t\tplayers[\"Egypt\"] = true;\r\n\t\tplayers[\"England\"] = true;\r\n\t\tplayers[\"France\"] = true;\r\n\t\tplayers[\"Germany\"] = true;\r\n\t\tplayers[\"Iceland\"] = true;\r\n\t\tplayers[\"Iran\"] = true;\r\n\t\tplayers[\"Japan\"] = true;\r\n\t\tplayers[\"Mexico\"] = true;\r\n\t\tplayers[\"Morocco\"] = true;\r\n\t\tplayers[\"Nigeria\"] = true;\r\n\t\tplayers[\"Panama\"] = true;\r\n\t\tplayers[\"Peru\"] = true;\r\n\t\tplayers[\"Poland\"] = true;\r\n\t\tplayers[\"Portugal\"] = true;\r\n\t\tplayers[\"Russia\"] = true;\r\n\t\tplayers[\"Saudi Arabia\"] = true;\r\n\t\tplayers[\"Senegal\"] = true;\r\n\t\tplayers[\"Servia\"] = true;\r\n\t\tplayers[\"South Korea\"] = true;\r\n\t\tplayers[\"Spain\"] = true;\r\n\t\tplayers[\"Sweden\"] = true;\r\n\t\tplayers[\"Switzerland\"] = true;\r\n\t\tplayers[\"Tunisia\"] = true;\r\n\t\tplayers[\"Uruguay\"] = true;\r\n\t}\r\n}",
  "sourcePath": "C:\\Users\\mo\\Desktop\\brickblock\\betting-contracts\\contracts\\BetManager.sol",
  "compiler": {
    "name": "solc",
    "version": "0.4.23+commit.124ca40d.Emscripten.clang"
  },
  "schemaVersion": "2.0.0",
  "updatedAt": "2018-04-23T22:34:54.959Z"
}