{
  "contractName": "BetManager",
  "abi": [
    {
      "constant": true,
      "inputs": [],
      "name": "owner",
      "outputs": [
        {
          "name": "",
          "type": "address"
        }
      ],
      "payable": false,
      "stateMutability": "view",
      "type": "function"
    },
    {
      "constant": false,
      "inputs": [
        {
          "name": "newOwner",
          "type": "address"
        }
      ],
      "name": "transferOwnership",
      "outputs": [],
      "payable": false,
      "stateMutability": "nonpayable",
      "type": "function"
    },
    {
      "inputs": [],
      "payable": false,
      "stateMutability": "nonpayable",
      "type": "constructor"
    },
    {
      "anonymous": false,
      "inputs": [
        {
          "indexed": true,
          "name": "previousOwner",
          "type": "address"
        },
        {
          "indexed": true,
          "name": "newOwner",
          "type": "address"
        }
      ],
      "name": "OwnershipTransferred",
      "type": "event"
    },
    {
      "constant": false,
      "inputs": [
        {
          "name": "_p1",
          "type": "string"
        },
        {
          "name": "_p2",
          "type": "string"
        },
        {
          "name": "_drawAllowed",
          "type": "bool"
        },
        {
          "name": "_matchStart",
          "type": "uint256"
        },
        {
          "name": "_durationBetting",
          "type": "uint256"
        },
        {
          "name": "_durationConfirmResult",
          "type": "uint256"
        }
      ],
      "name": "createBet",
      "outputs": [
        {
          "name": "",
          "type": "address"
        }
      ],
      "payable": false,
      "stateMutability": "nonpayable",
      "type": "function"
    }
  ],
  "bytecode": "0x608060405234801561001057600080fd5b50336000806101000a81548173ffffffffffffffffffffffffffffffffffffffff021916908373ffffffffffffffffffffffffffffffffffffffff16021790555061006861006d640100000000026401000000009004565b610b2f565b60018060405180807f417267656e74696e6100000000000000000000000000000000000000000000008152506009019050908152602001604051809103902060006101000a81548160ff02191690831515021790555060018060405180807f4175737472616c696100000000000000000000000000000000000000000000008152506009019050908152602001604051809103902060006101000a81548160ff02191690831515021790555060018060405180807f42656c6769756d000000000000000000000000000000000000000000000000008152506007019050908152602001604051809103902060006101000a81548160ff02191690831515021790555060018060405180807f4272617a696c00000000000000000000000000000000000000000000000000008152506006019050908152602001604051809103902060006101000a81548160ff02191690831515021790555060018060405180807f436f6c6f6d6269610000000000000000000000000000000000000000000000008152506008019050908152602001604051809103902060006101000a81548160ff02191690831515021790555060018060405180807f436f737461205269636100000000000000000000000000000000000000000000815250600a019050908152602001604051809103902060006101000a81548160ff02191690831515021790555060018060405180807f43726f61746961000000000000000000000000000000000000000000000000008152506007019050908152602001604051809103902060006101000a81548160ff02191690831515021790555060018060405180807f44656e6d61726b000000000000000000000000000000000000000000000000008152506007019050908152602001604051809103902060006101000a81548160ff02191690831515021790555060018060405180807f45677970740000000000000000000000000000000000000000000000000000008152506005019050908152602001604051809103902060006101000a81548160ff02191690831515021790555060018060405180807f456e676c616e64000000000000000000000000000000000000000000000000008152506007019050908152602001604051809103902060006101000a81548160ff02191690831515021790555060018060405180807f4672616e636500000000000000000000000000000000000000000000000000008152506006019050908152602001604051809103902060006101000a81548160ff02191690831515021790555060018060405180807f4765726d616e79000000000000000000000000000000000000000000000000008152506007019050908152602001604051809103902060006101000a81548160ff02191690831515021790555060018060405180807f4963656c616e64000000000000000000000000000000000000000000000000008152506007019050908152602001604051809103902060006101000a81548160ff02191690831515021790555060018060405180807f4972616e000000000000000000000000000000000000000000000000000000008152506004019050908152602001604051809103902060006101000a81548160ff02191690831515021790555060018060405180807f4a6170616e0000000000000000000000000000000000000000000000000000008152506005019050908152602001604051809103902060006101000a81548160ff02191690831515021790555060018060405180807f4d657869636f00000000000000000000000000000000000000000000000000008152506006019050908152602001604051809103902060006101000a81548160ff02191690831515021790555060018060405180807f4d6f726f63636f000000000000000000000000000000000000000000000000008152506007019050908152602001604051809103902060006101000a81548160ff02191690831515021790555060018060405180807f4e696765726961000000000000000000000000000000000000000000000000008152506007019050908152602001604051809103902060006101000a81548160ff02191690831515021790555060018060405180807f50616e616d6100000000000000000000000000000000000000000000000000008152506006019050908152602001604051809103902060006101000a81548160ff02191690831515021790555060018060405180807f50657275000000000000000000000000000000000000000000000000000000008152506004019050908152602001604051809103902060006101000a81548160ff02191690831515021790555060018060405180807f506f6c616e6400000000000000000000000000000000000000000000000000008152506006019050908152602001604051809103902060006101000a81548160ff02191690831515021790555060018060405180807f506f72747567616c0000000000000000000000000000000000000000000000008152506008019050908152602001604051809103902060006101000a81548160ff02191690831515021790555060018060405180807f52757373696100000000000000000000000000000000000000000000000000008152506006019050908152602001604051809103902060006101000a81548160ff02191690831515021790555060018060405180807f5361756469204172616269610000000000000000000000000000000000000000815250600c019050908152602001604051809103902060006101000a81548160ff02191690831515021790555060018060405180807f53656e6567616c000000000000000000000000000000000000000000000000008152506007019050908152602001604051809103902060006101000a81548160ff02191690831515021790555060018060405180807f53657276696100000000000000000000000000000000000000000000000000008152506006019050908152602001604051809103902060006101000a81548160ff02191690831515021790555060018060405180807f536f757468204b6f726561000000000000000000000000000000000000000000815250600b019050908152602001604051809103902060006101000a81548160ff02191690831515021790555060018060405180807f537061696e0000000000000000000000000000000000000000000000000000008152506005019050908152602001604051809103902060006101000a81548160ff02191690831515021790555060018060405180807f53776564656e00000000000000000000000000000000000000000000000000008152506006019050908152602001604051809103902060006101000a81548160ff02191690831515021790555060018060405180807f537769747a65726c616e64000000000000000000000000000000000000000000815250600b019050908152602001604051809103902060006101000a81548160ff02191690831515021790555060018060405180807f54756e69736961000000000000000000000000000000000000000000000000008152506007019050908152602001604051809103902060006101000a81548160ff02191690831515021790555060018060405180807f55727567756179000000000000000000000000000000000000000000000000008152506007019050908152602001604051809103902060006101000a81548160ff021916908315150217905550565b6142b880610b3e6000396000f300608060405260043610610057576000357c0100000000000000000000000000000000000000000000000000000000900463ffffffff1680638da5cb5b1461005c578063c25edf5d146100b3578063f2fde38b14610170575b600080fd5b34801561006857600080fd5b506100716101b3565b604051808273ffffffffffffffffffffffffffffffffffffffff1673ffffffffffffffffffffffffffffffffffffffff16815260200191505060405180910390f35b3480156100bf57600080fd5b5061012e6004803603810190808035906020019082018035906020019190919293919293908035906020019082018035906020019190919293919293908035151590602001909291908035906020019092919080359060200190929190803590602001909291905050506101d8565b604051808273ffffffffffffffffffffffffffffffffffffffff1673ffffffffffffffffffffffffffffffffffffffff16815260200191505060405180910390f35b34801561017c57600080fd5b506101b1600480360381019080803573ffffffffffffffffffffffffffffffffffffffff1690602001909291905050506103c5565b005b6000809054906101000a900473ffffffffffffffffffffffffffffffffffffffff1681565b6000806000809054906101000a900473ffffffffffffffffffffffffffffffffffffffff1673ffffffffffffffffffffffffffffffffffffffff163373ffffffffffffffffffffffffffffffffffffffff1614151561023657600080fd5b6102a48a8a8080601f01602080910402602001604051908101604052809392919081815260200183838082843782019150505050505089898080601f01602080910402602001604051908101604052809392919081815260200183838082843782019150505050505061051a565b15156102af57600080fd5b42851115156102bd57600080fd5b89898989898989896102cd61062c565b8080602001806020018715151515815260200186815260200185815260200184815260200183810383528b8b828181526020019250808284378201915050838103825289898281815260200192508082843782019150509a5050505050505050505050604051809103906000f08015801561034c573d6000803e3d6000fd5b50905060028190806001815401808255809150509060018203906000526020600020016000909192909190916101000a81548173ffffffffffffffffffffffffffffffffffffffff021916908373ffffffffffffffffffffffffffffffffffffffff160217905550508091505098975050505050505050565b6000809054906101000a900473ffffffffffffffffffffffffffffffffffffffff1673ffffffffffffffffffffffffffffffffffffffff163373ffffffffffffffffffffffffffffffffffffffff1614151561042057600080fd5b600073ffffffffffffffffffffffffffffffffffffffff168173ffffffffffffffffffffffffffffffffffffffff161415151561045c57600080fd5b8073ffffffffffffffffffffffffffffffffffffffff166000809054906101000a900473ffffffffffffffffffffffffffffffffffffffff1673ffffffffffffffffffffffffffffffffffffffff167f8be0079c531659141344cd1fd0a4f28419497f9722a3daafe3b4186f6b6457e060405160405180910390a3806000806101000a81548173ffffffffffffffffffffffffffffffffffffffff021916908373ffffffffffffffffffffffffffffffffffffffff16021790555050565b6000600115156001846040518082805190602001908083835b6020831015156105585780518252602082019150602081019050602083039250610533565b6001836020036101000a038019825116818451168082178552505050505050905001915050908152602001604051809103902060009054906101000a900460ff1615151480156106245750600115156001836040518082805190602001908083835b6020831015156105df57805182526020820191506020810190506020830392506105ba565b6001836020036101000a038019825116818451168082178552505050505050905001915050908152602001604051809103902060009054906101000a900460ff161515145b905092915050565b604051613c508061063d83390190560060806040526000600860006101000a81548160ff021916908360068111156200002457fe5b02179055506000600e60006101000a81548160ff02191690831515021790555061012c600f55603c60105560006011556000601260006101000a81548160ff02191690831515021790555060405162003c5038038062003c5083398101806040528101908080518201929190602001805182019291906020018051906020019092919080519060200190929190805190602001909291908051906020019092919050505033600560006101000a81548173ffffffffffffffffffffffffffffffffffffffff021916908373ffffffffffffffffffffffffffffffffffffffff160217905550856006908051906020019062000121929190620001be565b5084600790805190602001906200013a929190620001be565b5083600860016101000a81548160ff021916908315150217905550620001718383836200017d640100000000026401000000009004565b5050505050506200026d565b6103848303600a8190555081600a540360098190555061189c600a5401600b8190555080600b5401600c819055506249d400600c5401600d81905550505050565b828054600181600116156101000203166002900490600052602060002090601f016020900481019282601f106200020157805160ff191683800117855562000232565b8280016001018555821562000232579182015b828111156200023157825182559160200191906001019062000214565b5b50905062000241919062000245565b5090565b6200026a91905b80821115620002665760008160009055506001016200024c565b5090565b90565b6139d3806200027d6000396000f3006080604052600436106101ac576000357c0100000000000000000000000000000000000000000000000000000000900463ffffffff168063059db9ca146101b157806316f0115b146101ea57806327dc297e146102155780632ddbd13a1461028c57806338bbfa50146102b7578063465f80c81461037457806346ac20541461039f5780636273106a146103f657806367819ab4146104215780637299551f146104515780637583dc651461047c57806377313b50146104bd5780637d99dd78146104e85780637e670b541461051357806381d01ed31461053e578063833c3890146105ce5780638da5cb5b146105f9578063934b495b14610650578063a5c93cae1461067b578063b1c9fe6e146106a6578063c2a2747b146106df578063c3d17a451461076f578063c75fd3411461079e578063c80c975b146107b5578063d0821b0e146107cc578063d2ff19af14610807578063d430e3d71461085e578063de477c7f14610875578063dfbf53ae146108a5578063e41d9cb7146108de578063ea8a1af014610909578063f2fde38b14610920578063f8a8fd6d14610963578063f8fa35bc14610985575b600080fd5b3480156101bd57600080fd5b506101c66109b0565b604051808260028111156101d657fe5b60ff16815260200191505060405180910390f35b3480156101f657600080fd5b506101ff6109c3565b6040518082815260200191505060405180910390f35b34801561022157600080fd5b5061028a6004803603810190808035600019169060200190929190803590602001908201803590602001908080601f01602080910402602001604051908101604052809392919081815260200183838082843782019150505050505091929192905050506109c9565b005b34801561029857600080fd5b506102a1610cd7565b6040518082815260200191505060405180910390f35b3480156102c357600080fd5b506103726004803603810190808035600019169060200190929190803590602001908201803590602001908080601f0160208091040260200160405190810160405280939291908181526020018383808284378201915050505050509192919290803590602001908201803590602001908080601f0160208091040260200160405190810160405280939291908181526020018383808284378201915050505050509192919290505050610cdd565b005b34801561038057600080fd5b50610389610ce2565b6040518082815260200191505060405180910390f35b3480156103ab57600080fd5b506103e0600480360381019080803573ffffffffffffffffffffffffffffffffffffffff169060200190929190505050610ce8565b6040518082815260200191505060405180910390f35b34801561040257600080fd5b5061040b610d00565b6040518082815260200191505060405180910390f35b34801561042d57600080fd5b5061044f600480360381019080803560ff169060200190929190505050610d06565b005b34801561045d57600080fd5b50610466610e45565b6040518082815260200191505060405180910390f35b34801561048857600080fd5b506104bb600480360381019080803590602001909291908035906020019092919080359060200190929190505050610e4b565b005b3480156104c957600080fd5b506104d2610e8c565b6040518082815260200191505060405180910390f35b3480156104f457600080fd5b506104fd610e92565b6040518082815260200191505060405180910390f35b34801561051f57600080fd5b50610528610e98565b6040518082815260200191505060405180910390f35b34801561054a57600080fd5b50610553610e9e565b6040518080602001828103825283818151815260200191508051906020019080838360005b83811015610593578082015181840152602081019050610578565b50505050905090810190601f1680156105c05780820380516001836020036101000a031916815260200191505b509250505060405180910390f35b3480156105da57600080fd5b506105e3610f3c565b6040518082815260200191505060405180910390f35b34801561060557600080fd5b5061060e610f42565b604051808273ffffffffffffffffffffffffffffffffffffffff1673ffffffffffffffffffffffffffffffffffffffff16815260200191505060405180910390f35b34801561065c57600080fd5b50610665610f68565b6040518082815260200191505060405180910390f35b34801561068757600080fd5b50610690610f6e565b6040518082815260200191505060405180910390f35b3480156106b257600080fd5b506106bb610f74565b604051808260068111156106cb57fe5b60ff16815260200191505060405180910390f35b3480156106eb57600080fd5b506106f4610f87565b6040518080602001828103825283818151815260200191508051906020019080838360005b83811015610734578082015181840152602081019050610719565b50505050905090810190601f1680156107615780820380516001836020036101000a031916815260200191505b509250505060405180910390f35b34801561077b57600080fd5b50610784611025565b604051808215151515815260200191505060405180910390f35b3480156107aa57600080fd5b506107b3611038565b005b3480156107c157600080fd5b506107ca611121565b005b6107ed600480360381019080803560ff16906020019092919050505061134c565b604051808215151515815260200191505060405180910390f35b34801561081357600080fd5b50610848600480360381019080803573ffffffffffffffffffffffffffffffffffffffff1690602001909291905050506118e5565b6040518082815260200191505060405180910390f35b34801561086a57600080fd5b506108736118fd565b005b34801561088157600080fd5b506108a3600480360381019080803560ff16906020019092919050505061208c565b005b3480156108b157600080fd5b506108ba612499565b604051808260028111156108ca57fe5b60ff16815260200191505060405180910390f35b3480156108ea57600080fd5b506108f36124ac565b6040518082815260200191505060405180910390f35b34801561091557600080fd5b5061091e6124b2565b005b34801561092c57600080fd5b50610961600480360381019080803573ffffffffffffffffffffffffffffffffffffffff16906020019092919050505061275a565b005b61096b6128b2565b604051808215151515815260200191505060405180910390f35b34801561099157600080fd5b5061099a6128c0565b6040518082815260200191505060405180910390f35b601260019054906101000a900460ff1681565b60135481565b60606109d36128c6565b73ffffffffffffffffffffffffffffffffffffffff163373ffffffffffffffffffffffffffffffffffffffff16141515610a0c57600080fd5b81905060008151141515610b1e57610a2382612c24565b601260016101000a81548160ff02191690836002811115610a4057fe5b02179055506003600860006101000a81548160ff02191690836006811115610a6457fe5b02179055507f99a572a5bfbfaf0cfbe2a05738e74e8c9e0fe1bd67e8ae6c9d671775b242823982601154600f546040518080602001848152602001838152602001828103825285818151815260200191508051906020019080838360005b83811015610add578082015181840152602081019050610ac2565b50505050905090810190601f168015610b0a5780820380516001836020036101000a031916815260200191505b5094505050505060405180910390a1610cd2565b600f546011541015610c0657610b406001601154612c2e90919063ffffffff16565b6011819055507f89625cca91eeec3f5e417d448631f0a31a66b85211fcece1ebf66292e6995b4582601154600f546040518080602001848152602001838152602001828103825285818151815260200191508051906020019080838360005b83811015610bba578082015181840152602081019050610b9f565b50505050905090810190601f168015610be75780820380516001836020036101000a031916815260200191505b5094505050505060405180910390a1610c01601054612c4c565b610cd1565b6005600860006101000a81548160ff02191690836006811115610c2557fe5b02179055507fe541b4f0e599859696632b45febeaa08da9d13440690feed224729a3e823821082600f546040518080602001838152602001828103825284818151815260200191508051906020019080838360005b83811015610c95578082015181840152602081019050610c7a565b50505050905090810190601f168015610cc25780820380516001836020036101000a031916815260200191505b50935050505060405180910390a15b5b505050565b60185481565b505050565b600b5481565b60176020528060005260406000206000915090505481565b60145481565b600560009054906101000a900473ffffffffffffffffffffffffffffffffffffffff1673ffffffffffffffffffffffffffffffffffffffff163373ffffffffffffffffffffffffffffffffffffffff16141515610d6257600080fd5b60056006811115610d6f57fe5b600860009054906101000a900460ff166006811115610d8a57fe5b14158015610dbe575060046006811115610da057fe5b600860009054906101000a900460ff166006811115610dbb57fe5b14155b1515610dc957600080fd5b600b5442118015610ddc5750600c544211155b1515610de757600080fd5b610df081612cec565b1515610dfb57600080fd5b80601260016101000a81548160ff02191690836002811115610e1957fe5b02179055506003600860006101000a81548160ff02191690836006811115610e3d57fe5b021790555050565b601a5481565b6103848303600a8190555081600a540360098190555061189c600a5401600b8190555080600b5401600c819055506249d400600c5401600d81905550505050565b600c5481565b601b5481565b60195481565b60078054600181600116156101000203166002900480601f016020809104026020016040519081016040528092919081815260200182805460018160011615610100020316600290048015610f345780601f10610f0957610100808354040283529160200191610f34565b820191906000526020600020905b815481529060010190602001808311610f1757829003601f168201915b505050505081565b600d5481565b600560009054906101000a900473ffffffffffffffffffffffffffffffffffffffff1681565b60095481565b601c5481565b600860009054906101000a900460ff1681565b60068054600181600116156101000203166002900480601f01602080910402602001604051908101604052809291908181526020018280546001816001161561010002031660029004801561101d5780601f10610ff25761010080835404028352916020019161101d565b820191906000526020600020905b81548152906001019060200180831161100057829003601f168201915b505050505081565b600860019054906101000a900460ff1681565b6000600560009054906101000a900473ffffffffffffffffffffffffffffffffffffffff1673ffffffffffffffffffffffffffffffffffffffff163373ffffffffffffffffffffffffffffffffffffffff1614151561109657600080fd5b600d54421115156110a657600080fd5b601454905060006014819055506006600860006101000a81548160ff021916908360068111156110d257fe5b02179055503373ffffffffffffffffffffffffffffffffffffffff166108fc829081150290604051600060405180830381858888f1935050505015801561111d573d6000803e3d6000fd5b5050565b60006005600681111561113057fe5b600860009054906101000a900460ff16600681111561114b57fe5b14151561115757600080fd5b6005600681111561116457fe5b600860009054906101000a900460ff16600681111561117f57fe5b14806111b057506004600681111561119357fe5b600860009054906101000a900460ff1660068111156111ae57fe5b145b15156111bb57600080fd5b600d54421015156111cb57600080fd5b601760003373ffffffffffffffffffffffffffffffffffffffff1673ffffffffffffffffffffffffffffffffffffffff16815260200190815260200160002054601660003373ffffffffffffffffffffffffffffffffffffffff1673ffffffffffffffffffffffffffffffffffffffff1681526020019081526020016000205401905060008111151561125d57600080fd5b6000601660003373ffffffffffffffffffffffffffffffffffffffff1673ffffffffffffffffffffffffffffffffffffffff168152602001908152602001600020819055506000601760003373ffffffffffffffffffffffffffffffffffffffff1673ffffffffffffffffffffffffffffffffffffffff168152602001908152602001600020819055506112fc81601454612d8690919063ffffffff16565b6014819055503373ffffffffffffffffffffffffffffffffffffffff166108fc829081150290604051600060405180830381858888f19350505050158015611348573d6000803e3d6000fd5b5050565b600080600681111561135a57fe5b600860009054906101000a900460ff16600681111561137557fe5b14801561138457506009544210155b80156113915750600a5442105b1561150e576001600860006101000a81548160ff021916908360068111156113b557fe5b02179055507f3ced90e3557a635a9e84df8530d5fbacd36e7003f133e3b818949cc8bae9e3a860066007600a546040518080602001806020018481526020018381038352868181546001816001161561010002031660029004815260200191508054600181600116156101000203166002900480156114755780601f1061144a57610100808354040283529160200191611475565b820191906000526020600020905b81548152906001019060200180831161145857829003601f168201915b50508381038252858181546001816001161561010002031660029004815260200191508054600181600116156101000203166002900480156114f85780601f106114cd576101008083540402835291602001916114f8565b820191906000526020600020905b8154815290600101906020018083116114db57829003601f168201915b50509550505050505060405180910390a16116e5565b6001600681111561151b57fe5b600860009054906101000a900460ff16600681111561153657fe5b148061156757506000600681111561154a57fe5b600860009054906101000a900460ff16600681111561156557fe5b145b80156115755750600a544210155b156116e4576002600860006101000a81548160ff0219169083600681111561159957fe5b02179055507f9fbf140f4490578e8b792fd42715a4736ecde3b30840bfb653d2dc5a1fc69264600660076040518080602001806020018381038352858181546001816001161561010002031660029004815260200191508054600181600116156101000203166002900480156116505780601f1061162557610100808354040283529160200191611650565b820191906000526020600020905b81548152906001019060200180831161163357829003601f168201915b50508381038252848181546001816001161561010002031660029004815260200191508054600181600116156101000203166002900480156116d35780601f106116a8576101008083540402835291602001916116d3565b820191906000526020600020905b8154815290600101906020018083116116b657829003601f168201915b505094505050505060405180910390a15b5b600160068111156116f257fe5b600860009054906101000a900460ff16600681111561170d57fe5b14151561171957600080fd5b60008260ff16148061172e575060018260ff16145b151561173957600080fd5b60003411151561174857600080fd5b60008260ff16141561181a576117a634601660003373ffffffffffffffffffffffffffffffffffffffff1673ffffffffffffffffffffffffffffffffffffffff16815260200190815260200160002054612c2e90919063ffffffff16565b601660003373ffffffffffffffffffffffffffffffffffffffff1673ffffffffffffffffffffffffffffffffffffffff168152602001908152602001600020819055506001601b6000828254019250508190555061180f34601954612c2e90919063ffffffff16565b6019819055506118dc565b61186c34601760003373ffffffffffffffffffffffffffffffffffffffff1673ffffffffffffffffffffffffffffffffffffffff16815260200190815260200160002054612c2e90919063ffffffff16565b601760003373ffffffffffffffffffffffffffffffffffffffff1673ffffffffffffffffffffffffffffffffffffffff168152602001908152602001600020819055506001601c600082825401925050819055506118d534601a54612c2e90919063ffffffff16565b601a819055505b60019050919050565b60166020528060005260406000206000915090505481565b60008060001515600e60009054906101000a900460ff16151514801561194957506004600681111561192b57fe5b600860009054906101000a900460ff16600681111561194657fe5b14155b801561197b57506005600681111561195d57fe5b600860009054906101000a900460ff16600681111561197857fe5b14155b156119a65761198a6000612c4c565b6001600e60006101000a81548160ff0219169083151502179055505b600460068111156119b357fe5b600860009054906101000a900460ff1660068111156119ce57fe5b1415156119da57600080fd5b600560068111156119e757fe5b600860009054906101000a900460ff166006811115611a0257fe5b1480611a33575060046006811115611a1657fe5b600860009054906101000a900460ff166006811115611a3157fe5b145b1515611a3e57600080fd5b600d5442101515611a4e57600080fd5b60006002811115611a5b57fe5b601260029054906101000a900460ff166002811115611a7657fe5b148015611ac257506000601660003373ffffffffffffffffffffffffffffffffffffffff1673ffffffffffffffffffffffffffffffffffffffff16815260200190815260200160002054115b80611b3d575060016002811115611ad557fe5b601260029054906101000a900460ff166002811115611af057fe5b148015611b3c57506000601760003373ffffffffffffffffffffffffffffffffffffffff1673ffffffffffffffffffffffffffffffffffffffff16815260200190815260200160002054115b5b80611c015750600280811115611b4f57fe5b601260029054906101000a900460ff166002811115611b6a57fe5b148015611c0057506000601660003373ffffffffffffffffffffffffffffffffffffffff1673ffffffffffffffffffffffffffffffffffffffff168152602001908152602001600020541180611bff57506000601760003373ffffffffffffffffffffffffffffffffffffffff1673ffffffffffffffffffffffffffffffffffffffff16815260200190815260200160002054115b5b5b1515611c0c57600080fd5b60006002811115611c1957fe5b601260029054906101000a900460ff166002811115611c3457fe5b148015611c8057506000601660003373ffffffffffffffffffffffffffffffffffffffff1673ffffffffffffffffffffffffffffffffffffffff16815260200190815260200160002054115b15611d7257611cf4601954611ce668056bc75e2d63100000601660003373ffffffffffffffffffffffffffffffffffffffff1673ffffffffffffffffffffffffffffffffffffffff16815260200190815260200160002054612d9f90919063ffffffff16565b612dda90919063ffffffff16565b9150611d2668056bc75e2d63100000611d1884601454612d9f90919063ffffffff16565b612dda90919063ffffffff16565b90506000601660003373ffffffffffffffffffffffffffffffffffffffff1673ffffffffffffffffffffffffffffffffffffffff16815260200190815260200160002081905550612026565b60016002811115611d7f57fe5b601260029054906101000a900460ff166002811115611d9a57fe5b148015611de657506000601760003373ffffffffffffffffffffffffffffffffffffffff1673ffffffffffffffffffffffffffffffffffffffff16815260200190815260200160002054115b15611ed857611e5a601a54611e4c68056bc75e2d63100000601760003373ffffffffffffffffffffffffffffffffffffffff1673ffffffffffffffffffffffffffffffffffffffff16815260200190815260200160002054612d9f90919063ffffffff16565b612dda90919063ffffffff16565b9150611e8c68056bc75e2d63100000611e7e84601454612d9f90919063ffffffff16565b612dda90919063ffffffff16565b90506000601760003373ffffffffffffffffffffffffffffffffffffffff1673ffffffffffffffffffffffffffffffffffffffff16815260200190815260200160002081905550612025565b600280811115611ee457fe5b601260029054906101000a900460ff166002811115611eff57fe5b148015611f115750611f1033612df5565b5b1561202457601760003373ffffffffffffffffffffffffffffffffffffffff1673ffffffffffffffffffffffffffffffffffffffff16815260200190815260200160002054601660003373ffffffffffffffffffffffffffffffffffffffff1673ffffffffffffffffffffffffffffffffffffffff168152602001908152602001600020540190506000601660003373ffffffffffffffffffffffffffffffffffffffff1673ffffffffffffffffffffffffffffffffffffffff168152602001908152602001600020819055506000601760003373ffffffffffffffffffffffffffffffffffffffff1673ffffffffffffffffffffffffffffffffffffffff168152602001908152602001600020819055505b5b5b61203b81601454612d8690919063ffffffff16565b6014819055503373ffffffffffffffffffffffffffffffffffffffff166108fc829081150290604051600060405180830381858888f19350505050158015612087573d6000803e3d6000fd5b505050565b6000600560009054906101000a900473ffffffffffffffffffffffffffffffffffffffff1673ffffffffffffffffffffffffffffffffffffffff163373ffffffffffffffffffffffffffffffffffffffff161415156120ea57600080fd5b60038060068111156120f857fe5b600860009054906101000a900460ff16600681111561211357fe5b14151561211f57600080fd5b6005600681111561212c57fe5b600860009054906101000a900460ff16600681111561214757fe5b1415801561217b57506004600681111561215d57fe5b600860009054906101000a900460ff16600681111561217857fe5b14155b151561218657600080fd5b600b54421180156121995750600c544211155b15156121a457600080fd5b8260028111156121b057fe5b601260019054906101000a900460ff1660028111156121cb57fe5b1480156121dd57506121dc83612cec565b5b1561248b5782601260026101000a81548160ff0219169083600281111561220057fe5b02179055506004600860006101000a81548160ff0219169083600681111561222457fe5b0217905550612240601a54601954612c2e90919063ffffffff16565b6013819055506000601354111561230f5761227d606461226f600160ff16601354612d9f90919063ffffffff16565b612dda90919063ffffffff16565b91508160158190555061229b82601354612d8690919063ffffffff16565b601481905550600560009054906101000a900473ffffffffffffffffffffffffffffffffffffffff1673ffffffffffffffffffffffffffffffffffffffff166108fc839081150290604051600060405180830381858888f19350505050158015612309573d6000803e3d6000fd5b5061231c565b6000915060006014819055505b7f7485716c2f853c8babeca53cf09d925920ca7d77b5bbdcec14f7213dc00619c360066007601260029054906101000a900460ff1660405180806020018060200184600281111561236957fe5b60ff1681526020018381038352868181546001816001161561010002031660029004815260200191508054600181600116156101000203166002900480156123f25780601f106123c7576101008083540402835291602001916123f2565b820191906000526020600020905b8154815290600101906020018083116123d557829003601f168201915b50508381038252858181546001816001161561010002031660029004815260200191508054600181600116156101000203166002900480156124755780601f1061244a57610100808354040283529160200191612475565b820191906000526020600020905b81548152906001019060200180831161245857829003601f168201915b50509550505050505060405180910390a1612494565b6124936124b2565b5b505050565b601260029054906101000a900460ff1681565b600a5481565b600560009054906101000a900473ffffffffffffffffffffffffffffffffffffffff1673ffffffffffffffffffffffffffffffffffffffff163373ffffffffffffffffffffffffffffffffffffffff1614151561250e57600080fd5b6000600681111561251b57fe5b600860009054906101000a900460ff16600681111561253657fe5b148061256757506001600681111561254a57fe5b600860009054906101000a900460ff16600681111561256557fe5b145b8061259757506002600681111561257a57fe5b600860009054906101000a900460ff16600681111561259557fe5b145b806125c75750600360068111156125aa57fe5b600860009054906101000a900460ff1660068111156125c557fe5b145b15156125d257600080fd5b6005600860006101000a81548160ff021916908360068111156125f157fe5b021790555061260d601a54601954612c2e90919063ffffffff16565b6014819055507fec8dc6335c2196b8a6d65cd542069150bf6373e8330640096a2074c2ba36df04600660076040518080602001806020018381038352858181546001816001161561010002031660029004815260200191508054600181600116156101000203166002900480156126c55780601f1061269a576101008083540402835291602001916126c5565b820191906000526020600020905b8154815290600101906020018083116126a857829003601f168201915b50508381038252848181546001816001161561010002031660029004815260200191508054600181600116156101000203166002900480156127485780601f1061271d57610100808354040283529160200191612748565b820191906000526020600020905b81548152906001019060200180831161272b57829003601f168201915b505094505050505060405180910390a1565b600560009054906101000a900473ffffffffffffffffffffffffffffffffffffffff1673ffffffffffffffffffffffffffffffffffffffff163373ffffffffffffffffffffffffffffffffffffffff161415156127b657600080fd5b600073ffffffffffffffffffffffffffffffffffffffff168173ffffffffffffffffffffffffffffffffffffffff16141515156127f257600080fd5b8073ffffffffffffffffffffffffffffffffffffffff16600560009054906101000a900473ffffffffffffffffffffffffffffffffffffffff1673ffffffffffffffffffffffffffffffffffffffff167f8be0079c531659141344cd1fd0a4f28419497f9722a3daafe3b4186f6b6457e060405160405180910390a380600560006101000a81548173ffffffffffffffffffffffffffffffffffffffff021916908373ffffffffffffffffffffffffffffffffffffffff16021790555050565b600080349050600191505090565b60155481565b6000806000809054906101000a900473ffffffffffffffffffffffffffffffffffffffff1673ffffffffffffffffffffffffffffffffffffffff161480612936575060006129346000809054906101000a900473ffffffffffffffffffffffffffffffffffffffff16612e9b565b145b15612947576129456000612ea6565b505b6000809054906101000a900473ffffffffffffffffffffffffffffffffffffffff1673ffffffffffffffffffffffffffffffffffffffff166338cc48316040518163ffffffff167c0100000000000000000000000000000000000000000000000000000000028152600401602060405180830381600087803b1580156129cc57600080fd5b505af11580156129e0573d6000803e3d6000fd5b505050506040513d60208110156129f657600080fd5b810190808051906020019092919050505073ffffffffffffffffffffffffffffffffffffffff16600160009054906101000a900473ffffffffffffffffffffffffffffffffffffffff1673ffffffffffffffffffffffffffffffffffffffff16141515612b5e576000809054906101000a900473ffffffffffffffffffffffffffffffffffffffff1673ffffffffffffffffffffffffffffffffffffffff166338cc48316040518163ffffffff167c0100000000000000000000000000000000000000000000000000000000028152600401602060405180830381600087803b158015612ae257600080fd5b505af1158015612af6573d6000803e3d6000fd5b505050506040513d6020811015612b0c57600080fd5b8101908080519060200190929190505050600160006101000a81548173ffffffffffffffffffffffffffffffffffffffff021916908373ffffffffffffffffffffffffffffffffffffffff1602179055505b600160009054906101000a900473ffffffffffffffffffffffffffffffffffffffff1673ffffffffffffffffffffffffffffffffffffffff1663c281d19e6040518163ffffffff167c0100000000000000000000000000000000000000000000000000000000028152600401602060405180830381600087803b158015612be457600080fd5b505af1158015612bf8573d6000803e3d6000fd5b505050506040513d6020811015612c0e57600080fd5b8101908080519060200190929190505050905090565b6000809050919050565b6000808284019050838110151515612c4257fe5b8091505092915050565b612ce8816040805190810160405280600381526020017f55524c0000000000000000000000000000000000000000000000000000000000815250606060405190810160405280602781526020017f6a736f6e2868747470733a2f2f574f524c444355505f55524c292e6d6174636881526020017f2e726573756c7400000000000000000000000000000000000000000000000000815250612eb7565b5050565b6000806002811115612cfa57fe5b826002811115612d0657fe5b1480612d28575060016002811115612d1a57fe5b826002811115612d2657fe5b145b15612d365760019050612d81565b60011515600860019054906101000a900460ff161515148015612d6e5750600280811115612d6057fe5b826002811115612d6c57fe5b145b15612d7c5760019050612d81565b600090505b919050565b6000828211151515612d9457fe5b818303905092915050565b6000806000841415612db45760009150612dd3565b8284029050828482811515612dc557fe5b04141515612dcf57fe5b8091505b5092915050565b6000808284811515612de857fe5b0490508091505092915050565b600080601660008473ffffffffffffffffffffffffffffffffffffffff1673ffffffffffffffffffffffffffffffffffffffff168152602001908152602001600020541180612e8357506000601760008473ffffffffffffffffffffffffffffffffffffffff1673ffffffffffffffffffffffffffffffffffffffff16815260200190815260200160002054115b15612e915760019050612e96565b600090505b919050565b6000813b9050919050565b6000612eb0613459565b9050919050565b60008060008060009054906101000a900473ffffffffffffffffffffffffffffffffffffffff1673ffffffffffffffffffffffffffffffffffffffff161480612f2957506000612f276000809054906101000a900473ffffffffffffffffffffffffffffffffffffffff16612e9b565b145b15612f3a57612f386000612ea6565b505b6000809054906101000a900473ffffffffffffffffffffffffffffffffffffffff1673ffffffffffffffffffffffffffffffffffffffff166338cc48316040518163ffffffff167c0100000000000000000000000000000000000000000000000000000000028152600401602060405180830381600087803b158015612fbf57600080fd5b505af1158015612fd3573d6000803e3d6000fd5b505050506040513d6020811015612fe957600080fd5b810190808051906020019092919050505073ffffffffffffffffffffffffffffffffffffffff16600160009054906101000a900473ffffffffffffffffffffffffffffffffffffffff1673ffffffffffffffffffffffffffffffffffffffff16141515613151576000809054906101000a900473ffffffffffffffffffffffffffffffffffffffff1673ffffffffffffffffffffffffffffffffffffffff166338cc48316040518163ffffffff167c0100000000000000000000000000000000000000000000000000000000028152600401602060405180830381600087803b1580156130d557600080fd5b505af11580156130e9573d6000803e3d6000fd5b505050506040513d60208110156130ff57600080fd5b8101908080519060200190929190505050600160006101000a81548173ffffffffffffffffffffffffffffffffffffffff021916908373ffffffffffffffffffffffffffffffffffffffff1602179055505b600160009054906101000a900473ffffffffffffffffffffffffffffffffffffffff1673ffffffffffffffffffffffffffffffffffffffff1663524f3889856040518263ffffffff167c01000000000000000000000000000000000000000000000000000000000281526004018080602001828103825283818151815260200191508051906020019080838360005b838110156131fb5780820151818401526020810190506131e0565b50505050905090810190601f1680156132285780820380516001836020036101000a031916815260200191505b5092505050602060405180830381600087803b15801561324757600080fd5b505af115801561325b573d6000803e3d6000fd5b505050506040513d602081101561327157600080fd5b8101908080519060200190929190505050905062030d403a02670de0b6b3a7640000018111156132a75760006001029150613451565b600160009054906101000a900473ffffffffffffffffffffffffffffffffffffffff1673ffffffffffffffffffffffffffffffffffffffff1663adf59f99828787876040518563ffffffff167c0100000000000000000000000000000000000000000000000000000000028152600401808481526020018060200180602001838103835285818151815260200191508051906020019080838360005b8381101561335e578082015181840152602081019050613343565b50505050905090810190601f16801561338b5780820380516001836020036101000a031916815260200191505b50838103825284818151815260200191508051906020019080838360005b838110156133c45780820151818401526020810190506133a9565b50505050905090810190601f1680156133f15780820380516001836020036101000a031916815260200191505b50955050505050506020604051808303818588803b15801561341257600080fd5b505af1158015613426573d6000803e3d6000fd5b50505050506040513d602081101561343d57600080fd5b810190808051906020019092919050505091505b509392505050565b600080613479731d3b2638a7cc9f2cb3d298a3da7a90b67e5506ed612e9b565b111561351a57731d3b2638a7cc9f2cb3d298a3da7a90b67e5506ed6000806101000a81548173ffffffffffffffffffffffffffffffffffffffff021916908373ffffffffffffffffffffffffffffffffffffffff1602179055506135116040805190810160405280600b81526020017f6574685f6d61696e6e65740000000000000000000000000000000000000000008152506138e8565b600190506138e5565b600061353973c03a2615d5efaf5f49f60b7bb6583eaec212fdf1612e9b565b11156135da5773c03a2615d5efaf5f49f60b7bb6583eaec212fdf16000806101000a81548173ffffffffffffffffffffffffffffffffffffffff021916908373ffffffffffffffffffffffffffffffffffffffff1602179055506135d16040805190810160405280600c81526020017f6574685f726f707374656e3300000000000000000000000000000000000000008152506138e8565b600190506138e5565b60006135f973b7a07bcf2ba2f2703b24c0691b5278999c59ac7e612e9b565b111561369a5773b7a07bcf2ba2f2703b24c0691b5278999c59ac7e6000806101000a81548173ffffffffffffffffffffffffffffffffffffffff021916908373ffffffffffffffffffffffffffffffffffffffff1602179055506136916040805190810160405280600981526020017f6574685f6b6f76616e00000000000000000000000000000000000000000000008152506138e8565b600190506138e5565b60006136b973146500cfd35b22e4a392fe0adc06de1a1368ed48612e9b565b111561375a5773146500cfd35b22e4a392fe0adc06de1a1368ed486000806101000a81548173ffffffffffffffffffffffffffffffffffffffff021916908373ffffffffffffffffffffffffffffffffffffffff1602179055506137516040805190810160405280600b81526020017f6574685f72696e6b6562790000000000000000000000000000000000000000008152506138e8565b600190506138e5565b6000613779736f485c8bf6fc43ea212e93bbf8ce046c7f1cb475612e9b565b11156137dc57736f485c8bf6fc43ea212e93bbf8ce046c7f1cb4756000806101000a81548173ffffffffffffffffffffffffffffffffffffffff021916908373ffffffffffffffffffffffffffffffffffffffff160217905550600190506138e5565b60006137fb7320e12a1f859b3feae5fb2a0a32c18f5a65555bbf612e9b565b111561385e577320e12a1f859b3feae5fb2a0a32c18f5a65555bbf6000806101000a81548173ffffffffffffffffffffffffffffffffffffffff021916908373ffffffffffffffffffffffffffffffffffffffff160217905550600190506138e5565b600061387d7351efaf4c8b3c9afbd5ab9f4bbc82784ab6ef8faa612e9b565b11156138e0577351efaf4c8b3c9afbd5ab9f4bbc82784ab6ef8faa6000806101000a81548173ffffffffffffffffffffffffffffffffffffffff021916908373ffffffffffffffffffffffffffffffffffffffff160217905550600190506138e5565b600090505b90565b80600290805190602001906138fe929190613902565b5050565b828054600181600116156101000203166002900490600052602060002090601f016020900481019282601f1061394357805160ff1916838001178555613971565b82800160010185558215613971579182015b82811115613970578251825591602001919060010190613955565b5b50905061397e9190613982565b5090565b6139a491905b808211156139a0576000816000905550600101613988565b5090565b905600a165627a7a723058200432c3c8b1585659a865750a59876e7ab546adf2b97452a240b5a92f940df0ff0029a165627a7a723058203d7bb07b7c25f23b4253c3cacb8b281d3b9b0bfa5e12c4b2f90de2743b7631e30029",
  "source": "pragma solidity ^0.4.23;\r\n\r\nimport './Bet.sol';\r\nimport 'zeppelin-solidity/contracts/ownership/Ownable.sol';\r\n\r\ncontract BetManager is Ownable {\r\n\r\n\tmapping(string => bool) players;\r\n\taddress[] bets;\r\n\r\n\tconstructor() public {\r\n\t\tinitPlayers();\r\n\t}\r\n\r\n\tfunction createBet(\r\n\t\tstring _p1,\r\n\t\tstring _p2,\r\n\t\tbool _drawAllowed,\r\n\t\tuint256 _matchStart,\r\n\t    uint256 _durationBetting,\r\n\t    uint256 _durationConfirmResult)\r\n\t\texternal onlyOwner returns (address)\r\n\t{\r\n\t    require(areValidPlayers(_p1, _p2));\r\n      \trequire(_matchStart > now);\r\n\r\n      \taddress betContract = new Bet(_p1, _p2, _drawAllowed, _matchStart, _durationBetting, _durationConfirmResult);\r\n      \tbets.push(betContract);\r\n\r\n      \treturn betContract;\r\n\t}\r\n\r\n\tfunction areValidPlayers(string p1, string p2) internal view returns (bool) {\r\n\t\treturn (players[p1] == true && players[p2] == true);\r\n\t}\r\n\r\n\tfunction initPlayers() private {\r\n\t\tplayers[\"Argentina\"] = true;\r\n\t\tplayers[\"Australia\"] = true;\r\n\t\tplayers[\"Belgium\"] = true;\r\n\t\tplayers[\"Brazil\"] = true;\r\n\t\tplayers[\"Colombia\"] = true;\r\n\t\tplayers[\"Costa Rica\"] = true;\r\n\t\tplayers[\"Croatia\"] = true;\r\n\t\tplayers[\"Denmark\"] = true;\r\n\t\tplayers[\"Egypt\"] = true;\r\n\t\tplayers[\"England\"] = true;\r\n\t\tplayers[\"France\"] = true;\r\n\t\tplayers[\"Germany\"] = true;\r\n\t\tplayers[\"Iceland\"] = true;\r\n\t\tplayers[\"Iran\"] = true;\r\n\t\tplayers[\"Japan\"] = true;\r\n\t\tplayers[\"Mexico\"] = true;\r\n\t\tplayers[\"Morocco\"] = true;\r\n\t\tplayers[\"Nigeria\"] = true;\r\n\t\tplayers[\"Panama\"] = true;\r\n\t\tplayers[\"Peru\"] = true;\r\n\t\tplayers[\"Poland\"] = true;\r\n\t\tplayers[\"Portugal\"] = true;\r\n\t\tplayers[\"Russia\"] = true;\r\n\t\tplayers[\"Saudi Arabia\"] = true;\r\n\t\tplayers[\"Senegal\"] = true;\r\n\t\tplayers[\"Servia\"] = true;\r\n\t\tplayers[\"South Korea\"] = true;\r\n\t\tplayers[\"Spain\"] = true;\r\n\t\tplayers[\"Sweden\"] = true;\r\n\t\tplayers[\"Switzerland\"] = true;\r\n\t\tplayers[\"Tunisia\"] = true;\r\n\t\tplayers[\"Uruguay\"] = true;\r\n\t}\r\n}",
  "sourcePath": "/home/mo/dev/worldcup-betting/contracts/BetManager.sol",
  "compiler": {
    "name": "solc",
    "version": "0.4.23+commit.124ca40d.Emscripten.clang"
  },
  "schemaVersion": "2.0.0",
  "updatedAt": "2018-05-02T12:35:46.388Z"
}