{
  "contractName": "BetManager",
  "abi": [
    {
      "constant": true,
      "inputs": [],
      "name": "owner",
      "outputs": [
        {
          "name": "",
          "type": "address"
        }
      ],
      "payable": false,
      "stateMutability": "view",
      "type": "function"
    },
    {
      "constant": false,
      "inputs": [
        {
          "name": "newOwner",
          "type": "address"
        }
      ],
      "name": "transferOwnership",
      "outputs": [],
      "payable": false,
      "stateMutability": "nonpayable",
      "type": "function"
    },
    {
      "inputs": [],
      "payable": false,
      "stateMutability": "nonpayable",
      "type": "constructor"
    },
    {
      "anonymous": false,
      "inputs": [
        {
          "indexed": true,
          "name": "previousOwner",
          "type": "address"
        },
        {
          "indexed": true,
          "name": "newOwner",
          "type": "address"
        }
      ],
      "name": "OwnershipTransferred",
      "type": "event"
    },
    {
      "constant": false,
      "inputs": [
        {
          "name": "_p1",
          "type": "string"
        },
        {
          "name": "_p2",
          "type": "string"
        },
        {
          "name": "_drawAllowed",
          "type": "bool"
        },
        {
          "name": "_matchStart",
          "type": "uint256"
        },
        {
          "name": "_durationBetting",
          "type": "uint256"
        },
        {
          "name": "_durationConfirmResult",
          "type": "uint256"
        }
      ],
      "name": "createBet",
      "outputs": [
        {
          "name": "",
          "type": "address"
        }
      ],
      "payable": false,
      "stateMutability": "nonpayable",
      "type": "function"
    }
  ],
  "bytecode": "0x608060405234801561001057600080fd5b50336000806101000a81548173ffffffffffffffffffffffffffffffffffffffff021916908373ffffffffffffffffffffffffffffffffffffffff16021790555061006861006d640100000000026401000000009004565b610b2f565b60018060405180807f417267656e74696e6100000000000000000000000000000000000000000000008152506009019050908152602001604051809103902060006101000a81548160ff02191690831515021790555060018060405180807f4175737472616c696100000000000000000000000000000000000000000000008152506009019050908152602001604051809103902060006101000a81548160ff02191690831515021790555060018060405180807f42656c6769756d000000000000000000000000000000000000000000000000008152506007019050908152602001604051809103902060006101000a81548160ff02191690831515021790555060018060405180807f4272617a696c00000000000000000000000000000000000000000000000000008152506006019050908152602001604051809103902060006101000a81548160ff02191690831515021790555060018060405180807f436f6c6f6d6269610000000000000000000000000000000000000000000000008152506008019050908152602001604051809103902060006101000a81548160ff02191690831515021790555060018060405180807f436f737461205269636100000000000000000000000000000000000000000000815250600a019050908152602001604051809103902060006101000a81548160ff02191690831515021790555060018060405180807f43726f61746961000000000000000000000000000000000000000000000000008152506007019050908152602001604051809103902060006101000a81548160ff02191690831515021790555060018060405180807f44656e6d61726b000000000000000000000000000000000000000000000000008152506007019050908152602001604051809103902060006101000a81548160ff02191690831515021790555060018060405180807f45677970740000000000000000000000000000000000000000000000000000008152506005019050908152602001604051809103902060006101000a81548160ff02191690831515021790555060018060405180807f456e676c616e64000000000000000000000000000000000000000000000000008152506007019050908152602001604051809103902060006101000a81548160ff02191690831515021790555060018060405180807f4672616e636500000000000000000000000000000000000000000000000000008152506006019050908152602001604051809103902060006101000a81548160ff02191690831515021790555060018060405180807f4765726d616e79000000000000000000000000000000000000000000000000008152506007019050908152602001604051809103902060006101000a81548160ff02191690831515021790555060018060405180807f4963656c616e64000000000000000000000000000000000000000000000000008152506007019050908152602001604051809103902060006101000a81548160ff02191690831515021790555060018060405180807f4972616e000000000000000000000000000000000000000000000000000000008152506004019050908152602001604051809103902060006101000a81548160ff02191690831515021790555060018060405180807f4a6170616e0000000000000000000000000000000000000000000000000000008152506005019050908152602001604051809103902060006101000a81548160ff02191690831515021790555060018060405180807f4d657869636f00000000000000000000000000000000000000000000000000008152506006019050908152602001604051809103902060006101000a81548160ff02191690831515021790555060018060405180807f4d6f726f63636f000000000000000000000000000000000000000000000000008152506007019050908152602001604051809103902060006101000a81548160ff02191690831515021790555060018060405180807f4e696765726961000000000000000000000000000000000000000000000000008152506007019050908152602001604051809103902060006101000a81548160ff02191690831515021790555060018060405180807f50616e616d6100000000000000000000000000000000000000000000000000008152506006019050908152602001604051809103902060006101000a81548160ff02191690831515021790555060018060405180807f50657275000000000000000000000000000000000000000000000000000000008152506004019050908152602001604051809103902060006101000a81548160ff02191690831515021790555060018060405180807f506f6c616e6400000000000000000000000000000000000000000000000000008152506006019050908152602001604051809103902060006101000a81548160ff02191690831515021790555060018060405180807f506f72747567616c0000000000000000000000000000000000000000000000008152506008019050908152602001604051809103902060006101000a81548160ff02191690831515021790555060018060405180807f52757373696100000000000000000000000000000000000000000000000000008152506006019050908152602001604051809103902060006101000a81548160ff02191690831515021790555060018060405180807f5361756469204172616269610000000000000000000000000000000000000000815250600c019050908152602001604051809103902060006101000a81548160ff02191690831515021790555060018060405180807f53656e6567616c000000000000000000000000000000000000000000000000008152506007019050908152602001604051809103902060006101000a81548160ff02191690831515021790555060018060405180807f53657276696100000000000000000000000000000000000000000000000000008152506006019050908152602001604051809103902060006101000a81548160ff02191690831515021790555060018060405180807f536f757468204b6f726561000000000000000000000000000000000000000000815250600b019050908152602001604051809103902060006101000a81548160ff02191690831515021790555060018060405180807f537061696e0000000000000000000000000000000000000000000000000000008152506005019050908152602001604051809103902060006101000a81548160ff02191690831515021790555060018060405180807f53776564656e00000000000000000000000000000000000000000000000000008152506006019050908152602001604051809103902060006101000a81548160ff02191690831515021790555060018060405180807f537769747a65726c616e64000000000000000000000000000000000000000000815250600b019050908152602001604051809103902060006101000a81548160ff02191690831515021790555060018060405180807f54756e69736961000000000000000000000000000000000000000000000000008152506007019050908152602001604051809103902060006101000a81548160ff02191690831515021790555060018060405180807f55727567756179000000000000000000000000000000000000000000000000008152506007019050908152602001604051809103902060006101000a81548160ff021916908315150217905550565b613c9c80610b3e6000396000f300608060405260043610610057576000357c0100000000000000000000000000000000000000000000000000000000900463ffffffff1680638da5cb5b1461005c578063c25edf5d146100b3578063f2fde38b14610170575b600080fd5b34801561006857600080fd5b506100716101b3565b604051808273ffffffffffffffffffffffffffffffffffffffff1673ffffffffffffffffffffffffffffffffffffffff16815260200191505060405180910390f35b3480156100bf57600080fd5b5061012e6004803603810190808035906020019082018035906020019190919293919293908035906020019082018035906020019190919293919293908035151590602001909291908035906020019092919080359060200190929190803590602001909291905050506101d8565b604051808273ffffffffffffffffffffffffffffffffffffffff1673ffffffffffffffffffffffffffffffffffffffff16815260200191505060405180910390f35b34801561017c57600080fd5b506101b1600480360381019080803573ffffffffffffffffffffffffffffffffffffffff1690602001909291905050506103c5565b005b6000809054906101000a900473ffffffffffffffffffffffffffffffffffffffff1681565b6000806000809054906101000a900473ffffffffffffffffffffffffffffffffffffffff1673ffffffffffffffffffffffffffffffffffffffff163373ffffffffffffffffffffffffffffffffffffffff1614151561023657600080fd5b6102a48a8a8080601f01602080910402602001604051908101604052809392919081815260200183838082843782019150505050505089898080601f01602080910402602001604051908101604052809392919081815260200183838082843782019150505050505061051a565b15156102af57600080fd5b42851115156102bd57600080fd5b89898989898989896102cd61062c565b8080602001806020018715151515815260200186815260200185815260200184815260200183810383528b8b828181526020019250808284378201915050838103825289898281815260200192508082843782019150509a5050505050505050505050604051809103906000f08015801561034c573d6000803e3d6000fd5b50905060028190806001815401808255809150509060018203906000526020600020016000909192909190916101000a81548173ffffffffffffffffffffffffffffffffffffffff021916908373ffffffffffffffffffffffffffffffffffffffff160217905550508091505098975050505050505050565b6000809054906101000a900473ffffffffffffffffffffffffffffffffffffffff1673ffffffffffffffffffffffffffffffffffffffff163373ffffffffffffffffffffffffffffffffffffffff1614151561042057600080fd5b600073ffffffffffffffffffffffffffffffffffffffff168173ffffffffffffffffffffffffffffffffffffffff161415151561045c57600080fd5b8073ffffffffffffffffffffffffffffffffffffffff166000809054906101000a900473ffffffffffffffffffffffffffffffffffffffff1673ffffffffffffffffffffffffffffffffffffffff167f8be0079c531659141344cd1fd0a4f28419497f9722a3daafe3b4186f6b6457e060405160405180910390a3806000806101000a81548173ffffffffffffffffffffffffffffffffffffffff021916908373ffffffffffffffffffffffffffffffffffffffff16021790555050565b6000600115156001846040518082805190602001908083835b6020831015156105585780518252602082019150602081019050602083039250610533565b6001836020036101000a038019825116818451168082178552505050505050905001915050908152602001604051809103902060009054906101000a900460ff1615151480156106245750600115156001836040518082805190602001908083835b6020831015156105df57805182526020820191506020810190506020830392506105ba565b6001836020036101000a038019825116818451168082178552505050505050905001915050908152602001604051809103902060009054906101000a900460ff161515145b905092915050565b6040516136348061063d83390190560060806040526000600860006101000a81548160ff021916908360058111156200002457fe5b02179055506000600c60006101000a81548160ff02191690831515021790555061012c600d55603c600e556000600f556000601060006101000a81548160ff021916908315150217905550604051620036343803806200363483398101806040528101908080518201929190602001805182019291906020018051906020019092919080519060200190929190805190602001909291908051906020019092919050505033600560006101000a81548173ffffffffffffffffffffffffffffffffffffffff021916908373ffffffffffffffffffffffffffffffffffffffff1602179055508560069080519060200190620001219291906200017e565b5084600790805190602001906200013a9291906200017e565b5083600860016101000a81548160ff0219169083151502179055506103848303600a8190555081600a540360098190555080600b819055505050505050506200022d565b828054600181600116156101000203166002900490600052602060002090601f016020900481019282601f10620001c157805160ff1916838001178555620001f2565b82800160010185558215620001f2579182015b82811115620001f1578251825591602001919060010190620001d4565b5b50905062000201919062000205565b5090565b6200022a91905b80821115620002265760008160009055506001016200020c565b5090565b90565b6133f7806200023d6000396000f300608060405260043610610175576000357c0100000000000000000000000000000000000000000000000000000000900463ffffffff168063059db9ca1461017a57806316f0115b146101b357806327dc297e146101de5780632ddbd13a1461025557806338bbfa501461028057806346ac20541461033d5780636273106a146103945780637299551f146103bf5780637d99dd78146103ea5780637e670b541461041557806381d01ed3146104405780638c9914d4146104d05780638da5cb5b146104fb578063934b495b14610552578063a5c93cae1461057d578063b1c9fe6e146105a8578063b4cc82eb146105e1578063c2a2747b1461060e578063c75fd3411461069e578063c80c975b146106b5578063d0821b0e146106cc578063d2ff19af14610707578063d430e3d71461075e578063de477c7f14610775578063dfbf53ae146107a5578063e41d9cb7146107de578063ea8a1af014610809578063f2fde38b14610820578063f8a8fd6d14610863575b600080fd5b34801561018657600080fd5b5061018f610885565b6040518082600281111561019f57fe5b60ff16815260200191505060405180910390f35b3480156101bf57600080fd5b506101c8610898565b6040518082815260200191505060405180910390f35b3480156101ea57600080fd5b506102536004803603810190808035600019169060200190929190803590602001908201803590602001908080601f016020809104026020016040519081016040528093929190818152602001838380828437820191505050505050919291929050505061089e565b005b34801561026157600080fd5b5061026a610bac565b6040518082815260200191505060405180910390f35b34801561028c57600080fd5b5061033b6004803603810190808035600019169060200190929190803590602001908201803590602001908080601f0160208091040260200160405190810160405280939291908181526020018383808284378201915050505050509192919290803590602001908201803590602001908080601f0160208091040260200160405190810160405280939291908181526020018383808284378201915050505050509192919290505050610bb2565b005b34801561034957600080fd5b5061037e600480360381019080803573ffffffffffffffffffffffffffffffffffffffff169060200190929190505050610bb7565b6040518082815260200191505060405180910390f35b3480156103a057600080fd5b506103a9610bcf565b6040518082815260200191505060405180910390f35b3480156103cb57600080fd5b506103d4610bd5565b6040518082815260200191505060405180910390f35b3480156103f657600080fd5b506103ff610bdb565b6040518082815260200191505060405180910390f35b34801561042157600080fd5b5061042a610be1565b6040518082815260200191505060405180910390f35b34801561044c57600080fd5b50610455610be7565b6040518080602001828103825283818151815260200191508051906020019080838360005b8381101561049557808201518184015260208101905061047a565b50505050905090810190601f1680156104c25780820380516001836020036101000a031916815260200191505b509250505060405180910390f35b3480156104dc57600080fd5b506104e5610c85565b6040518082815260200191505060405180910390f35b34801561050757600080fd5b50610510610c8b565b604051808273ffffffffffffffffffffffffffffffffffffffff1673ffffffffffffffffffffffffffffffffffffffff16815260200191505060405180910390f35b34801561055e57600080fd5b50610567610cb1565b6040518082815260200191505060405180910390f35b34801561058957600080fd5b50610592610cb7565b6040518082815260200191505060405180910390f35b3480156105b457600080fd5b506105bd610cbd565b604051808260058111156105cd57fe5b60ff16815260200191505060405180910390f35b3480156105ed57600080fd5b5061060c60048036038101908080359060200190929190505050610cd0565b005b34801561061a57600080fd5b50610623610d70565b6040518080602001828103825283818151815260200191508051906020019080838360005b83811015610663578082015181840152602081019050610648565b50505050905090810190601f1680156106905780820380516001836020036101000a031916815260200191505b509250505060405180910390f35b3480156106aa57600080fd5b506106b3610e0e565b005b3480156106c157600080fd5b506106ca610edb565b005b6106ed600480360381019080803560ff1690602001909291905050506110a8565b604051808215151515815260200191505060405180910390f35b34801561071357600080fd5b50610748600480360381019080803573ffffffffffffffffffffffffffffffffffffffff169060200190929190505050611641565b6040518082815260200191505060405180910390f35b34801561076a57600080fd5b50610773611659565b005b34801561078157600080fd5b506107a3600480360381019080803560ff169060200190929190505050611bb2565b005b3480156107b157600080fd5b506107ba611f2e565b604051808260028111156107ca57fe5b60ff16815260200191505060405180910390f35b3480156107ea57600080fd5b506107f3611f41565b6040518082815260200191505060405180910390f35b34801561081557600080fd5b5061081e611f47565b005b34801561082c57600080fd5b50610861600480360381019080803573ffffffffffffffffffffffffffffffffffffffff1690602001909291905050506121ef565b005b61086b612347565b604051808215151515815260200191505060405180910390f35b601060019054906101000a900460ff1681565b60115481565b60606108a8612355565b73ffffffffffffffffffffffffffffffffffffffff163373ffffffffffffffffffffffffffffffffffffffff161415156108e157600080fd5b819050600081511415156109f3576108f8826126b3565b601060016101000a81548160ff0219169083600281111561091557fe5b02179055506003600860006101000a81548160ff0219169083600581111561093957fe5b02179055507f99a572a5bfbfaf0cfbe2a05738e74e8c9e0fe1bd67e8ae6c9d671775b242823982600f54600d546040518080602001848152602001838152602001828103825285818151815260200191508051906020019080838360005b838110156109b2578082015181840152602081019050610997565b50505050905090810190601f1680156109df5780820380516001836020036101000a031916815260200191505b5094505050505060405180910390a1610ba7565b600d54600f541015610adb57610a156001600f546126bd90919063ffffffff16565b600f819055507f89625cca91eeec3f5e417d448631f0a31a66b85211fcece1ebf66292e6995b4582600f54600d546040518080602001848152602001838152602001828103825285818151815260200191508051906020019080838360005b83811015610a8f578082015181840152602081019050610a74565b50505050905090810190601f168015610abc5780820380516001836020036101000a031916815260200191505b5094505050505060405180910390a1610ad6600e54610cd0565b610ba6565b6005600860006101000a81548160ff02191690836005811115610afa57fe5b02179055507fe541b4f0e599859696632b45febeaa08da9d13440690feed224729a3e823821082600d546040518080602001838152602001828103825284818151815260200191508051906020019080838360005b83811015610b6a578082015181840152602081019050610b4f565b50505050905090810190601f168015610b975780820380516001836020036101000a031916815260200191505b50935050505060405180910390a15b5b505050565b60155481565b505050565b60146020528060005260406000206000915090505481565b60125481565b60175481565b60185481565b60165481565b60078054600181600116156101000203166002900480601f016020809104026020016040519081016040528092919081815260200182805460018160011615610100020316600290048015610c7d5780601f10610c5257610100808354040283529160200191610c7d565b820191906000526020600020905b815481529060010190602001808311610c6057829003601f168201915b505050505081565b600b5481565b600560009054906101000a900473ffffffffffffffffffffffffffffffffffffffff1681565b60095481565b60195481565b600860009054906101000a900460ff1681565b610d6c816040805190810160405280600381526020017f55524c0000000000000000000000000000000000000000000000000000000000815250606060405190810160405280602781526020017f6a736f6e2868747470733a2f2f574f524c444355505f55524c292e6d6174636881526020017f2e726573756c74000000000000000000000000000000000000000000000000008152506126db565b5050565b60068054600181600116156101000203166002900480601f016020809104026020016040519081016040528092919081815260200182805460018160011615610100020316600290048015610e065780601f10610ddb57610100808354040283529160200191610e06565b820191906000526020600020905b815481529060010190602001808311610de957829003601f168201915b505050505081565b6000600560009054906101000a900473ffffffffffffffffffffffffffffffffffffffff1673ffffffffffffffffffffffffffffffffffffffff163373ffffffffffffffffffffffffffffffffffffffff16141515610e6c57600080fd5b6249d40080600a54014210151515610e8357600080fd5b601254915060006012819055503373ffffffffffffffffffffffffffffffffffffffff166108fc839081150290604051600060405180830381858888f19350505050158015610ed6573d6000803e3d6000fd5b505050565b6000600580811115610ee957fe5b600860009054906101000a900460ff166005811115610f0457fe5b141515610f1057600080fd5b6249d40080600a540142101515610f2657600080fd5b601460003373ffffffffffffffffffffffffffffffffffffffff1673ffffffffffffffffffffffffffffffffffffffff16815260200190815260200160002054601360003373ffffffffffffffffffffffffffffffffffffffff1673ffffffffffffffffffffffffffffffffffffffff16815260200190815260200160002054019150600082111515610fb857600080fd5b6000601360003373ffffffffffffffffffffffffffffffffffffffff1673ffffffffffffffffffffffffffffffffffffffff168152602001908152602001600020819055506000601460003373ffffffffffffffffffffffffffffffffffffffff1673ffffffffffffffffffffffffffffffffffffffff1681526020019081526020016000208190555061105782601254612c7d90919063ffffffff16565b6012819055503373ffffffffffffffffffffffffffffffffffffffff166108fc839081150290604051600060405180830381858888f193505050501580156110a3573d6000803e3d6000fd5b505050565b60008060058111156110b657fe5b600860009054906101000a900460ff1660058111156110d157fe5b1480156110e057506009544210155b80156110ed5750600a5442105b1561126a576001600860006101000a81548160ff0219169083600581111561111157fe5b02179055507f3ced90e3557a635a9e84df8530d5fbacd36e7003f133e3b818949cc8bae9e3a860066007600a546040518080602001806020018481526020018381038352868181546001816001161561010002031660029004815260200191508054600181600116156101000203166002900480156111d15780601f106111a6576101008083540402835291602001916111d1565b820191906000526020600020905b8154815290600101906020018083116111b457829003601f168201915b50508381038252858181546001816001161561010002031660029004815260200191508054600181600116156101000203166002900480156112545780601f1061122957610100808354040283529160200191611254565b820191906000526020600020905b81548152906001019060200180831161123757829003601f168201915b50509550505050505060405180910390a1611441565b6001600581111561127757fe5b600860009054906101000a900460ff16600581111561129257fe5b14806112c35750600060058111156112a657fe5b600860009054906101000a900460ff1660058111156112c157fe5b145b80156112d15750600a544210155b15611440576002600860006101000a81548160ff021916908360058111156112f557fe5b02179055507f9fbf140f4490578e8b792fd42715a4736ecde3b30840bfb653d2dc5a1fc69264600660076040518080602001806020018381038352858181546001816001161561010002031660029004815260200191508054600181600116156101000203166002900480156113ac5780601f10611381576101008083540402835291602001916113ac565b820191906000526020600020905b81548152906001019060200180831161138f57829003601f168201915b505083810382528481815460018160011615610100020316600290048152602001915080546001816001161561010002031660029004801561142f5780601f106114045761010080835404028352916020019161142f565b820191906000526020600020905b81548152906001019060200180831161141257829003601f168201915b505094505050505060405180910390a15b5b6001600581111561144e57fe5b600860009054906101000a900460ff16600581111561146957fe5b14151561147557600080fd5b60018260ff16148061148a575060028260ff16145b151561149557600080fd5b6000341115156114a457600080fd5b60018260ff1614156115765761150234601360003373ffffffffffffffffffffffffffffffffffffffff1673ffffffffffffffffffffffffffffffffffffffff168152602001908152602001600020546126bd90919063ffffffff16565b601360003373ffffffffffffffffffffffffffffffffffffffff1673ffffffffffffffffffffffffffffffffffffffff16815260200190815260200160002081905550600160186000828254019250508190555061156b346016546126bd90919063ffffffff16565b601681905550611638565b6115c834601460003373ffffffffffffffffffffffffffffffffffffffff1673ffffffffffffffffffffffffffffffffffffffff168152602001908152602001600020546126bd90919063ffffffff16565b601460003373ffffffffffffffffffffffffffffffffffffffff1673ffffffffffffffffffffffffffffffffffffffff168152602001908152602001600020819055506001601960008282540192505081905550611631346017546126bd90919063ffffffff16565b6017819055505b60019050919050565b60136020528060005260406000206000915090505481565b60008060001515600c60009054906101000a900460ff1615151480156116855750611c20600a54014210155b156116b0576116946000610cd0565b6001600c60006101000a81548160ff0219169083151502179055505b600460058111156116bd57fe5b600860009054906101000a900460ff1660058111156116d857fe5b1415156116e457600080fd5b6249d40080600a5401421015156116fa57600080fd5b61170333612c96565b151561170e57600080fd5b611726601060029054906101000a900460ff16612d71565b151561173157600080fd5b6000600281111561173e57fe5b601060029054906101000a900460ff16600281111561175957fe5b1480156117a557506000601360003373ffffffffffffffffffffffffffffffffffffffff1673ffffffffffffffffffffffffffffffffffffffff16815260200190815260200160002054115b156118975761181960165461180b68056bc75e2d63100000601360003373ffffffffffffffffffffffffffffffffffffffff1673ffffffffffffffffffffffffffffffffffffffff16815260200190815260200160002054612e0b90919063ffffffff16565b612e4690919063ffffffff16565b925061184b68056bc75e2d6310000061183d85601254612e0b90919063ffffffff16565b612e4690919063ffffffff16565b91506000601360003373ffffffffffffffffffffffffffffffffffffffff1673ffffffffffffffffffffffffffffffffffffffff16815260200190815260200160002081905550611b4b565b600160028111156118a457fe5b601060029054906101000a900460ff1660028111156118bf57fe5b14801561190b57506000601460003373ffffffffffffffffffffffffffffffffffffffff1673ffffffffffffffffffffffffffffffffffffffff16815260200190815260200160002054115b156119fd5761197f60175461197168056bc75e2d63100000601460003373ffffffffffffffffffffffffffffffffffffffff1673ffffffffffffffffffffffffffffffffffffffff16815260200190815260200160002054612e0b90919063ffffffff16565b612e4690919063ffffffff16565b92506119b168056bc75e2d631000006119a385601254612e0b90919063ffffffff16565b612e4690919063ffffffff16565b91506000601460003373ffffffffffffffffffffffffffffffffffffffff1673ffffffffffffffffffffffffffffffffffffffff16815260200190815260200160002081905550611b4a565b600280811115611a0957fe5b601060029054906101000a900460ff166002811115611a2457fe5b148015611a365750611a3533612c96565b5b15611b4957601460003373ffffffffffffffffffffffffffffffffffffffff1673ffffffffffffffffffffffffffffffffffffffff16815260200190815260200160002054601360003373ffffffffffffffffffffffffffffffffffffffff1673ffffffffffffffffffffffffffffffffffffffff168152602001908152602001600020540191506000601360003373ffffffffffffffffffffffffffffffffffffffff1673ffffffffffffffffffffffffffffffffffffffff168152602001908152602001600020819055506000601460003373ffffffffffffffffffffffffffffffffffffffff1673ffffffffffffffffffffffffffffffffffffffff168152602001908152602001600020819055505b5b5b611b6082601254612c7d90919063ffffffff16565b6012819055503373ffffffffffffffffffffffffffffffffffffffff166108fc839081150290604051600060405180830381858888f19350505050158015611bac573d6000803e3d6000fd5b50505050565b6000600560009054906101000a900473ffffffffffffffffffffffffffffffffffffffff1673ffffffffffffffffffffffffffffffffffffffff163373ffffffffffffffffffffffffffffffffffffffff16141515611c1057600080fd5b600b5480600a54014210151515611c2657600080fd5b6003806005811115611c3457fe5b600860009054906101000a900460ff166005811115611c4f57fe5b141515611c5b57600080fd5b836002811115611c6757fe5b601060019054906101000a900460ff166002811115611c8257fe5b148015611c945750611c9384612d71565b5b15611f1f5783601060026101000a81548160ff02191690836002811115611cb757fe5b0217905550611cd36017546016546126bd90919063ffffffff16565b601181905550611d066103e8611cf8600160ff16601154612e0b90919063ffffffff16565b612e4690919063ffffffff16565b9250611d1d83601154612c7d90919063ffffffff16565b6012819055506004600860006101000a81548160ff02191690836005811115611d4257fe5b02179055507f7485716c2f853c8babeca53cf09d925920ca7d77b5bbdcec14f7213dc00619c360066007601060029054906101000a900460ff16604051808060200180602001846002811115611d9457fe5b60ff168152602001838103835286818154600181600116156101000203166002900481526020019150805460018160011615610100020316600290048015611e1d5780601f10611df257610100808354040283529160200191611e1d565b820191906000526020600020905b815481529060010190602001808311611e0057829003601f168201915b5050838103825285818154600181600116156101000203166002900481526020019150805460018160011615610100020316600290048015611ea05780601f10611e7557610100808354040283529160200191611ea0565b820191906000526020600020905b815481529060010190602001808311611e8357829003601f168201915b50509550505050505060405180910390a1600560009054906101000a900473ffffffffffffffffffffffffffffffffffffffff1673ffffffffffffffffffffffffffffffffffffffff166108fc849081150290604051600060405180830381858888f19350505050158015611f19573d6000803e3d6000fd5b50611f28565b611f27611f47565b5b50505050565b601060029054906101000a900460ff1681565b600a5481565b600560009054906101000a900473ffffffffffffffffffffffffffffffffffffffff1673ffffffffffffffffffffffffffffffffffffffff163373ffffffffffffffffffffffffffffffffffffffff16141515611fa357600080fd5b60006005811115611fb057fe5b600860009054906101000a900460ff166005811115611fcb57fe5b1480611ffc575060016005811115611fdf57fe5b600860009054906101000a900460ff166005811115611ffa57fe5b145b8061202c57506002600581111561200f57fe5b600860009054906101000a900460ff16600581111561202a57fe5b145b8061205c57506003600581111561203f57fe5b600860009054906101000a900460ff16600581111561205a57fe5b145b151561206757600080fd5b6005600860006101000a81548160ff0219169083600581111561208657fe5b02179055506120a26017546016546126bd90919063ffffffff16565b6012819055507fec8dc6335c2196b8a6d65cd542069150bf6373e8330640096a2074c2ba36df046006600760405180806020018060200183810383528581815460018160011615610100020316600290048152602001915080546001816001161561010002031660029004801561215a5780601f1061212f5761010080835404028352916020019161215a565b820191906000526020600020905b81548152906001019060200180831161213d57829003601f168201915b50508381038252848181546001816001161561010002031660029004815260200191508054600181600116156101000203166002900480156121dd5780601f106121b2576101008083540402835291602001916121dd565b820191906000526020600020905b8154815290600101906020018083116121c057829003601f168201915b505094505050505060405180910390a1565b600560009054906101000a900473ffffffffffffffffffffffffffffffffffffffff1673ffffffffffffffffffffffffffffffffffffffff163373ffffffffffffffffffffffffffffffffffffffff1614151561224b57600080fd5b600073ffffffffffffffffffffffffffffffffffffffff168173ffffffffffffffffffffffffffffffffffffffff161415151561228757600080fd5b8073ffffffffffffffffffffffffffffffffffffffff16600560009054906101000a900473ffffffffffffffffffffffffffffffffffffffff1673ffffffffffffffffffffffffffffffffffffffff167f8be0079c531659141344cd1fd0a4f28419497f9722a3daafe3b4186f6b6457e060405160405180910390a380600560006101000a81548173ffffffffffffffffffffffffffffffffffffffff021916908373ffffffffffffffffffffffffffffffffffffffff16021790555050565b600080349050600191505090565b6000806000809054906101000a900473ffffffffffffffffffffffffffffffffffffffff1673ffffffffffffffffffffffffffffffffffffffff1614806123c5575060006123c36000809054906101000a900473ffffffffffffffffffffffffffffffffffffffff16612e61565b145b156123d6576123d46000612e6c565b505b6000809054906101000a900473ffffffffffffffffffffffffffffffffffffffff1673ffffffffffffffffffffffffffffffffffffffff166338cc48316040518163ffffffff167c0100000000000000000000000000000000000000000000000000000000028152600401602060405180830381600087803b15801561245b57600080fd5b505af115801561246f573d6000803e3d6000fd5b505050506040513d602081101561248557600080fd5b810190808051906020019092919050505073ffffffffffffffffffffffffffffffffffffffff16600160009054906101000a900473ffffffffffffffffffffffffffffffffffffffff1673ffffffffffffffffffffffffffffffffffffffff161415156125ed576000809054906101000a900473ffffffffffffffffffffffffffffffffffffffff1673ffffffffffffffffffffffffffffffffffffffff166338cc48316040518163ffffffff167c0100000000000000000000000000000000000000000000000000000000028152600401602060405180830381600087803b15801561257157600080fd5b505af1158015612585573d6000803e3d6000fd5b505050506040513d602081101561259b57600080fd5b8101908080519060200190929190505050600160006101000a81548173ffffffffffffffffffffffffffffffffffffffff021916908373ffffffffffffffffffffffffffffffffffffffff1602179055505b600160009054906101000a900473ffffffffffffffffffffffffffffffffffffffff1673ffffffffffffffffffffffffffffffffffffffff1663c281d19e6040518163ffffffff167c0100000000000000000000000000000000000000000000000000000000028152600401602060405180830381600087803b15801561267357600080fd5b505af1158015612687573d6000803e3d6000fd5b505050506040513d602081101561269d57600080fd5b8101908080519060200190929190505050905090565b6000809050919050565b60008082840190508381101515156126d157fe5b8091505092915050565b60008060008060009054906101000a900473ffffffffffffffffffffffffffffffffffffffff1673ffffffffffffffffffffffffffffffffffffffff16148061274d5750600061274b6000809054906101000a900473ffffffffffffffffffffffffffffffffffffffff16612e61565b145b1561275e5761275c6000612e6c565b505b6000809054906101000a900473ffffffffffffffffffffffffffffffffffffffff1673ffffffffffffffffffffffffffffffffffffffff166338cc48316040518163ffffffff167c0100000000000000000000000000000000000000000000000000000000028152600401602060405180830381600087803b1580156127e357600080fd5b505af11580156127f7573d6000803e3d6000fd5b505050506040513d602081101561280d57600080fd5b810190808051906020019092919050505073ffffffffffffffffffffffffffffffffffffffff16600160009054906101000a900473ffffffffffffffffffffffffffffffffffffffff1673ffffffffffffffffffffffffffffffffffffffff16141515612975576000809054906101000a900473ffffffffffffffffffffffffffffffffffffffff1673ffffffffffffffffffffffffffffffffffffffff166338cc48316040518163ffffffff167c0100000000000000000000000000000000000000000000000000000000028152600401602060405180830381600087803b1580156128f957600080fd5b505af115801561290d573d6000803e3d6000fd5b505050506040513d602081101561292357600080fd5b8101908080519060200190929190505050600160006101000a81548173ffffffffffffffffffffffffffffffffffffffff021916908373ffffffffffffffffffffffffffffffffffffffff1602179055505b600160009054906101000a900473ffffffffffffffffffffffffffffffffffffffff1673ffffffffffffffffffffffffffffffffffffffff1663524f3889856040518263ffffffff167c01000000000000000000000000000000000000000000000000000000000281526004018080602001828103825283818151815260200191508051906020019080838360005b83811015612a1f578082015181840152602081019050612a04565b50505050905090810190601f168015612a4c5780820380516001836020036101000a031916815260200191505b5092505050602060405180830381600087803b158015612a6b57600080fd5b505af1158015612a7f573d6000803e3d6000fd5b505050506040513d6020811015612a9557600080fd5b8101908080519060200190929190505050905062030d403a02670de0b6b3a764000001811115612acb5760006001029150612c75565b600160009054906101000a900473ffffffffffffffffffffffffffffffffffffffff1673ffffffffffffffffffffffffffffffffffffffff1663adf59f99828787876040518563ffffffff167c0100000000000000000000000000000000000000000000000000000000028152600401808481526020018060200180602001838103835285818151815260200191508051906020019080838360005b83811015612b82578082015181840152602081019050612b67565b50505050905090810190601f168015612baf5780820380516001836020036101000a031916815260200191505b50838103825284818151815260200191508051906020019080838360005b83811015612be8578082015181840152602081019050612bcd565b50505050905090810190601f168015612c155780820380516001836020036101000a031916815260200191505b50955050505050506020604051808303818588803b158015612c3657600080fd5b505af1158015612c4a573d6000803e3d6000fd5b50505050506040513d6020811015612c6157600080fd5b810190808051906020019092919050505091505b509392505050565b6000828211151515612c8b57fe5b818303905092915050565b600060046005811115612ca557fe5b600860009054906101000a900460ff166005811115612cc057fe5b141515612ccc57600080fd5b6000601360008473ffffffffffffffffffffffffffffffffffffffff1673ffffffffffffffffffffffffffffffffffffffff168152602001908152602001600020541180612d5957506000601460008473ffffffffffffffffffffffffffffffffffffffff1673ffffffffffffffffffffffffffffffffffffffff16815260200190815260200160002054115b15612d675760019050612d6c565b600090505b919050565b6000806002811115612d7f57fe5b826002811115612d8b57fe5b1480612dad575060016002811115612d9f57fe5b826002811115612dab57fe5b145b15612dbb5760019050612e06565b60011515600860019054906101000a900460ff161515148015612df35750600280811115612de557fe5b826002811115612df157fe5b145b15612e015760019050612e06565b600090505b919050565b6000806000841415612e205760009150612e3f565b8284029050828482811515612e3157fe5b04141515612e3b57fe5b8091505b5092915050565b6000808284811515612e5457fe5b0490508091505092915050565b6000813b9050919050565b6000612e76612e7d565b9050919050565b600080612e9d731d3b2638a7cc9f2cb3d298a3da7a90b67e5506ed612e61565b1115612f3e57731d3b2638a7cc9f2cb3d298a3da7a90b67e5506ed6000806101000a81548173ffffffffffffffffffffffffffffffffffffffff021916908373ffffffffffffffffffffffffffffffffffffffff160217905550612f356040805190810160405280600b81526020017f6574685f6d61696e6e657400000000000000000000000000000000000000000081525061330c565b60019050613309565b6000612f5d73c03a2615d5efaf5f49f60b7bb6583eaec212fdf1612e61565b1115612ffe5773c03a2615d5efaf5f49f60b7bb6583eaec212fdf16000806101000a81548173ffffffffffffffffffffffffffffffffffffffff021916908373ffffffffffffffffffffffffffffffffffffffff160217905550612ff56040805190810160405280600c81526020017f6574685f726f707374656e33000000000000000000000000000000000000000081525061330c565b60019050613309565b600061301d73b7a07bcf2ba2f2703b24c0691b5278999c59ac7e612e61565b11156130be5773b7a07bcf2ba2f2703b24c0691b5278999c59ac7e6000806101000a81548173ffffffffffffffffffffffffffffffffffffffff021916908373ffffffffffffffffffffffffffffffffffffffff1602179055506130b56040805190810160405280600981526020017f6574685f6b6f76616e000000000000000000000000000000000000000000000081525061330c565b60019050613309565b60006130dd73146500cfd35b22e4a392fe0adc06de1a1368ed48612e61565b111561317e5773146500cfd35b22e4a392fe0adc06de1a1368ed486000806101000a81548173ffffffffffffffffffffffffffffffffffffffff021916908373ffffffffffffffffffffffffffffffffffffffff1602179055506131756040805190810160405280600b81526020017f6574685f72696e6b65627900000000000000000000000000000000000000000081525061330c565b60019050613309565b600061319d736f485c8bf6fc43ea212e93bbf8ce046c7f1cb475612e61565b111561320057736f485c8bf6fc43ea212e93bbf8ce046c7f1cb4756000806101000a81548173ffffffffffffffffffffffffffffffffffffffff021916908373ffffffffffffffffffffffffffffffffffffffff16021790555060019050613309565b600061321f7320e12a1f859b3feae5fb2a0a32c18f5a65555bbf612e61565b1115613282577320e12a1f859b3feae5fb2a0a32c18f5a65555bbf6000806101000a81548173ffffffffffffffffffffffffffffffffffffffff021916908373ffffffffffffffffffffffffffffffffffffffff16021790555060019050613309565b60006132a17351efaf4c8b3c9afbd5ab9f4bbc82784ab6ef8faa612e61565b1115613304577351efaf4c8b3c9afbd5ab9f4bbc82784ab6ef8faa6000806101000a81548173ffffffffffffffffffffffffffffffffffffffff021916908373ffffffffffffffffffffffffffffffffffffffff16021790555060019050613309565b600090505b90565b8060029080519060200190613322929190613326565b5050565b828054600181600116156101000203166002900490600052602060002090601f016020900481019282601f1061336757805160ff1916838001178555613395565b82800160010185558215613395579182015b82811115613394578251825591602001919060010190613379565b5b5090506133a291906133a6565b5090565b6133c891905b808211156133c45760008160009055506001016133ac565b5090565b905600a165627a7a723058208722db1c30fb86407d09ee52fca32bda45d11d8cf584b0524f9e6b90b947437f0029a165627a7a723058205d9e122738318ff48eb2760bcace609ad1e4055258d2e50e678580ce834bf8ff0029",
  "source": "pragma solidity ^0.4.23;\r\n\r\nimport './Bet.sol';\r\nimport 'zeppelin-solidity/contracts/ownership/Ownable.sol';\r\n\r\ncontract BetManager is Ownable {\r\n\r\n\tmapping(string => bool) players;\r\n\taddress[] bets;\r\n\r\n\tconstructor() public {\r\n\t\tinitPlayers();\r\n\t}\r\n\r\n\tfunction createBet(\r\n\t\tstring _p1,\r\n\t\tstring _p2,\r\n\t\tbool _drawAllowed,\r\n\t\tuint256 _matchStart,\r\n\t    uint256 _durationBetting,\r\n\t    uint256 _durationConfirmResult)\r\n\t\texternal onlyOwner returns (address)\r\n\t{\r\n\t    require(areValidPlayers(_p1, _p2));\r\n      \trequire(_matchStart > now);\r\n\r\n      \taddress betContract = new Bet(_p1, _p2, _drawAllowed, _matchStart, _durationBetting, _durationConfirmResult);\r\n      \tbets.push(betContract);\r\n\r\n      \treturn betContract;\r\n\t}\r\n\r\n\tfunction areValidPlayers(string p1, string p2) internal view returns (bool) {\r\n\t\treturn (players[p1] == true && players[p2] == true);\r\n\t}\r\n\r\n\tfunction initPlayers() private {\r\n\t\tplayers[\"Argentina\"] = true;\r\n\t\tplayers[\"Australia\"] = true;\r\n\t\tplayers[\"Belgium\"] = true;\r\n\t\tplayers[\"Brazil\"] = true;\r\n\t\tplayers[\"Colombia\"] = true;\r\n\t\tplayers[\"Costa Rica\"] = true;\r\n\t\tplayers[\"Croatia\"] = true;\r\n\t\tplayers[\"Denmark\"] = true;\r\n\t\tplayers[\"Egypt\"] = true;\r\n\t\tplayers[\"England\"] = true;\r\n\t\tplayers[\"France\"] = true;\r\n\t\tplayers[\"Germany\"] = true;\r\n\t\tplayers[\"Iceland\"] = true;\r\n\t\tplayers[\"Iran\"] = true;\r\n\t\tplayers[\"Japan\"] = true;\r\n\t\tplayers[\"Mexico\"] = true;\r\n\t\tplayers[\"Morocco\"] = true;\r\n\t\tplayers[\"Nigeria\"] = true;\r\n\t\tplayers[\"Panama\"] = true;\r\n\t\tplayers[\"Peru\"] = true;\r\n\t\tplayers[\"Poland\"] = true;\r\n\t\tplayers[\"Portugal\"] = true;\r\n\t\tplayers[\"Russia\"] = true;\r\n\t\tplayers[\"Saudi Arabia\"] = true;\r\n\t\tplayers[\"Senegal\"] = true;\r\n\t\tplayers[\"Servia\"] = true;\r\n\t\tplayers[\"South Korea\"] = true;\r\n\t\tplayers[\"Spain\"] = true;\r\n\t\tplayers[\"Sweden\"] = true;\r\n\t\tplayers[\"Switzerland\"] = true;\r\n\t\tplayers[\"Tunisia\"] = true;\r\n\t\tplayers[\"Uruguay\"] = true;\r\n\t}\r\n}",
  "sourcePath": "/home/mo/dev/worldcup-betting/contracts/BetManager.sol",
  "compiler": {
    "name": "solc",
    "version": "0.4.23+commit.124ca40d.Emscripten.clang"
  },
  "schemaVersion": "2.0.0",
  "updatedAt": "2018-04-29T22:23:52.076Z"
}